{
  "contractName": "ArianeeIssuerProxy",
  "abi": [
    {
      "inputs": [
        {
          "internalType": "address",
          "name": "_store",
          "type": "address"
        },
        {
          "internalType": "address",
          "name": "_smartAsset",
          "type": "address"
        },
        {
          "internalType": "address",
          "name": "_arianeeEvent",
          "type": "address"
        },
        {
          "internalType": "address",
          "name": "_arianeeLost",
          "type": "address"
        },
        {
          "internalType": "address",
          "name": "_verifier",
          "type": "address"
        },
        {
          "internalType": "address",
          "name": "_creditNotePool",
          "type": "address"
        },
        {
          "internalType": "address",
          "name": "_poseidon",
          "type": "address"
        },
        {
          "internalType": "address",
          "name": "_trustedForwarder",
          "type": "address"
        }
      ],
      "stateMutability": "nonpayable",
      "type": "constructor"
    },
    {
      "anonymous": false,
      "inputs": [
        {
          "indexed": false,
          "internalType": "address",
          "name": "sender",
          "type": "address"
        },
        {
          "indexed": false,
          "internalType": "uint256",
          "name": "creditType",
          "type": "uint256"
        }
      ],
      "name": "CreditFreeSenderLog",
      "type": "event"
    },
    {
      "anonymous": false,
      "inputs": [
        {
          "indexed": true,
          "internalType": "address",
          "name": "previousOwner",
          "type": "address"
        },
        {
          "indexed": true,
          "internalType": "address",
          "name": "newOwner",
          "type": "address"
        }
      ],
      "name": "OwnershipTransferStarted",
      "type": "event"
    },
    {
      "anonymous": false,
      "inputs": [
        {
          "indexed": true,
          "internalType": "address",
          "name": "previousOwner",
          "type": "address"
        },
        {
          "indexed": true,
          "internalType": "address",
          "name": "newOwner",
          "type": "address"
        }
      ],
      "name": "OwnershipTransferred",
      "type": "event"
    },
    {
      "anonymous": false,
      "inputs": [
        {
          "indexed": true,
          "internalType": "uint256",
          "name": "tokenId",
          "type": "uint256"
        },
        {
          "indexed": false,
          "internalType": "uint256",
          "name": "word",
          "type": "uint256"
        },
        {
          "indexed": false,
          "internalType": "uint256",
          "name": "mask",
          "type": "uint256"
        }
      ],
      "name": "UnorderedNonceInvalidation",
      "type": "event"
    },
    {
      "inputs": [],
      "name": "CREDIT_NOTE_PROOF_SIZE",
      "outputs": [
        {
          "internalType": "uint256",
          "name": "",
          "type": "uint256"
        }
      ],
      "stateMutability": "view",
      "type": "function"
    },
    {
      "inputs": [],
      "name": "CREDIT_TYPE_CERTIFICATE",
      "outputs": [
        {
          "internalType": "uint256",
          "name": "",
          "type": "uint256"
        }
      ],
      "stateMutability": "view",
      "type": "function"
    },
    {
      "inputs": [],
      "name": "CREDIT_TYPE_EVENT",
      "outputs": [
        {
          "internalType": "uint256",
          "name": "",
          "type": "uint256"
        }
      ],
      "stateMutability": "view",
      "type": "function"
    },
    {
      "inputs": [],
      "name": "CREDIT_TYPE_MESSAGE",
      "outputs": [
        {
          "internalType": "uint256",
          "name": "",
          "type": "uint256"
        }
      ],
      "stateMutability": "view",
      "type": "function"
    },
    {
      "inputs": [],
      "name": "CREDIT_TYPE_UPDATE",
      "outputs": [
        {
          "internalType": "uint256",
          "name": "",
          "type": "uint256"
        }
      ],
      "stateMutability": "view",
      "type": "function"
    },
    {
      "inputs": [],
      "name": "OWNERSHIP_PROOF_SIZE",
      "outputs": [
        {
          "internalType": "uint256",
          "name": "",
          "type": "uint256"
        }
      ],
      "stateMutability": "view",
      "type": "function"
    },
    {
      "inputs": [],
      "name": "SELECTOR_SIZE",
      "outputs": [
        {
          "internalType": "uint256",
          "name": "",
          "type": "uint256"
        }
      ],
      "stateMutability": "view",
      "type": "function"
    },
    {
      "inputs": [],
      "name": "acceptOwnership",
      "outputs": [],
      "stateMutability": "nonpayable",
      "type": "function"
    },
    {
      "inputs": [],
      "name": "arianeeEvent",
      "outputs": [
        {
          "internalType": "contract IArianeeEvent",
          "name": "",
          "type": "address"
        }
      ],
      "stateMutability": "view",
      "type": "function"
    },
    {
      "inputs": [],
      "name": "arianeeLost",
      "outputs": [
        {
          "internalType": "contract IArianeeLost",
          "name": "",
          "type": "address"
        }
      ],
      "stateMutability": "view",
      "type": "function"
    },
    {
      "inputs": [
        {
          "internalType": "uint256",
          "name": "tokenId",
          "type": "uint256"
        }
      ],
      "name": "commitmentHashes",
      "outputs": [
        {
          "internalType": "uint256",
          "name": "",
          "type": "uint256"
        }
      ],
      "stateMutability": "view",
      "type": "function"
    },
    {
      "inputs": [
        {
          "internalType": "address",
          "name": "",
          "type": "address"
        }
      ],
      "name": "creditFreeSenders",
      "outputs": [
        {
          "internalType": "bool",
          "name": "",
          "type": "bool"
        }
      ],
      "stateMutability": "view",
      "type": "function"
    },
    {
      "inputs": [
        {
          "internalType": "address",
          "name": "",
          "type": "address"
        }
      ],
      "name": "creditNotePools",
      "outputs": [
        {
          "internalType": "bool",
          "name": "",
          "type": "bool"
        }
      ],
      "stateMutability": "view",
      "type": "function"
    },
    {
      "inputs": [],
      "name": "getTrustedForwarder",
      "outputs": [
        {
          "internalType": "address",
          "name": "forwarder",
          "type": "address"
        }
      ],
      "stateMutability": "view",
      "type": "function"
    },
    {
      "inputs": [
        {
          "internalType": "address",
          "name": "forwarder",
          "type": "address"
        }
      ],
      "name": "isTrustedForwarder",
      "outputs": [
        {
          "internalType": "bool",
          "name": "",
          "type": "bool"
        }
      ],
      "stateMutability": "view",
      "type": "function"
    },
    {
      "inputs": [
        {
          "internalType": "uint256",
          "name": "",
          "type": "uint256"
        },
        {
          "internalType": "uint256",
          "name": "",
          "type": "uint256"
        }
      ],
      "name": "nonceBitmap",
      "outputs": [
        {
          "internalType": "uint256",
          "name": "",
          "type": "uint256"
        }
      ],
      "stateMutability": "view",
      "type": "function"
    },
    {
      "inputs": [],
      "name": "owner",
      "outputs": [
        {
          "internalType": "address",
          "name": "",
          "type": "address"
        }
      ],
      "stateMutability": "view",
      "type": "function"
    },
    {
      "inputs": [],
      "name": "pendingOwner",
      "outputs": [
        {
          "internalType": "address",
          "name": "",
          "type": "address"
        }
      ],
      "stateMutability": "view",
      "type": "function"
    },
    {
      "inputs": [],
      "name": "poseidon",
      "outputs": [
        {
          "internalType": "contract IPoseidon",
          "name": "",
          "type": "address"
        }
      ],
      "stateMutability": "view",
      "type": "function"
    },
    {
      "inputs": [],
      "name": "renounceOwnership",
      "outputs": [],
      "stateMutability": "nonpayable",
      "type": "function"
    },
    {
      "inputs": [],
      "name": "smartAsset",
      "outputs": [
        {
          "internalType": "contract IArianeeSmartAsset",
          "name": "",
          "type": "address"
        }
      ],
      "stateMutability": "view",
      "type": "function"
    },
    {
      "inputs": [],
      "name": "store",
      "outputs": [
        {
          "internalType": "contract IArianeeStore",
          "name": "",
          "type": "address"
        }
      ],
      "stateMutability": "view",
      "type": "function"
    },
    {
      "inputs": [
        {
          "internalType": "address",
          "name": "newOwner",
          "type": "address"
        }
      ],
      "name": "transferOwnership",
      "outputs": [],
      "stateMutability": "nonpayable",
      "type": "function"
    },
    {
      "inputs": [],
      "name": "verifier",
      "outputs": [
        {
          "internalType": "contract IOwnershipVerifier",
          "name": "",
          "type": "address"
        }
      ],
      "stateMutability": "view",
      "type": "function"
    },
    {
      "inputs": [
        {
          "internalType": "address",
          "name": "_creditNotePool",
          "type": "address"
        }
      ],
      "name": "addCreditNotePool",
      "outputs": [],
      "stateMutability": "nonpayable",
      "type": "function"
    },
    {
      "inputs": [
        {
          "internalType": "address",
          "name": "_sender",
          "type": "address"
        }
      ],
      "name": "addCreditFreeSender",
      "outputs": [],
      "stateMutability": "nonpayable",
      "type": "function"
    },
    {
      "inputs": [
        {
          "internalType": "address",
          "name": "_sender",
          "type": "address"
        }
      ],
      "name": "removeCreditFreeSender",
      "outputs": [],
      "stateMutability": "nonpayable",
      "type": "function"
    },
    {
      "inputs": [
        {
          "internalType": "uint256",
          "name": "_commitmentHash",
          "type": "uint256"
        },
        {
          "internalType": "uint256",
          "name": "_tokenId",
          "type": "uint256"
        }
      ],
      "name": "reserveToken",
      "outputs": [],
      "stateMutability": "nonpayable",
      "type": "function"
    },
    {
      "inputs": [
        {
          "components": [
            {
              "internalType": "uint256[2]",
              "name": "_pA",
              "type": "uint256[2]"
            },
            {
              "internalType": "uint256[2][2]",
              "name": "_pB",
              "type": "uint256[2][2]"
            },
            {
              "internalType": "uint256[2]",
              "name": "_pC",
              "type": "uint256[2]"
            },
            {
              "internalType": "uint256[3]",
              "name": "_pubSignals",
              "type": "uint256[3]"
            }
          ],
          "internalType": "struct ArianeeIssuerProxy.OwnershipProof",
          "name": "_ownershipProof",
          "type": "tuple"
        },
        {
          "internalType": "uint256",
          "name": "_commitmentHash",
          "type": "uint256"
        },
        {
          "internalType": "uint256",
          "name": "_tokenId",
          "type": "uint256"
        },
        {
          "internalType": "bytes32",
          "name": "_imprint",
          "type": "bytes32"
        },
        {
          "internalType": "string",
          "name": "_uri",
          "type": "string"
        },
        {
          "internalType": "address",
          "name": "_encryptedInitialKey",
          "type": "address"
        },
        {
          "internalType": "uint256",
          "name": "_tokenRecoveryTimestamp",
          "type": "uint256"
        },
        {
          "internalType": "bool",
          "name": "_initialKeyIsRequestKey",
          "type": "bool"
        },
        {
          "internalType": "address",
          "name": "_interfaceProvider",
          "type": "address"
        }
      ],
      "name": "hydrateToken",
      "outputs": [],
      "stateMutability": "nonpayable",
      "type": "function"
    },
    {
      "inputs": [
        {
          "components": [
            {
              "internalType": "uint256[2]",
              "name": "_pA",
              "type": "uint256[2]"
            },
            {
              "internalType": "uint256[2][2]",
              "name": "_pB",
              "type": "uint256[2][2]"
            },
            {
              "internalType": "uint256[2]",
              "name": "_pC",
              "type": "uint256[2]"
            },
            {
              "internalType": "uint256[3]",
              "name": "_pubSignals",
              "type": "uint256[3]"
            }
          ],
          "internalType": "struct ArianeeIssuerProxy.OwnershipProof",
          "name": "_ownershipProof",
          "type": "tuple"
        },
        {
          "internalType": "uint256",
          "name": "_tokenId",
          "type": "uint256"
        },
        {
          "internalType": "uint256",
          "name": "_wordPos",
          "type": "uint256"
        },
        {
          "internalType": "uint256",
          "name": "_mask",
          "type": "uint256"
        }
      ],
      "name": "invalidateUnorderedNonces",
      "outputs": [],
      "stateMutability": "nonpayable",
      "type": "function"
    },
    {
      "inputs": [
        {
          "components": [
            {
              "internalType": "uint256[2]",
              "name": "_pA",
              "type": "uint256[2]"
            },
            {
              "internalType": "uint256[2][2]",
              "name": "_pB",
              "type": "uint256[2][2]"
            },
            {
              "internalType": "uint256[2]",
              "name": "_pC",
              "type": "uint256[2]"
            },
            {
              "internalType": "uint256[3]",
              "name": "_pubSignals",
              "type": "uint256[3]"
            }
          ],
          "internalType": "struct ArianeeIssuerProxy.OwnershipProof",
          "name": "_ownershipProof",
          "type": "tuple"
        },
        {
          "internalType": "uint256",
          "name": "_tokenId",
          "type": "uint256"
        },
        {
          "internalType": "address",
          "name": "_key",
          "type": "address"
        },
        {
          "internalType": "bool",
          "name": "_enable",
          "type": "bool"
        },
        {
          "internalType": "uint256",
          "name": "_tokenType",
          "type": "uint256"
        }
      ],
      "name": "addTokenAccess",
      "outputs": [],
      "stateMutability": "nonpayable",
      "type": "function"
    },
    {
      "inputs": [
        {
          "components": [
            {
              "internalType": "uint256[2]",
              "name": "_pA",
              "type": "uint256[2]"
            },
            {
              "internalType": "uint256[2][2]",
              "name": "_pB",
              "type": "uint256[2][2]"
            },
            {
              "internalType": "uint256[2]",
              "name": "_pC",
              "type": "uint256[2]"
            },
            {
              "internalType": "uint256[3]",
              "name": "_pubSignals",
              "type": "uint256[3]"
            }
          ],
          "internalType": "struct ArianeeIssuerProxy.OwnershipProof",
          "name": "_ownershipProof",
          "type": "tuple"
        },
        {
          "internalType": "uint256",
          "name": "_tokenId",
          "type": "uint256"
        }
      ],
      "name": "recoverTokenToIssuer",
      "outputs": [],
      "stateMutability": "nonpayable",
      "type": "function"
    },
    {
      "inputs": [
        {
          "components": [
            {
              "internalType": "uint256[2]",
              "name": "_pA",
              "type": "uint256[2]"
            },
            {
              "internalType": "uint256[2][2]",
              "name": "_pB",
              "type": "uint256[2][2]"
            },
            {
              "internalType": "uint256[2]",
              "name": "_pC",
              "type": "uint256[2]"
            },
            {
              "internalType": "uint256[3]",
              "name": "_pubSignals",
              "type": "uint256[3]"
            }
          ],
          "internalType": "struct ArianeeIssuerProxy.OwnershipProof",
          "name": "_ownershipProof",
          "type": "tuple"
        },
        {
          "internalType": "uint256",
          "name": "_tokenId",
          "type": "uint256"
        },
        {
          "internalType": "bool",
          "name": "_active",
          "type": "bool"
        }
      ],
      "name": "updateRecoveryRequest",
      "outputs": [],
      "stateMutability": "nonpayable",
      "type": "function"
    },
    {
      "inputs": [
        {
          "components": [
            {
              "internalType": "uint256[2]",
              "name": "_pA",
              "type": "uint256[2]"
            },
            {
              "internalType": "uint256[2][2]",
              "name": "_pB",
              "type": "uint256[2][2]"
            },
            {
              "internalType": "uint256[2]",
              "name": "_pC",
              "type": "uint256[2]"
            },
            {
              "internalType": "uint256[3]",
              "name": "_pubSignals",
              "type": "uint256[3]"
            }
          ],
          "internalType": "struct ArianeeIssuerProxy.OwnershipProof",
          "name": "_ownershipProof",
          "type": "tuple"
        },
        {
          "internalType": "uint256",
          "name": "_tokenId",
          "type": "uint256"
        }
      ],
      "name": "destroy",
      "outputs": [],
      "stateMutability": "nonpayable",
      "type": "function"
    },
    {
      "inputs": [
        {
          "components": [
            {
              "internalType": "uint256[2]",
              "name": "_pA",
              "type": "uint256[2]"
            },
            {
              "internalType": "uint256[2][2]",
              "name": "_pB",
              "type": "uint256[2][2]"
            },
            {
              "internalType": "uint256[2]",
              "name": "_pC",
              "type": "uint256[2]"
            },
            {
              "internalType": "uint256[3]",
              "name": "_pubSignals",
              "type": "uint256[3]"
            }
          ],
          "internalType": "struct ArianeeIssuerProxy.OwnershipProof",
          "name": "_ownershipProof",
          "type": "tuple"
        },
        {
          "internalType": "uint256",
          "name": "_tokenId",
          "type": "uint256"
        },
        {
          "internalType": "string",
          "name": "_uri",
          "type": "string"
        }
      ],
      "name": "updateTokenURI",
      "outputs": [],
      "stateMutability": "nonpayable",
      "type": "function"
    },
    {
      "inputs": [
        {
          "components": [
            {
              "internalType": "uint256[2]",
              "name": "_pA",
              "type": "uint256[2]"
            },
            {
              "internalType": "uint256[2][2]",
              "name": "_pB",
              "type": "uint256[2][2]"
            },
            {
              "internalType": "uint256[2]",
              "name": "_pC",
              "type": "uint256[2]"
            },
            {
              "internalType": "uint256[3]",
              "name": "_pubSignals",
              "type": "uint256[3]"
            }
          ],
          "internalType": "struct ArianeeIssuerProxy.OwnershipProof",
          "name": "_ownershipProof",
          "type": "tuple"
        },
        {
          "internalType": "address",
          "name": "_from",
          "type": "address"
        },
        {
          "internalType": "address",
          "name": "_to",
          "type": "address"
        },
        {
          "internalType": "uint256",
          "name": "_tokenId",
          "type": "uint256"
        },
        {
          "internalType": "bytes",
          "name": "_data",
          "type": "bytes"
        }
      ],
      "name": "safeTransferFrom",
      "outputs": [],
      "stateMutability": "nonpayable",
      "type": "function"
    },
    {
      "inputs": [
        {
          "components": [
            {
              "internalType": "uint256[2]",
              "name": "_pA",
              "type": "uint256[2]"
            },
            {
              "internalType": "uint256[2][2]",
              "name": "_pB",
              "type": "uint256[2][2]"
            },
            {
              "internalType": "uint256[2]",
              "name": "_pC",
              "type": "uint256[2]"
            },
            {
              "internalType": "uint256[3]",
              "name": "_pubSignals",
              "type": "uint256[3]"
            }
          ],
          "internalType": "struct ArianeeIssuerProxy.OwnershipProof",
          "name": "_ownershipProof",
          "type": "tuple"
        },
        {
          "internalType": "address",
          "name": "_from",
          "type": "address"
        },
        {
          "internalType": "address",
          "name": "_to",
          "type": "address"
        },
        {
          "internalType": "uint256",
          "name": "_tokenId",
          "type": "uint256"
        }
      ],
      "name": "transferFrom",
      "outputs": [],
      "stateMutability": "nonpayable",
      "type": "function"
    },
    {
      "inputs": [
        {
          "components": [
            {
              "internalType": "uint256[2]",
              "name": "_pA",
              "type": "uint256[2]"
            },
            {
              "internalType": "uint256[2][2]",
              "name": "_pB",
              "type": "uint256[2][2]"
            },
            {
              "internalType": "uint256[2]",
              "name": "_pC",
              "type": "uint256[2]"
            },
            {
              "internalType": "uint256[3]",
              "name": "_pubSignals",
              "type": "uint256[3]"
            }
          ],
          "internalType": "struct ArianeeIssuerProxy.OwnershipProof",
          "name": "_ownershipProof",
          "type": "tuple"
        },
        {
          "internalType": "address",
          "name": "_approved",
          "type": "address"
        },
        {
          "internalType": "uint256",
          "name": "_tokenId",
          "type": "uint256"
        }
      ],
      "name": "approve",
      "outputs": [],
      "stateMutability": "nonpayable",
      "type": "function"
    },
    {
      "inputs": [
        {
          "components": [
            {
              "internalType": "uint256[2]",
              "name": "_pA",
              "type": "uint256[2]"
            },
            {
              "internalType": "uint256[2][2]",
              "name": "_pB",
              "type": "uint256[2][2]"
            },
            {
              "internalType": "uint256[2]",
              "name": "_pC",
              "type": "uint256[2]"
            },
            {
              "internalType": "uint256[3]",
              "name": "_pubSignals",
              "type": "uint256[3]"
            }
          ],
          "internalType": "struct ArianeeIssuerProxy.OwnershipProof",
          "name": "_ownershipProof",
          "type": "tuple"
        },
        {
          "components": [
            {
              "internalType": "uint256[2]",
              "name": "_pA",
              "type": "uint256[2]"
            },
            {
              "internalType": "uint256[2][2]",
              "name": "_pB",
              "type": "uint256[2][2]"
            },
            {
              "internalType": "uint256[2]",
              "name": "_pC",
              "type": "uint256[2]"
            },
            {
              "internalType": "uint256[5]",
              "name": "_pubSignals",
              "type": "uint256[5]"
            }
          ],
          "internalType": "struct CreditNoteProof",
          "name": "_creditNoteProof",
          "type": "tuple"
        },
        {
          "internalType": "address",
          "name": "_creditNotePool",
          "type": "address"
        },
        {
          "internalType": "uint256",
          "name": "_tokenId",
          "type": "uint256"
        },
        {
          "internalType": "bytes32",
          "name": "_imprint",
          "type": "bytes32"
        },
        {
          "internalType": "address",
          "name": "_interfaceProvider",
          "type": "address"
        }
      ],
      "name": "updateSmartAsset",
      "outputs": [],
      "stateMutability": "nonpayable",
      "type": "function"
    },
    {
      "inputs": [
        {
          "components": [
            {
              "internalType": "uint256[2]",
              "name": "_pA",
              "type": "uint256[2]"
            },
            {
              "internalType": "uint256[2][2]",
              "name": "_pB",
              "type": "uint256[2][2]"
            },
            {
              "internalType": "uint256[2]",
              "name": "_pC",
              "type": "uint256[2]"
            },
            {
              "internalType": "uint256[3]",
              "name": "_pubSignals",
              "type": "uint256[3]"
            }
          ],
          "internalType": "struct ArianeeIssuerProxy.OwnershipProof",
          "name": "_ownershipProof",
          "type": "tuple"
        },
        {
          "components": [
            {
              "internalType": "uint256[2]",
              "name": "_pA",
              "type": "uint256[2]"
            },
            {
              "internalType": "uint256[2][2]",
              "name": "_pB",
              "type": "uint256[2][2]"
            },
            {
              "internalType": "uint256[2]",
              "name": "_pC",
              "type": "uint256[2]"
            },
            {
              "internalType": "uint256[5]",
              "name": "_pubSignals",
              "type": "uint256[5]"
            }
          ],
          "internalType": "struct CreditNoteProof",
          "name": "_creditNoteProof",
          "type": "tuple"
        },
        {
          "internalType": "address",
          "name": "_creditNotePool",
          "type": "address"
        },
        {
          "internalType": "uint256",
          "name": "_tokenId",
          "type": "uint256"
        },
        {
          "internalType": "uint256",
          "name": "_eventId",
          "type": "uint256"
        },
        {
          "internalType": "bytes32",
          "name": "_imprint",
          "type": "bytes32"
        },
        {
          "internalType": "string",
          "name": "_uri",
          "type": "string"
        },
        {
          "internalType": "address",
          "name": "_interfaceProvider",
          "type": "address"
        }
      ],
      "name": "createEvent",
      "outputs": [],
      "stateMutability": "nonpayable",
      "type": "function"
    },
    {
      "inputs": [
        {
          "components": [
            {
              "internalType": "uint256[2]",
              "name": "_pA",
              "type": "uint256[2]"
            },
            {
              "internalType": "uint256[2][2]",
              "name": "_pB",
              "type": "uint256[2][2]"
            },
            {
              "internalType": "uint256[2]",
              "name": "_pC",
              "type": "uint256[2]"
            },
            {
              "internalType": "uint256[3]",
              "name": "_pubSignals",
              "type": "uint256[3]"
            }
          ],
          "internalType": "struct ArianeeIssuerProxy.OwnershipProof",
          "name": "_ownershipProof",
          "type": "tuple"
        },
        {
          "internalType": "uint256",
          "name": "_eventId",
          "type": "uint256"
        },
        {
          "internalType": "address",
          "name": "_interfaceProvider",
          "type": "address"
        }
      ],
      "name": "acceptEvent",
      "outputs": [],
      "stateMutability": "nonpayable",
      "type": "function"
    },
    {
      "inputs": [
        {
          "components": [
            {
              "internalType": "uint256[2]",
              "name": "_pA",
              "type": "uint256[2]"
            },
            {
              "internalType": "uint256[2][2]",
              "name": "_pB",
              "type": "uint256[2][2]"
            },
            {
              "internalType": "uint256[2]",
              "name": "_pC",
              "type": "uint256[2]"
            },
            {
              "internalType": "uint256[3]",
              "name": "_pubSignals",
              "type": "uint256[3]"
            }
          ],
          "internalType": "struct ArianeeIssuerProxy.OwnershipProof",
          "name": "_ownershipProof",
          "type": "tuple"
        },
        {
          "internalType": "uint256",
          "name": "_eventId",
          "type": "uint256"
        }
      ],
      "name": "destroyEvent",
      "outputs": [],
      "stateMutability": "nonpayable",
      "type": "function"
    },
    {
      "inputs": [
        {
          "components": [
            {
              "internalType": "uint256[2]",
              "name": "_pA",
              "type": "uint256[2]"
            },
            {
              "internalType": "uint256[2][2]",
              "name": "_pB",
              "type": "uint256[2][2]"
            },
            {
              "internalType": "uint256[2]",
              "name": "_pC",
              "type": "uint256[2]"
            },
            {
              "internalType": "uint256[3]",
              "name": "_pubSignals",
              "type": "uint256[3]"
            }
          ],
          "internalType": "struct ArianeeIssuerProxy.OwnershipProof",
          "name": "_ownershipProof",
          "type": "tuple"
        },
        {
          "internalType": "uint256",
          "name": "_eventId",
          "type": "uint256"
        },
        {
          "internalType": "bool",
          "name": "_active",
          "type": "bool"
        }
      ],
      "name": "updateDestroyEventRequest",
      "outputs": [],
      "stateMutability": "nonpayable",
      "type": "function"
    },
    {
      "inputs": [
        {
          "components": [
            {
              "internalType": "uint256[2]",
              "name": "_pA",
              "type": "uint256[2]"
            },
            {
              "internalType": "uint256[2][2]",
              "name": "_pB",
              "type": "uint256[2][2]"
            },
            {
              "internalType": "uint256[2]",
              "name": "_pC",
              "type": "uint256[2]"
            },
            {
              "internalType": "uint256[3]",
              "name": "_pubSignals",
              "type": "uint256[3]"
            }
          ],
          "internalType": "struct ArianeeIssuerProxy.OwnershipProof",
          "name": "_ownershipProof",
          "type": "tuple"
        },
        {
          "components": [
            {
              "internalType": "uint256[2]",
              "name": "_pA",
              "type": "uint256[2]"
            },
            {
              "internalType": "uint256[2][2]",
              "name": "_pB",
              "type": "uint256[2][2]"
            },
            {
              "internalType": "uint256[2]",
              "name": "_pC",
              "type": "uint256[2]"
            },
            {
              "internalType": "uint256[5]",
              "name": "_pubSignals",
              "type": "uint256[5]"
            }
          ],
          "internalType": "struct CreditNoteProof",
          "name": "_creditNoteProof",
          "type": "tuple"
        },
        {
          "internalType": "address",
          "name": "_creditNotePool",
          "type": "address"
        },
        {
          "internalType": "uint256",
          "name": "_messageId",
          "type": "uint256"
        },
        {
          "internalType": "uint256",
          "name": "_tokenId",
          "type": "uint256"
        },
        {
          "internalType": "bytes32",
          "name": "_imprint",
          "type": "bytes32"
        }
      ],
      "name": "createMessage",
      "outputs": [],
      "stateMutability": "nonpayable",
      "type": "function"
    },
    {
      "inputs": [
        {
          "components": [
            {
              "internalType": "uint256[2]",
              "name": "_pA",
              "type": "uint256[2]"
            },
            {
              "internalType": "uint256[2][2]",
              "name": "_pB",
              "type": "uint256[2][2]"
            },
            {
              "internalType": "uint256[2]",
              "name": "_pC",
              "type": "uint256[2]"
            },
            {
              "internalType": "uint256[3]",
              "name": "_pubSignals",
              "type": "uint256[3]"
            }
          ],
          "internalType": "struct ArianeeIssuerProxy.OwnershipProof",
          "name": "_ownershipProof",
          "type": "tuple"
        },
        {
          "internalType": "uint256",
          "name": "_tokenId",
          "type": "uint256"
        }
      ],
      "name": "setStolenStatus",
      "outputs": [],
      "stateMutability": "nonpayable",
      "type": "function"
    },
    {
      "inputs": [
        {
          "components": [
            {
              "internalType": "uint256[2]",
              "name": "_pA",
              "type": "uint256[2]"
            },
            {
              "internalType": "uint256[2][2]",
              "name": "_pB",
              "type": "uint256[2][2]"
            },
            {
              "internalType": "uint256[2]",
              "name": "_pC",
              "type": "uint256[2]"
            },
            {
              "internalType": "uint256[3]",
              "name": "_pubSignals",
              "type": "uint256[3]"
            }
          ],
          "internalType": "struct ArianeeIssuerProxy.OwnershipProof",
          "name": "_ownershipProof",
          "type": "tuple"
        },
        {
          "internalType": "uint256",
          "name": "_tokenId",
          "type": "uint256"
        }
      ],
      "name": "setMissingStatus",
      "outputs": [],
      "stateMutability": "nonpayable",
      "type": "function"
    },
    {
      "inputs": [
        {
          "components": [
            {
              "internalType": "uint256[2]",
              "name": "_pA",
              "type": "uint256[2]"
            },
            {
              "internalType": "uint256[2][2]",
              "name": "_pB",
              "type": "uint256[2][2]"
            },
            {
              "internalType": "uint256[2]",
              "name": "_pC",
              "type": "uint256[2]"
            },
            {
              "internalType": "uint256[3]",
              "name": "_pubSignals",
              "type": "uint256[3]"
            }
          ],
          "internalType": "struct ArianeeIssuerProxy.OwnershipProof",
          "name": "_ownershipProof",
          "type": "tuple"
        },
        {
          "internalType": "uint256",
          "name": "_tokenId",
          "type": "uint256"
        },
        {
          "internalType": "uint256",
          "name": "_newCommitmentHash",
          "type": "uint256"
        }
      ],
      "name": "updateCommitment",
      "outputs": [],
      "stateMutability": "nonpayable",
      "type": "function"
    },
    {
      "inputs": [
        {
          "components": [
            {
              "internalType": "uint256[2]",
              "name": "_pA",
              "type": "uint256[2]"
            },
            {
              "internalType": "uint256[2][2]",
              "name": "_pB",
              "type": "uint256[2][2]"
            },
            {
              "internalType": "uint256[2]",
              "name": "_pC",
              "type": "uint256[2]"
            },
            {
              "internalType": "uint256[3]",
              "name": "_pubSignals",
              "type": "uint256[3]"
            }
          ],
          "internalType": "struct ArianeeIssuerProxy.OwnershipProof[]",
          "name": "_ownershipProofs",
          "type": "tuple[]"
        },
        {
          "internalType": "uint256[]",
          "name": "_tokenIds",
          "type": "uint256[]"
        },
        {
          "internalType": "uint256[]",
          "name": "_newCommitmentHashes",
          "type": "uint256[]"
        }
      ],
      "name": "updateCommitmentBatch",
      "outputs": [],
      "stateMutability": "nonpayable",
      "type": "function"
    },
    {
      "inputs": [
        {
          "components": [
            {
              "internalType": "uint256[2]",
              "name": "_pA",
              "type": "uint256[2]"
            },
            {
              "internalType": "uint256[2][2]",
              "name": "_pB",
              "type": "uint256[2][2]"
            },
            {
              "internalType": "uint256[2]",
              "name": "_pC",
              "type": "uint256[2]"
            },
            {
              "internalType": "uint256[5]",
              "name": "_pubSignals",
              "type": "uint256[5]"
            }
          ],
          "internalType": "struct CreditNoteProof",
          "name": "_proof",
          "type": "tuple"
        }
      ],
      "name": "isDefaultCreditNoteProof",
      "outputs": [
        {
          "internalType": "bool",
          "name": "",
          "type": "bool"
        }
      ],
      "stateMutability": "pure",
      "type": "function"
    }
  ],
  "bytecode": "0x60a06040523480156200001157600080fd5b5060405162002ca038038062002ca08339810160408190526200003491620001bd565b6200004862000042620000eb565b620000fc565b6001600355600480546001600160a01b0319166001600160a01b03831617905550600580546001600160a01b03199081166001600160a01b03998a161790915560068054821697891697909717909655600780548716958816959095179094556008805486169387169390931790925560098054909416908516179092558216608052166000908152600a60205260409020805460ff1916600117905562000265565b6000620000f76200011a565b905090565b600180546001600160a01b0319169055620001178162000150565b50565b6000601436108015906200013857506004546001600160a01b031633145b156200014b575060131936013560601c90565b503390565b600080546001600160a01b038381166001600160a01b0319831681178455604051919092169283917f8be0079c531659141344cd1fd0a4f28419497f9722a3daafe3b4186f6b6457e09190a35050565b80516001600160a01b0381168114620001b857600080fd5b919050565b600080600080600080600080610100898b031215620001db57600080fd5b620001e689620001a0565b9750620001f660208a01620001a0565b96506200020660408a01620001a0565b95506200021660608a01620001a0565b94506200022660808a01620001a0565b93506200023660a08a01620001a0565b92506200024660c08a01620001a0565b91506200025660e08a01620001a0565b90509295985092959890939650565b608051612a18620002886000396000818161059201526115200152612a186000f3fe608060405234801561001057600080fd5b50600436106102bb5760003560e01c80638019bc6011610182578063c62b919e116100e9578063eba98fa3116100a2578063f4269ada1161007c578063f4269ada1461064d578063f820fbd414610660578063f851bbe914610673578063fdd1041c1461068657600080fd5b8063eba98fa314610614578063f2fde38b14610627578063f40a52241461063a57600080fd5b8063c62b919e1461058d578063ce1b815f146105b4578063db4a6c04146105c5578063e0515f08146105cd578063e30c3978146105f0578063e85e31e81461060157600080fd5b8063975057e71161013b578063975057e7146105395780639b5ec6161461054c578063b325a1a51461055f578063b5e4065e14610572578063b90ebf4a146104ae578063c45667721461057a57600080fd5b80638019bc60146104b65780638313a583146104c957806384165b57146104ec5780638a9dc6011461050c5780638b10138a146105155780638da5cb5b1461052857600080fd5b80635496dda8116102265780636ce7f74a116101df5780636ce7f74a1461044d5780636f0b4f3a14610460578063715018a61461047357806373256e3d1461047b57806379ba5097146104a65780637e7418e8146104ae57600080fd5b80635496dda8146103c6578063572b6c05146103d957806358e3a8c41461040b5780635965805d146104145780635ba2b401146104275780635e7a69d21461043a57600080fd5b80633c84427a116102785780633c84427a146103545780633f3e893b1461036757806349bf229e1461037a5780634b476b8c1461038d5780634bb2fc54146103a05780634c705a0d146103b357600080fd5b806303964a60146102c05780630f058943146102d55780632b7ac3f3146102e85780633398a8491461031857806334d116521461032b57806335fdaf641461033e575b600080fd5b6102d36102ce366004611ca2565b610699565b005b6102d36102e3366004611d10565b6106c5565b6009546102fb906001600160a01b031681565b6040516001600160a01b0390911681526020015b60405180910390f35b6102d3610326366004611df2565b6107b8565b6102d3610339366004611e42565b610812565b610346600281565b60405190815260200161030f565b6102d3610362366004611e86565b610890565b6102d3610375366004611f08565b6108d8565b6102d3610388366004611f66565b610956565b6008546102fb906001600160a01b031681565b6102d36103ae366004611ca2565b6109cb565b6102d36103c1366004611f66565b6109f7565b6102d36103d4366004612026565b610a74565b6103fb6103e7366004611ca2565b6004546001600160a01b0391821691161490565b604051901515815260200161030f565b6103466101a081565b6102d361042236600461212e565b610b0e565b6102d3610435366004611f66565b610b80565b6006546102fb906001600160a01b031681565b6102d361045b366004612150565b610c77565b6102d361046e3660046121a3565b610d80565b6102d3610ddb565b61034661048936600461212e565b600260209081526000928352604080842090915290825290205481565b6102d3610def565b610346600481565b6102d36104c4366004611f66565b610e8b565b6103fb6104d7366004611ca2565b600b6020526000908152604090205460ff1681565b6103466104fa366004612211565b600c6020526000908152604090205481565b61034661016081565b6103fb6105233660046122e8565b610ecb565b6000546001600160a01b03166102fb565b6005546102fb906001600160a01b031681565b6007546102fb906001600160a01b031681565b6102d361056d366004611ca2565b610f94565b610346600381565b6102d3610588366004612392565b610fbd565b6102fb7f000000000000000000000000000000000000000000000000000000000000000081565b6004546001600160a01b03166102fb565b610346600181565b6103fb6105db366004611ca2565b600a6020526000908152604090205460ff1681565b6001546001600160a01b03166102fb565b6102d361060f366004611f66565b610fd7565b6102d36106223660046123d0565b611017565b6102d3610635366004611ca2565b6110a5565b6102d361064836600461242d565b611116565b6102d361065b36600461247d565b611166565b6102d361066e36600461251a565b6111fb565b6102d3610681366004611e42565b611255565b6102d3610694366004612581565b61132a565b6106a1611371565b6001600160a01b03166000908152600a60205260409020805460ff19166001179055565b6106cd611371565b84831480156106db57508281145b61073f5760405162461bcd60e51b815260206004820152602a60248201527f417269616e656549737375657250726f78793a20417272617973206c656e67746044820152690d040dad2e6dac2e8c6d60b31b60648201526084015b60405180910390fd5b60005b838110156107af5761079d87878381811061075f5761075f6125f4565b90506101600201868684818110610778576107786125f4565b90506020020135858585818110610791576107916125f4565b905060200201356107b8565b806107a781612620565b915050610742565b50505050505050565b826000836107c78383836113ea565b6107cf611371565b6000858152600c602052604081205490036107fc5760405162461bcd60e51b815260040161073690612639565b5050506000918252600c60205260409091205550565b826000836108218383836113ea565b60065460405163f3fd860560e01b81526004810187905285151560248201526001600160a01b039091169063f3fd8605906044015b600060405180830381600087803b15801561087057600080fd5b505af1158015610884573d6000803e3d6000fd5b50505050505050505050565b8260008261089f8383836113ea565b60065460405163095ea7b360e01b81526001600160a01b038781166004830152602482018790529091169063095ea7b390604401610856565b836000846108e78383836113ea565b6006546040516318e97fd160e01b81526001600160a01b03909116906318e97fd19061091b908990899089906004016126bf565b600060405180830381600087803b15801561093557600080fd5b505af1158015610949573d6000803e3d6000fd5b5050505050505050505050565b816000826109658383836113ea565b600854604051632bf7b76f60e21b8152600481018690526001600160a01b039091169063afdeddbc906024015b600060405180830381600087803b1580156109ac57600080fd5b505af11580156109c0573d6000803e3d6000fd5b505050505050505050565b6109d3611371565b6001600160a01b03166000908152600b60205260409020805460ff19166001179055565b81600082610a068383836113ea565b6006546040516309d1187760e41b8152600481018690526001600160a01b0390911690639d11877090602401600060405180830381600087803b158015610a4c57600080fd5b505af1158015610a60573d6000803e3d6000fd5b50505050610a6d84611834565b5050505050565b8715610a8957610a848789611872565b610a95565b610a95896000896113ea565b600554604051637602368560e11b81526001600160a01b039091169063ec046d0a90610ad1908a908a908a908a908a908a908a90600401612706565b600060405180830381600087803b158015610aeb57600080fd5b505af1158015610aff573d6000803e3d6000fd5b50505050505050505050505050565b610b188183611872565b60055460405163325cdebb60e01b8152600481018390523060248201526001600160a01b039091169063325cdebb90604401600060405180830381600087803b158015610b6457600080fd5b505af1158015610b78573d6000803e3d6000fd5b505050505050565b600754604051639f503b7560e01b8152600481018390526000916001600160a01b031690639f503b7590602401602060405180830381865afa158015610bca573d6000803e3d6000fd5b505050506040513d601f19601f82011682018060405250810190610bee919061276d565b905080600003610c105760405162461bcd60e51b815260040161073690612786565b610c1c836000836113ea565b6007546040516309d1187760e41b8152600481018490526001600160a01b0390911690639d118770906024015b600060405180830381600087803b158015610c6357600080fd5b505af11580156107af573d6000803e3d6000fd5b600754604051639f503b7560e01b8152600481018490526000916001600160a01b031690639f503b7590602401602060405180830381865afa158015610cc1573d6000803e3d6000fd5b505050506040513d601f19601f82011682018060405250810190610ce5919061276d565b905080600003610d075760405162461bcd60e51b815260040161073690612786565b610d13846000836113ea565b600554604051633cb353bf60e01b8152600481018590526001600160a01b03848116602483015290911690633cb353bf906044015b600060405180830381600087803b158015610d6257600080fd5b505af1158015610d76573d6000803e3d6000fd5b5050505050505050565b85600184610d8f8383836113ea565b610d9b8760048a61191a565b60055460405163fa4b78b960e01b815260048101889052602481018790526001600160a01b0386811660448301529091169063fa4b78b990606401610ad1565b610de3611371565b610ded6000611a51565b565b6000610df9611a6a565b9050806001600160a01b0316610e176001546001600160a01b031690565b6001600160a01b031614610e7f5760405162461bcd60e51b815260206004820152602960248201527f4f776e61626c6532537465703a2063616c6c6572206973206e6f7420746865206044820152683732bb9037bbb732b960b91b6064820152608401610736565b610e8881611a51565b50565b81600082610e9a8383836113ea565b60065460405163b5aaa9d560e01b8152600481018690526001600160a01b039091169063b5aaa9d590602401610992565b805151600090158015610ee15750815160200151155b8015610ef1575060208201515151155b8015610f035750602082810151510151155b8015610f155750602082810151015151155b8015610f2957506020828101518101510151155b8015610f385750604082015151155b8015610f4a5750604082015160200151155b8015610f595750606082015151155b8015610f6b5750606082015160200151155b8015610f7d5750606082015160400151155b8015610f8e57506060828101510151155b92915050565b610f9c611371565b6001600160a01b03166000908152600b60205260409020805460ff19169055565b83600084610fcc8383836113ea565b6107af868686611a79565b81600082610fe68383836113ea565b60085460405163d93d56f960e01b8152600481018690526001600160a01b039091169063d93d56f990602401610992565b846000856110268383836113ea565b60065460405163b71c34d560e01b8152600481018990526001600160a01b0388811660248301528715156044830152606482018790529091169063b71c34d590608401600060405180830381600087803b15801561108357600080fd5b505af1158015611097573d6000803e3d6000fd5b505050505050505050505050565b6110ad611371565b600180546001600160a01b0383166001600160a01b031990911681179091556110de6000546001600160a01b031690565b6001600160a01b03167f38d16b8cac22d99fc7c124b9cd0de2d3fa1faef420bfe791d8c362d765e2270060405160405180910390a350565b836000826111258383836113ea565b6006546040516323b872dd60e01b81526001600160a01b038881166004830152878116602483015260448201879052909116906323b872dd9060640161091b565b886001876111758383836113ea565b6111818a60028d61191a565b600554604051637466bca360e11b81526001600160a01b039091169063e8cd7946906111bb908b908d908c908c908c908c906004016127ca565b600060405180830381600087803b1580156111d557600080fd5b505af11580156111e9573d6000803e3d6000fd5b50505050505050505050505050505050565b8560018361120a8383836113ea565b6112168760038a61191a565b60055460405163d14f12c760e01b81526004810188905260248101879052604481018690526001600160a01b039091169063d14f12c790606401610ad1565b600754604051639f503b7560e01b8152600481018490526000916001600160a01b031690639f503b7590602401602060405180830381865afa15801561129f573d6000803e3d6000fd5b505050506040513d601f19601f820116820180604052508101906112c3919061276d565b9050806000036112e55760405162461bcd60e51b815260040161073690612786565b6112f1846000836113ea565b60075460405163269cb51560e11b81526004810185905283151560248201526001600160a01b0390911690634d396a2a90604401610d48565b856000846113398383836113ea565b600654604051635c46a7ef60e11b81526001600160a01b039091169063b88d4fde90610ad1908b908b908b908b908b9060040161280b565b611379611a6a565b6001600160a01b03166113946000546001600160a01b031690565b6001600160a01b031614610ded5760405162461bcd60e51b815260206004820181905260248201527f4f776e61626c653a2063616c6c6572206973206e6f7420746865206f776e65726044820152606401610736565b6000818152600c602052604081205490036114175760405162461bcd60e51b815260040161073690612639565b6000818152600c60205260409020546101008401359081146114c75760405162461bcd60e51b815260206004820152605d60248201527f417269616e65655072697661637950726f78793a2050726f6f6620636f6d6d6960448201527f746d656e7420646f6573206e6f74206d6174636820746865207265676973746560648201527f72656420636f6d6d69746d656e7420666f72207468697320746f6b656e000000608482015260a401610736565b61012084013560006114d7611ad6565b8080601f01602080910402602001604051908101604052809392919081815260200183838082843760009201829052506040805160208101909152949550936001600160a01b037f0000000000000000000000000000000000000000000000000000000000000000169350635ba5832c925090508061155886866004611ae9565b61158c8b61156757600061156b565b6101a05b611578610160600461284a565b611582919061284a565b8851899190611ae9565b60405160200161159d92919061285d565b60408051601f19818403018152908290526115ba9160200161288c565b604051602081830303815290604052805190602001208152506040518263ffffffff1660e01b81526004016115ef91906128a8565b602060405180830381865afa15801561160c573d6000803e3d6000fd5b505050506040513d601f19601f82011682018060405250810190611630919061276d565b90508281146116b25760405162461bcd60e51b815260206004820152604260248201527f417269616e65655072697661637950726f78793a2050726f6f6620696e74656e60448201527f7420646f6573206e6f74206d61746368207468652066756e6374696f6e2063616064820152611b1b60f21b608482015260a401610736565b60008581526002602090815260408083206101408b0135600881901c855292529091208054600160ff84161b90811891829055166117515760405162461bcd60e51b815260206004820152603660248201527f417269616e65655072697661637950726f78793a2050726f6f66206e6f6e6365604482015275081a185cc8185b1c9958591e481899595b881d5cd95960521b6064820152608401610736565b600954604080516308a3cff560e11b81526001600160a01b03909216916311479fea91611790918c9182019060c0830190610100840190600401612904565b602060405180830381865afa1580156117ad573d6000803e3d6000fd5b505050506040513d601f19601f820116820180604052508101906117d19190612935565b610d765760405162461bcd60e51b815260206004820152602e60248201527f417269616e65655072697661637950726f78793a2050726f6f6620766572696660448201526d1a58d85d1a5bdb8819985a5b195960921b6064820152608401610736565b6000818152600c602052604081205490036118615760405162461bcd60e51b815260040161073690612639565b6000908152600c6020526040812055565b6000828152600c6020526040902054156119085760405162461bcd60e51b815260206004820152604b60248201527f417269616e656549737375657250726f78793a204120636f6d6d69746d656e7460448201527f2068617320616c7265616479206265656e207265676973746572656420666f7260648201526a103a3434b9903a37b5b2b760a91b608482015260a401610736565b6000918252600c602052604090912055565b600b6000611926611a6a565b6001600160a01b0316815260208101919091526040016000205460ff16151560010361199b577f499b07eaf670b25ea1175c6a6184096be05c34a9fb5db3fcf82c871241b37f09611975611a6a565b604080516001600160a01b039092168252602082018590520160405180910390a1505050565b6001600160a01b0383166000908152600a602052604090205460ff161515600114611a215760405162461bcd60e51b815260206004820152603060248201527f417269616e656549737375657250726f78793a20437265646974206e6f74652060448201526f1c1bdbdb081b9bdd08185b1b1bddd95960821b6064820152608401610736565b604051633563edc960e01b81526001600160a01b03841690633563edc990610c4990849086903090600401612952565b600180546001600160a01b0319169055610e8881611bba565b6000611a74611c0a565b905090565b6000838152600260209081526040808320858452825291829020805484179055815184815290810183905284917f153a7849d13072fd4e9dcf6a2aeb822dec077893c776b5b380c7c1ef8cab96d0910160405180910390a2505050565b366000611ae1611c3e565b915091509091565b60606000611af784846129a5565b67ffffffffffffffff811115611b0f57611b0f611f93565b6040519080825280601f01601f191660200182016040528015611b39576020820181803683370190505b50905060005b611b4985856129a5565b811015611bb15785611b5b868361284a565b81518110611b6b57611b6b6125f4565b602001015160f81c60f81b828281518110611b8857611b886125f4565b60200101906001600160f81b031916908160001a90535080611ba981612620565b915050611b3f565b50949350505050565b600080546001600160a01b038381166001600160a01b0319831681178455604051919092169283917f8be0079c531659141344cd1fd0a4f28419497f9722a3daafe3b4186f6b6457e09190a35050565b600060143610801590611c2757506004546001600160a01b031633145b15611c39575060131936013560601c90565b503390565b36600060148210801590611c5c57506004546001600160a01b031633145b15611c7d5760008036611c706014826129a5565b92611ae1939291906129b8565b50600091369150565b80356001600160a01b0381168114611c9d57600080fd5b919050565b600060208284031215611cb457600080fd5b611cbd82611c86565b9392505050565b60008083601f840112611cd657600080fd5b50813567ffffffffffffffff811115611cee57600080fd5b6020830191508360208260051b8501011115611d0957600080fd5b9250929050565b60008060008060008060608789031215611d2957600080fd5b863567ffffffffffffffff80821115611d4157600080fd5b818901915089601f830112611d5557600080fd5b813581811115611d6457600080fd5b8a602061016083028501011115611d7a57600080fd5b602092830198509650908801359080821115611d9557600080fd5b611da18a838b01611cc4565b90965094506040890135915080821115611dba57600080fd5b50611dc789828a01611cc4565b979a9699509497509295939492505050565b60006101608284031215611dec57600080fd5b50919050565b60008060006101a08486031215611e0857600080fd5b611e128585611dd9565b956101608501359550610180909401359392505050565b8015158114610e8857600080fd5b8035611c9d81611e29565b60008060006101a08486031215611e5857600080fd5b611e628585611dd9565b92506101608401359150610180840135611e7b81611e29565b809150509250925092565b60008060006101a08486031215611e9c57600080fd5b611ea68585611dd9565b9250611eb56101608501611c86565b915061018084013590509250925092565b60008083601f840112611ed857600080fd5b50813567ffffffffffffffff811115611ef057600080fd5b602083019150836020828501011115611d0957600080fd5b6000806000806101a08587031215611f1f57600080fd5b611f298686611dd9565b9350610160850135925061018085013567ffffffffffffffff811115611f4e57600080fd5b611f5a87828801611ec6565b95989497509550505050565b6000806101808385031215611f7a57600080fd5b611f848484611dd9565b94610160939093013593505050565b634e487b7160e01b600052604160045260246000fd5b6040516080810167ffffffffffffffff81118282101715611fcc57611fcc611f93565b60405290565b6040805190810167ffffffffffffffff81118282101715611fcc57611fcc611f93565b604051601f8201601f1916810167ffffffffffffffff8111828210171561201e5761201e611f93565b604052919050565b60008060008060008060008060006102608a8c03121561204557600080fd5b61204f8b8b611dd9565b98506101608a013597506101808a013596506101a08a013595506101c08a013567ffffffffffffffff8082111561208557600080fd5b818c0191508c601f83011261209957600080fd5b8135818111156120ab576120ab611f93565b6120be601f8201601f1916602001611ff5565b91508082528d60208285010111156120d557600080fd5b8060208401602084013760009082016020015295506120f990506101e08b01611c86565b93506102008a013592506121106102208b01611e37565b915061211f6102408b01611c86565b90509295985092959850929598565b6000806040838503121561214157600080fd5b50508035926020909101359150565b60008060006101a0848603121561216657600080fd5b6121708585611dd9565b925061016084013591506121876101808501611c86565b90509250925092565b60006101a08284031215611dec57600080fd5b60008060008060008061038087890312156121bd57600080fd5b6121c78888611dd9565b95506121d7886101608901612190565b94506121e66103008801611c86565b9350610320870135925061034087013591506122056103608801611c86565b90509295509295509295565b60006020828403121561222357600080fd5b5035919050565b600082601f83011261223b57600080fd5b612243611fd2565b80604084018581111561225557600080fd5b845b8181101561226f578035845260209384019301612257565b509095945050505050565b600082601f83011261228b57600080fd5b60405160a0810181811067ffffffffffffffff821117156122ae576122ae611f93565b6040528060a08401858111156122c357600080fd5b845b818110156122dd5780358352602092830192016122c5565b509195945050505050565b60006101a082840312156122fb57600080fd5b612303611fa9565b61230d848461222a565b8152604084605f85011261232057600080fd5b612328611fd2565b8060c086018781111561233a57600080fd5b8387015b8181101561235f57612350898261222a565b8452602090930192840161233e565b50816020860152612370888261222a565b848601525050505061238684610100850161227a565b60608201529392505050565b6000806000806101c085870312156123a957600080fd5b6123b38686611dd9565b966101608601359650610180860135956101a00135945092505050565b60008060008060006101e086880312156123e957600080fd5b6123f38787611dd9565b9450610160860135935061240a6101808701611c86565b92506101a086013561241b81611e29565b949793965091946101c0013592915050565b6000806000806101c0858703121561244457600080fd5b61244e8686611dd9565b935061245d6101608601611c86565b925061246c6101808601611c86565b939692955092936101a00135925050565b60008060008060008060008060006103c08a8c03121561249c57600080fd5b6124a68b8b611dd9565b98506124b68b6101608c01612190565b97506124c56103008b01611c86565b96506103208a013595506103408a013594506103608a013593506103808a013567ffffffffffffffff8111156124fa57600080fd5b6125068c828d01611ec6565b909450925061211f90506103a08b01611c86565b600080600080600080610380878903121561253457600080fd5b61253e8888611dd9565b955061254e886101608901612190565b945061255d6103008801611c86565b93506103208701359250610340870135915061036087013590509295509295509295565b6000806000806000806101e0878903121561259b57600080fd5b6125a58888611dd9565b95506125b46101608801611c86565b94506125c36101808801611c86565b93506101a087013592506101c087013567ffffffffffffffff8111156125e857600080fd5b611dc789828a01611ec6565b634e487b7160e01b600052603260045260246000fd5b634e487b7160e01b600052601160045260246000fd5b6000600182016126325761263261260a565b5060010190565b6020808252603b908201527f417269616e656549737375657250726f78793a204e6f20636f6d6d69746d656e60408201527f74207265676973746572656420666f72207468697320746f6b656e0000000000606082015260800190565b81835281816020850137506000828201602090810191909152601f909101601f19169091010190565b8381526040602082015260006126d9604083018486612696565b95945050505050565b60005b838110156126fd5781810151838201526020016126e5565b50506000910152565b87815286602082015260e06040820152600086518060e08401526101006127338282860160208c016126e2565b6001600160a01b039788166060850152608084019690965293151560a083015250931660c0840152601f01601f1916909101019392505050565b60006020828403121561277f57600080fd5b5051919050565b60208082526024908201527f417269616e65655072697661637950726f78793a204576656e74206e6f7420666040820152631bdd5b9960e21b606082015260800190565b86815285602082015284604082015260a0606082015260006127f060a083018587612696565b905060018060a01b0383166080830152979650505050505050565b6001600160a01b038681168252851660208201526040810184905260806060820181905260009061283f9083018486612696565b979650505050505050565b80820180821115610f8e57610f8e61260a565b6000835161286f8184602088016126e2565b8351908301906128838183602088016126e2565b01949350505050565b6000825161289e8184602087016126e2565b9190910192915050565b602081810190828460005b60018110156128d0578151835291830191908301906001016128b3565b5050505092915050565b8060005b60028110156128fe576040808386379384019391909101906001016128de565b50505050565b6101608101604086833761291b60408301866128da565b60408460c084013760608361010084013795945050505050565b60006020828403121561294757600080fd5b8151611cbd81611e29565b6101e08101604085833761296c60408301604087016128da565b604060c0860160c084013761010060a081870182850137506101a08201939093526001600160a01b03919091166101c090910152919050565b81810381811115610f8e57610f8e61260a565b600080858511156129c857600080fd5b838611156129d557600080fd5b505082019391909203915056fea264697066735822122094a981c338248d76455fec2d16c20c321cfd10a55540e37fb8e776d262437a6464736f6c63430008130033",
  "immutableReferences": {
    "6417": [
      {
        "length": 32,
        "start": 1426
      },
      {
        "length": 32,
        "start": 5408
      }
    ]
  },
  "source": "// SPDX-License-Identifier: UNLICENSED\npragma solidity 0.8.19;\n\nimport '@opengsn/contracts/src/ERC2771Recipient.sol';\nimport '@openzeppelin/contracts/access/Ownable2Step.sol';\nimport '@openzeppelin/contracts/security/ReentrancyGuard.sol';\n\nimport './UnorderedNonce.sol';\nimport '../Utilities/ByteUtils.sol';\n\nimport '../Interfaces/IArianeeStore.sol';\nimport '../Interfaces/IArianeeSmartAsset.sol';\nimport '../Interfaces/IArianeeEvent.sol';\nimport '../Interfaces/IArianeeLost.sol';\nimport '../Interfaces/IArianeeCreditNotePool.sol';\n\ninterface IOwnershipVerifier {\n  function verifyProof(\n    uint[2] calldata _pA,\n    uint[2][2] calldata _pB,\n    uint[2] calldata _pC,\n    uint[3] calldata _pubSignals\n  ) external view returns (bool);\n}\n\ninterface IPoseidon {\n  function poseidon(bytes32[1] memory input) external pure returns (bytes32);\n}\n\ncontract ArianeeIssuerProxy is Ownable2Step, UnorderedNonce, ReentrancyGuard, ERC2771Recipient {\n  using ByteUtils for bytes;\n\n  uint256 public constant CREDIT_TYPE_CERTIFICATE = 1;\n  // TODO: ^ Choose what to do with this, recommend to modify IArianeeStore.requestToken (ask for a proof at claim or pay at hydrate)\n  uint256 public constant CREDIT_TYPE_EVENT = 2;\n  uint256 public constant CREDIT_TYPE_MESSAGE = 3;\n  uint256 public constant CREDIT_TYPE_UPDATE = 4;\n\n  /**\n   * @notice The OwnershipProof must be the first argument if used in a function\n   * This is allowing us to remove the OwnershipProof from `_msgData()` easily\n   */\n  struct OwnershipProof {\n    uint[2] _pA; // 64 bytes\n    uint[2][2] _pB; // 128 bytes\n    uint[2] _pC; // 64 bytes\n    uint[3] _pubSignals; // 96 bytes\n  } // Total: 352 bytes\n\n  uint256 public constant SELECTOR_SIZE = 4;\n  uint256 public constant OWNERSHIP_PROOF_SIZE = 352;\n  uint256 public constant CREDIT_NOTE_PROOF_SIZE = 416;\n\n  /**\n   * @notice The ArianeeStore contract used to pass issuer intents\n   */\n  IArianeeStore public store;\n  /**\n   * @notice The ArianeeSmartAsset contract used to pass issuer intents\n   */\n  IArianeeSmartAsset public smartAsset;\n  /**\n   * @notice The ArianeeEvent contract used to pass issuer intents\n   */\n  IArianeeEvent public arianeeEvent;\n  /**\n   * @notice The ArianeeLost contract used to pass issuer intents\n   */\n  IArianeeLost public arianeeLost;\n\n  /**\n   * @notice The contract used to verify the ownership proofs\n   */\n  IOwnershipVerifier public verifier;\n\n  /**\n   * @notice The contract used to compute Poseidon hashes\n   */\n  IPoseidon public immutable poseidon;\n\n  /**\n   * @notice The contracts used for credit notes management\n   */\n  mapping(address => bool) public creditNotePools;\n  /**\n   * @notice The addresses allowed to send intents without a CreditNoteProof\n   */\n  mapping(address => bool) public creditFreeSenders;\n\n  /**\n   * @notice Mapping<TokenId, CommitmentHash>\n   */\n  mapping(uint256 tokenId => uint256) public commitmentHashes;\n\n  /**\n   * @notice Emitted when a \"credit free sender\" is sending an intent\n   */\n  event CreditFreeSenderLog(address sender, uint256 creditType);\n\n  constructor(\n    address _store,\n    address _smartAsset,\n    address _arianeeEvent,\n    address _arianeeLost,\n    address _verifier,\n    address _creditNotePool,\n    address _poseidon,\n    address _trustedForwarder\n  ) {\n    _setTrustedForwarder(_trustedForwarder);\n\n    store = IArianeeStore(_store);\n    smartAsset = IArianeeSmartAsset(_smartAsset);\n    arianeeEvent = IArianeeEvent(_arianeeEvent);\n    arianeeLost = IArianeeLost(_arianeeLost);\n    verifier = IOwnershipVerifier(_verifier);\n    poseidon = IPoseidon(_poseidon);\n\n    // Allowing the initial credit note pool\n    creditNotePools[_creditNotePool] = true;\n  }\n\n  // OwnershipProof\n\n  modifier onlyWithProof(OwnershipProof calldata _ownershipProof, bool needsCreditNoteProof, uint256 _tokenId) {\n    _verifyProof(_ownershipProof, needsCreditNoteProof, _tokenId);\n    _;\n  }\n\n  function _verifyProof(OwnershipProof calldata _ownershipProof, bool needsCreditNoteProof, uint256 _tokenId) internal {\n    require(commitmentHashes[_tokenId] != 0, 'ArianeeIssuerProxy: No commitment registered for this token');\n\n    uint256 pCommitmentHash = _ownershipProof._pubSignals[0];\n    require(\n      pCommitmentHash == commitmentHashes[_tokenId],\n      'ArianeePrivacyProxy: Proof commitment does not match the registered commitment for this token'\n    );\n\n    uint256 pIntentHash = _ownershipProof._pubSignals[1];\n    bytes memory msgData = _msgData();\n    // Removing the `OwnershipProof` (352 bytes) and if needed the `CreditNoteProof` (416 bytes) from the msg.data before computing the hash to compare\n    uint256 msgDataHash = uint256(poseidon.poseidon([keccak256(abi.encodePacked(bytes.concat(msgData.slice(0, SELECTOR_SIZE), msgData.slice(SELECTOR_SIZE + OWNERSHIP_PROOF_SIZE + (needsCreditNoteProof ? CREDIT_NOTE_PROOF_SIZE : 0), msgData.length))))]));\n    require(\n      pIntentHash == msgDataHash,\n      'ArianeePrivacyProxy: Proof intent does not match the function call'\n    );\n\n    uint256 pNonce = _ownershipProof._pubSignals[2];\n    require(_useUnorderedNonce(_tokenId, pNonce), 'ArianeePrivacyProxy: Proof nonce has already been used');\n\n    require(\n      verifier.verifyProof(_ownershipProof._pA, _ownershipProof._pB, _ownershipProof._pC, _ownershipProof._pubSignals),\n      'ArianeePrivacyProxy: Proof verification failed'\n    );\n  }\n\n  function tryRegisterCommitment(uint256 _tokenId, uint256 _commitmentHash) internal {\n    require(\n      commitmentHashes[_tokenId] == 0,\n      'ArianeeIssuerProxy: A commitment has already been registered for this token'\n    );\n    commitmentHashes[_tokenId] = _commitmentHash;\n  }\n\n  function tryUnregisterCommitment(uint256 _tokenId) internal {\n    require(\n      commitmentHashes[_tokenId] != 0,\n      'ArianeeIssuerProxy: No commitment registered for this token'\n    );\n    delete commitmentHashes[_tokenId];\n  }\n\n  // CreditNoteProof\n\n  function trySpendCredit(address _creditNotePool, uint256 _creditType, CreditNoteProof calldata _creditNoteProof) internal {\n    if (creditFreeSenders[_msgSender()] == true) {\n      emit CreditFreeSenderLog(_msgSender(), _creditType);\n    } else {\n      require(creditNotePools[_creditNotePool] == true, 'ArianeeIssuerProxy: Credit note pool not allowed');\n      ICreditNotePool(_creditNotePool).spend(_creditNoteProof, _creditType, address(this));\n    }\n  }\n\n  function addCreditNotePool(address _creditNotePool) external onlyOwner {\n    creditNotePools[_creditNotePool] = true;\n  }\n\n  function addCreditFreeSender(address _sender) external onlyOwner {\n    creditFreeSenders[_sender] = true;\n  }\n\n  function removeCreditFreeSender(address _sender) external onlyOwner {\n    delete creditFreeSenders[_sender];\n  }\n\n  // IArianeeStore (IArianeeSmartAsset related functions)\n\n  function reserveToken(uint256 _commitmentHash, uint256 _tokenId) external {\n    tryRegisterCommitment(_tokenId, _commitmentHash);\n    store.reserveToken(_tokenId, address(this));\n  }\n\n  function hydrateToken(\n    OwnershipProof calldata _ownershipProof, // If no commitment hash is provided, this proof is required\n    uint256 _commitmentHash, // If no proof is provided, this commitment hash is required\n    uint256 _tokenId,\n    bytes32 _imprint,\n    string memory _uri,\n    address _encryptedInitialKey,\n    uint256 _tokenRecoveryTimestamp,\n    bool _initialKeyIsRequestKey,\n    address _interfaceProvider\n  ) external {\n    if (_commitmentHash != 0)\n    {\n      // If a commitment hash is provided, we try to register it before hydrating the token\n      // This can happen if the token was not reserved before being hydrated\n      tryRegisterCommitment(_tokenId, _commitmentHash);\n    } else\n    {\n      // If no commitment hash is provided, the sender must have registered one before and provide an OwnershipProof\n      _verifyProof(_ownershipProof, false, _tokenId);\n    }\n\n    store.hydrateToken(\n      _tokenId,\n      _imprint,\n      _uri,\n      _encryptedInitialKey,\n      _tokenRecoveryTimestamp,\n      _initialKeyIsRequestKey,\n      _interfaceProvider\n    );\n  }\n\n  // UnorderedNonce\n\n  function invalidateUnorderedNonces(\n    OwnershipProof calldata _ownershipProof,\n    uint256 _tokenId,\n    uint256 _wordPos,\n    uint256 _mask\n  ) external onlyWithProof(_ownershipProof, false, _tokenId) {\n    invalidateUnorderedNonces(_tokenId, _wordPos, _mask);\n  }\n\n  // IArianeeSmartAsset\n\n  function addTokenAccess(\n    OwnershipProof calldata _ownershipProof,\n    uint256 _tokenId,\n    address _key,\n    bool _enable,\n    uint256 _tokenType\n  ) external onlyWithProof(_ownershipProof, false, _tokenId) {\n    smartAsset.addTokenAccess(_tokenId, _key, _enable, _tokenType);\n  }\n\n  function recoverTokenToIssuer(\n    OwnershipProof calldata _ownershipProof,\n    uint256 _tokenId\n  ) external onlyWithProof(_ownershipProof, false, _tokenId) {\n    smartAsset.recoverTokenToIssuer(_tokenId);\n  }\n\n  function updateRecoveryRequest(\n    OwnershipProof calldata _ownershipProof,\n    uint256 _tokenId,\n    bool _active\n  ) external onlyWithProof(_ownershipProof, false, _tokenId) {\n    smartAsset.updateRecoveryRequest(_tokenId, _active);\n  }\n\n  function destroy(\n    OwnershipProof calldata _ownershipProof,\n    uint256 _tokenId\n  ) external onlyWithProof(_ownershipProof, false, _tokenId) {\n    smartAsset.destroy(_tokenId);\n    // Free the commitment hash when destroying the token to allow it to be reused\n    tryUnregisterCommitment(_tokenId);\n  }\n\n  function updateTokenURI(\n    OwnershipProof calldata _ownershipProof,\n    uint256 _tokenId,\n    string calldata _uri\n  ) external onlyWithProof(_ownershipProof, false, _tokenId) {\n    smartAsset.updateTokenURI(_tokenId, _uri);\n  }\n\n  function safeTransferFrom(\n    OwnershipProof calldata _ownershipProof,\n    address _from,\n    address _to,\n    uint256 _tokenId,\n    bytes calldata _data\n  ) external onlyWithProof(_ownershipProof, false, _tokenId) {\n    smartAsset.safeTransferFrom(_from, _to, _tokenId, _data);\n  }\n\n  function transferFrom(\n    OwnershipProof calldata _ownershipProof,\n    address _from,\n    address _to,\n    uint256 _tokenId\n  ) external onlyWithProof(_ownershipProof, false, _tokenId) {\n    smartAsset.transferFrom(_from, _to, _tokenId);\n  }\n\n  function approve(\n    OwnershipProof calldata _ownershipProof,\n    address _approved,\n    uint256 _tokenId\n  ) external onlyWithProof(_ownershipProof, false, _tokenId) {\n    smartAsset.approve(_approved, _tokenId);\n  }\n\n  // IArianeeStore (IArianeeUpdate related functions)\n\n  function updateSmartAsset(\n    OwnershipProof calldata _ownershipProof,\n    CreditNoteProof calldata _creditNoteProof,\n    address _creditNotePool,\n    uint256 _tokenId,\n    bytes32 _imprint,\n    address _interfaceProvider\n  ) external onlyWithProof(_ownershipProof, true, _tokenId) {\n    trySpendCredit(_creditNotePool, CREDIT_TYPE_UPDATE, _creditNoteProof);\n    store.updateSmartAsset(_tokenId, _imprint, _interfaceProvider);\n  }\n\n  // IArianeeStore (IArianeeEvent related functions)\n\n  function createEvent(\n    OwnershipProof calldata _ownershipProof,\n    CreditNoteProof calldata _creditNoteProof,\n    address _creditNotePool,\n    uint256 _tokenId,\n    uint256 _eventId,\n    bytes32 _imprint,\n    string calldata _uri,\n    address _interfaceProvider\n  ) external onlyWithProof(_ownershipProof, true, _tokenId) {\n    trySpendCredit(_creditNotePool, CREDIT_TYPE_EVENT, _creditNoteProof);\n    store.createEvent(_eventId, _tokenId, _imprint, _uri, _interfaceProvider);\n  }\n\n  function acceptEvent(OwnershipProof calldata _ownershipProof, uint256 _eventId, address _interfaceProvider) external {\n    uint256 tokenId = arianeeEvent.eventIdToToken(_eventId);\n    require(tokenId != 0, 'ArianeePrivacyProxy: Event not found');\n\n    // Proof verification is made inline here because we need to get the tokenId from the eventId first\n    _verifyProof(_ownershipProof, false, tokenId);\n\n    store.acceptEvent(_eventId, _interfaceProvider);\n  }\n\n  // IArianeeEvent\n\n  function destroyEvent(OwnershipProof calldata _ownershipProof, uint256 _eventId) external {\n    uint256 tokenId = arianeeEvent.eventIdToToken(_eventId);\n    require(tokenId != 0, 'ArianeePrivacyProxy: Event not found');\n\n    // Proof verification is made inline here because we need to get the tokenId from the eventId first\n    _verifyProof(_ownershipProof, false, tokenId);\n\n    arianeeEvent.destroy(_eventId);\n  }\n\n  function updateDestroyEventRequest(OwnershipProof calldata _ownershipProof, uint256 _eventId, bool _active) external {\n    uint256 tokenId = arianeeEvent.eventIdToToken(_eventId);\n    require(tokenId != 0, 'ArianeePrivacyProxy: Event not found');\n\n    // Proof verification is made inline here because we need to get the tokenId from the eventId first\n    _verifyProof(_ownershipProof, false, tokenId);\n\n    arianeeEvent.updateDestroyRequest(_eventId, _active);\n  }\n\n  // IArianeeStore (IArianeeMessage related functions)\n\n  function createMessage(\n    OwnershipProof calldata _ownershipProof,\n    CreditNoteProof calldata _creditNoteProof,\n    address _creditNotePool,\n    uint256 _messageId,\n    uint256 _tokenId,\n    bytes32 _imprint\n  ) external onlyWithProof(_ownershipProof, true, _tokenId) {\n    trySpendCredit(_creditNotePool, CREDIT_TYPE_MESSAGE, _creditNoteProof);\n    store.createMessage(_messageId, _tokenId, _imprint);\n  }\n\n  // IArianeeLost\n\n  function setStolenStatus(\n    OwnershipProof calldata _ownershipProof,\n    uint256 _tokenId\n  ) external onlyWithProof(_ownershipProof, false, _tokenId) {\n    arianeeLost.setStolenStatus(_tokenId);\n  }\n\n  function setMissingStatus(\n    OwnershipProof calldata _ownershipProof,\n    uint256 _tokenId\n  ) external onlyWithProof(_ownershipProof, false, _tokenId) {\n    arianeeLost.setMissingStatus(_tokenId);\n  }\n\n  // Emergency\n\n  function updateCommitment(OwnershipProof calldata _ownershipProof, uint256 _tokenId, uint256 _newCommitmentHash) public onlyWithProof(_ownershipProof, false, _tokenId) onlyOwner {\n    require(\n      commitmentHashes[_tokenId] != 0,\n      'ArianeeIssuerProxy: No commitment registered for this token'\n    );\n    commitmentHashes[_tokenId] = _newCommitmentHash;\n  }\n\n  function updateCommitmentBatch(OwnershipProof[] calldata _ownershipProofs, uint256[] calldata _tokenIds, uint256[] calldata _newCommitmentHashes) external onlyOwner {\n    require(\n      _ownershipProofs.length == _tokenIds.length && _tokenIds.length == _newCommitmentHashes.length,\n      'ArianeeIssuerProxy: Arrays length mismatch'\n    );\n\n    for (uint256 i = 0; i < _tokenIds.length; i++) {\n      updateCommitment(_ownershipProofs[i], _tokenIds[i], _newCommitmentHashes[i]);\n    }\n  }\n\n  // ERC2771Recipient\n\n  function _msgSender() internal view override(Context, ERC2771Recipient) returns (address ret) {\n    return ERC2771Recipient._msgSender();\n  }\n\n  function _msgData() internal view override(Context, ERC2771Recipient) returns (bytes calldata ret) {\n    ret = ERC2771Recipient._msgData();\n  }\n\n  // Utilities\n\n  function isDefaultCreditNoteProof(CreditNoteProof memory _proof) public pure returns (bool) {\n    return _proof._pA[0] == 0 && _proof._pA[1] == 0 && _proof._pB[0][0] == 0 && _proof._pB[0][1] == 0 && _proof._pB[1][0] == 0 && _proof._pB[1][1] == 0 && _proof._pC[0] == 0 && _proof._pC[1] == 0 && _proof._pubSignals[0] == 0 && _proof._pubSignals[1] == 0 && _proof._pubSignals[2] == 0 && _proof._pubSignals[3] == 0;\n  }\n}\n",
  "sourcePath": "/Users/nm/Documents/GitHub/ArianeeMaster/contracts/ArianeePrivacy/ArianeeIssuerProxy.sol",
  "compiler": {
    "name": "solc",
    "version": "0.8.19+commit.7dd6d404.Emscripten.clang"
  },
  "schemaVersion": "3.4.16",
  "updatedAt": "2024-05-27T10:59:01.718Z",
  "devdoc": {
    "kind": "dev",
    "methods": {
      "acceptOwnership()": {
        "details": "The new owner accepts the ownership transfer."
      },
      "getTrustedForwarder()": {
        "returns": {
          "forwarder": "The address of the Forwarder contract that is being used."
        }
      },
      "isTrustedForwarder(address)": {
        "params": {
          "forwarder": "The address of the Forwarder contract that is being used."
        },
        "returns": {
          "_0": "isTrustedForwarder `true` if the Forwarder is trusted to forward relayed transactions by this Recipient."
        }
      },
      "owner()": {
        "details": "Returns the address of the current owner."
      },
      "pendingOwner()": {
        "details": "Returns the address of the pending owner."
      },
      "renounceOwnership()": {
        "details": "Leaves the contract without owner. It will not be possible to call `onlyOwner` functions. Can only be called by the current owner. NOTE: Renouncing ownership will leave the contract without an owner, thereby disabling any functionality that is only available to the owner."
      },
      "transferOwnership(address)": {
        "details": "Starts the ownership transfer of the contract to a new account. Replaces the pending transfer if there is one. Can only be called by the current owner."
      }
    },
    "version": 1
  },
  "userdoc": {
    "events": {
      "CreditFreeSenderLog(address,uint256)": {
        "notice": "Emitted when a \"credit free sender\" is sending an intent"
      }
    },
    "kind": "user",
    "methods": {
      "arianeeEvent()": {
        "notice": "The ArianeeEvent contract used to pass issuer intents"
      },
      "arianeeLost()": {
        "notice": "The ArianeeLost contract used to pass issuer intents"
      },
      "commitmentHashes(uint256)": {
        "notice": "Mapping<TokenId, CommitmentHash>"
      },
      "creditFreeSenders(address)": {
        "notice": "The addresses allowed to send intents without a CreditNoteProof"
      },
      "creditNotePools(address)": {
        "notice": "The contracts used for credit notes management"
      },
      "getTrustedForwarder()": {
        "notice": ":warning: **Warning** :warning: The Forwarder can have a full control over your Recipient. Only trust verified Forwarder.Method is not a required method to allow Recipients to trust multiple Forwarders. Not recommended yet."
      },
      "isTrustedForwarder(address)": {
        "notice": ":warning: **Warning** :warning: The Forwarder can have a full control over your Recipient. Only trust verified Forwarder."
      },
      "nonceBitmap(uint256,uint256)": {
        "notice": "A map from tokenId and a caller specified word index to a bitmap. Used to set bits in the bitmap to prevent against signature replay protection"
      },
      "poseidon()": {
        "notice": "The contract used to compute Poseidon hashes"
      },
      "smartAsset()": {
        "notice": "The ArianeeSmartAsset contract used to pass issuer intents"
      },
      "store()": {
        "notice": "The ArianeeStore contract used to pass issuer intents"
      },
      "verifier()": {
        "notice": "The contract used to verify the ownership proofs"
      }
    },
    "version": 1
  }
}