{
  "contractName": "ArianeeCreditNotePool",
  "abi": [
    {
      "inputs": [
        {
          "internalType": "address",
          "name": "_token",
          "type": "address"
        },
        {
          "internalType": "address",
          "name": "_store",
          "type": "address"
        },
        {
          "internalType": "address",
          "name": "_verifier",
          "type": "address"
        },
        {
          "internalType": "uint32",
          "name": "_merkleTreeHeight",
          "type": "uint32"
        },
        {
          "internalType": "address",
          "name": "_hasher",
          "type": "address"
        },
        {
          "internalType": "address",
          "name": "_poseidon",
          "type": "address"
        },
        {
          "internalType": "address",
          "name": "_trustedForwarder",
          "type": "address"
        }
      ],
      "stateMutability": "nonpayable",
      "type": "constructor"
    },
    {
      "anonymous": false,
      "inputs": [
        {
          "indexed": true,
          "internalType": "address",
          "name": "previousOwner",
          "type": "address"
        },
        {
          "indexed": true,
          "internalType": "address",
          "name": "newOwner",
          "type": "address"
        }
      ],
      "name": "OwnershipTransferred",
      "type": "event"
    },
    {
      "anonymous": false,
      "inputs": [
        {
          "indexed": false,
          "internalType": "uint256",
          "name": "creditType",
          "type": "uint256"
        },
        {
          "indexed": false,
          "internalType": "bytes32",
          "name": "commitmentHash",
          "type": "bytes32"
        },
        {
          "indexed": false,
          "internalType": "uint32",
          "name": "leafIndex",
          "type": "uint32"
        },
        {
          "indexed": true,
          "internalType": "address",
          "name": "issuerProxy",
          "type": "address"
        },
        {
          "indexed": false,
          "internalType": "uint256",
          "name": "timestamp",
          "type": "uint256"
        }
      ],
      "name": "Purchased",
      "type": "event"
    },
    {
      "anonymous": false,
      "inputs": [
        {
          "indexed": false,
          "internalType": "uint256",
          "name": "creditType",
          "type": "uint256"
        },
        {
          "indexed": false,
          "internalType": "bytes32",
          "name": "nullifierHash",
          "type": "bytes32"
        },
        {
          "indexed": false,
          "internalType": "uint256",
          "name": "timestamp",
          "type": "uint256"
        }
      ],
      "name": "Spent",
      "type": "event"
    },
    {
      "inputs": [],
      "name": "CREDIT_NOTE_PROOF_SIZE",
      "outputs": [
        {
          "internalType": "uint256",
          "name": "",
          "type": "uint256"
        }
      ],
      "stateMutability": "view",
      "type": "function"
    },
    {
      "inputs": [],
      "name": "FIELD_SIZE",
      "outputs": [
        {
          "internalType": "uint256",
          "name": "",
          "type": "uint256"
        }
      ],
      "stateMutability": "view",
      "type": "function"
    },
    {
      "inputs": [],
      "name": "MAX_NULLIFIER_PER_COMMITMENT",
      "outputs": [
        {
          "internalType": "uint256",
          "name": "",
          "type": "uint256"
        }
      ],
      "stateMutability": "view",
      "type": "function"
    },
    {
      "inputs": [],
      "name": "OWNERSHIP_PROOF_SIZE",
      "outputs": [
        {
          "internalType": "uint256",
          "name": "",
          "type": "uint256"
        }
      ],
      "stateMutability": "view",
      "type": "function"
    },
    {
      "inputs": [],
      "name": "ROOT_HISTORY_SIZE",
      "outputs": [
        {
          "internalType": "uint32",
          "name": "",
          "type": "uint32"
        }
      ],
      "stateMutability": "view",
      "type": "function"
    },
    {
      "inputs": [],
      "name": "SELECTOR_SIZE",
      "outputs": [
        {
          "internalType": "uint256",
          "name": "",
          "type": "uint256"
        }
      ],
      "stateMutability": "view",
      "type": "function"
    },
    {
      "inputs": [],
      "name": "ZERO_VALUE",
      "outputs": [
        {
          "internalType": "uint256",
          "name": "",
          "type": "uint256"
        }
      ],
      "stateMutability": "view",
      "type": "function"
    },
    {
      "inputs": [
        {
          "internalType": "bytes32",
          "name": "",
          "type": "bytes32"
        }
      ],
      "name": "commitmentHashes",
      "outputs": [
        {
          "internalType": "bool",
          "name": "",
          "type": "bool"
        }
      ],
      "stateMutability": "view",
      "type": "function"
    },
    {
      "inputs": [],
      "name": "currentRootIndex",
      "outputs": [
        {
          "internalType": "uint32",
          "name": "",
          "type": "uint32"
        }
      ],
      "stateMutability": "view",
      "type": "function"
    },
    {
      "inputs": [
        {
          "internalType": "uint256",
          "name": "",
          "type": "uint256"
        }
      ],
      "name": "filledSubtrees",
      "outputs": [
        {
          "internalType": "bytes32",
          "name": "",
          "type": "bytes32"
        }
      ],
      "stateMutability": "view",
      "type": "function"
    },
    {
      "inputs": [],
      "name": "getLastRoot",
      "outputs": [
        {
          "internalType": "bytes32",
          "name": "",
          "type": "bytes32"
        }
      ],
      "stateMutability": "view",
      "type": "function"
    },
    {
      "inputs": [],
      "name": "getTrustedForwarder",
      "outputs": [
        {
          "internalType": "address",
          "name": "forwarder",
          "type": "address"
        }
      ],
      "stateMutability": "view",
      "type": "function"
    },
    {
      "inputs": [
        {
          "internalType": "contract IHasher",
          "name": "_hasher",
          "type": "address"
        },
        {
          "internalType": "bytes32",
          "name": "_left",
          "type": "bytes32"
        },
        {
          "internalType": "bytes32",
          "name": "_right",
          "type": "bytes32"
        }
      ],
      "name": "hashLeftRight",
      "outputs": [
        {
          "internalType": "bytes32",
          "name": "",
          "type": "bytes32"
        }
      ],
      "stateMutability": "pure",
      "type": "function"
    },
    {
      "inputs": [],
      "name": "hasher",
      "outputs": [
        {
          "internalType": "contract IHasher",
          "name": "",
          "type": "address"
        }
      ],
      "stateMutability": "view",
      "type": "function"
    },
    {
      "inputs": [
        {
          "internalType": "bytes32",
          "name": "_root",
          "type": "bytes32"
        }
      ],
      "name": "isKnownRoot",
      "outputs": [
        {
          "internalType": "bool",
          "name": "",
          "type": "bool"
        }
      ],
      "stateMutability": "view",
      "type": "function"
    },
    {
      "inputs": [
        {
          "internalType": "address",
          "name": "forwarder",
          "type": "address"
        }
      ],
      "name": "isTrustedForwarder",
      "outputs": [
        {
          "internalType": "bool",
          "name": "",
          "type": "bool"
        }
      ],
      "stateMutability": "view",
      "type": "function"
    },
    {
      "inputs": [],
      "name": "levels",
      "outputs": [
        {
          "internalType": "uint32",
          "name": "",
          "type": "uint32"
        }
      ],
      "stateMutability": "view",
      "type": "function"
    },
    {
      "inputs": [],
      "name": "nextIndex",
      "outputs": [
        {
          "internalType": "uint32",
          "name": "",
          "type": "uint32"
        }
      ],
      "stateMutability": "view",
      "type": "function"
    },
    {
      "inputs": [
        {
          "internalType": "bytes32",
          "name": "",
          "type": "bytes32"
        }
      ],
      "name": "nullifierHashes",
      "outputs": [
        {
          "internalType": "bool",
          "name": "",
          "type": "bool"
        }
      ],
      "stateMutability": "view",
      "type": "function"
    },
    {
      "inputs": [],
      "name": "owner",
      "outputs": [
        {
          "internalType": "address",
          "name": "",
          "type": "address"
        }
      ],
      "stateMutability": "view",
      "type": "function"
    },
    {
      "inputs": [],
      "name": "poseidon",
      "outputs": [
        {
          "internalType": "contract IPoseidon",
          "name": "",
          "type": "address"
        }
      ],
      "stateMutability": "view",
      "type": "function"
    },
    {
      "inputs": [],
      "name": "renounceOwnership",
      "outputs": [],
      "stateMutability": "nonpayable",
      "type": "function"
    },
    {
      "inputs": [
        {
          "internalType": "uint256",
          "name": "",
          "type": "uint256"
        }
      ],
      "name": "roots",
      "outputs": [
        {
          "internalType": "bytes32",
          "name": "",
          "type": "bytes32"
        }
      ],
      "stateMutability": "view",
      "type": "function"
    },
    {
      "inputs": [],
      "name": "store",
      "outputs": [
        {
          "internalType": "contract IArianeeStore",
          "name": "",
          "type": "address"
        }
      ],
      "stateMutability": "view",
      "type": "function"
    },
    {
      "inputs": [],
      "name": "token",
      "outputs": [
        {
          "internalType": "contract IERC20",
          "name": "",
          "type": "address"
        }
      ],
      "stateMutability": "view",
      "type": "function"
    },
    {
      "inputs": [
        {
          "internalType": "address",
          "name": "newOwner",
          "type": "address"
        }
      ],
      "name": "transferOwnership",
      "outputs": [],
      "stateMutability": "nonpayable",
      "type": "function"
    },
    {
      "inputs": [],
      "name": "verifier",
      "outputs": [
        {
          "internalType": "contract ICreditVerifier",
          "name": "",
          "type": "address"
        }
      ],
      "stateMutability": "view",
      "type": "function"
    },
    {
      "inputs": [
        {
          "internalType": "uint256",
          "name": "i",
          "type": "uint256"
        }
      ],
      "name": "zeros",
      "outputs": [
        {
          "internalType": "bytes32",
          "name": "",
          "type": "bytes32"
        }
      ],
      "stateMutability": "pure",
      "type": "function"
    },
    {
      "inputs": [
        {
          "internalType": "bytes32",
          "name": "_commitmentHash",
          "type": "bytes32"
        },
        {
          "internalType": "uint256",
          "name": "_creditType",
          "type": "uint256"
        },
        {
          "internalType": "address",
          "name": "_issuerProxy",
          "type": "address"
        }
      ],
      "name": "purchase",
      "outputs": [],
      "stateMutability": "nonpayable",
      "type": "function"
    },
    {
      "inputs": [
        {
          "components": [
            {
              "internalType": "uint256[2]",
              "name": "_pA",
              "type": "uint256[2]"
            },
            {
              "internalType": "uint256[2][2]",
              "name": "_pB",
              "type": "uint256[2][2]"
            },
            {
              "internalType": "uint256[2]",
              "name": "_pC",
              "type": "uint256[2]"
            },
            {
              "internalType": "uint256[5]",
              "name": "_pubSignals",
              "type": "uint256[5]"
            }
          ],
          "internalType": "struct ArianeeCreditNotePool.CreditNoteProof",
          "name": "_creditNoteProof",
          "type": "tuple"
        },
        {
          "internalType": "uint256",
          "name": "_creditType",
          "type": "uint256"
        },
        {
          "internalType": "address",
          "name": "_issuerProxy",
          "type": "address"
        }
      ],
      "name": "spend",
      "outputs": [],
      "stateMutability": "nonpayable",
      "type": "function"
    },
    {
      "inputs": [
        {
          "internalType": "bytes32[]",
          "name": "_nullifierHashes",
          "type": "bytes32[]"
        }
      ],
      "name": "isSpentBatch",
      "outputs": [
        {
          "internalType": "bool[]",
          "name": "",
          "type": "bool[]"
        }
      ],
      "stateMutability": "view",
      "type": "function"
    },
    {
      "inputs": [
        {
          "internalType": "bytes32",
          "name": "_nullifierHash",
          "type": "bytes32"
        }
      ],
      "name": "isSpent",
      "outputs": [
        {
          "internalType": "bool",
          "name": "",
          "type": "bool"
        }
      ],
      "stateMutability": "view",
      "type": "function"
    }
  ],
  "bytecode": "0x60c0604052600580546001600160401b03191690553480156200002157600080fd5b5060405162002f4438038062002f4483398101604081905262000044916200095e565b83836200005a6200005462000254565b62000265565b6001805563ffffffff8216620000c35760405162461bcd60e51b815260206004820152602360248201527f5f6c6576656c732073686f756c642062652067726561746572207468616e207a60448201526265726f60e81b60648201526084015b60405180910390fd5b60208263ffffffff16106200011b5760405162461bcd60e51b815260206004820152601e60248201527f5f6c6576656c732073686f756c64206265206c657373207468616e20333200006044820152606401620000ba565b6002805463ffffffff191663ffffffff84161790556001600160a01b03811660805260005b8263ffffffff168163ffffffff16101562000191576200016663ffffffff8216620002b5565b63ffffffff821660009081526003602052604090205580620001888162000a13565b91505062000140565b50620001af620001a360018462000a39565b63ffffffff16620002b5565b6000805260046020527f17ef568e3e12ab5b9c7254a8d58478811de00f9e6eb34345acd53bf8fd09d3ec55505060058054600160401b600160e01b031916680100000000000000006001600160a01b0384160217905550600680546001600160a01b03199081166001600160a01b03988916179091556007805482169688169690961790955560088054909516938616939093179093555090911660a0525062000a60565b60006200026062000903565b905090565b600080546001600160a01b038381166001600160a01b0319831681178455604051919092169283917f8be0079c531659141344cd1fd0a4f28419497f9722a3daafe3b4186f6b6457e09190a35050565b600081600003620002e757507f0269c775826bf71ef2929fcab5dbcc0499f6f90cdc761333f54db63070592ef1919050565b816001036200031757507f115563063a4d0e6c960b291821c71ddff0318a046d7030b0570b03c5174fad88919050565b816002036200034757507f2be2b455e9fd91c8594da7eaf35cfc4c6198b4c3f27e46340e8f476e4cc6cb72919050565b816003036200037757507f2c027c438cacfdbee2b7e838f6a7f2f116a48dd3ef491362bda9f83dae14dfcd919050565b81600403620003a757507f06cb0a4df16153f291eeb68b903810fe979b7dd9f334887e4251215af8afd608919050565b81600503620003d757507f250da57c5cae1d36700d6621d07e65ddae9713cd3af707a29df28d83429a7974919050565b816006036200040757507f242ea4736a6694f4bd988ee7380764a9d639d823ebaf3112fc1e065bdc435375919050565b816007036200043757507f198f135d37a7d88fedb617f6cab8940411de8c7ff43f211e0c8d000301a63e06919050565b816008036200046757507f0a87e43d1c45af457a9bfb51c3cf14f07cf3485a3c1ccfcc0589d7877264a277919050565b816009036200049757507f1de630c82ab7789820ab1fa17784accf01cbce0425b9f59ad5e15b256e9e908f919050565b81600a03620004c757507f0790060571cf9ee25b441f4dbc10e128c7355755dfe1a746b4b84523c1388115919050565b81600b03620004f757507f1c699b4b613b7e5b4135811becfea9100cdc18d1d0305e4dd6a1c3bde04d3656919050565b81600c036200052657507e684b8d11ea2e8baab9709d571b502b8ab79f7ff62fab97875b29cb9cf3dd7a919050565b81600d036200055657507f012663bd13a8f01f88acbcb89bbf74a68349cce2939deb035bc80a1ec9014fcd919050565b81600e036200058657507f03b16e3bd3744be1db9bd99484f05f7e1243f9c0300936120ed3a38aea9f352d919050565b81600f03620005b657507f2f375ba533cff24d557a4174583d7080a386a043c5f5c008c0202b1bf5c90fd8919050565b81601003620005e657507f29c41d5ac3a5cd779479aafde1fdadb9014eb5aee605be9c023f7ba3073de15c919050565b816011036200061657507f2e212c95cf21c6d17434b55dbd571b266367d58d24db3efa0d91249533c20537919050565b816012036200064657507f0b5f241a2ff4200f8c5fe5f75ea9d220be31740a07d14e14014f434ab86b7003919050565b816013036200067657507f0a6d473442d8bd8a19415ecb08a4808ade2a437d55a24821835fe19ef220943a919050565b81601403620006a657507f2c838a2134fd4068d0716cfc52e6bc1b4031cb0e3623aa428ba15a348564a224919050565b81601503620006d657507f0168f1f4b1fde2e4af376f4fb9fc0f68bca8f20faeb5506f3eabfee46d889ee0919050565b816016036200070657507f1c2d794f5a5fb54a9e9f943036719a39ee6c21ae8e35b49d82c3ed997b087778919050565b816017036200073657507f0b6cf84774bf6a168859726ce6d977758a44297eeed4f500da01e5c2691a877d919050565b816018036200076657507f24f5d3cb54181cbf9a67e246dd39f4bbad3caf5a70aec4029af604a2bd97688a919050565b816019036200079557507e8f61547deba5182d019860e70b5873cacabddd243f78250fdb250c057d6418919050565b81601a03620007c557507f1a731fc78852ad3587017f7d2fa7eea01ddf266f85fba6b5cc28fe7dfd93c9c0919050565b81601b03620007f557507f08adab9419bf523eda8d046ce4dd906ee8973d00a4fb614a0ed7527330bf88c2919050565b81601c036200082557507f0470bf8ef24b4f8f4171edd2b47916fef4caa69c87fa843f1be0553c22914f6d919050565b81601d036200085557507f300ca9bb39bc9b7248f4033ee8085bc4e7c6e89b410bb0326db01a4f11baa73f919050565b81601e036200088557507f2331a6c3220ba1b932b8a473108e07395c42e6e173426a9bbf9594c37bc0f27c919050565b81601f03620008b557507f1d112f31348e0fedfdb0b872663ae1ef9fdf5740f7576938a79b7bb2c870654b919050565b60405162461bcd60e51b815260206004820152601360248201527f496e646578206f7574206f6620626f756e6473000000000000000000000000006044820152606401620000ba565b919050565b6000601436108015906200092e57506005546001600160a01b03680100000000000000009091041633145b1562000941575060131936013560601c90565b503390565b80516001600160a01b0381168114620008fe57600080fd5b600080600080600080600060e0888a0312156200097a57600080fd5b620009858862000946565b9650620009956020890162000946565b9550620009a56040890162000946565b9450606088015163ffffffff81168114620009bf57600080fd5b9350620009cf6080890162000946565b9250620009df60a0890162000946565b9150620009ef60c0890162000946565b905092959891949750929550565b634e487b7160e01b600052601160045260246000fd5b600063ffffffff80831681810362000a2f5762000a2f620009fd565b6001019392505050565b63ffffffff82811682821603908082111562000a595762000a59620009fd565b5092915050565b60805160a0516124b062000a94600039600081816103b8015261151201526000818161047c015261195f01526124b06000f3fe608060405234801561001057600080fd5b50600436106101f05760003560e01c8063975057e71161010f578063e8295588116100a2578063f2fde38b11610071578063f2fde38b146104be578063f6f5e289146104d1578063fc0c546a146104f4578063fc7e9c6f1461050757600080fd5b8063e82955881461043d578063ec73295914610450578063ed33639f14610477578063f178e47c1461049e57600080fd5b8063cd87a3b4116100de578063cd87a3b4146103da578063ce1b815f146103e2578063e3f721be146103fa578063e5285dcc1461041a57600080fd5b8063975057e714610363578063ba70f75714610376578063c2b40ae414610393578063c62b919e146103b357600080fd5b80636d9833e3116101875780638a9dc601116101565780638a9dc601146103265780638da5cb5b1461032f5780638ea3099e1461034057806390eeb02b1461035357600080fd5b80636d9833e3146102f0578063715018a6146103035780637e7418e81461030b578063832593da1461031357600080fd5b8063414a37ba116101c3578063414a37ba146102845780634ecf518b14610299578063572b6c05146102be57806358e3a8c4146102e757600080fd5b80630c1ff4c7146101f557806317cc915c146102115780632b7ac3f3146102445780633563edc91461026f575b600080fd5b6101fe6103e881565b6040519081526020015b60405180910390f35b61023461021f366004611e76565b60096020526000908152604090205460ff1681565b6040519015158152602001610208565b600854610257906001600160a01b031681565b6040516001600160a01b039091168152602001610208565b61028261027d366004611ea4565b61051f565b005b6101fe60008051602061245b83398151915281565b6002546102a99063ffffffff1681565b60405163ffffffff9091168152602001610208565b6102346102cc366004611eee565b600554600160401b90046001600160a01b0390811691161490565b6101fe6101a081565b6102346102fe366004611e76565b6105a1565b61028261061f565b6101fe600481565b610282610321366004611f12565b610633565b6101fe61016081565b6000546001600160a01b0316610257565b6101fe61034e366004611f40565b6108f3565b6005546102a99063ffffffff1681565b600754610257906001600160a01b031681565b60055463ffffffff166000908152600460205260409020546101fe565b6101fe6103a1366004611e76565b60046020526000908152604090205481565b6102577f000000000000000000000000000000000000000000000000000000000000000081565b6102a9601e81565b600554600160401b90046001600160a01b0316610257565b61040d610408366004611f75565b610ace565b6040516102089190611fea565b610234610428366004611e76565b60009081526009602052604090205460ff1690565b6101fe61044b366004611e76565b610b99565b6101fe7f0269c775826bf71ef2929fcab5dbcc0499f6f90cdc761333f54db63070592ef181565b6102577f000000000000000000000000000000000000000000000000000000000000000081565b6101fe6104ac366004611e76565b60036020526000908152604090205481565b6102826104cc366004611eee565b6111b7565b6102346104df366004611e76565b600a6020526000908152604090205460ff1681565b600654610257906001600160a01b031681565b6005546102a990640100000000900463ffffffff1681565b610527611230565b610532838383611289565b610160830135600081815260096020908152604091829020805460ff191660011790558151858152908101839052428183015290517f533df037fd3d371d398bf9369463abe8d8354d151afd584f33b276527250f2b8916060908290030190a15061059c60018055565b505050565b60008181036105b257506000919050565b60055463ffffffff16805b63ffffffff811660009081526004602052604090205484036105e3575060019392505050565b8063ffffffff166000036105f55750601e5b806105ff8161205c565b9150508163ffffffff168163ffffffff16036105bd575060009392505050565b610627611776565b61063160006117ef565b565b61063b611230565b6001821015801561064d575060048211155b6106c45760405162461bcd60e51b815260206004820152603d60248201527f4372656469744e6f7465506f6f6c3a205468652063726564697420747970652060448201527f73686f756c642062652065697468657220312c20322c2033206f72203400000060648201526084015b60405180910390fd5b6000838152600a602052604090205460ff16156107495760405162461bcd60e51b815260206004820152603b60248201527f4372656469744e6f7465506f6f6c3a205468697320636f6d6d69746d656e742060448201527f68617320616c7265616479206265656e2072656769737465726564000000000060648201526084016106bb565b60006107548461183f565b6000858152600a60205260408120805460ff1916600190811790915560075492935090916001600160a01b03169063f9405d6a90610792908761207c565b6040518263ffffffff1660e01b81526004016107b091815260200190565b602060405180830381865afa1580156107cd573d6000803e3d6000fd5b505050506040513d601f19601f820116820180604052508101906107f1919061208f565b90506000610801826103e86120a8565b905061082261080e611a34565b6006546001600160a01b0316903084611a43565b60075460405163023a802d60e21b8152600481018790526103e860248201526001600160a01b038681166044830152909116906308ea00b490606401600060405180830381600087803b15801561087857600080fd5b505af115801561088c573d6000803e3d6000fd5b505060408051888152602081018a905263ffffffff87168183015242606082015290516001600160a01b03881693507f208e77e138e47968761219e44adfd94fb1c3ea28048a718bb70ef055cf7f5ba792509081900360800190a250505061059c60018055565b600060008051602061245b83398151915283106109525760405162461bcd60e51b815260206004820181905260248201527f5f6c6566742073686f756c6420626520696e7369646520746865206669656c6460448201526064016106bb565b60008051602061245b83398151915282106109b95760405162461bcd60e51b815260206004820152602160248201527f5f72696768742073686f756c6420626520696e7369646520746865206669656c6044820152601960fa1b60648201526084016106bb565b604051633f1a118760e01b8152600481018490526000602482018190526044820181905284916001600160a01b03871690633f1a1187906064016040805180830381865afa158015610a0f573d6000803e3d6000fd5b505050506040513d601f19601f82011682018060405250810190610a3391906120bf565b909250905060008051602061245b833981519152848308604051633f1a118760e01b81526004810182905260248101839052600060448201529092506001600160a01b03871690633f1a1187906064016040805180830381865afa158015610a9f573d6000803e3d6000fd5b505050506040513d601f19601f82011682018060405250810190610ac391906120bf565b509695505050505050565b606060008267ffffffffffffffff811115610aeb57610aeb6120f9565b604051908082528060200260200182016040528015610b14578160200160208202803683370190505b50905060005b83811015610b8f5760096000868684818110610b3857610b38612030565b90506020020135815260200190815260200160002060009054906101000a900460ff16828281518110610b6d57610b6d612030565b9115156020928302919091019091015280610b878161210f565b915050610b1a565b5090505b92915050565b600081600003610bca57507f0269c775826bf71ef2929fcab5dbcc0499f6f90cdc761333f54db63070592ef1919050565b81600103610bf957507f115563063a4d0e6c960b291821c71ddff0318a046d7030b0570b03c5174fad88919050565b81600203610c2857507f2be2b455e9fd91c8594da7eaf35cfc4c6198b4c3f27e46340e8f476e4cc6cb72919050565b81600303610c5757507f2c027c438cacfdbee2b7e838f6a7f2f116a48dd3ef491362bda9f83dae14dfcd919050565b81600403610c8657507f06cb0a4df16153f291eeb68b903810fe979b7dd9f334887e4251215af8afd608919050565b81600503610cb557507f250da57c5cae1d36700d6621d07e65ddae9713cd3af707a29df28d83429a7974919050565b81600603610ce457507f242ea4736a6694f4bd988ee7380764a9d639d823ebaf3112fc1e065bdc435375919050565b81600703610d1357507f198f135d37a7d88fedb617f6cab8940411de8c7ff43f211e0c8d000301a63e06919050565b81600803610d4257507f0a87e43d1c45af457a9bfb51c3cf14f07cf3485a3c1ccfcc0589d7877264a277919050565b81600903610d7157507f1de630c82ab7789820ab1fa17784accf01cbce0425b9f59ad5e15b256e9e908f919050565b81600a03610da057507f0790060571cf9ee25b441f4dbc10e128c7355755dfe1a746b4b84523c1388115919050565b81600b03610dcf57507f1c699b4b613b7e5b4135811becfea9100cdc18d1d0305e4dd6a1c3bde04d3656919050565b81600c03610dfd57507e684b8d11ea2e8baab9709d571b502b8ab79f7ff62fab97875b29cb9cf3dd7a919050565b81600d03610e2c57507f012663bd13a8f01f88acbcb89bbf74a68349cce2939deb035bc80a1ec9014fcd919050565b81600e03610e5b57507f03b16e3bd3744be1db9bd99484f05f7e1243f9c0300936120ed3a38aea9f352d919050565b81600f03610e8a57507f2f375ba533cff24d557a4174583d7080a386a043c5f5c008c0202b1bf5c90fd8919050565b81601003610eb957507f29c41d5ac3a5cd779479aafde1fdadb9014eb5aee605be9c023f7ba3073de15c919050565b81601103610ee857507f2e212c95cf21c6d17434b55dbd571b266367d58d24db3efa0d91249533c20537919050565b81601203610f1757507f0b5f241a2ff4200f8c5fe5f75ea9d220be31740a07d14e14014f434ab86b7003919050565b81601303610f4657507f0a6d473442d8bd8a19415ecb08a4808ade2a437d55a24821835fe19ef220943a919050565b81601403610f7557507f2c838a2134fd4068d0716cfc52e6bc1b4031cb0e3623aa428ba15a348564a224919050565b81601503610fa457507f0168f1f4b1fde2e4af376f4fb9fc0f68bca8f20faeb5506f3eabfee46d889ee0919050565b81601603610fd357507f1c2d794f5a5fb54a9e9f943036719a39ee6c21ae8e35b49d82c3ed997b087778919050565b8160170361100257507f0b6cf84774bf6a168859726ce6d977758a44297eeed4f500da01e5c2691a877d919050565b8160180361103157507f24f5d3cb54181cbf9a67e246dd39f4bbad3caf5a70aec4029af604a2bd97688a919050565b8160190361105f57507e8f61547deba5182d019860e70b5873cacabddd243f78250fdb250c057d6418919050565b81601a0361108e57507f1a731fc78852ad3587017f7d2fa7eea01ddf266f85fba6b5cc28fe7dfd93c9c0919050565b81601b036110bd57507f08adab9419bf523eda8d046ce4dd906ee8973d00a4fb614a0ed7527330bf88c2919050565b81601c036110ec57507f0470bf8ef24b4f8f4171edd2b47916fef4caa69c87fa843f1be0553c22914f6d919050565b81601d0361111b57507f300ca9bb39bc9b7248f4033ee8085bc4e7c6e89b410bb0326db01a4f11baa73f919050565b81601e0361114a57507f2331a6c3220ba1b932b8a473108e07395c42e6e173426a9bbf9594c37bc0f27c919050565b81601f0361117957507f1d112f31348e0fedfdb0b872663ae1ef9fdf5740f7576938a79b7bb2c870654b919050565b60405162461bcd60e51b8152602060048201526013602482015272496e646578206f7574206f6620626f756e647360681b60448201526064016106bb565b6111bf611776565b6001600160a01b0381166112245760405162461bcd60e51b815260206004820152602660248201527f4f776e61626c653a206e6577206f776e657220697320746865207a65726f206160448201526564647265737360d01b60648201526084016106bb565b61122d816117ef565b50565b6002600154036112825760405162461bcd60e51b815260206004820152601f60248201527f5265656e7472616e637947756172643a207265656e7472616e742063616c6c0060448201526064016106bb565b6002600155565b610100830135611298816105a1565b6112f95760405162461bcd60e51b815260206004820152602c60248201527f4372656469744e6f7465506f6f6c3a2043616e6e6f742066696e6420796f757260448201526b081b595c9adb19481c9bdbdd60a21b60648201526084016106bb565b6101208401358381146113915760405162461bcd60e51b815260206004820152605460248201527f4372656469744e6f7465506f6f6c3a2050726f6f66206372656469742074797060448201527f6520646f6573206e6f74206d61746368207468652066756e6374696f6e206172606482015273033bab6b2b73a10302fb1b932b234ba2a3cb832b60651b608482015260a4016106bb565b6101408501356001600160a01b038416811461143b5760405162461bcd60e51b815260206004820152605e60248201527f4372656469744e6f7465506f6f6c3a2050726f6f66206973737565722070726f60448201527f7879206164647265737320646f6573206e6f74206d617463682074686520667560648201527f6e6374696f6e20617267756d656e7420605f69737375657250726f7879600000608482015260a4016106bb565b61016086013560008181526009602052604090205460ff16156114b95760405162461bcd60e51b815260206004820152603060248201527f4372656469744e6f7465506f6f6c3a2054686973206e6f74652068617320616c60448201526f1c9958591e481899595b881cdc195b9d60821b60648201526084016106bb565b61018087013560006114c9611aa3565b8080601f01602080910402602001604051908101604052809392919081815260200183838082843760009201829052506040805160208101909152949550936001600160a01b037f0000000000000000000000000000000000000000000000000000000000000000169350635ba5832c925090508061154a86866004611ab6565b6115716101a061155d6101606004612128565b6115679190612128565b8851899190611ab6565b60405160200161158292919061215f565b60408051601f198184030181529082905261159f9160200161218e565b604051602081830303815290604052805190602001208152506040518263ffffffff1660e01b81526004016115d491906121aa565b602060405180830381865afa1580156115f1573d6000803e3d6000fd5b505050506040513d601f19601f82011682018060405250810190611615919061208f565b905082811461168c5760405162461bcd60e51b815260206004820152603d60248201527f4372656469744e6f7465506f6f6c3a2050726f6f6620696e74656e7420646f6560448201527f73206e6f74206d61746368207468652066756e6374696f6e2063616c6c00000060648201526084016106bb565b600854604080516334baeab960e01b81526001600160a01b03909216916334baeab9916116cb918e9182019060c08301906101008401906004016121dc565b602060405180830381865afa1580156116e8573d6000803e3d6000fd5b505050506040513d601f19601f8201168201806040525081019061170c9190612228565b61176a5760405162461bcd60e51b815260206004820152602960248201527f4372656469744e6f7465506f6f6c3a2050726f6f6620766572696669636174696044820152681bdb8819985a5b195960ba1b60648201526084016106bb565b50505050505050505050565b61177e611a34565b6001600160a01b03166117996000546001600160a01b031690565b6001600160a01b0316146106315760405162461bcd60e51b815260206004820181905260248201527f4f776e61626c653a2063616c6c6572206973206e6f7420746865206f776e657260448201526064016106bb565b600080546001600160a01b038381166001600160a01b0319831681178455604051919092169283917f8be0079c531659141344cd1fd0a4f28419497f9722a3daafe3b4186f6b6457e09190a35050565b6005546002805460009263ffffffff640100000000909104811692611867929091169061235b565b63ffffffff168163ffffffff16036118da5760405162461bcd60e51b815260206004820152603060248201527f4d65726b6c6520747265652069732066756c6c2e204e6f206d6f7265206c656160448201526f1d995cc818d85b88189948185919195960821b60648201526084016106bb565b8083600080805b60025463ffffffff90811690821610156119a657611900600286612370565b63ffffffff1660000361193e5783925061191f8163ffffffff16610b99565b63ffffffff82166000908152600360205260409020859055915061195a565b63ffffffff811660009081526003602052604090205492508391505b6119857f000000000000000000000000000000000000000000000000000000000000000084846108f3565b9350611992600286612393565b94508061199e816123b6565b9150506118e1565b50600554600090601e906119c19063ffffffff1660016123d9565b6119cb9190612370565b6005805463ffffffff191663ffffffff831690811790915560009081526004602052604090208590559050611a018660016123d9565b6005805463ffffffff929092166401000000000267ffffffff000000001990921691909117905550939695505050505050565b6000611a3e611b87565b905090565b604080516001600160a01b0385811660248301528416604482015260648082018490528251808303909101815260849091019091526020810180516001600160e01b03166323b872dd60e01b179052611a9d908590611bc2565b50505050565b366000611aae611c97565b915091509091565b60606000611ac4848461207c565b67ffffffffffffffff811115611adc57611adc6120f9565b6040519080825280601f01601f191660200182016040528015611b06576020820181803683370190505b50905060005b611b16858561207c565b811015611b7e5785611b288683612128565b81518110611b3857611b38612030565b602001015160f81c60f81b828281518110611b5557611b55612030565b60200101906001600160f81b031916908160001a90535080611b768161210f565b915050611b0c565b50949350505050565b600060143610801590611bab5750600554600160401b90046001600160a01b031633145b15611bbd575060131936013560601c90565b503390565b6000611c17826040518060400160405280602081526020017f5361666545524332303a206c6f772d6c6576656c2063616c6c206661696c6564815250856001600160a01b0316611ce69092919063ffffffff16565b9050805160001480611c38575080806020019051810190611c389190612228565b61059c5760405162461bcd60e51b815260206004820152602a60248201527f5361666545524332303a204552433230206f7065726174696f6e20646964206e6044820152691bdd081cdd58d8d9595960b21b60648201526084016106bb565b36600060148210801590611cbc5750600554600160401b90046001600160a01b031633145b15611cdd5760008036611cd060148261207c565b92611aae939291906123fd565b50600091369150565b6060611cf58484600085611cfd565b949350505050565b606082471015611d5e5760405162461bcd60e51b815260206004820152602660248201527f416464726573733a20696e73756666696369656e742062616c616e636520666f6044820152651c8818d85b1b60d21b60648201526084016106bb565b600080866001600160a01b03168587604051611d7a919061218e565b60006040518083038185875af1925050503d8060008114611db7576040519150601f19603f3d011682016040523d82523d6000602084013e611dbc565b606091505b5091509150611dcd87838387611dd8565b979650505050505050565b60608315611e47578251600003611e40576001600160a01b0385163b611e405760405162461bcd60e51b815260206004820152601d60248201527f416464726573733a2063616c6c20746f206e6f6e2d636f6e747261637400000060448201526064016106bb565b5081611cf5565b611cf58383815115611e5c5781518083602001fd5b8060405162461bcd60e51b81526004016106bb9190612427565b600060208284031215611e8857600080fd5b5035919050565b6001600160a01b038116811461122d57600080fd5b60008060008385036101e0811215611ebb57600080fd5b6101a080821215611ecb57600080fd5b8594508401359250506101c0830135611ee381611e8f565b809150509250925092565b600060208284031215611f0057600080fd5b8135611f0b81611e8f565b9392505050565b600080600060608486031215611f2757600080fd5b83359250602084013591506040840135611ee381611e8f565b600080600060608486031215611f5557600080fd5b8335611f6081611e8f565b95602085013595506040909401359392505050565b60008060208385031215611f8857600080fd5b823567ffffffffffffffff80821115611fa057600080fd5b818501915085601f830112611fb457600080fd5b813581811115611fc357600080fd5b8660208260051b8501011115611fd857600080fd5b60209290920196919550909350505050565b6020808252825182820181905260009190848201906040850190845b81811015612024578351151583529284019291840191600101612006565b50909695505050505050565b634e487b7160e01b600052603260045260246000fd5b634e487b7160e01b600052601160045260246000fd5b600063ffffffff82168061207257612072612046565b6000190192915050565b81810381811115610b9357610b93612046565b6000602082840312156120a157600080fd5b5051919050565b8082028115828204841417610b9357610b93612046565b600080604083850312156120d257600080fd5b505080516020909101519092909150565b634e487b7160e01b600052601260045260246000fd5b634e487b7160e01b600052604160045260246000fd5b60006001820161212157612121612046565b5060010190565b80820180821115610b9357610b93612046565b60005b8381101561215657818101518382015260200161213e565b50506000910152565b6000835161217181846020880161213b565b83519083019061218581836020880161213b565b01949350505050565b600082516121a081846020870161213b565b9190910192915050565b602081810190828460005b60018110156121d2578151835291830191908301906001016121b5565b5050505092915050565b6101a081016040808784378083018660005b600281101561220b578382843791830191908301906001016121ee565b505050808560c08501375060a08361010084013795945050505050565b60006020828403121561223a57600080fd5b81518015158114611f0b57600080fd5b600181815b80851115612287578163ffffffff0482111561226d5761226d612046565b8085161561227a57918102915b93841c939080029061224f565b509250929050565b60008261229e57506001610b93565b816122ab57506000610b93565b81600181146122c157600281146122cb576122fc565b6001915050610b93565b60ff8411156122dc576122dc612046565b6001841b915063ffffffff8211156122f6576122f6612046565b50610b93565b5060208310610133831016604e8410600b8410161715612333575081810a63ffffffff81111561232e5761232e612046565b610b93565b61233d838361224a565b8063ffffffff0482111561235357612353612046565b029392505050565b600063ffffffff611cf581851682851661228f565b600063ffffffff80841680612387576123876120e3565b92169190910692915050565b600063ffffffff808416806123aa576123aa6120e3565b92169190910492915050565b600063ffffffff8083168181036123cf576123cf612046565b6001019392505050565b63ffffffff8181168382160190808211156123f6576123f6612046565b5092915050565b6000808585111561240d57600080fd5b8386111561241a57600080fd5b5050820193919092039150565b602081526000825180602084015261244681604085016020870161213b565b601f01601f1916919091016040019291505056fe30644e72e131a029b85045b68181585d2833e84879b9709143e1f593f0000001a2646970667358221220523b2a34b7581cba7a91fd571d4aa01052304d573af90f75c804238efb05fe7964736f6c63430008130033",
  "immutableReferences": {
    "5843": [
      {
        "length": 32,
        "start": 952
      },
      {
        "length": 32,
        "start": 5394
      }
    ],
    "7584": [
      {
        "length": 32,
        "start": 1148
      },
      {
        "length": 32,
        "start": 6495
      }
    ]
  },
  "source": "// SPDX-License-Identifier: UNLICENSED\npragma solidity 0.8.19;\n\nimport '@openzeppelin/contracts/access/Ownable.sol';\nimport '@openzeppelin/contracts/security/ReentrancyGuard.sol';\nimport '@opengsn/contracts/src/ERC2771Recipient.sol';\nimport '@openzeppelin/contracts/token/ERC20/IERC20.sol';\nimport '@openzeppelin/contracts/token/ERC20/utils/SafeERC20.sol';\n\nimport './MerkleTreeWithHistory.sol';\nimport '../Utilities/ByteUtils.sol';\n\nimport '../Interfaces/IArianeeStore.sol';\nimport '../Interfaces/IArianeeSmartAsset.sol';\nimport '../Interfaces/IArianeeEvent.sol';\n\ninterface ICreditVerifier {\n    function verifyProof(\n        uint[2] calldata _pA,\n        uint[2][2] calldata _pB,\n        uint[2] calldata _pC,\n        uint[5] calldata _pubSignals\n    ) external view returns (bool);\n}\n\ninterface IPoseidon {\n    function poseidon(bytes32[1] memory input) external pure returns (bytes32);\n}\n\ncontract ArianeeCreditNotePool is Ownable, ReentrancyGuard, MerkleTreeWithHistory, ERC2771Recipient {\n    using ByteUtils for bytes;\n    using SafeERC20 for IERC20;\n\n    /**\n     * @notice The CreditNoteProof must be the second argument if used in a function\n     * This is allowing us to remove the CreditNoteProof from `_msgData()` easily\n     */\n    struct CreditNoteProof {\n        uint[2] _pA; // 64 bytes\n        uint[2][2] _pB; // 128 bytes\n        uint[2] _pC; // 64 bytes\n        uint[5] _pubSignals; // 160 bytes\n    } // Total: 416 bytes\n\n    uint256 public constant SELECTOR_SIZE = 4;\n    uint256 public constant OWNERSHIP_PROOF_SIZE = 352;\n    uint256 public constant CREDIT_NOTE_PROOF_SIZE = 416;\n\n    uint256 public constant MAX_NULLIFIER_PER_COMMITMENT = 1000;\n\n    /**\n     * @notice The ERC20 token used to purchase credits\n     */\n    IERC20 public token;\n\n    /**\n     * @notice The ArianeeStore contract used to purchase credits\n     */\n    IArianeeStore public store;\n\n    /**\n     * @notice The contract used to verify the credit note proofs\n     */\n    ICreditVerifier public verifier;\n\n    /**\n     * @notice The contract used to compute Poseidon hashes\n     */\n    IPoseidon public immutable poseidon;\n\n    /**\n     * @notice Mapping<NullifierHash, IsUsed>\n     */\n    mapping(bytes32 => bool) public nullifierHashes;\n    /**\n     * @notice Mapping<CommitmentHash, IsRegistered>\n     */\n    mapping(bytes32 => bool) public commitmentHashes;\n\n    /**\n     * @notice Emitted when a credit note is purchased\n     */\n    event Purchased(\n        uint256 creditType,\n        bytes32 commitmentHash,\n        uint32 leafIndex,\n        address indexed issuerProxy,\n        uint256 timestamp\n    );\n    /**\n     * @notice Emitted when a credit note is spent\n     */\n    event Spent(uint256 creditType, bytes32 nullifierHash, uint256 timestamp);\n\n    constructor(\n        address _token,\n        address _store,\n        address _verifier,\n        uint32 _merkleTreeHeight,\n        address _hasher,\n        address _poseidon,\n        address _trustedForwarder\n    ) MerkleTreeWithHistory(_merkleTreeHeight, _hasher) {\n        _setTrustedForwarder(_trustedForwarder);\n\n        token = IERC20(_token);\n        store = IArianeeStore(_store);\n        verifier = ICreditVerifier(_verifier);\n        poseidon = IPoseidon(_poseidon);\n    }\n\n    function purchase(bytes32 _commitmentHash, uint256 _creditType, address _issuerProxy) external nonReentrant {\n        require(_creditType >= 1 && _creditType <= 4, 'CreditNotePool: The credit type should be either 1, 2, 3 or 4');\n        require(!commitmentHashes[_commitmentHash], 'CreditNotePool: This commitment has already been registered');\n\n        uint32 insertedIndex = _insert(_commitmentHash);\n        commitmentHashes[_commitmentHash] = true;\n\n        // The credit type is 0-indexed in the store, but 1-indexed in the commitment\n        uint256 creditPrice = store.getCreditPrice(_creditType - 1);\n\n        // One credit note is worth `MAX_NULLIFIER_PER_COMMITMENT` credits\n        uint256 amount = MAX_NULLIFIER_PER_COMMITMENT * creditPrice;\n\n        // The caller should have approved the contract to transfer the amount of tokens\n        token.safeTransferFrom(_msgSender(), address(this), amount);\n        store.buyCredit(_creditType, MAX_NULLIFIER_PER_COMMITMENT, _issuerProxy);\n\n        emit Purchased(_creditType, _commitmentHash, insertedIndex, _issuerProxy, block.timestamp);\n    }\n\n    function spend(\n        CreditNoteProof calldata _creditNoteProof,\n        uint256 _creditType,\n        address _issuerProxy\n    ) external nonReentrant {\n        _verifyProof(_creditNoteProof, _creditType, _issuerProxy);\n\n        bytes32 pNullifierHash = bytes32(_creditNoteProof._pubSignals[3]);\n        nullifierHashes[bytes32(_creditNoteProof._pubSignals[3])] = true;\n        emit Spent(_creditType, pNullifierHash, block.timestamp);\n    }\n\n    function _verifyProof(\n        CreditNoteProof calldata _creditNoteProof,\n        uint256 _creditType,\n        address _issuerProxy\n    ) internal view {\n        bytes32 pRoot = bytes32(_creditNoteProof._pubSignals[0]);\n        require(isKnownRoot(pRoot), 'CreditNotePool: Cannot find your merkle root'); // Make sure to use a recent one\n\n        uint256 pCreditType = _creditNoteProof._pubSignals[1];\n        require(\n            pCreditType == _creditType,\n            'CreditNotePool: Proof credit type does not match the function argument `_creditType`'\n        );\n\n        uint256 pIssuerProxy = _creditNoteProof._pubSignals[2];\n        require(\n            pIssuerProxy == uint256(uint160(_issuerProxy)),\n            'CreditNotePool: Proof issuer proxy address does not match the function argument `_issuerProxy`'\n        );\n\n        bytes32 pNullifierHash = bytes32(_creditNoteProof._pubSignals[3]);\n        require(!nullifierHashes[pNullifierHash], 'CreditNotePool: This note has already been spent');\n\n        uint256 pIntentHash = _creditNoteProof._pubSignals[4];\n        bytes memory msgData = _msgData();\n        // Removing the `OwnershipProof` (352 bytes) and the `CreditNoteProof` (416 bytes) from the msg.data before computing the hash to compare\n        uint256 msgDataHash = uint256(\n            poseidon.poseidon(\n                [\n                    keccak256(\n                        abi.encodePacked(\n                            bytes.concat(\n                                msgData.slice(0, SELECTOR_SIZE),\n                                msgData.slice(\n                                    SELECTOR_SIZE + OWNERSHIP_PROOF_SIZE + CREDIT_NOTE_PROOF_SIZE,\n                                    msgData.length\n                                )\n                            )\n                        )\n                    )\n                ]\n            )\n        );\n        require(pIntentHash == msgDataHash, 'CreditNotePool: Proof intent does not match the function call');\n\n        require(\n            verifier.verifyProof(\n                _creditNoteProof._pA,\n                _creditNoteProof._pB,\n                _creditNoteProof._pC,\n                _creditNoteProof._pubSignals\n            ),\n            'CreditNotePool: Proof verification failed'\n        );\n    }\n\n    function isSpentBatch(bytes32[] calldata _nullifierHashes) external view returns (bool[] memory) {\n        bool[] memory spent = new bool[](_nullifierHashes.length);\n        for (uint256 i = 0; i < _nullifierHashes.length; i++) {\n            spent[i] = nullifierHashes[_nullifierHashes[i]];\n        }\n        return spent;\n    }\n\n    function isSpent(bytes32 _nullifierHash) external view returns (bool) {\n        return nullifierHashes[_nullifierHash];\n    }\n\n    // ERC2771Recipient\n\n    function _msgSender() internal view override(Context, ERC2771Recipient) returns (address ret) {\n        return ERC2771Recipient._msgSender();\n    }\n\n    function _msgData() internal view override(Context, ERC2771Recipient) returns (bytes calldata ret) {\n        ret = ERC2771Recipient._msgData();\n    }\n}\n",
  "sourcePath": "/Users/nm/Documents/GitHub/ArianeeMaster/contracts/ArianeePrivacy/ArianeeCreditNotePool.sol",
  "compiler": {
    "name": "solc",
    "version": "0.8.19+commit.7dd6d404.Emscripten.clang"
  },
  "schemaVersion": "3.4.16",
  "updatedAt": "2024-05-27T10:59:01.707Z",
  "devdoc": {
    "kind": "dev",
    "methods": {
      "getLastRoot()": {
        "details": "Returns the last root"
      },
      "getTrustedForwarder()": {
        "returns": {
          "forwarder": "The address of the Forwarder contract that is being used."
        }
      },
      "hashLeftRight(address,bytes32,bytes32)": {
        "details": "Hash 2 tree leaves, returns MiMC(_left, _right)"
      },
      "isKnownRoot(bytes32)": {
        "details": "Whether the root is present in the root history"
      },
      "isTrustedForwarder(address)": {
        "params": {
          "forwarder": "The address of the Forwarder contract that is being used."
        },
        "returns": {
          "_0": "isTrustedForwarder `true` if the Forwarder is trusted to forward relayed transactions by this Recipient."
        }
      },
      "owner()": {
        "details": "Returns the address of the current owner."
      },
      "renounceOwnership()": {
        "details": "Leaves the contract without owner. It will not be possible to call `onlyOwner` functions. Can only be called by the current owner. NOTE: Renouncing ownership will leave the contract without an owner, thereby disabling any functionality that is only available to the owner."
      },
      "transferOwnership(address)": {
        "details": "Transfers ownership of the contract to a new account (`newOwner`). Can only be called by the current owner."
      },
      "zeros(uint256)": {
        "details": "provides Zero (Empty) elements for a MiMC MerkleTree. Up to 32 levels"
      }
    },
    "version": 1
  },
  "userdoc": {
    "events": {
      "Purchased(uint256,bytes32,uint32,address,uint256)": {
        "notice": "Emitted when a credit note is purchased"
      },
      "Spent(uint256,bytes32,uint256)": {
        "notice": "Emitted when a credit note is spent"
      }
    },
    "kind": "user",
    "methods": {
      "commitmentHashes(bytes32)": {
        "notice": "Mapping<CommitmentHash, IsRegistered>"
      },
      "getTrustedForwarder()": {
        "notice": ":warning: **Warning** :warning: The Forwarder can have a full control over your Recipient. Only trust verified Forwarder.Method is not a required method to allow Recipients to trust multiple Forwarders. Not recommended yet."
      },
      "isTrustedForwarder(address)": {
        "notice": ":warning: **Warning** :warning: The Forwarder can have a full control over your Recipient. Only trust verified Forwarder."
      },
      "nullifierHashes(bytes32)": {
        "notice": "Mapping<NullifierHash, IsUsed>"
      },
      "poseidon()": {
        "notice": "The contract used to compute Poseidon hashes"
      },
      "store()": {
        "notice": "The ArianeeStore contract used to purchase credits"
      },
      "token()": {
        "notice": "The ERC20 token used to purchase credits"
      },
      "verifier()": {
        "notice": "The contract used to verify the credit note proofs"
      }
    },
    "version": 1
  }
}