{"abi":[{"type":"constructor","inputs":[{"name":"_trustedForwarder","type":"address","internalType":"address"}],"stateMutability":"nonpayable"},{"type":"function","name":"ArianeeIdentityStorageV0Location","inputs":[],"outputs":[{"name":"","type":"bytes32","internalType":"bytes32"}],"stateMutability":"view"},{"type":"function","name":"DEFAULT_ADMIN_ROLE","inputs":[],"outputs":[{"name":"","type":"bytes32","internalType":"bytes32"}],"stateMutability":"view"},{"type":"function","name":"addAddressToApprovedList","inputs":[{"name":"_newIdentity","type":"address","internalType":"address"}],"outputs":[{"name":"","type":"bytes3","internalType":"bytes3"}],"stateMutability":"nonpayable"},{"type":"function","name":"addressFromId","inputs":[{"name":"_id","type":"bytes3","internalType":"bytes3"}],"outputs":[{"name":"_identity","type":"address","internalType":"address"}],"stateMutability":"view"},{"type":"function","name":"addressImprint","inputs":[{"name":"_identity","type":"address","internalType":"address"}],"outputs":[{"name":"_imprint","type":"bytes32","internalType":"bytes32"}],"stateMutability":"view"},{"type":"function","name":"addressIsApproved","inputs":[{"name":"_identity","type":"address","internalType":"address"}],"outputs":[{"name":"_isApproved","type":"bool","internalType":"bool"}],"stateMutability":"view"},{"type":"function","name":"addressURI","inputs":[{"name":"_identity","type":"address","internalType":"address"}],"outputs":[{"name":"_uri","type":"string","internalType":"string"}],"stateMutability":"view"},{"type":"function","name":"compromiseIdentityDate","inputs":[{"name":"_identity","type":"address","internalType":"address"}],"outputs":[{"name":"_compromiseDate","type":"uint256","internalType":"uint256"}],"stateMutability":"view"},{"type":"function","name":"getRoleAdmin","inputs":[{"name":"role","type":"bytes32","internalType":"bytes32"}],"outputs":[{"name":"","type":"bytes32","internalType":"bytes32"}],"stateMutability":"view"},{"type":"function","name":"grantRole","inputs":[{"name":"role","type":"bytes32","internalType":"bytes32"},{"name":"account","type":"address","internalType":"address"}],"outputs":[],"stateMutability":"nonpayable"},{"type":"function","name":"hasRole","inputs":[{"name":"role","type":"bytes32","internalType":"bytes32"},{"name":"account","type":"address","internalType":"address"}],"outputs":[{"name":"","type":"bool","internalType":"bool"}],"stateMutability":"view"},{"type":"function","name":"initialize","inputs":[{"name":"_initialAdmin","type":"address","internalType":"address"},{"name":"_newBouncerAddress","type":"address","internalType":"address"},{"name":"_newValidatorAddress","type":"address","internalType":"address"}],"outputs":[],"stateMutability":"nonpayable"},{"type":"function","name":"isTrustedForwarder","inputs":[{"name":"forwarder","type":"address","internalType":"address"}],"outputs":[{"name":"","type":"bool","internalType":"bool"}],"stateMutability":"view"},{"type":"function","name":"removeAddressFromApprovedList","inputs":[{"name":"_identity","type":"address","internalType":"address"}],"outputs":[],"stateMutability":"nonpayable"},{"type":"function","name":"renounceRole","inputs":[{"name":"role","type":"bytes32","internalType":"bytes32"},{"name":"callerConfirmation","type":"address","internalType":"address"}],"outputs":[],"stateMutability":"nonpayable"},{"type":"function","name":"revokeRole","inputs":[{"name":"role","type":"bytes32","internalType":"bytes32"},{"name":"account","type":"address","internalType":"address"}],"outputs":[],"stateMutability":"nonpayable"},{"type":"function","name":"supportsInterface","inputs":[{"name":"interfaceId","type":"bytes4","internalType":"bytes4"}],"outputs":[{"name":"","type":"bool","internalType":"bool"}],"stateMutability":"view"},{"type":"function","name":"trustedForwarder","inputs":[],"outputs":[{"name":"","type":"address","internalType":"address"}],"stateMutability":"view"},{"type":"function","name":"updateBouncerAddress","inputs":[{"name":"_newBouncerAddress","type":"address","internalType":"address"}],"outputs":[],"stateMutability":"nonpayable"},{"type":"function","name":"updateCompromiseDate","inputs":[{"name":"_identity","type":"address","internalType":"address"},{"name":"_compromiseDate","type":"uint256","internalType":"uint256"}],"outputs":[],"stateMutability":"nonpayable"},{"type":"function","name":"updateInformations","inputs":[{"name":"_uri","type":"string","internalType":"string"},{"name":"_imprint","type":"bytes32","internalType":"bytes32"}],"outputs":[],"stateMutability":"nonpayable"},{"type":"function","name":"updateValidatorAddress","inputs":[{"name":"_newValidatorAddress","type":"address","internalType":"address"}],"outputs":[],"stateMutability":"nonpayable"},{"type":"function","name":"validateInformation","inputs":[{"name":"_identity","type":"address","internalType":"address"},{"name":"_uriToValidate","type":"string","internalType":"string"},{"name":"_imprintToValidate","type":"bytes32","internalType":"bytes32"}],"outputs":[],"stateMutability":"nonpayable"},{"type":"function","name":"waitingImprint","inputs":[{"name":"_identity","type":"address","internalType":"address"}],"outputs":[{"name":"_waitingImprint","type":"bytes32","internalType":"bytes32"}],"stateMutability":"view"},{"type":"function","name":"waitingURI","inputs":[{"name":"_identity","type":"address","internalType":"address"}],"outputs":[{"name":"_waitingUri","type":"string","internalType":"string"}],"stateMutability":"view"},{"type":"event","name":"AddressApprovedAdded","inputs":[{"name":"_newIdentity","type":"address","indexed":false,"internalType":"address"},{"name":"_addressId","type":"bytes3","indexed":false,"internalType":"bytes3"}],"anonymous":false},{"type":"event","name":"AddressApprovedRemoved","inputs":[{"name":"_newIdentity","type":"address","indexed":false,"internalType":"address"}],"anonymous":false},{"type":"event","name":"IdentityCompromised","inputs":[{"name":"_identity","type":"address","indexed":false,"internalType":"address"},{"name":"_compromiseDate","type":"uint256","indexed":false,"internalType":"uint256"}],"anonymous":false},{"type":"event","name":"Initialized","inputs":[{"name":"version","type":"uint64","indexed":false,"internalType":"uint64"}],"anonymous":false},{"type":"event","name":"RoleAdminChanged","inputs":[{"name":"role","type":"bytes32","indexed":true,"internalType":"bytes32"},{"name":"previousAdminRole","type":"bytes32","indexed":true,"internalType":"bytes32"},{"name":"newAdminRole","type":"bytes32","indexed":true,"internalType":"bytes32"}],"anonymous":false},{"type":"event","name":"RoleGranted","inputs":[{"name":"role","type":"bytes32","indexed":true,"internalType":"bytes32"},{"name":"account","type":"address","indexed":true,"internalType":"address"},{"name":"sender","type":"address","indexed":true,"internalType":"address"}],"anonymous":false},{"type":"event","name":"RoleRevoked","inputs":[{"name":"role","type":"bytes32","indexed":true,"internalType":"bytes32"},{"name":"account","type":"address","indexed":true,"internalType":"address"},{"name":"sender","type":"address","indexed":true,"internalType":"address"}],"anonymous":false},{"type":"event","name":"SetAddress","inputs":[{"name":"_addressType","type":"string","indexed":false,"internalType":"string"},{"name":"_newAddress","type":"address","indexed":false,"internalType":"address"}],"anonymous":false},{"type":"event","name":"URIUpdated","inputs":[{"name":"_identity","type":"address","indexed":false,"internalType":"address"},{"name":"_uri","type":"string","indexed":false,"internalType":"string"},{"name":"_imprint","type":"bytes32","indexed":false,"internalType":"bytes32"}],"anonymous":false},{"type":"event","name":"URIValidate","inputs":[{"name":"_identity","type":"address","indexed":false,"internalType":"address"},{"name":"_uri","type":"string","indexed":false,"internalType":"string"},{"name":"_imprint","type":"bytes32","indexed":false,"internalType":"bytes32"}],"anonymous":false},{"type":"error","name":"AccessControlBadConfirmation","inputs":[]},{"type":"error","name":"AccessControlUnauthorizedAccount","inputs":[{"name":"account","type":"address","internalType":"address"},{"name":"neededRole","type":"bytes32","internalType":"bytes32"}]},{"type":"error","name":"InvalidInitialization","inputs":[]},{"type":"error","name":"NotInitializing","inputs":[]}],"bytecode":{"object":"0x60a03461011057601f611c4338819003918201601f19168301916001600160401b038311848410176101145780849260209460405283398101031261011057516001600160a01b0381168103610110576080525f516020611c235f395f51905f525460ff8160401c16610101576002600160401b03196001600160401b038216016100ab575b604051611afa9081610129823960805181818161066a01528181610ae20152611a1a0152f35b6001600160401b0319166001600160401b039081175f516020611c235f395f51905f52556040519081527fc7f505b2f371ae2175ee4913f4499e1f2633a7b5936321eed1cdaeb6115181d290602090a15f610085565b63f92ee8a960e01b5f5260045ffd5b5f80fd5b634e487b7160e01b5f52604160045260245ffdfe60806040526004361015610011575f80fd5b5f3560e01c806301ffc9a7146101a4578063132ec4a11461019f5780631a199a161461019a578063248a9ca31461019557806327f51a72146101905780632cd77b361461018b5780632f2ff15d1461018657806336568abe14610181578063374b87fd1461017c578063561aec7814610177578063572b6c051461017257806357d4248f1461016d5780635b0d4711146101685780635c5ad9671461016357806367d9162b1461015e5780637458bbc1146101595780637da0a8771461015457806391d148541461014f57806397a4d7b31461014a57806398e14d1f14610145578063a217fddf14610140578063abc6ce671461013b578063b66ffbe714610136578063c0c53b8b146101315763d547741f1461012c575f80fd5b61107d565b610ef9565b610ed9565b610e9f565b610e85565b610d58565b610b6c565b610b11565b610acd565b610a33565b6109dd565b610910565b61089f565b6106cc565b61064a565b6105aa565b610587565b610533565b6104e2565b61045f565b610400565b6103c1565b61033c565b61026a565b346101fa5760203660031901126101fa5760043563ffffffff60e01b81168091036101fa57602090637965db0b60e01b81149081156101e9575b506040519015158152f35b6301ffc9a760e01b1490505f6101de565b5f80fd5b600435906001600160a01b03821682036101fa57565b602435906001600160a01b03821682036101fa57565b604435906001600160a01b03821682036101fa57565b602060409281835280519182918282860152018484015e5f828201840152601f01601f1916010190565b346101fa5760203660031901126101fa5761028b6102866101fe565b6110c7565b604051905f9080549061029d8261116f565b808552916001811690811561031557506001146102d5575b6102d1846102c5818603826111bb565b60405191829182610240565b0390f35b5f90815260208120939250905b8082106102fb575090915081016020016102c5826102b5565b9192600181602092548385880101520191019092916102e2565b60ff191660208087019190915292151560051b850190920192506102c591508390506102b5565b346101fa5760203660031901126101fa577fb5fa77bd6bc3d862c73fa2474bfb96a0f76d38b622c54ff2a0188be82fb9651160806103786101fe565b610380611711565b610389816111dd565b6040519060408252601060408301526f76616c696461746f724164647265737360801b606083015260018060a01b03166020820152a1005b346101fa5760203660031901126101fa5760206103f86004355f525f516020611a855f395f51905f52602052600160405f20015490565b604051908152f35b346101fa5760203660031901126101fa57602061045661041e6101fe565b6001600160a01b03165f9081527f752b70e5aa143ce19d2e21e2c2168f140d8d7a955afc6436c3a7cbdb3b1373056020526040902090565b54604051908152f35b346101fa5760203660031901126101fa577fb5fa77bd6bc3d862c73fa2474bfb96a0f76d38b622c54ff2a0188be82fb96511608061049b6101fe565b6104a3611711565b6104ac8161123d565b6040519060408252600e60408301526d626f756e6365724164647265737360901b606083015260018060a01b03166020820152a1005b346101fa5760403660031901126101fa57610531600435610501610214565b9061052c610527825f525f516020611a855f395f51905f52602052600160405f20015490565b611779565b6118a1565b005b346101fa5760403660031901126101fa5760043561054f610214565b6001600160a01b0361055f611a17565b166001600160a01b038216036105785761053191611959565b63334bd91960e11b5f5260045ffd5b346101fa5760203660031901126101fa5760206104566105a56101fe565b6110ff565b346101fa5760203660031901126101fa577fd12e8945e9a5e91167be7fc9d4e953a018d48cba09b3838e57a7e0aff116c69860206105e66101fe565b6106266105f1611a17565b7f752b70e5aa143ce19d2e21e2c2168f140d8d7a955afc6436c3a7cbdb3b137307546001600160a01b0391821691161461129d565b61062f81611137565b805460ff191690556040516001600160a01b039091168152a1005b346101fa5760203660031901126101fa5760206106656101fe565b6040517f00000000000000000000000000000000000000000000000000000000000000006001600160a01b039081169216919091148152f35b9181601f840112156101fa5782359167ffffffffffffffff83116101fa57602083818601950101116101fa57565b346101fa5760603660031901126101fa576106e56101fe565b60243567ffffffffffffffff81116101fa575f916107bb61070d61089c93369060040161069e565b61076a60443561075a61071e611a17565b7f752b70e5aa143ce19d2e21e2c2168f140d8d7a955afc6436c3a7cbdb3b137308546001600160a01b03166001600160a01b03909116146112e8565b610763866110ff565b541461133f565b61078e6107b2610779866110c7565b60405161079c8161078e60208201809561139d565b03601f1981018352826111bb565b5190209360405192839160208301958691611407565b51902014611414565b6108026107c7826110c7565b6001600160a01b0383165f9081527f752b70e5aa143ce19d2e21e2c2168f140d8d7a955afc6436c3a7cbdb3b137301602052604090206114c9565b61080b816110ff565b546001600160a01b0382165f9081527f752b70e5aa143ce19d2e21e2c2168f140d8d7a955afc6436c3a7cbdb3b13730260205260409020557fdfa2a30946e62abf37186dc9ff5268cef32b4abf868fd965c5a55b29141f634161086d826110c7565b610876836110ff565b549061088860405192839286846115b6565b0390a16105a5610897826110c7565b61165b565b55005b346101fa5760203660031901126101fa576004356001600160e81b0319811681036101fa576001600160e81b0319165f9081527f752b70e5aa143ce19d2e21e2c2168f140d8d7a955afc6436c3a7cbdb3b137306602090815260409091206001600160a01b03905416604051908152f35b346101fa5760203660031901126101fa5761096461092c6101fe565b6001600160a01b03165f9081527f752b70e5aa143ce19d2e21e2c2168f140d8d7a955afc6436c3a7cbdb3b1373016020526040902090565b604051905f908054906109768261116f565b8085529160018116908115610315575060011461099d576102d1846102c5818603826111bb565b5f90815260208120939250905b8082106109c3575090915081016020016102c5826102b5565b9192600181602092548385880101520191019092916109aa565b346101fa5760203660031901126101fa5760206104566109fb6101fe565b6001600160a01b03165f9081527f752b70e5aa143ce19d2e21e2c2168f140d8d7a955afc6436c3a7cbdb3b1373026020526040902090565b346101fa5760403660031901126101fa577f2e6aa017648c8f32add4cfb0bd3bfd3408c9d7013d328e084656fb1db353dbb16040610a6f6101fe565b602435610a7d6105f1611a17565b6001600160a01b0382165f9081527f752b70e5aa143ce19d2e21e2c2168f140d8d7a955afc6436c3a7cbdb3b1373056020526040902081905582516001600160a01b0390921682526020820152a1005b346101fa575f3660031901126101fa576040517f00000000000000000000000000000000000000000000000000000000000000006001600160a01b03168152602090f35b346101fa5760403660031901126101fa57602060ff610b60600435610b34610214565b905f525f516020611a855f395f51905f52845260405f209060018060a01b03165f5260205260405f2090565b54166040519015158152f35b346101fa5760403660031901126101fa5760043567ffffffffffffffff81116101fa57610b9d90369060040161069e565b906024359160ff610bb4610baf611a17565b611137565b541615610d0557610bc6610286611a17565b9267ffffffffffffffff8211610d0057610bea82610be4865461116f565b86611484565b5f93601f8311600114610c725790610c6291610c3d84807f2d64b04fdb9bb57739881c5fd027d989ffd253cdc643f097258d3ed21631e132985f91610c67575b508160011b915f199060031b1c19161790565b90555b80610c4c6105a5611a17565b55610c55611a17565b92604051948594856116ba565b0390a1005b90508701355f610c2a565b601f19831694610c85825f5260205f2090565b955f5b818110610ce8575095610c62939291857f2d64b04fdb9bb57739881c5fd027d989ffd253cdc643f097258d3ed21631e1329810610ccf575b5050600184811b019055610c40565b8601355f19600387901b60f8161c191690555f80610cc0565b86830135885560019097019660209283019201610c88565b6111a7565b60405162461bcd60e51b815260206004820152602560248201527f417269616e65654964656e746974793a2041646472657373206e6f74206170706044820152641c9bdd995960da1b6064820152608490fd5b346101fa5760203660031901126101fa576102d1610d746101fe565b610d7f6105f1611a17565b610d8881611137565b805460ff19166001179055604051606082901b6bffffffffffffffffffffffff191660208201527fa31fdf99b4c3d07705b47b3201ab3a16914403acbeac6edc05896e76449e9ee290610de790610de2816034810161078e565b611a09565b82610e458294610e268462ffffff60e81b165f527f752b70e5aa143ce19d2e21e2c2168f140d8d7a955afc6436c3a7cbdb3b13730660205260405f2090565b80546001600160a01b0319166001600160a01b03909216919091179055565b604080516001600160a01b039290921682526001600160e81b0319929092166020820152a16040516001600160e81b031990911681529081906020820190565b346101fa575f3660031901126101fa5760206040515f8152f35b346101fa575f3660031901126101fa5760206040517f752b70e5aa143ce19d2e21e2c2168f140d8d7a955afc6436c3a7cbdb3b1373008152f35b346101fa5760203660031901126101fa57602060ff610b60610baf6101fe565b346101fa5760603660031901126101fa57610f126101fe565b610f1a610214565b90610f2361022a565b5f516020611aa55f395f51905f52549267ffffffffffffffff610f5660ff604087901c16159567ffffffffffffffff1690565b1680159081611075575b600114908161106b575b159081611062575b5061105357610fb69284610fad600167ffffffffffffffff195f516020611aa55f395f51905f525416175f516020611aa55f395f51905f5255565b611019576116f5565b610fbc57005b610fe660ff60401b195f516020611aa55f395f51905f5254165f516020611aa55f395f51905f5255565b604051600181527fc7f505b2f371ae2175ee4913f4499e1f2633a7b5936321eed1cdaeb6115181d2908060208101610c62565b61104e6801000000000000000060ff60401b195f516020611aa55f395f51905f525416175f516020611aa55f395f51905f5255565b6116f5565b63f92ee8a960e01b5f5260045ffd5b9050155f610f72565b303b159150610f6a565b859150610f60565b346101fa5760403660031901126101fa5761053160043561109c610214565b906110c2610527825f525f516020611a855f395f51905f52602052600160405f20015490565b611959565b6001600160a01b03165f9081527f752b70e5aa143ce19d2e21e2c2168f140d8d7a955afc6436c3a7cbdb3b1373036020526040902090565b6001600160a01b03165f9081527f752b70e5aa143ce19d2e21e2c2168f140d8d7a955afc6436c3a7cbdb3b1373046020526040902090565b6001600160a01b03165f9081527f752b70e5aa143ce19d2e21e2c2168f140d8d7a955afc6436c3a7cbdb3b1373006020526040902090565b90600182811c9216801561119d575b602083101461118957565b634e487b7160e01b5f52602260045260245ffd5b91607f169161117e565b634e487b7160e01b5f52604160045260245ffd5b90601f8019910116810190811067ffffffffffffffff821117610d0057604052565b60018060a01b03166bffffffffffffffffffffffff60a01b7f752b70e5aa143ce19d2e21e2c2168f140d8d7a955afc6436c3a7cbdb3b1373085416177f752b70e5aa143ce19d2e21e2c2168f140d8d7a955afc6436c3a7cbdb3b13730855565b60018060a01b03166bffffffffffffffffffffffff60a01b7f752b70e5aa143ce19d2e21e2c2168f140d8d7a955afc6436c3a7cbdb3b1373075416177f752b70e5aa143ce19d2e21e2c2168f140d8d7a955afc6436c3a7cbdb3b13730755565b156112a457565b606460405162461bcd60e51b815260206004820152602060248201527f417269616e65654964656e746974793a204e6f742074686520626f756e6365726044820152fd5b156112ef57565b60405162461bcd60e51b815260206004820152602260248201527f417269616e65654964656e746974793a204e6f74207468652076616c6964617460448201526137b960f11b6064820152608490fd5b1561134657565b60405162461bcd60e51b815260206004820152602960248201527f417269616e65654964656e746974793a204e6f2077616974696e6720696d70726044820152680d2dce840dac2e8c6d60bb1b6064820152608490fd5b5f92918154916113ac8361116f565b92600181169081156113f457506001146113c557505050565b90919293505f5260205f205f905b8382106113e05750500190565b6001816020925484860152019101906113d3565b60ff191683525050811515909102019150565b908092918237015f815290565b1561141b57565b60405162461bcd60e51b815260206004820152602560248201527f417269616e65654964656e746974793a204e6f2077616974696e6720555249206044820152640dac2e8c6d60db1b6064820152608490fd5b818110611479575050565b5f815560010161146e565b9190601f811161149357505050565b6114bd925f5260205f20906020601f840160051c830193106114bf575b601f0160051c019061146e565b565b90915081906114b0565b9190918281146115b1576114dd835461116f565b67ffffffffffffffff8111610d0057611500816114fa845461116f565b84611484565b5f93601f821160011461153f5761153092939482915f92611534575b50508160011b915f199060031b1c19161790565b9055565b015490505f8061151c565b611551601f198316915f5260205f2090565b9461155f845f5260205f2090565b915f5b81811061159957509583600195969710611581575b505050811b019055565b01545f1960f88460031b161c191690555f8080611577565b9192600180602092868b015481550194019201611562565b509050565b6001600160a01b039091168152606060208201528154909392915f906115db8361116f565b928360608801526001811690815f1461163a5750600114611601575b5060409150930152565b90505f5260205f205f905b82821061162357506040915084016080015f6115f7565b600181602092546080858a0101520191019061160c565b905060809250604093915060ff191682870152151560051b8501015f6115f7565b611665815461116f565b908161166f575050565b81601f5f9311600114611680575055565b8183526020832061169c91601f0160051c81019060010161146e565b808252602082209081548360011b9084198560031b1c191617905555565b9493928060409360809360018060a01b0316885260606020890152816060890152838801375f828288010152601f8019910116850101930152565b6114bd929161170661170c926117d8565b5061123d565b6111dd565b611719611a17565b6001600160a01b0381165f9081527fb7db2dd08fcb62d0c9e08c51941cae53c267786a0b75803fb7960902fc8ef97d602052604090205460ff161561175b5750565b63e2517d3f60e01b5f5260018060a01b03166004525f60245260445ffd5b611781611a17565b5f8281525f516020611a855f395f51905f52602090815260408083206001600160a01b038516845290915290205460ff16156117bb575050565b63e2517d3f60e01b5f5260018060a01b031660045260245260445ffd5b6001600160a01b0381165f9081527fb7db2dd08fcb62d0c9e08c51941cae53c267786a0b75803fb7960902fc8ef97d602052604090205460ff1661189c576001600160a01b0381165f9081527fb7db2dd08fcb62d0c9e08c51941cae53c267786a0b75803fb7960902fc8ef97d60205260409020805460ff191660011790556001600160a01b03611867611a17565b16906001600160a01b03165f7f2f8788117e7eff1d82e926ec794901d17c78024a50270940304540a733656f0d8180a4600190565b505f90565b5f8181525f516020611a855f395f51905f52602090815260408083206001600160a01b038616845290915290205460ff16611953575f8181525f516020611a855f395f51905f52602090815260408083206001600160a01b03861684529091529020805460ff191660011790556001600160a01b0361191e611a17565b16916001600160a01b0316907f2f8788117e7eff1d82e926ec794901d17c78024a50270940304540a733656f0d5f80a4600190565b50505f90565b5f8181525f516020611a855f395f51905f52602090815260408083206001600160a01b038616845290915290205460ff1615611953575f8181525f516020611a855f395f51905f52602090815260408083206001600160a01b03861684529091529020805460ff191690556001600160a01b036119d4611a17565b16916001600160a01b0316907ff6391f5c32d9c69d2a47ea670b442974b53935d1edc7fd64eb21e047a839171b5f80a4600190565b80511561189c576020015190565b337f00000000000000000000000000000000000000000000000000000000000000006001600160a01b03161480611a79575b15611a75576013193601368111611a61573560601c90565b634e487b7160e01b5f52601160045260245ffd5b3390565b506014361015611a4956fe02dd7bc7dec4dceedda775e58dd541e08a116c6c53815c0bd028192f7b626800f0c57e16840df040f15088dc2f81fe391c3923bec73e23a9662efc9c229c6a00a26469706673582212208ab14df6363c8da092655fb9b6ac9610ffcee15ae4f90b98626c9798aa1d232564736f6c634300081c0033f0c57e16840df040f15088dc2f81fe391c3923bec73e23a9662efc9c229c6a00","linkReferences":{}},"methodIdentifiers":{"ArianeeIdentityStorageV0Location()":"abc6ce67","DEFAULT_ADMIN_ROLE()":"a217fddf","addAddressToApprovedList(address)":"98e14d1f","addressFromId(bytes3)":"5b0d4711","addressImprint(address)":"67d9162b","addressIsApproved(address)":"b66ffbe7","addressURI(address)":"5c5ad967","compromiseIdentityDate(address)":"27f51a72","getRoleAdmin(bytes32)":"248a9ca3","grantRole(bytes32,address)":"2f2ff15d","hasRole(bytes32,address)":"91d14854","initialize(address,address,address)":"c0c53b8b","isTrustedForwarder(address)":"572b6c05","removeAddressFromApprovedList(address)":"561aec78","renounceRole(bytes32,address)":"36568abe","revokeRole(bytes32,address)":"d547741f","supportsInterface(bytes4)":"01ffc9a7","trustedForwarder()":"7da0a877","updateBouncerAddress(address)":"2cd77b36","updateCompromiseDate(address,uint256)":"7458bbc1","updateInformations(string,bytes32)":"97a4d7b3","updateValidatorAddress(address)":"1a199a16","validateInformation(address,string,bytes32)":"57d4248f","waitingImprint(address)":"374b87fd","waitingURI(address)":"132ec4a1"},"storageLayout":{"storage":[],"types":{}},"id":79}