{"abi":[{"type":"constructor","inputs":[{"name":"_trustedForwarder","type":"address","internalType":"address"}],"stateMutability":"nonpayable"},{"type":"function","name":"ArianeeCreditHistoryStorageV0Location","inputs":[],"outputs":[{"name":"","type":"bytes32","internalType":"bytes32"}],"stateMutability":"view"},{"type":"function","name":"DEFAULT_ADMIN_ROLE","inputs":[],"outputs":[{"name":"","type":"bytes32","internalType":"bytes32"}],"stateMutability":"view"},{"type":"function","name":"addCreditHistory","inputs":[{"name":"_spender","type":"address","internalType":"address"},{"name":"_price","type":"uint256","internalType":"uint256"},{"name":"_quantity","type":"uint256","internalType":"uint256"},{"name":"_type","type":"uint256","internalType":"uint256"}],"outputs":[],"stateMutability":"nonpayable"},{"type":"function","name":"balanceOf","inputs":[{"name":"_spender","type":"address","internalType":"address"},{"name":"_type","type":"uint256","internalType":"uint256"}],"outputs":[{"name":"_totalCredits","type":"uint256","internalType":"uint256"}],"stateMutability":"view"},{"type":"function","name":"consumeCredits","inputs":[{"name":"_spender","type":"address","internalType":"address"},{"name":"_type","type":"uint256","internalType":"uint256"},{"name":"_quantity","type":"uint256","internalType":"uint256"}],"outputs":[{"name":"","type":"uint256","internalType":"uint256"}],"stateMutability":"nonpayable"},{"type":"function","name":"getRoleAdmin","inputs":[{"name":"role","type":"bytes32","internalType":"bytes32"}],"outputs":[{"name":"","type":"bytes32","internalType":"bytes32"}],"stateMutability":"view"},{"type":"function","name":"grantRole","inputs":[{"name":"role","type":"bytes32","internalType":"bytes32"},{"name":"account","type":"address","internalType":"address"}],"outputs":[],"stateMutability":"nonpayable"},{"type":"function","name":"hasRole","inputs":[{"name":"role","type":"bytes32","internalType":"bytes32"},{"name":"account","type":"address","internalType":"address"}],"outputs":[{"name":"","type":"bool","internalType":"bool"}],"stateMutability":"view"},{"type":"function","name":"initialize","inputs":[{"name":"_initialAdmin","type":"address","internalType":"address"},{"name":"_storeAddress","type":"address","internalType":"address"}],"outputs":[],"stateMutability":"nonpayable"},{"type":"function","name":"isTrustedForwarder","inputs":[{"name":"forwarder","type":"address","internalType":"address"}],"outputs":[{"name":"","type":"bool","internalType":"bool"}],"stateMutability":"view"},{"type":"function","name":"renounceRole","inputs":[{"name":"role","type":"bytes32","internalType":"bytes32"},{"name":"callerConfirmation","type":"address","internalType":"address"}],"outputs":[],"stateMutability":"nonpayable"},{"type":"function","name":"revokeRole","inputs":[{"name":"role","type":"bytes32","internalType":"bytes32"},{"name":"account","type":"address","internalType":"address"}],"outputs":[],"stateMutability":"nonpayable"},{"type":"function","name":"supportsInterface","inputs":[{"name":"interfaceId","type":"bytes4","internalType":"bytes4"}],"outputs":[{"name":"","type":"bool","internalType":"bool"}],"stateMutability":"view"},{"type":"function","name":"trustedForwarder","inputs":[],"outputs":[{"name":"","type":"address","internalType":"address"}],"stateMutability":"view"},{"type":"function","name":"userCreditHistory","inputs":[{"name":"_spender","type":"address","internalType":"address"},{"name":"_type","type":"uint256","internalType":"uint256"},{"name":"_index","type":"uint256","internalType":"uint256"}],"outputs":[{"name":"_price","type":"uint256","internalType":"uint256"},{"name":"_quantity","type":"uint256","internalType":"uint256"}],"stateMutability":"view"},{"type":"function","name":"userIndex","inputs":[{"name":"_spender","type":"address","internalType":"address"},{"name":"_type","type":"uint256","internalType":"uint256"}],"outputs":[{"name":"_historyIndex","type":"uint256","internalType":"uint256"}],"stateMutability":"view"},{"type":"event","name":"Initialized","inputs":[{"name":"version","type":"uint64","indexed":false,"internalType":"uint64"}],"anonymous":false},{"type":"event","name":"RoleAdminChanged","inputs":[{"name":"role","type":"bytes32","indexed":true,"internalType":"bytes32"},{"name":"previousAdminRole","type":"bytes32","indexed":true,"internalType":"bytes32"},{"name":"newAdminRole","type":"bytes32","indexed":true,"internalType":"bytes32"}],"anonymous":false},{"type":"event","name":"RoleGranted","inputs":[{"name":"role","type":"bytes32","indexed":true,"internalType":"bytes32"},{"name":"account","type":"address","indexed":true,"internalType":"address"},{"name":"sender","type":"address","indexed":true,"internalType":"address"}],"anonymous":false},{"type":"event","name":"RoleRevoked","inputs":[{"name":"role","type":"bytes32","indexed":true,"internalType":"bytes32"},{"name":"account","type":"address","indexed":true,"internalType":"address"},{"name":"sender","type":"address","indexed":true,"internalType":"address"}],"anonymous":false},{"type":"error","name":"AccessControlBadConfirmation","inputs":[]},{"type":"error","name":"AccessControlUnauthorizedAccount","inputs":[{"name":"account","type":"address","internalType":"address"},{"name":"neededRole","type":"bytes32","internalType":"bytes32"}]},{"type":"error","name":"InvalidInitialization","inputs":[]},{"type":"error","name":"NotInitializing","inputs":[]}],"bytecode":{"object":"0x60a03461011057601f61104538819003918201601f19168301916001600160401b038311848410176101145780849260209460405283398101031261011057516001600160a01b0381168103610110576080525f5160206110255f395f51905f525460ff8160401c16610101576002600160401b03196001600160401b038216016100ab575b604051610efc908161012982396080518181816104cd0152818161051c0152610e300152f35b6001600160401b0319166001600160401b039081175f5160206110255f395f51905f52556040519081527fc7f505b2f371ae2175ee4913f4499e1f2633a7b5936321eed1cdaeb6115181d290602090a15f610085565b63f92ee8a960e01b5f5260045ffd5b5f80fd5b634e487b7160e01b5f52604160045260245ffdfe60806040526004361015610011575f80fd5b5f3560e01c8062fdd58e146108fe57806301ffc9a7146108a85780631f5a99411461086e578063248a9ca31461082f5780632f2ff15d146107e557806336568abe1461079157806340ee34f914610736578063485cc955146105885780634a9a7acc14610550578063572b6c05146104fc5780637da0a877146104b857806391d148541461046357806397d72be01461036e578063a217fddf14610354578063d547741f146103035763d60b1e19146100c8575f80fd5b346102ff576100d63661094b565b906100df610a4a565b6100e883610975565b815f5260205260405f2054156102a857610101836109e5565b815f5260205260405f2054610115846109ad565b825f5260205282600161012b8360405f20610a1d565b500154106102535761013c846109ad565b825f5260205261014f8160405f20610a1d565b50549261015b856109ad565b835f5260205260016101708360405f20610a1d565b50015490810390811161023f57610186856109ad565b835f52602052600161019b8360405f20610a1d565b5001556101a784610975565b825f5260205260405f20545f19810190811161023f576001916101f0916101cd87610975565b855f5260205260405f20556101e1866109ad565b845f5260205260405f20610a1d565b50015415610204575b602082604051908152f35b61020d836109e5565b815f5260205260405f2054906001820180921161023f5761022f6020946109e5565b905f52835260405f20555f6101f9565b634e487b7160e01b5f52601160045260245ffd5b60405162461bcd60e51b815260206004820152602760248201527f417269616e6565437265646974486973746f72793a204e6f7420656e6f7567686044820152660818dc99591a5d60ca1b6064820152608490fd5b60405162461bcd60e51b815260206004820152602960248201527f417269616e6565437265646974486973746f72793a20556e6b6e6f776e20637260448201526865646974207479706560b81b6064820152608490fd5b5f80fd5b346102ff5760403660031901126102ff57610352600435610322610935565b9061034d610348825f525f516020610e875f395f51905f52602052600160405f20015490565b610ad8565b610d84565b005b346102ff575f3660031901126102ff5760206040515f8152f35b346102ff5760803660031901126102ff5761038761091f565b6044359060643590610397610a4a565b6103a0816109ad565b825f5260205260405f206040516040810181811067ffffffffffffffff82111761044f576040526024358152602081019185835280546801000000000000000081101561044f576103f691600182018155610a1d565b92909261043c576001915183555191015561041081610975565b825f5260205260405f205492830180931161023f5761042e90610975565b5f9182526020526040902055005b634e487b7160e01b5f525f60045260245ffd5b634e487b7160e01b5f52604160045260245ffd5b346102ff5760403660031901126102ff5761047c610935565b6004355f525f516020610e875f395f51905f5260205260405f209060018060a01b03165f52602052602060ff60405f2054166040519015158152f35b346102ff575f3660031901126102ff576040517f00000000000000000000000000000000000000000000000000000000000000006001600160a01b03168152602090f35b346102ff5760203660031901126102ff57602061051761091f565b6040517f00000000000000000000000000000000000000000000000000000000000000006001600160a01b039081169216919091148152f35b346102ff5760403660031901126102ff5761057161056c61091f565b6109e5565b6024355f52602052602060405f2054604051908152f35b346102ff5760403660031901126102ff576105a161091f565b6105a9610935565b5f516020610ea75f395f51905f525460ff8160401c16159267ffffffffffffffff82168015908161072e575b6001149081610724575b15908161071b575b5061070c5767ffffffffffffffff1982166001175f516020610ea75f395f51905f525561061a91846106e0575b50610b34565b5061062481610bf6565b5060018060a01b03166bffffffffffffffffffffffff60a01b7f30bf6f679829f8f2f9755a593c694551b0ec31f7962855eb55f725e310bdff005416177f30bf6f679829f8f2f9755a593c694551b0ec31f7962855eb55f725e310bdff005561068957005b68ff0000000000000000195f516020610ea75f395f51905f5254165f516020610ea75f395f51905f52557fc7f505b2f371ae2175ee4913f4499e1f2633a7b5936321eed1cdaeb6115181d2602060405160018152a1005b68ffffffffffffffffff191668010000000000000001175f516020610ea75f395f51905f525584610614565b63f92ee8a960e01b5f5260045ffd5b905015856105e7565b303b1591506105df565b8591506105d5565b346102ff576040610782600161074b3661094b565b906107578395936109ad565b815f5260205261077461076c83885f20610a1d565b5054956109ad565b905f52602052845f20610a1d565b50015482519182526020820152f35b346102ff5760403660031901126102ff576107aa610935565b6001600160a01b036107ba610e2d565b166001600160a01b038216036107d65761035290600435610d84565b63334bd91960e11b5f5260045ffd5b346102ff5760403660031901126102ff57610352600435610804610935565b9061082a610348825f525f516020610e875f395f51905f52602052600160405f20015490565b610cd3565b346102ff5760203660031901126102ff5760206108666004355f525f516020610e875f395f51905f52602052600160405f20015490565b604051908152f35b346102ff575f3660031901126102ff5760206040517f30bf6f679829f8f2f9755a593c694551b0ec31f7962855eb55f725e310bdff008152f35b346102ff5760203660031901126102ff5760043563ffffffff60e01b81168091036102ff57602090637965db0b60e01b81149081156108ed575b506040519015158152f35b6301ffc9a760e01b149050826108e2565b346102ff5760403660031901126102ff5761057161091a61091f565b610975565b600435906001600160a01b03821682036102ff57565b602435906001600160a01b03821682036102ff57565b60609060031901126102ff576004356001600160a01b03811681036102ff57906024359060443590565b6001600160a01b03165f9081527f30bf6f679829f8f2f9755a593c694551b0ec31f7962855eb55f725e310bdff036020526040902090565b6001600160a01b03165f9081527f30bf6f679829f8f2f9755a593c694551b0ec31f7962855eb55f725e310bdff016020526040902090565b6001600160a01b03165f9081527f30bf6f679829f8f2f9755a593c694551b0ec31f7962855eb55f725e310bdff026020526040902090565b8054821015610a36575f5260205f209060011b01905f90565b634e487b7160e01b5f52603260045260245ffd5b610a52610e2d565b6001600160a01b0381165f9081527f31058941e1e7e2206d669e73d9d8ec62b5a5d91fe10b4e31bec209835d52156f602052604090205460ff1615610a945750565b63e2517d3f60e01b5f9081526001600160a01b03919091166004527f7c58c52c6ee36b58d66053b60f9071543575bb40c49fb6188a64738ae98ca57b602452604490fd5b610ae0610e2d565b815f525f516020610e875f395f51905f5260205260405f2060018060a01b0382165f5260205260ff60405f20541615610b17575050565b63e2517d3f60e01b5f5260018060a01b031660045260245260445ffd5b6001600160a01b0381165f9081527fb7db2dd08fcb62d0c9e08c51941cae53c267786a0b75803fb7960902fc8ef97d602052604090205460ff16610bf1576001600160a01b038181165f9081527fb7db2dd08fcb62d0c9e08c51941cae53c267786a0b75803fb7960902fc8ef97d60205260409020805460ff19166001179055610bbc610e2d565b16906001600160a01b03165f7f2f8788117e7eff1d82e926ec794901d17c78024a50270940304540a733656f0d8180a4600190565b505f90565b6001600160a01b0381165f9081527f31058941e1e7e2206d669e73d9d8ec62b5a5d91fe10b4e31bec209835d52156f602052604090205460ff16610bf1576001600160a01b038181165f9081527f31058941e1e7e2206d669e73d9d8ec62b5a5d91fe10b4e31bec209835d52156f60205260409020805460ff19166001179055610c7e610e2d565b16906001600160a01b03167f7c58c52c6ee36b58d66053b60f9071543575bb40c49fb6188a64738ae98ca57b7f2f8788117e7eff1d82e926ec794901d17c78024a50270940304540a733656f0d5f80a4600190565b5f8181525f516020610e875f395f51905f52602090815260408083206001600160a01b038616845290915290205460ff16610d7e575f8181525f516020610e875f395f51905f52602090815260408083206001600160a01b0386811685529252909120805460ff19166001179055610d49610e2d565b16916001600160a01b0316907f2f8788117e7eff1d82e926ec794901d17c78024a50270940304540a733656f0d5f80a4600190565b50505f90565b5f8181525f516020610e875f395f51905f52602090815260408083206001600160a01b038616845290915290205460ff1615610d7e575f8181525f516020610e875f395f51905f52602090815260408083206001600160a01b0386811685529252909120805460ff19169055610df8610e2d565b16916001600160a01b0316907ff6391f5c32d9c69d2a47ea670b442974b53935d1edc7fd64eb21e047a839171b5f80a4600190565b337f00000000000000000000000000000000000000000000000000000000000000006001600160a01b03161480610e7b575b15610e7757601319360136811161023f573560601c90565b3390565b506014361015610e5f56fe02dd7bc7dec4dceedda775e58dd541e08a116c6c53815c0bd028192f7b626800f0c57e16840df040f15088dc2f81fe391c3923bec73e23a9662efc9c229c6a00a2646970667358221220bc1ca8de87a7d249d50fc91633d90ebe7142bd22f797fa2d7e485b10e2541e3764736f6c634300081c0033f0c57e16840df040f15088dc2f81fe391c3923bec73e23a9662efc9c229c6a00","linkReferences":{}},"methodIdentifiers":{"ArianeeCreditHistoryStorageV0Location()":"1f5a9941","DEFAULT_ADMIN_ROLE()":"a217fddf","addCreditHistory(address,uint256,uint256,uint256)":"97d72be0","balanceOf(address,uint256)":"00fdd58e","consumeCredits(address,uint256,uint256)":"d60b1e19","getRoleAdmin(bytes32)":"248a9ca3","grantRole(bytes32,address)":"2f2ff15d","hasRole(bytes32,address)":"91d14854","initialize(address,address)":"485cc955","isTrustedForwarder(address)":"572b6c05","renounceRole(bytes32,address)":"36568abe","revokeRole(bytes32,address)":"d547741f","supportsInterface(bytes4)":"01ffc9a7","trustedForwarder()":"7da0a877","userCreditHistory(address,uint256,uint256)":"40ee34f9","userIndex(address,uint256)":"4a9a7acc"},"storageLayout":{"storage":[],"types":{}},"id":86}