{"abi":[{"type":"constructor","inputs":[{"name":"_trustedForwarder","type":"address","internalType":"address"}],"stateMutability":"nonpayable"},{"type":"function","name":"ArianeeWhitelistStorageV0Location","inputs":[],"outputs":[{"name":"","type":"bytes32","internalType":"bytes32"}],"stateMutability":"view"},{"type":"function","name":"DEFAULT_ADMIN_ROLE","inputs":[],"outputs":[{"name":"","type":"bytes32","internalType":"bytes32"}],"stateMutability":"view"},{"type":"function","name":"addBlacklistedAddress","inputs":[{"name":"_sender","type":"address","internalType":"address"},{"name":"_tokenId","type":"uint256","internalType":"uint256"},{"name":"_activate","type":"bool","internalType":"bool"}],"outputs":[],"stateMutability":"nonpayable"},{"type":"function","name":"addWhitelistedAddress","inputs":[{"name":"_tokenId","type":"uint256","internalType":"uint256"},{"name":"_address","type":"address","internalType":"address"}],"outputs":[],"stateMutability":"nonpayable"},{"type":"function","name":"getRoleAdmin","inputs":[{"name":"role","type":"bytes32","internalType":"bytes32"}],"outputs":[{"name":"","type":"bytes32","internalType":"bytes32"}],"stateMutability":"view"},{"type":"function","name":"grantRole","inputs":[{"name":"role","type":"bytes32","internalType":"bytes32"},{"name":"account","type":"address","internalType":"address"}],"outputs":[],"stateMutability":"nonpayable"},{"type":"function","name":"hasRole","inputs":[{"name":"role","type":"bytes32","internalType":"bytes32"},{"name":"account","type":"address","internalType":"address"}],"outputs":[{"name":"","type":"bool","internalType":"bool"}],"stateMutability":"view"},{"type":"function","name":"initialize","inputs":[{"name":"_initialAdmin","type":"address","internalType":"address"}],"outputs":[],"stateMutability":"nonpayable"},{"type":"function","name":"isAuthorized","inputs":[{"name":"_tokenId","type":"uint256","internalType":"uint256"},{"name":"_sender","type":"address","internalType":"address"},{"name":"_tokenOwner","type":"address","internalType":"address"}],"outputs":[{"name":"","type":"bool","internalType":"bool"}],"stateMutability":"view"},{"type":"function","name":"isBlacklisted","inputs":[{"name":"_owner","type":"address","internalType":"address"},{"name":"_sender","type":"address","internalType":"address"},{"name":"_tokenId","type":"uint256","internalType":"uint256"}],"outputs":[{"name":"_isBlacklisted","type":"bool","internalType":"bool"}],"stateMutability":"view"},{"type":"function","name":"isTrustedForwarder","inputs":[{"name":"forwarder","type":"address","internalType":"address"}],"outputs":[{"name":"","type":"bool","internalType":"bool"}],"stateMutability":"view"},{"type":"function","name":"isWhitelisted","inputs":[{"name":"_tokenId","type":"uint256","internalType":"uint256"},{"name":"_address","type":"address","internalType":"address"}],"outputs":[{"name":"_isWhitelisted","type":"bool","internalType":"bool"}],"stateMutability":"view"},{"type":"function","name":"renounceRole","inputs":[{"name":"role","type":"bytes32","internalType":"bytes32"},{"name":"callerConfirmation","type":"address","internalType":"address"}],"outputs":[],"stateMutability":"nonpayable"},{"type":"function","name":"revokeRole","inputs":[{"name":"role","type":"bytes32","internalType":"bytes32"},{"name":"account","type":"address","internalType":"address"}],"outputs":[],"stateMutability":"nonpayable"},{"type":"function","name":"supportsInterface","inputs":[{"name":"interfaceId","type":"bytes4","internalType":"bytes4"}],"outputs":[{"name":"","type":"bool","internalType":"bool"}],"stateMutability":"view"},{"type":"function","name":"trustedForwarder","inputs":[],"outputs":[{"name":"","type":"address","internalType":"address"}],"stateMutability":"view"},{"type":"event","name":"BlacklistedAddresAdded","inputs":[{"name":"_sender","type":"address","indexed":false,"internalType":"address"},{"name":"_tokenId","type":"uint256","indexed":false,"internalType":"uint256"},{"name":"_activate","type":"bool","indexed":false,"internalType":"bool"}],"anonymous":false},{"type":"event","name":"Initialized","inputs":[{"name":"version","type":"uint64","indexed":false,"internalType":"uint64"}],"anonymous":false},{"type":"event","name":"RoleAdminChanged","inputs":[{"name":"role","type":"bytes32","indexed":true,"internalType":"bytes32"},{"name":"previousAdminRole","type":"bytes32","indexed":true,"internalType":"bytes32"},{"name":"newAdminRole","type":"bytes32","indexed":true,"internalType":"bytes32"}],"anonymous":false},{"type":"event","name":"RoleGranted","inputs":[{"name":"role","type":"bytes32","indexed":true,"internalType":"bytes32"},{"name":"account","type":"address","indexed":true,"internalType":"address"},{"name":"sender","type":"address","indexed":true,"internalType":"address"}],"anonymous":false},{"type":"event","name":"RoleRevoked","inputs":[{"name":"role","type":"bytes32","indexed":true,"internalType":"bytes32"},{"name":"account","type":"address","indexed":true,"internalType":"address"},{"name":"sender","type":"address","indexed":true,"internalType":"address"}],"anonymous":false},{"type":"event","name":"WhitelistedAddressAdded","inputs":[{"name":"_tokenId","type":"uint256","indexed":false,"internalType":"uint256"},{"name":"_address","type":"address","indexed":false,"internalType":"address"}],"anonymous":false},{"type":"error","name":"AccessControlBadConfirmation","inputs":[]},{"type":"error","name":"AccessControlUnauthorizedAccount","inputs":[{"name":"account","type":"address","internalType":"address"},{"name":"neededRole","type":"bytes32","internalType":"bytes32"}]},{"type":"error","name":"InvalidInitialization","inputs":[]},{"type":"error","name":"NotInitializing","inputs":[]}],"bytecode":{"object":"0x60a03461011057601f610cdf38819003918201601f19168301916001600160401b038311848410176101145780849260209460405283398101031261011057516001600160a01b0381168103610110576080525f516020610cbf5f395f51905f525460ff8160401c16610101576002600160401b03196001600160401b038216016100ab575b604051610b96908161012982396080518181816104ce015281816105f90152610a960152f35b6001600160401b0319166001600160401b039081175f516020610cbf5f395f51905f52556040519081527fc7f505b2f371ae2175ee4913f4499e1f2633a7b5936321eed1cdaeb6115181d290602090a15f610085565b63f92ee8a960e01b5f5260045ffd5b5f80fd5b634e487b7160e01b5f52604160045260245ffdfe6080806040526004361015610012575f80fd5b5f3560e01c90816301ffc9a714610743575080630f9222ef1461070a578063248a9ca3146106cb5780632f2ff15d1461068157806336568abe1461062d578063572b6c05146105d95780635d73c4ec146105525780637d22c35c146104fd5780637da0a877146104b957806387159d9b146103cb57806391d1485414610376578063a217fddf1461035c578063ba8dd5d714610335578063c4d66de8146101f7578063d547741f146101a65763e716561b146100cc575f80fd5b346101a25760603660031901126101a2576100e5610796565b602435604435918215158093036101a2577fd9ce29b70508c42ba4c716e51cd5645b51ef2aaa8e83b40902860c4012ae4caf9260609261015e610126610a93565b6001600160a01b03165f9081527f4765b9a90ccc6c0f74700205e150060852d2779ff79814ceccb7a3dccb6243016020526040902090565b815f5260205260405f2060018060a01b0384165f5260205260405f2060ff1981541660ff84161790556040519260018060a01b0316835260208301526040820152a1005b5f80fd5b346101a25760403660031901126101a2576101f56004356101c56107ac565b906101f06101eb825f525f516020610b215f395f51905f52602052600160405f20015490565b61081b565b6109ea565b005b346101a25760203660031901126101a257610210610796565b5f516020610b415f395f51905f525460ff8160401c16159167ffffffffffffffff82168015908161032d575b6001149081610323575b15908161031a575b5061030b5767ffffffffffffffff1982166001175f516020610b415f395f51905f525561028191836102df575b50610877565b5061028857005b68ff0000000000000000195f516020610b415f395f51905f5254165f516020610b415f395f51905f52557fc7f505b2f371ae2175ee4913f4499e1f2633a7b5936321eed1cdaeb6115181d2602060405160018152a1005b68ffffffffffffffffff191668010000000000000001175f516020610b415f395f51905f52558361027b565b63f92ee8a960e01b5f5260045ffd5b9050158461024e565b303b159150610246565b84915061023c565b346101a2575f3660031901126101a25760206040515f516020610b015f395f51905f528152f35b346101a2575f3660031901126101a25760206040515f8152f35b346101a25760403660031901126101a25761038f6107ac565b6004355f525f516020610b215f395f51905f5260205260405f209060018060a01b03165f52602052602060ff60405f2054166040519015158152f35b346101a25760403660031901126101a2576004356103e76107ac565b6103ef610a93565b6001600160a01b0381165f9081527fb7db2dd08fcb62d0c9e08c51941cae53c267786a0b75803fb7960902fc8ef97d602052604090205460ff161561049b575f8381525f516020610b015f395f51905f52602090815260408083206001600160a01b03861680855290835292819020805460ff191660011790558051868152918201929092527fa1fc15b295f9db85ce6f3e653f9a7e79e321f0828de5d7d09a5b0618bab645599190a1005b63e2517d3f60e01b5f5260018060a01b03166004525f60245260445ffd5b346101a2575f3660031901126101a2576040517f00000000000000000000000000000000000000000000000000000000000000006001600160a01b03168152602090f35b346101a25760403660031901126101a2576105166107ac565b6004355f525f516020610b015f395f51905f5260205260405f209060018060a01b03165f52602052602060ff60405f2054166040519015158152f35b346101a25760603660031901126101a25760043561056e6107ac565b90604435906001600160a01b03821682036101a257602092815f525f516020610b015f395f51905f52845260405f2060018060a01b0382165f52845260ff60405f20541692836105c6575b5050506040519015158152f35b6105d093506107c2565b158280806105b9565b346101a25760203660031901126101a25760206105f4610796565b6040517f00000000000000000000000000000000000000000000000000000000000000006001600160a01b039081169216919091148152f35b346101a25760403660031901126101a2576106466107ac565b6001600160a01b03610656610a93565b166001600160a01b03821603610672576101f5906004356109ea565b63334bd91960e11b5f5260045ffd5b346101a25760403660031901126101a2576101f56004356106a06107ac565b906106c66101eb825f525f516020610b215f395f51905f52602052600160405f20015490565b610939565b346101a25760203660031901126101a25760206107026004355f525f516020610b215f395f51905f52602052600160405f20015490565b604051908152f35b346101a25760603660031901126101a2576020610739610728610796565b6107306107ac565b604435916107c2565b6040519015158152f35b346101a25760203660031901126101a2576004359063ffffffff60e01b82168092036101a257602091637965db0b60e01b8114908115610785575b5015158152f35b6301ffc9a760e01b1490508361077e565b600435906001600160a01b03821682036101a257565b602435906001600160a01b03821682036101a257565b6001600160a01b03165f9081527f4765b9a90ccc6c0f74700205e150060852d2779ff79814ceccb7a3dccb6243016020526040902090915f5260205260405f209060018060a01b03165f5260205260ff60405f20541690565b610823610a93565b815f525f516020610b215f395f51905f5260205260405f2060018060a01b0382165f5260205260ff60405f2054161561085a575050565b63e2517d3f60e01b5f5260018060a01b031660045260245260445ffd5b6001600160a01b0381165f9081527fb7db2dd08fcb62d0c9e08c51941cae53c267786a0b75803fb7960902fc8ef97d602052604090205460ff16610934576001600160a01b038181165f9081527fb7db2dd08fcb62d0c9e08c51941cae53c267786a0b75803fb7960902fc8ef97d60205260409020805460ff191660011790556108ff610a93565b16906001600160a01b03165f7f2f8788117e7eff1d82e926ec794901d17c78024a50270940304540a733656f0d8180a4600190565b505f90565b5f8181525f516020610b215f395f51905f52602090815260408083206001600160a01b038616845290915290205460ff166109e4575f8181525f516020610b215f395f51905f52602090815260408083206001600160a01b0386811685529252909120805460ff191660011790556109af610a93565b16916001600160a01b0316907f2f8788117e7eff1d82e926ec794901d17c78024a50270940304540a733656f0d5f80a4600190565b50505f90565b5f8181525f516020610b215f395f51905f52602090815260408083206001600160a01b038616845290915290205460ff16156109e4575f8181525f516020610b215f395f51905f52602090815260408083206001600160a01b0386811685529252909120805460ff19169055610a5e610a93565b16916001600160a01b0316907ff6391f5c32d9c69d2a47ea670b442974b53935d1edc7fd64eb21e047a839171b5f80a4600190565b337f00000000000000000000000000000000000000000000000000000000000000006001600160a01b03161480610af5575b15610af1576013193601368111610add573560601c90565b634e487b7160e01b5f52601160045260245ffd5b3390565b506014361015610ac556fe4765b9a90ccc6c0f74700205e150060852d2779ff79814ceccb7a3dccb62430002dd7bc7dec4dceedda775e58dd541e08a116c6c53815c0bd028192f7b626800f0c57e16840df040f15088dc2f81fe391c3923bec73e23a9662efc9c229c6a00a2646970667358221220a44c4537649ca9201c618cf35a5e94e2f3f103ef3d0ffb874daeaa77ce5af8d464736f6c634300081c0033f0c57e16840df040f15088dc2f81fe391c3923bec73e23a9662efc9c229c6a00","linkReferences":{}},"methodIdentifiers":{"ArianeeWhitelistStorageV0Location()":"ba8dd5d7","DEFAULT_ADMIN_ROLE()":"a217fddf","addBlacklistedAddress(address,uint256,bool)":"e716561b","addWhitelistedAddress(uint256,address)":"87159d9b","getRoleAdmin(bytes32)":"248a9ca3","grantRole(bytes32,address)":"2f2ff15d","hasRole(bytes32,address)":"91d14854","initialize(address)":"c4d66de8","isAuthorized(uint256,address,address)":"5d73c4ec","isBlacklisted(address,address,uint256)":"0f9222ef","isTrustedForwarder(address)":"572b6c05","isWhitelisted(uint256,address)":"7d22c35c","renounceRole(bytes32,address)":"36568abe","revokeRole(bytes32,address)":"d547741f","supportsInterface(bytes4)":"01ffc9a7","trustedForwarder()":"7da0a877"},"storageLayout":{"storage":[],"types":{}},"id":89}