{"abi":[{"type":"constructor","inputs":[{"name":"_trustedForwarder","type":"address","internalType":"address"}],"stateMutability":"nonpayable"},{"type":"function","name":"ArianeeLostStorageV0Location","inputs":[],"outputs":[{"name":"","type":"bytes32","internalType":"bytes32"}],"stateMutability":"view"},{"type":"function","name":"DEFAULT_ADMIN_ROLE","inputs":[],"outputs":[{"name":"","type":"bytes32","internalType":"bytes32"}],"stateMutability":"view"},{"type":"function","name":"getManagerIdentity","inputs":[],"outputs":[{"name":"_managerIdentity","type":"address","internalType":"address"}],"stateMutability":"view"},{"type":"function","name":"getRoleAdmin","inputs":[{"name":"role","type":"bytes32","internalType":"bytes32"}],"outputs":[{"name":"","type":"bytes32","internalType":"bytes32"}],"stateMutability":"view"},{"type":"function","name":"grantRole","inputs":[{"name":"role","type":"bytes32","internalType":"bytes32"},{"name":"account","type":"address","internalType":"address"}],"outputs":[],"stateMutability":"nonpayable"},{"type":"function","name":"hasRole","inputs":[{"name":"role","type":"bytes32","internalType":"bytes32"},{"name":"account","type":"address","internalType":"address"}],"outputs":[{"name":"","type":"bool","internalType":"bool"}],"stateMutability":"view"},{"type":"function","name":"initialize","inputs":[{"name":"_initialAdmin","type":"address","internalType":"address"},{"name":"_smartAssetAddress","type":"address","internalType":"address"},{"name":"_managerIdentity","type":"address","internalType":"address"}],"outputs":[],"stateMutability":"nonpayable"},{"type":"function","name":"isAddressAuthorized","inputs":[{"name":"_address","type":"address","internalType":"address"}],"outputs":[{"name":"_isAuthorized","type":"bool","internalType":"bool"}],"stateMutability":"view"},{"type":"function","name":"isMissing","inputs":[{"name":"_tokenId","type":"uint256","internalType":"uint256"}],"outputs":[{"name":"_isMissing","type":"bool","internalType":"bool"}],"stateMutability":"view"},{"type":"function","name":"isStolen","inputs":[{"name":"_tokenId","type":"uint256","internalType":"uint256"}],"outputs":[{"name":"_isStolen","type":"bool","internalType":"bool"}],"stateMutability":"view"},{"type":"function","name":"isTrustedForwarder","inputs":[{"name":"forwarder","type":"address","internalType":"address"}],"outputs":[{"name":"","type":"bool","internalType":"bool"}],"stateMutability":"view"},{"type":"function","name":"renounceRole","inputs":[{"name":"role","type":"bytes32","internalType":"bytes32"},{"name":"callerConfirmation","type":"address","internalType":"address"}],"outputs":[],"stateMutability":"nonpayable"},{"type":"function","name":"revokeRole","inputs":[{"name":"role","type":"bytes32","internalType":"bytes32"},{"name":"account","type":"address","internalType":"address"}],"outputs":[],"stateMutability":"nonpayable"},{"type":"function","name":"setAuthorizedIdentity","inputs":[{"name":"_newIdentityAuthorized","type":"address","internalType":"address"}],"outputs":[],"stateMutability":"nonpayable"},{"type":"function","name":"setManagerIdentity","inputs":[{"name":"_managerIdentity","type":"address","internalType":"address"}],"outputs":[],"stateMutability":"nonpayable"},{"type":"function","name":"setMissingStatus","inputs":[{"name":"_tokenId","type":"uint256","internalType":"uint256"}],"outputs":[],"stateMutability":"nonpayable"},{"type":"function","name":"setStolenStatus","inputs":[{"name":"_tokenId","type":"uint256","internalType":"uint256"}],"outputs":[],"stateMutability":"nonpayable"},{"type":"function","name":"supportsInterface","inputs":[{"name":"interfaceId","type":"bytes4","internalType":"bytes4"}],"outputs":[{"name":"","type":"bool","internalType":"bool"}],"stateMutability":"view"},{"type":"function","name":"trustedForwarder","inputs":[],"outputs":[{"name":"","type":"address","internalType":"address"}],"stateMutability":"view"},{"type":"function","name":"unsetAuthorizedIdentity","inputs":[{"name":"_newIdentityUnauthorized","type":"address","internalType":"address"}],"outputs":[],"stateMutability":"nonpayable"},{"type":"function","name":"unsetMissingStatus","inputs":[{"name":"_tokenId","type":"uint256","internalType":"uint256"}],"outputs":[],"stateMutability":"nonpayable"},{"type":"function","name":"unsetStolenStatus","inputs":[{"name":"_tokenId","type":"uint256","internalType":"uint256"}],"outputs":[],"stateMutability":"nonpayable"},{"type":"event","name":"AuthorizedIdentityAdded","inputs":[{"name":"_newIdentityAuthorized","type":"address","indexed":true,"internalType":"address"}],"anonymous":false},{"type":"event","name":"AuthorizedIdentityRemoved","inputs":[{"name":"_newIdentityUnauthorized","type":"address","indexed":true,"internalType":"address"}],"anonymous":false},{"type":"event","name":"Initialized","inputs":[{"name":"version","type":"uint64","indexed":false,"internalType":"uint64"}],"anonymous":false},{"type":"event","name":"Missing","inputs":[{"name":"_tokenId","type":"uint256","indexed":true,"internalType":"uint256"}],"anonymous":false},{"type":"event","name":"NewManagerIdentity","inputs":[{"name":"_newManagerIdentity","type":"address","indexed":true,"internalType":"address"}],"anonymous":false},{"type":"event","name":"RoleAdminChanged","inputs":[{"name":"role","type":"bytes32","indexed":true,"internalType":"bytes32"},{"name":"previousAdminRole","type":"bytes32","indexed":true,"internalType":"bytes32"},{"name":"newAdminRole","type":"bytes32","indexed":true,"internalType":"bytes32"}],"anonymous":false},{"type":"event","name":"RoleGranted","inputs":[{"name":"role","type":"bytes32","indexed":true,"internalType":"bytes32"},{"name":"account","type":"address","indexed":true,"internalType":"address"},{"name":"sender","type":"address","indexed":true,"internalType":"address"}],"anonymous":false},{"type":"event","name":"RoleRevoked","inputs":[{"name":"role","type":"bytes32","indexed":true,"internalType":"bytes32"},{"name":"account","type":"address","indexed":true,"internalType":"address"},{"name":"sender","type":"address","indexed":true,"internalType":"address"}],"anonymous":false},{"type":"event","name":"Stolen","inputs":[{"name":"_tokenId","type":"uint256","indexed":true,"internalType":"uint256"}],"anonymous":false},{"type":"event","name":"UnMissing","inputs":[{"name":"_tokenId","type":"uint256","indexed":true,"internalType":"uint256"}],"anonymous":false},{"type":"event","name":"UnStolen","inputs":[{"name":"_tokenId","type":"uint256","indexed":true,"internalType":"uint256"}],"anonymous":false},{"type":"error","name":"AccessControlBadConfirmation","inputs":[]},{"type":"error","name":"AccessControlUnauthorizedAccount","inputs":[{"name":"account","type":"address","internalType":"address"},{"name":"neededRole","type":"bytes32","internalType":"bytes32"}]},{"type":"error","name":"InvalidInitialization","inputs":[]},{"type":"error","name":"NotInitializing","inputs":[]}],"bytecode":{"object":"0x60a03461011057601f6114f738819003918201601f19168301916001600160401b038311848410176101145780849260209460405283398101031261011057516001600160a01b0381168103610110576080525f5160206114d75f395f51905f525460ff8160401c16610101576002600160401b03196001600160401b038216016100ab575b6040516113ae90816101298239608051818181610851015281816108d4015261124e0152f35b6001600160401b0319166001600160401b039081175f5160206114d75f395f51905f52556040519081527fc7f505b2f371ae2175ee4913f4499e1f2633a7b5936321eed1cdaeb6115181d290602090a15f610085565b63f92ee8a960e01b5f5260045ffd5b5f80fd5b634e487b7160e01b5f52604160045260245ffdfe6080806040526004361015610012575f80fd5b5f3560e01c90816301ffc9a714610cf257508063248a9ca314610cb35780632f2ff15d14610c6957806333344c4914610c2e57806336568abe14610bda5780633771624514610b9f5780633904b98e14610b4657806348d3d239146109e15780634d89a4ab14610908578063572b6c05146108b45780636345f556146108805780637da0a8771461083c5780638e43b031146107d857806391d1485414610783578063a217fddf14610769578063afdeddbc14610597578063bbea76b11461050e578063c0c53b8b14610347578063ced3fb9c14610316578063d547741f146102c5578063d93d56f9146101395763d9ca94101461010e575f80fd5b34610135575f3660031901126101355760206040515f5160206113195f395f51905f528152f35b5f80fd5b34610135576020366003190112610135576004355f602060018060a01b035f5160206112d95f395f51905f5254166024604051809481936331a9108f60e11b83528760048401525af180156102ba576101b7915f9161028b575b506001600160a01b036101a461124b565b6001600160a01b03909216911614610dfb565b805f525f5160206113195f395f51905f5260205260ff60405f20541661022057805f525f5160206113195f395f51905f5260205260405f20600160ff198254161790557fdd653a29db5bfd0a898b049ea0d031dbdf5a00500a91cc40e12d19eb0113bdec5f80a2005b60405162461bcd60e51b815260206004820152603960248201527f417269616e65654c6f73743a2054686520536d6172744173736574206d75737460448201527f206e6f74206265206d61726b6564206173206d697373696e67000000000000006064820152608490fd5b6102ad915060203d6020116102b3575b6102a58183610da6565b810190610ddc565b83610193565b503d61029b565b6040513d5f823e3d90fd5b34610135576040366003190112610135576103146004356102e4610d45565b9061030f61030a825f525f5160206112f95f395f51905f52602052600160405f20015490565b610fd3565b6111a2565b005b3461013557602036600319011261013557602060ff61033b610336610d5b565b610f33565b54166040519015158152f35b3461013557606036600319011261013557610360610d5b565b610368610d45565b6044356001600160a01b0381169290838103610135575f5160206113395f395f51905f52549260ff8460401c16159367ffffffffffffffff811680159081610506575b60011490816104fc575b1590816104f3575b506104e45767ffffffffffffffff1981166001175f5160206113395f395f51905f5255610435936103f491866104b8575b5061102f565b5060018060a01b03166001600160601b0360a01b5f5160206112d95f395f51905f525416175f5160206112d95f395f51905f5255610430610f6b565b610d71565b604051917f3a80754c9b91459bd9e7a1ef43baea70c1e14afdd61eac6e40013228dd4022f35f80a261046357005b60207fc7f505b2f371ae2175ee4913f4499e1f2633a7b5936321eed1cdaeb6115181d29168ff0000000000000000195f5160206113395f395f51905f5254165f5160206113395f395f51905f525560018152a1005b68ffffffffffffffffff191668010000000000000001175f5160206113395f395f51905f5255876103ee565b63f92ee8a960e01b5f5260045ffd5b905015876103bd565b303b1591506103b5565b8691506103ab565b3461013557602036600319011261013557610527610d5b565b61055461053261124b565b5f5160206113595f395f51905f52546001600160a01b03918216911614610ed7565b61055d81610f33565b805460ff191660011790556001600160a01b03167fd84ecf531fb519a597e840183d0dee42b85a78a69e98a9a298e2e0698dfbd20a5f80a2005b346101355760203660031901126101355760043560ff6105b861033661124b565b54161561070957805f525f5160206113195f395f51905f526020526105e8600160ff60405f205416151514610e6d565b805f525f5160206112b95f395f51905f5260205260ff60405f20541661069e57805f525f5160206112b95f395f51905f5260205260405f20600160ff1982541617905561063361124b565b815f527f330f3bda9f99a316cfa3447262f2a7a821ef201c407ca28d81f28d8e38ea1e0260205260405f209060018060a01b03166001600160601b0360a01b8254161790557f6009b4228a9952cbf04a8ebbd80f931efb8053ad815f7fb937aa0812ac2433fc5f80a2005b60405162461bcd60e51b815260206004820152603760248201527f417269616e65654c6f73743a2054686520536d6172744173736574206973206160448201527f6c7265616479206d61726b65642061732073746f6c656e0000000000000000006064820152608490fd5b60405162461bcd60e51b815260206004820152603260248201527f417269616e65654c6f73743a2043616c6c6572206d75737420626520616e20616044820152717574686f72697a6564206964656e7469747960701b6064820152608490fd5b34610135575f3660031901126101355760206040515f8152f35b346101355760403660031901126101355761079c610d45565b6004355f525f5160206112f95f395f51905f5260205260405f209060018060a01b03165f52602052602060ff60405f2054166040519015158152f35b34610135576020366003190112610135576107f1610d5b565b6107fc61053261124b565b61080581610f33565b805460ff191690556001600160a01b03167f14fc84a5e4d065d3310cd99ef0204a8d9b6e58c0cacc4743bd23f57876ef62cd5f80a2005b34610135575f366003190112610135576040517f00000000000000000000000000000000000000000000000000000000000000006001600160a01b03168152602090f35b34610135575f366003190112610135575f5160206113595f395f51905f52546040516001600160a01b039091168152602090f35b346101355760203660031901126101355760206108cf610d5b565b6040517f00000000000000000000000000000000000000000000000000000000000000006001600160a01b039081169216919091148152f35b34610135576020366003190112610135576004355f602060018060a01b035f5160206112d95f395f51905f5254166024604051809481936331a9108f60e11b83528760048401525af180156102ba57610972915f9161028b57506001600160a01b036101a461124b565b805f525f5160206113195f395f51905f5260205261099b600160ff60405f205416151514610e6d565b805f525f5160206113195f395f51905f5260205260405f2060ff1981541690557fb19292259aa67626f3927a9d312bfb6875711460dc7b1edbad4c5f75fb66758b5f80a2005b34610135576020366003190112610135576004356109fd61124b565b5f8281527f330f3bda9f99a316cfa3447262f2a7a821ef201c407ca28d81f28d8e38ea1e0260205260409020546001600160a01b039182169116148015610b1b575b15610ac2575f8181525f5160206112b95f395f51905f5260209081526040808320805460ff191690557f330f3bda9f99a316cfa3447262f2a7a821ef201c407ca28d81f28d8e38ea1e02909152812080546001600160a01b03191690557ff1305f3f1ba2f92fd58fbb33a7304d7bd1b44142c75547c4ce1f042f61eb9a4b9080a2005b60405162461bcd60e51b815260206004820152602b60248201527f417269616e65654c6f73743a204e6f742074686520697373756572206e6f722060448201526a3a34329036b0b730b3b2b960a91b6064820152608490fd5b50610b2461124b565b5f5160206113595f395f51905f52546001600160a01b03918216911614610a3f565b3461013557602036600319011261013557610b5f610d5b565b610b67610f6b565b610b7081610d71565b6001600160a01b03167f3a80754c9b91459bd9e7a1ef43baea70c1e14afdd61eac6e40013228dd4022f35f80a2005b34610135576020366003190112610135576004355f525f5160206113195f395f51905f52602052602060ff60405f2054166040519015158152f35b3461013557604036600319011261013557610bf3610d45565b6001600160a01b03610c0361124b565b166001600160a01b03821603610c1f57610314906004356111a2565b63334bd91960e11b5f5260045ffd5b34610135576020366003190112610135576004355f525f5160206112b95f395f51905f52602052602060ff60405f2054166040519015158152f35b3461013557604036600319011261013557610314600435610c88610d45565b90610cae61030a825f525f5160206112f95f395f51905f52602052600160405f20015490565b6110f1565b34610135576020366003190112610135576020610cea6004355f525f5160206112f95f395f51905f52602052600160405f20015490565b604051908152f35b34610135576020366003190112610135576004359063ffffffff60e01b821680920361013557602091637965db0b60e01b8114908115610d34575b5015158152f35b6301ffc9a760e01b14905083610d2d565b602435906001600160a01b038216820361013557565b600435906001600160a01b038216820361013557565b60018060a01b03166001600160601b0360a01b5f5160206113595f395f51905f525416175f5160206113595f395f51905f5255565b90601f8019910116810190811067ffffffffffffffff821117610dc857604052565b634e487b7160e01b5f52604160045260245ffd5b9081602091031261013557516001600160a01b03811681036101355790565b15610e0257565b60405162461bcd60e51b815260206004820152603c60248201527f417269616e65654c6f73743a204e6f7420617574686f72697a6564206265636160448201527f757365206e6f742074686520536d6172744173736574206f776e6572000000006064820152608490fd5b15610e7457565b60405162461bcd60e51b815260206004820152603560248201527f417269616e65654c6f73743a2054686520536d6172744173736574206d757374604482015274206265206d61726b6564206173206d697373696e6760581b6064820152608490fd5b15610ede57565b60405162461bcd60e51b815260206004820152602760248201527f417269616e65654c6f73743a2043616c6c6572206d757374206265207468652060448201526636b0b730b3b2b960c91b6064820152608490fd5b6001600160a01b03165f9081527f330f3bda9f99a316cfa3447262f2a7a821ef201c407ca28d81f28d8e38ea1e036020526040902090565b610f7361124b565b6001600160a01b0381165f9081527fb7db2dd08fcb62d0c9e08c51941cae53c267786a0b75803fb7960902fc8ef97d602052604090205460ff1615610fb55750565b63e2517d3f60e01b5f5260018060a01b03166004525f60245260445ffd5b610fdb61124b565b815f525f5160206112f95f395f51905f5260205260405f2060018060a01b0382165f5260205260ff60405f20541615611012575050565b63e2517d3f60e01b5f5260018060a01b031660045260245260445ffd5b6001600160a01b0381165f9081527fb7db2dd08fcb62d0c9e08c51941cae53c267786a0b75803fb7960902fc8ef97d602052604090205460ff166110ec576001600160a01b038181165f9081527fb7db2dd08fcb62d0c9e08c51941cae53c267786a0b75803fb7960902fc8ef97d60205260409020805460ff191660011790556110b761124b565b16906001600160a01b03165f7f2f8788117e7eff1d82e926ec794901d17c78024a50270940304540a733656f0d8180a4600190565b505f90565b5f8181525f5160206112f95f395f51905f52602090815260408083206001600160a01b038616845290915290205460ff1661119c575f8181525f5160206112f95f395f51905f52602090815260408083206001600160a01b0386811685529252909120805460ff1916600117905561116761124b565b16916001600160a01b0316907f2f8788117e7eff1d82e926ec794901d17c78024a50270940304540a733656f0d5f80a4600190565b50505f90565b5f8181525f5160206112f95f395f51905f52602090815260408083206001600160a01b038616845290915290205460ff161561119c575f8181525f5160206112f95f395f51905f52602090815260408083206001600160a01b0386811685529252909120805460ff1916905561121661124b565b16916001600160a01b0316907ff6391f5c32d9c69d2a47ea670b442974b53935d1edc7fd64eb21e047a839171b5f80a4600190565b337f00000000000000000000000000000000000000000000000000000000000000006001600160a01b031614806112ad575b156112a9576013193601368111611295573560601c90565b634e487b7160e01b5f52601160045260245ffd5b3390565b50601436101561127d56fe330f3bda9f99a316cfa3447262f2a7a821ef201c407ca28d81f28d8e38ea1e01330f3bda9f99a316cfa3447262f2a7a821ef201c407ca28d81f28d8e38ea1e0502dd7bc7dec4dceedda775e58dd541e08a116c6c53815c0bd028192f7b626800330f3bda9f99a316cfa3447262f2a7a821ef201c407ca28d81f28d8e38ea1e00f0c57e16840df040f15088dc2f81fe391c3923bec73e23a9662efc9c229c6a00330f3bda9f99a316cfa3447262f2a7a821ef201c407ca28d81f28d8e38ea1e04a26469706673582212200ad96aeee2da97a61ec3d0d3cd3655cc06905911097f805b0bf18eb17522c6a364736f6c634300081c0033f0c57e16840df040f15088dc2f81fe391c3923bec73e23a9662efc9c229c6a00","linkReferences":{}},"methodIdentifiers":{"ArianeeLostStorageV0Location()":"d9ca9410","DEFAULT_ADMIN_ROLE()":"a217fddf","getManagerIdentity()":"6345f556","getRoleAdmin(bytes32)":"248a9ca3","grantRole(bytes32,address)":"2f2ff15d","hasRole(bytes32,address)":"91d14854","initialize(address,address,address)":"c0c53b8b","isAddressAuthorized(address)":"ced3fb9c","isMissing(uint256)":"37716245","isStolen(uint256)":"33344c49","isTrustedForwarder(address)":"572b6c05","renounceRole(bytes32,address)":"36568abe","revokeRole(bytes32,address)":"d547741f","setAuthorizedIdentity(address)":"bbea76b1","setManagerIdentity(address)":"3904b98e","setMissingStatus(uint256)":"d93d56f9","setStolenStatus(uint256)":"afdeddbc","supportsInterface(bytes4)":"01ffc9a7","trustedForwarder()":"7da0a877","unsetAuthorizedIdentity(address)":"8e43b031","unsetMissingStatus(uint256)":"4d89a4ab","unsetStolenStatus(uint256)":"48d3d239"},"storageLayout":{"storage":[],"types":{}},"id":80}