{"abi":[{"type":"constructor","inputs":[{"name":"_trustedForwarder","type":"address","internalType":"address"}],"stateMutability":"nonpayable"},{"type":"function","name":"ArianeeMessageStorageV0Location","inputs":[],"outputs":[{"name":"","type":"bytes32","internalType":"bytes32"}],"stateMutability":"view"},{"type":"function","name":"DEFAULT_ADMIN_ROLE","inputs":[],"outputs":[{"name":"","type":"bytes32","internalType":"bytes32"}],"stateMutability":"view"},{"type":"function","name":"getRoleAdmin","inputs":[{"name":"role","type":"bytes32","internalType":"bytes32"}],"outputs":[{"name":"","type":"bytes32","internalType":"bytes32"}],"stateMutability":"view"},{"type":"function","name":"grantRole","inputs":[{"name":"role","type":"bytes32","internalType":"bytes32"},{"name":"account","type":"address","internalType":"address"}],"outputs":[],"stateMutability":"nonpayable"},{"type":"function","name":"hasRole","inputs":[{"name":"role","type":"bytes32","internalType":"bytes32"},{"name":"account","type":"address","internalType":"address"}],"outputs":[{"name":"","type":"bool","internalType":"bool"}],"stateMutability":"view"},{"type":"function","name":"initialize","inputs":[{"name":"_initialAdmin","type":"address","internalType":"address"},{"name":"_smartAssetAddress","type":"address","internalType":"address"},{"name":"_storeAddress","type":"address","internalType":"address"},{"name":"_whitelistAddress","type":"address","internalType":"address"}],"outputs":[],"stateMutability":"nonpayable"},{"type":"function","name":"isTrustedForwarder","inputs":[{"name":"forwarder","type":"address","internalType":"address"}],"outputs":[{"name":"","type":"bool","internalType":"bool"}],"stateMutability":"view"},{"type":"function","name":"messageLengthByReceiver","inputs":[{"name":"_receiver","type":"address","internalType":"address"}],"outputs":[{"name":"","type":"uint256","internalType":"uint256"}],"stateMutability":"view"},{"type":"function","name":"messages","inputs":[{"name":"_messageId","type":"uint256","internalType":"uint256"}],"outputs":[{"name":"","type":"tuple","internalType":"struct Message","components":[{"name":"imprint","type":"bytes32","internalType":"bytes32"},{"name":"sender","type":"address","internalType":"address"},{"name":"to","type":"address","internalType":"address"},{"name":"tokenId","type":"uint256","internalType":"uint256"}]}],"stateMutability":"view"},{"type":"function","name":"readMessage","inputs":[{"name":"_messageId","type":"uint256","internalType":"uint256"},{"name":"_from","type":"address","internalType":"address"}],"outputs":[{"name":"","type":"uint256","internalType":"uint256"}],"stateMutability":"nonpayable"},{"type":"function","name":"renounceRole","inputs":[{"name":"role","type":"bytes32","internalType":"bytes32"},{"name":"callerConfirmation","type":"address","internalType":"address"}],"outputs":[],"stateMutability":"nonpayable"},{"type":"function","name":"revokeRole","inputs":[{"name":"role","type":"bytes32","internalType":"bytes32"},{"name":"account","type":"address","internalType":"address"}],"outputs":[],"stateMutability":"nonpayable"},{"type":"function","name":"sendMessage","inputs":[{"name":"_messageId","type":"uint256","internalType":"uint256"},{"name":"_tokenId","type":"uint256","internalType":"uint256"},{"name":"_imprint","type":"bytes32","internalType":"bytes32"},{"name":"_from","type":"address","internalType":"address"},{"name":"_rewards","type":"uint256","internalType":"uint256"}],"outputs":[],"stateMutability":"nonpayable"},{"type":"function","name":"supportsInterface","inputs":[{"name":"interfaceId","type":"bytes4","internalType":"bytes4"}],"outputs":[{"name":"","type":"bool","internalType":"bool"}],"stateMutability":"view"},{"type":"function","name":"trustedForwarder","inputs":[],"outputs":[{"name":"","type":"address","internalType":"address"}],"stateMutability":"view"},{"type":"event","name":"Initialized","inputs":[{"name":"version","type":"uint64","indexed":false,"internalType":"uint64"}],"anonymous":false},{"type":"event","name":"MessageRead","inputs":[{"name":"_receiver","type":"address","indexed":true,"internalType":"address"},{"name":"_sender","type":"address","indexed":true,"internalType":"address"},{"name":"_messageId","type":"uint256","indexed":true,"internalType":"uint256"}],"anonymous":false},{"type":"event","name":"MessageSent","inputs":[{"name":"_receiver","type":"address","indexed":true,"internalType":"address"},{"name":"_sender","type":"address","indexed":true,"internalType":"address"},{"name":"_tokenId","type":"uint256","indexed":true,"internalType":"uint256"},{"name":"_messageId","type":"uint256","indexed":false,"internalType":"uint256"}],"anonymous":false},{"type":"event","name":"RoleAdminChanged","inputs":[{"name":"role","type":"bytes32","indexed":true,"internalType":"bytes32"},{"name":"previousAdminRole","type":"bytes32","indexed":true,"internalType":"bytes32"},{"name":"newAdminRole","type":"bytes32","indexed":true,"internalType":"bytes32"}],"anonymous":false},{"type":"event","name":"RoleGranted","inputs":[{"name":"role","type":"bytes32","indexed":true,"internalType":"bytes32"},{"name":"account","type":"address","indexed":true,"internalType":"address"},{"name":"sender","type":"address","indexed":true,"internalType":"address"}],"anonymous":false},{"type":"event","name":"RoleRevoked","inputs":[{"name":"role","type":"bytes32","indexed":true,"internalType":"bytes32"},{"name":"account","type":"address","indexed":true,"internalType":"address"},{"name":"sender","type":"address","indexed":true,"internalType":"address"}],"anonymous":false},{"type":"error","name":"AccessControlBadConfirmation","inputs":[]},{"type":"error","name":"AccessControlUnauthorizedAccount","inputs":[{"name":"account","type":"address","internalType":"address"},{"name":"neededRole","type":"bytes32","internalType":"bytes32"}]},{"type":"error","name":"InvalidInitialization","inputs":[]},{"type":"error","name":"NotInitializing","inputs":[]}],"bytecode":{"object":"0x60a03461011057601f61124f38819003918201601f19168301916001600160401b038311848410176101145780849260209460405283398101031261011057516001600160a01b0381168103610110576080525f51602061122f5f395f51905f525460ff8160401c16610101576002600160401b03196001600160401b038216016100ab575b6040516111069081610129823960805181818161046e015281816104bd0152610fe60152f35b6001600160401b0319166001600160401b039081175f51602061122f5f395f51905f52556040519081527fc7f505b2f371ae2175ee4913f4499e1f2633a7b5936321eed1cdaeb6115181d290602090a15f610085565b63f92ee8a960e01b5f5260045ffd5b5f80fd5b634e487b7160e01b5f52604160045260245ffdfe6080806040526004361015610012575f80fd5b5f3560e01c90816301ffc9a714610ae1575080630d80fefd14610a2b578063248a9ca3146109ec5780632f2ff15d146109a257806333ab27311461089f57806336568abe1461084b5780634f24b715146104f1578063572b6c051461049d5780637da0a8771461045957806391d14854146104045780639b09721c146103a5578063a217fddf1461038b578063d547741f1461033a578063d584f64d146103135763f8c8765e146100c1575f80fd5b3461030f57608036600319011261030f576100da610b60565b6100e2610b34565b60443591906001600160a01b0383169081840361030f57610101610b4a565b925f5160206110b15f395f51905f52549460ff8660401c16159567ffffffffffffffff811680159081610307575b60011490816102fd575b1590816102f4575b506102e55767ffffffffffffffff1981166001175f5160206110b15f395f51905f525561017e9261017891886102b9575b50610cea565b50610dac565b5060018060a01b03166001600160601b0360a01b5f5160206110515f395f51905f525416175f5160206110515f395f51905f52556001600160601b0360a01b7f72d050199eb260838f1803579a5fe035cabcc640b4d28e5537938b0090f110015416177f72d050199eb260838f1803579a5fe035cabcc640b4d28e5537938b0090f110015560018060a01b03166001600160601b0360a01b7f72d050199eb260838f1803579a5fe035cabcc640b4d28e5537938b0090f110025416177f72d050199eb260838f1803579a5fe035cabcc640b4d28e5537938b0090f110025561026257005b68ff0000000000000000195f5160206110b15f395f51905f5254165f5160206110b15f395f51905f52557fc7f505b2f371ae2175ee4913f4499e1f2633a7b5936321eed1cdaeb6115181d2602060405160018152a1005b68ffffffffffffffffff191668010000000000000001175f5160206110b15f395f51905f52555f610172565b63f92ee8a960e01b5f5260045ffd5b9050155f610141565b303b159150610139565b88915061012f565b5f80fd5b3461030f575f36600319011261030f5760206040515f5160206110515f395f51905f528152f35b3461030f57604036600319011261030f57610389600435610359610b34565b9061038461037f825f525f5160206110915f395f51905f52602052600160405f20015490565b610c8e565b610f3a565b005b3461030f575f36600319011261030f5760206040515f8152f35b3461030f57602036600319011261030f5760206103fb6103c3610b60565b6001600160a01b03165f9081527f72d050199eb260838f1803579a5fe035cabcc640b4d28e5537938b0090f110036020526040902090565b54604051908152f35b3461030f57604036600319011261030f5761041d610b34565b6004355f525f5160206110915f395f51905f5260205260405f209060018060a01b03165f52602052602060ff60405f2054166040519015158152f35b3461030f575f36600319011261030f576040517f00000000000000000000000000000000000000000000000000000000000000006001600160a01b03168152602090f35b3461030f57602036600319011261030f5760206104b8610b60565b6040517f00000000000000000000000000000000000000000000000000000000000000006001600160a01b039081169216919091148152f35b3461030f5760a036600319011261030f576024356004355f610511610b4a565b9161051a610c00565b5f5160206110515f395f51905f52546040516331a9108f60e11b8152600481018690529260209184916024918391906001600160a01b03165af19182156107fc575f92610807575b507f72d050199eb260838f1803579a5fe035cabcc640b4d28e5537938b0090f110025460405163175cf13b60e21b8152600481018690526001600160a01b039485166024820181905284861660448301819052909590949260209183916064918391165afa80156107fc575f906107bf575b6105de9150610bb4565b5f8281525f5160206110715f395f51905f5260205260409020600101546001600160a01b031661076b576106bc9060405161061881610b76565b604435815260208082018781526040808401888152606085018b81525f8981525f5160206110715f395f51905f5286528381209651875593516001870180546001600160a01b03199081166001600160a01b039384161790915592516002880180549094169082161790925551600395909501949094559390921682527f72d050199eb260838f1803579a5fe035cabcc640b4d28e5537938b0090f1100390522090565b9081549068010000000000000000821015610757576001820180845582101561074357806020927ffa00ffce6051230b4361a25cb8c6cf798674abf770922e7c08373265c95fc027945f52835f200155805f527f72d050199eb260838f1803579a5fe035cabcc640b4d28e5537938b0090f11004825260843560405f2055604051908152a4005b634e487b7160e01b5f52603260045260245ffd5b634e487b7160e01b5f52604160045260245ffd5b60405162461bcd60e51b815260206004820152602660248201527f417269616e65654d6573736167653a204d65737361676520616c72656164792060448201526565786973747360d01b6064820152608490fd5b506020813d6020116107f4575b816107d960209383610b92565b8101031261030f5751801515810361030f576105de906105d4565b3d91506107cc565b6040513d5f823e3d90fd5b9091506020813d602011610843575b8161082360209383610b92565b8101031261030f57516001600160a01b038116810361030f579084610562565b3d9150610816565b3461030f57604036600319011261030f57610864610b34565b6001600160a01b03610874610fe3565b166001600160a01b038216036108905761038990600435610f3a565b63334bd91960e11b5f5260045ffd5b3461030f57604036600319011261030f5760206004356108bd610b34565b906108c6610c00565b5f8181527f72d050199eb260838f1803579a5fe035cabcc640b4d28e5537938b0090f1100484526040808220548383525f5160206110715f395f51905f5286529120600201546001600160a01b039081169391929161092791168414610bb4565b805f527f72d050199eb260838f1803579a5fe035cabcc640b4d28e5537938b0090f1100484525f6040812055805f525f5160206110715f395f51905f52845260018060a01b03600160405f20015416604051937fd487ed2a9eb4497b51998ff0d7ac42a89f5d3a5039b9a7d6ebf64be4be1829b85f80a48152f35b3461030f57604036600319011261030f576103896004356109c1610b34565b906109e761037f825f525f5160206110915f395f51905f52602052600160405f20015490565b610e89565b3461030f57602036600319011261030f576020610a236004355f525f5160206110915f395f51905f52602052600160405f20015490565b604051908152f35b3461030f57602036600319011261030f575f6060604051610a4b81610b76565b82815282602082015282604082015201526004355f525f5160206110715f395f51905f52602052608060405f20604051610a8481610b76565b815480825260018301546001600160a01b0390811660208085019182526002860154831660408087019182526003909701546060968701908152875195865292518416918501919091525190911693820193909352915190820152f35b3461030f57602036600319011261030f576004359063ffffffff60e01b821680920361030f57602091637965db0b60e01b8114908115610b23575b5015158152f35b6301ffc9a760e01b14905083610b1c565b602435906001600160a01b038216820361030f57565b606435906001600160a01b038216820361030f57565b600435906001600160a01b038216820361030f57565b6080810190811067ffffffffffffffff82111761075757604052565b90601f8019910116810190811067ffffffffffffffff82111761075757604052565b15610bbb57565b60405162461bcd60e51b815260206004820152601e60248201527f417269616e65654d6573736167653a204e6f7420617574686f72697a656400006044820152606490fd5b610c08610fe3565b6001600160a01b0381165f9081527f31058941e1e7e2206d669e73d9d8ec62b5a5d91fe10b4e31bec209835d52156f602052604090205460ff1615610c4a5750565b63e2517d3f60e01b5f9081526001600160a01b03919091166004527f7c58c52c6ee36b58d66053b60f9071543575bb40c49fb6188a64738ae98ca57b602452604490fd5b610c96610fe3565b815f525f5160206110915f395f51905f5260205260405f2060018060a01b0382165f5260205260ff60405f20541615610ccd575050565b63e2517d3f60e01b5f5260018060a01b031660045260245260445ffd5b6001600160a01b0381165f9081527fb7db2dd08fcb62d0c9e08c51941cae53c267786a0b75803fb7960902fc8ef97d602052604090205460ff16610da7576001600160a01b038181165f9081527fb7db2dd08fcb62d0c9e08c51941cae53c267786a0b75803fb7960902fc8ef97d60205260409020805460ff19166001179055610d72610fe3565b16906001600160a01b03165f7f2f8788117e7eff1d82e926ec794901d17c78024a50270940304540a733656f0d8180a4600190565b505f90565b6001600160a01b0381165f9081527f31058941e1e7e2206d669e73d9d8ec62b5a5d91fe10b4e31bec209835d52156f602052604090205460ff16610da7576001600160a01b038181165f9081527f31058941e1e7e2206d669e73d9d8ec62b5a5d91fe10b4e31bec209835d52156f60205260409020805460ff19166001179055610e34610fe3565b16906001600160a01b03167f7c58c52c6ee36b58d66053b60f9071543575bb40c49fb6188a64738ae98ca57b7f2f8788117e7eff1d82e926ec794901d17c78024a50270940304540a733656f0d5f80a4600190565b5f8181525f5160206110915f395f51905f52602090815260408083206001600160a01b038616845290915290205460ff16610f34575f8181525f5160206110915f395f51905f52602090815260408083206001600160a01b0386811685529252909120805460ff19166001179055610eff610fe3565b16916001600160a01b0316907f2f8788117e7eff1d82e926ec794901d17c78024a50270940304540a733656f0d5f80a4600190565b50505f90565b5f8181525f5160206110915f395f51905f52602090815260408083206001600160a01b038616845290915290205460ff1615610f34575f8181525f5160206110915f395f51905f52602090815260408083206001600160a01b0386811685529252909120805460ff19169055610fae610fe3565b16916001600160a01b0316907ff6391f5c32d9c69d2a47ea670b442974b53935d1edc7fd64eb21e047a839171b5f80a4600190565b337f00000000000000000000000000000000000000000000000000000000000000006001600160a01b03161480611045575b1561104157601319360136811161102d573560601c90565b634e487b7160e01b5f52601160045260245ffd5b3390565b50601436101561101556fe72d050199eb260838f1803579a5fe035cabcc640b4d28e5537938b0090f1100072d050199eb260838f1803579a5fe035cabcc640b4d28e5537938b0090f1100502dd7bc7dec4dceedda775e58dd541e08a116c6c53815c0bd028192f7b626800f0c57e16840df040f15088dc2f81fe391c3923bec73e23a9662efc9c229c6a00a26469706673582212200bca15a3ca3f8e4a9ee9121d174f65d1075cdda54784fad92344fa17c0372c6864736f6c634300081c0033f0c57e16840df040f15088dc2f81fe391c3923bec73e23a9662efc9c229c6a00","linkReferences":{}},"methodIdentifiers":{"ArianeeMessageStorageV0Location()":"d584f64d","DEFAULT_ADMIN_ROLE()":"a217fddf","getRoleAdmin(bytes32)":"248a9ca3","grantRole(bytes32,address)":"2f2ff15d","hasRole(bytes32,address)":"91d14854","initialize(address,address,address,address)":"f8c8765e","isTrustedForwarder(address)":"572b6c05","messageLengthByReceiver(address)":"9b09721c","messages(uint256)":"0d80fefd","readMessage(uint256,address)":"33ab2731","renounceRole(bytes32,address)":"36568abe","revokeRole(bytes32,address)":"d547741f","sendMessage(uint256,uint256,bytes32,address,uint256)":"4f24b715","supportsInterface(bytes4)":"01ffc9a7","trustedForwarder()":"7da0a877"},"storageLayout":{"storage":[],"types":{}},"id":81}