{"abi":[{"type":"constructor","inputs":[{"name":"_trustedForwarder","type":"address","internalType":"address"}],"stateMutability":"nonpayable"},{"type":"function","name":"ArianeeEventStorageV0Location","inputs":[],"outputs":[{"name":"","type":"bytes32","internalType":"bytes32"}],"stateMutability":"view"},{"type":"function","name":"DEFAULT_ADMIN_ROLE","inputs":[],"outputs":[{"name":"","type":"bytes32","internalType":"bytes32"}],"stateMutability":"view"},{"type":"function","name":"accept","inputs":[{"name":"_eventId","type":"uint256","internalType":"uint256"},{"name":"_sender","type":"address","internalType":"address"}],"outputs":[{"name":"","type":"uint256","internalType":"uint256"}],"stateMutability":"nonpayable"},{"type":"function","name":"create","inputs":[{"name":"_eventId","type":"uint256","internalType":"uint256"},{"name":"_tokenId","type":"uint256","internalType":"uint256"},{"name":"_imprint","type":"bytes32","internalType":"bytes32"},{"name":"_uri","type":"string","internalType":"string"},{"name":"_rewards","type":"uint256","internalType":"uint256"},{"name":"_provider","type":"address","internalType":"address"}],"outputs":[],"stateMutability":"nonpayable"},{"type":"function","name":"destroy","inputs":[{"name":"_eventId","type":"uint256","internalType":"uint256"}],"outputs":[],"stateMutability":"nonpayable"},{"type":"function","name":"eventIdToToken","inputs":[{"name":"_eventId","type":"uint256","internalType":"uint256"}],"outputs":[{"name":"","type":"uint256","internalType":"uint256"}],"stateMutability":"view"},{"type":"function","name":"eventsLength","inputs":[{"name":"_tokenId","type":"uint256","internalType":"uint256"}],"outputs":[{"name":"","type":"uint256","internalType":"uint256"}],"stateMutability":"view"},{"type":"function","name":"getEvent","inputs":[{"name":"_eventId","type":"uint256","internalType":"uint256"}],"outputs":[{"name":"uri","type":"string","internalType":"string"},{"name":"imprint","type":"bytes32","internalType":"bytes32"},{"name":"provider","type":"address","internalType":"address"},{"name":"destroyLimitTimestamp","type":"uint256","internalType":"uint256"}],"stateMutability":"view"},{"type":"function","name":"getRoleAdmin","inputs":[{"name":"role","type":"bytes32","internalType":"bytes32"}],"outputs":[{"name":"","type":"bytes32","internalType":"bytes32"}],"stateMutability":"view"},{"type":"function","name":"grantRole","inputs":[{"name":"role","type":"bytes32","internalType":"bytes32"},{"name":"account","type":"address","internalType":"address"}],"outputs":[],"stateMutability":"nonpayable"},{"type":"function","name":"hasRole","inputs":[{"name":"role","type":"bytes32","internalType":"bytes32"},{"name":"account","type":"address","internalType":"address"}],"outputs":[{"name":"","type":"bool","internalType":"bool"}],"stateMutability":"view"},{"type":"function","name":"initialize","inputs":[{"name":"_initialAdmin","type":"address","internalType":"address"},{"name":"_smartAssetAddress","type":"address","internalType":"address"},{"name":"_storeAddress","type":"address","internalType":"address"},{"name":"_whitelistAddress","type":"address","internalType":"address"}],"outputs":[],"stateMutability":"nonpayable"},{"type":"function","name":"isPending","inputs":[{"name":"_eventId","type":"uint256","internalType":"uint256"}],"outputs":[{"name":"","type":"bool","internalType":"bool"}],"stateMutability":"view"},{"type":"function","name":"isTrustedForwarder","inputs":[{"name":"forwarder","type":"address","internalType":"address"}],"outputs":[{"name":"","type":"bool","internalType":"bool"}],"stateMutability":"view"},{"type":"function","name":"paused","inputs":[],"outputs":[{"name":"","type":"bool","internalType":"bool"}],"stateMutability":"view"},{"type":"function","name":"pendingEventsLength","inputs":[{"name":"_tokenId","type":"uint256","internalType":"uint256"}],"outputs":[{"name":"","type":"uint256","internalType":"uint256"}],"stateMutability":"view"},{"type":"function","name":"refuse","inputs":[{"name":"_eventId","type":"uint256","internalType":"uint256"},{"name":"_sender","type":"address","internalType":"address"}],"outputs":[{"name":"","type":"uint256","internalType":"uint256"}],"stateMutability":"nonpayable"},{"type":"function","name":"renounceRole","inputs":[{"name":"role","type":"bytes32","internalType":"bytes32"},{"name":"callerConfirmation","type":"address","internalType":"address"}],"outputs":[],"stateMutability":"nonpayable"},{"type":"function","name":"revokeRole","inputs":[{"name":"role","type":"bytes32","internalType":"bytes32"},{"name":"account","type":"address","internalType":"address"}],"outputs":[],"stateMutability":"nonpayable"},{"type":"function","name":"supportsInterface","inputs":[{"name":"interfaceId","type":"bytes4","internalType":"bytes4"}],"outputs":[{"name":"","type":"bool","internalType":"bool"}],"stateMutability":"view"},{"type":"function","name":"trustedForwarder","inputs":[],"outputs":[{"name":"","type":"address","internalType":"address"}],"stateMutability":"view"},{"type":"function","name":"updateDestroyRequest","inputs":[{"name":"_eventId","type":"uint256","internalType":"uint256"},{"name":"_active","type":"bool","internalType":"bool"}],"outputs":[],"stateMutability":"nonpayable"},{"type":"function","name":"updateEventDestroyDelay","inputs":[{"name":"_newEventDestroyDelay","type":"uint256","internalType":"uint256"}],"outputs":[],"stateMutability":"nonpayable"},{"type":"function","name":"validDestroyRequest","inputs":[{"name":"_eventId","type":"uint256","internalType":"uint256"}],"outputs":[],"stateMutability":"nonpayable"},{"type":"event","name":"DestroyRequestUpdated","inputs":[{"name":"_eventId","type":"uint256","indexed":true,"internalType":"uint256"},{"name":"_active","type":"bool","indexed":false,"internalType":"bool"}],"anonymous":false},{"type":"event","name":"EventAccepted","inputs":[{"name":"_eventId","type":"uint256","indexed":true,"internalType":"uint256"},{"name":"_sender","type":"address","indexed":true,"internalType":"address"}],"anonymous":false},{"type":"event","name":"EventCreated","inputs":[{"name":"_tokenId","type":"uint256","indexed":true,"internalType":"uint256"},{"name":"_eventId","type":"uint256","indexed":true,"internalType":"uint256"},{"name":"_imprint","type":"bytes32","indexed":true,"internalType":"bytes32"},{"name":"_uri","type":"string","indexed":false,"internalType":"string"},{"name":"_provider","type":"address","indexed":false,"internalType":"address"}],"anonymous":false},{"type":"event","name":"EventDestroyDelayUpdated","inputs":[{"name":"_newDelay","type":"uint256","indexed":false,"internalType":"uint256"}],"anonymous":false},{"type":"event","name":"EventDestroyed","inputs":[{"name":"_eventId","type":"uint256","indexed":true,"internalType":"uint256"}],"anonymous":false},{"type":"event","name":"EventRefused","inputs":[{"name":"_eventId","type":"uint256","indexed":true,"internalType":"uint256"},{"name":"_sender","type":"address","indexed":true,"internalType":"address"}],"anonymous":false},{"type":"event","name":"Initialized","inputs":[{"name":"version","type":"uint64","indexed":false,"internalType":"uint64"}],"anonymous":false},{"type":"event","name":"Paused","inputs":[{"name":"account","type":"address","indexed":false,"internalType":"address"}],"anonymous":false},{"type":"event","name":"RoleAdminChanged","inputs":[{"name":"role","type":"bytes32","indexed":true,"internalType":"bytes32"},{"name":"previousAdminRole","type":"bytes32","indexed":true,"internalType":"bytes32"},{"name":"newAdminRole","type":"bytes32","indexed":true,"internalType":"bytes32"}],"anonymous":false},{"type":"event","name":"RoleGranted","inputs":[{"name":"role","type":"bytes32","indexed":true,"internalType":"bytes32"},{"name":"account","type":"address","indexed":true,"internalType":"address"},{"name":"sender","type":"address","indexed":true,"internalType":"address"}],"anonymous":false},{"type":"event","name":"RoleRevoked","inputs":[{"name":"role","type":"bytes32","indexed":true,"internalType":"bytes32"},{"name":"account","type":"address","indexed":true,"internalType":"address"},{"name":"sender","type":"address","indexed":true,"internalType":"address"}],"anonymous":false},{"type":"event","name":"Unpaused","inputs":[{"name":"account","type":"address","indexed":false,"internalType":"address"}],"anonymous":false},{"type":"error","name":"AccessControlBadConfirmation","inputs":[]},{"type":"error","name":"AccessControlUnauthorizedAccount","inputs":[{"name":"account","type":"address","internalType":"address"},{"name":"neededRole","type":"bytes32","internalType":"bytes32"}]},{"type":"error","name":"EnforcedPause","inputs":[]},{"type":"error","name":"ExpectedPause","inputs":[]},{"type":"error","name":"InvalidInitialization","inputs":[]},{"type":"error","name":"NotInitializing","inputs":[]}],"bytecode":{"object":"0x60a03461011057601f6126eb38819003918201601f19168301916001600160401b038311848410176101145780849260209460405283398101031261011057516001600160a01b0381168103610110576080525f5160206126cb5f395f51905f525460ff8160401c16610101576002600160401b03196001600160401b038216016100ab575b6040516125a290816101298239608051818181610bc401528181610e5301526123b60152f35b6001600160401b0319166001600160401b039081175f5160206126cb5f395f51905f52556040519081527fc7f505b2f371ae2175ee4913f4499e1f2633a7b5936321eed1cdaeb6115181d290602090a15f610085565b63f92ee8a960e01b5f5260045ffd5b5f80fd5b634e487b7160e01b5f52604160045260245ffdfe6080806040526004361015610012575f80fd5b5f905f3560e01c90816301ffc9a714611a1e57508063078a5cfb14611584578063246cb2d51461154e578063248a9ca31461150f5780632f2ff15d146114c557806336568abe1461146f5780634d396a2a146112ca57806350ace9c214610e87578063572b6c0514610e325780635c975abb14610e035780636d1884e014610c295780637bf4c22014610bf35780637da0a87714610bae57806391d1485414610b585780639d118770146109c45780639f503b751461098e578063a217fddf14610972578063b215548e1461087a578063bb24b85114610852578063c83ed88c146104e7578063ca8836d2146104be578063d547741f1461046a578063e253981b146103f55763f8c8765e14610126575f80fd5b346103f25760803660031901126103f25761013f611a87565b610147611a71565b604435906001600160a01b038216908183036103f0576064356001600160a01b03811693908490036103ec575f51602061254d5f395f51905f52549460ff8660401c16159567ffffffffffffffff8116801590816103e4575b60011490816103da575b1590816103d1575b506103c25767ffffffffffffffff1981166001175f51602061254d5f395f51905f525586610396575b5060ff5f51602061254d5f395f51905f525460401c1615610387579061022561022b9260ff195f51602061252d5f395f51905f5254165f51602061252d5f395f51905f5255611eeb565b50611fad565b5060018060a01b03166001600160601b0360a01b5f5160206124ed5f395f51905f525416175f5160206124ed5f395f51905f52556001600160601b0360a01b7fe9eed97c86de3cadab117379c038e0d52f54d2544d92c482e0f7d68741c108015416177fe9eed97c86de3cadab117379c038e0d52f54d2544d92c482e0f7d68741c10801556001600160601b0360a01b7fe9eed97c86de3cadab117379c038e0d52f54d2544d92c482e0f7d68741c108025416177fe9eed97c86de3cadab117379c038e0d52f54d2544d92c482e0f7d68741c10802556301e133807fe9eed97c86de3cadab117379c038e0d52f54d2544d92c482e0f7d68741c108035561032f5780f35b68ff0000000000000000195f51602061254d5f395f51905f5254165f51602061254d5f395f51905f52557fc7f505b2f371ae2175ee4913f4499e1f2633a7b5936321eed1cdaeb6115181d2602060405160018152a180f35b631afcd79f60e31b8752600487fd5b68ffffffffffffffffff191668010000000000000001175f51602061254d5f395f51905f52555f6101db565b63f92ee8a960e01b8852600488fd5b9050155f6101b2565b303b1591506101aa565b8891506101a0565b8580fd5b845b80fd5b50346103f25760203660031901126103f2577f669d541b4334ab609b45df5fd2166d3307e17d6a4480a7b898b53d5d2944a4516020600435610435611e00565b61043d611ec4565b807fe9eed97c86de3cadab117379c038e0d52f54d2544d92c482e0f7d68741c1080355604051908152a180f35b50346103f25760403660031901126103f2576104ba60043561048a611a71565b906104b56104b0825f525f51602061250d5f395f51905f52602052600160405f20015490565b611e68565b61213b565b5080f35b50346103f25760203660031901126103f25760206104dd600435611cee565b6040519015158152f35b50346103f25760403660031901126103f257600435610504611a71565b61050c611d72565b8183525f51602061244d5f395f51905f5260209081526040808520545f5160206124ed5f395f51905f5254915163405276ed60e11b8152600481018290526001600160a01b038581166024830152919390929091839160449183918a91165af1908115610847578591610818575b50801561077f575b61058c9150611c52565b610594611ec4565b8183525f51602061244d5f395f51905f526020526040832054928281525f51602061248d5f395f51905f526020526040812054938082525f5160206124cd5f395f51905f526020526040822054945f19860195861161076b578581602097036106ea575b505081525f5160206124cd5f395f51905f52845261061860408220611cb3565b8281525f51602061248d5f395f51905f5284528060408120558281525f51602061244d5f395f51905f5284528060408120558281525f51602061240d5f395f51905f528452610669604082206121e4565b60405192807f76cbc15b6b19cc4b9fe30092856bf54574239555e9f1b1b96647b2dccd23b4d88380a28082525f51602061246d5f395f51905f528086526040808420548385529187528320839055926001600160a01b0316917f7b63482061dff09283b6f74fe6316412dc2ecd1c506db6fd2e71587441de4a789080a38152f35b61070a908385525f5160206124cd5f395f51905f52885260408520611b0d565b90549060031b1c8284525f5160206124cd5f395f51905f5287528061074b6107358460408820611b0d565b819391549060031b91821b915f19901b19161790565b905583525f51602061248d5f395f51905f52865260408320555f806105f8565b634e487b7160e01b83526011600452602483fd5b505f5160206124ed5f395f51905f525460405163a4e2ee1160e01b81526004810192909252602090829060249082906001600160a01b03165afa801561080d5761058c9185916107de575b506001600160a01b03838116911614610582565b610800915060203d602011610806575b6107f88183611a9d565b810190611b61565b5f6107ca565b503d6107ee565b6040513d86823e3d90fd5b61083a915060203d602011610840575b6108328183611a9d565b810190611c3a565b5f61057a565b503d610828565b6040513d87823e3d90fd5b50346103f257806003193601126103f25760206040515f5160206124ed5f395f51905f528152f35b50346103f25760203660031901126103f257600435610897611e00565b8082527fe9eed97c86de3cadab117379c038e0d52f54d2544d92c482e0f7d68741c1080a602052600160ff60408420541615150361090e578082527fe9eed97c86de3cadab117379c038e0d52f54d2544d92c482e0f7d68741c1080a60205260408220805460ff1916905561090b9061224c565b80f35b60405162461bcd60e51b815260206004820152603660248201527f417269616e65654576656e743a204e6f206163746976652064657374726f79206044820152751c995c5d595cdd08199bdc881d1a1a5cc8195d995b9d60521b6064820152608490fd5b50346103f257806003193601126103f257602090604051908152f35b50346103f25760203660031901126103f257604060209160043581525f51602061244d5f395f51905f5283522054604051908152f35b50346103f25760203660031901126103f2576004356109e16123b3565b8183525f51602061240d5f395f51905f5260205260408320600201546001600160a01b039182169116148015610abc575b610a1b90611b80565b610a23611ec4565b8082525f51602061240d5f395f51905f526020526003604083200154421015610a615780610a5c610a5661090b93611cee565b15611be2565b61224c565b60405162461bcd60e51b815260206004820152602d60248201527f417269616e65654576656e743a2044657374726f79206c696d69742074696d6560448201526c1cdd185b5c081c995858da1959609a1b6064820152608490fd5b50610ac56123b3565b60018060a01b035f5160206124ed5f395f51905f525416908284525f51602061244d5f395f51905f526020526020604085205460246040518095819363a4e2ee1160e01b835260048301525afa801561080d57610a1b928591610b39575b506001600160a01b039182169116149050610a12565b610b52915060203d602011610806576107f88183611a9d565b5f610b23565b50346103f25760403660031901126103f2576040610b74611a71565b9160043581525f51602061250d5f395f51905f52602052209060018060a01b03165f52602052602060ff60405f2054166040519015158152f35b50346103f257806003193601126103f2576040517f00000000000000000000000000000000000000000000000000000000000000006001600160a01b03168152602090f35b50346103f25760203660031901126103f257604060209160043581525f5160206124ad5f395f51905f5283522054604051908152f35b50346103f25760203660031901126103f2576004358082525f51602061240d5f395f51905f5260205260408220600201549091906001600160a01b031615610db3578181525f51602061240d5f395f51905f5260205260408120918082525f51602061240d5f395f51905f526020526001604083200154928183525f51602061240d5f395f51905f5260205260018060a01b036002604085200154169183525f51602061240d5f395f51905f526020526003604084200154604051928495835493610cf385611abf565b9081875260208701956001811690815f14610d965750600114610d5c575b5050610d228560a097980386611a9d565b604051968795608087525180958160808901528888015e858501870152602085015260408401526060830152601f01601f19168101030190f35b90975086526020862086905b888210610d80575085016020019650610d2285610d11565b6001816020925483858b01015201910190610d68565b60ff191687525050151560051b85016020019650610d2285610d11565b60405162461bcd60e51b815260206004820152602260248201527f417269616e65654576656e743a204576656e7420646f6573206e6f74206578696044820152611cdd60f21b6064820152608490fd5b50346103f257806003193601126103f257602060ff5f51602061252d5f395f51905f5254166040519015158152f35b50346103f25760203660031901126103f2576020610e4e611a87565b6040517f00000000000000000000000000000000000000000000000000000000000000006001600160a01b039081169216919091148152f35b503461115757604036600319011261115757600435610ea4611a71565b90610ead611d72565b5f8181525f51602061244d5f395f51905f5260209081526040808320545f5160206124ed5f395f51905f5254915163405276ed60e11b8152600481018290526001600160a01b0387811660248301529194909392849260449284929091165af190811561114c575f916112ab575b50801561122d575b610f2d9150611c52565b610f35611ec4565b805f525f51602061244d5f395f51905f5260205260405f205492610f5882611cee565b156111dd57815f525f51602061248d5f395f51905f5260205260405f2054845f525f5160206124cd5f395f51905f5260205260405f20545f19810190811161115b5781810361116f575b5050835f525f5160206124cd5f395f51905f52602052610fc460405f20611cb3565b815f525f51602061248d5f395f51905f526020525f6040812055835f525f5160206124ad5f395f51905f52602052610fff8260405f20611b36565b835f525f5160206124ad5f395f51905f5260205260405f20545f19810190811161115b575f8381525f51602061242d5f395f51905f5260209081526040808320939093557fe9eed97c86de3cadab117379c038e0d52f54d2544d92c482e0f7d68741c10802545f51602061240d5f395f51905f52909152919020600201546001600160a01b03918216959116853b15611157576040516387159d9b60e01b815260048101929092526001600160a01b03166024820152935f908590604490829084905af193841561114c57602094611139575b508181525f51602061246d5f395f51905f5284526040812054918082525f51602061246d5f395f51905f5285528160408120557f801d564d3920ab7f9d83def865765f310bf8d043086d5ba3e544bd6f2073ad8c6040519460018060a01b03169280a38152f35b61114591505f90611a9d565b5f5f6110d2565b6040513d5f823e3d90fd5b5f80fd5b634e487b7160e01b5f52601160045260245ffd5b61119090865f525f5160206124cd5f395f51905f5260205260405f20611b0d565b90549060031b1c855f525f5160206124cd5f395f51905f52602052806111bc6107358460405f20611b0d565b90555f525f51602061248d5f395f51905f5260205260405f20555f80610fa2565b60405162461bcd60e51b815260206004820152602260248201527f417269616e65654576656e743a204576656e74206973206e6f742070656e64696044820152616e6760f01b6064820152608490fd5b505f5160206124ed5f395f51905f525460405163a4e2ee1160e01b81526004810192909252602090829060249082906001600160a01b03165afa801561114c57610f2d915f9161128c575b506001600160a01b03848116911614610f23565b6112a5915060203d602011610806576107f88183611a9d565b5f611278565b6112c4915060203d602011610840576108328183611a9d565b5f610f1b565b3461115757604036600319011261115757600435602435801515809103611157576112f36123b3565b5f8381525f51602061240d5f395f51905f5260205260409020600201546001600160a01b0391821691161480156113a6575b7f5f9ec800eb8dc135e488f393491e324d4662a45bad8759259d6b70a7f3edabc291611352602092611b80565b61135a611ec4565b611366610a5685611cee565b835f527fe9eed97c86de3cadab117379c038e0d52f54d2544d92c482e0f7d68741c1080a825260405f2060ff1981541660ff8316179055604051908152a2005b506113af6123b3565b9060018060a01b035f5160206124ed5f395f51905f52541690835f525f51602061244d5f395f51905f52602052602060405f205460246040518095819363a4e2ee1160e01b835260048301525afa91821561114c577f5f9ec800eb8dc135e488f393491e324d4662a45bad8759259d6b70a7f3edabc293602093611352925f91611452575b509294506001600160a01b0390811692169190911491506113259050565b6114699150853d8711610806576107f88183611a9d565b87611434565b3461115757604036600319011261115757611488611a71565b6001600160a01b036114986123b3565b166001600160a01b038216036114b6576114b49060043561213b565b005b63334bd91960e11b5f5260045ffd5b34611157576040366003190112611157576114b46004356114e4611a71565b9061150a6104b0825f525f51602061250d5f395f51905f52602052600160405f20015490565b61208a565b346111575760203660031901126111575760206115466004355f525f51602061250d5f395f51905f52602052600160405f20015490565b604051908152f35b34611157576020366003190112611157576004355f525f5160206124cd5f395f51905f52602052602060405f2054604051908152f35b346111575760c03660031901126111575760443560043560243560643567ffffffffffffffff8111611157573660238201121561115757806004013567ffffffffffffffff811161115757602482019160248236920101116111575760a4356001600160a01b0381169290839003611157576115fe611d72565b611606611ec4565b5f5160206124ed5f395f51905f5254604051632fd65c4160e11b81526004810186905290602090829060249082906001600160a01b03165afa90811561114c575f916119ec575b5015611997575f8581525f51602061240d5f395f51905f5260205260409020600201546001600160a01b0316611947577fe9eed97c86de3cadab117379c038e0d52f54d2544d92c482e0f7d68741c10803549042820180921161115b576040516080810181811067ffffffffffffffff82111761193357604052601f19601f850116926040516116e06020860182611a9d565b858152858460208301375f60208783010152825260208201898152604083019087825260608401928352895f525f51602061240d5f395f51905f5260205260405f20935180519067ffffffffffffffff8211611933576117408654611abf565b601f81116118f8575b50602090601f831160011461189157600395949392915f9183611886575b50508160011b915f1990871b1c19161785555b516001850155600284019060018060a01b039051166001600160601b0360a01b82541617905551910155845f525f5160206124cd5f395f51905f526020526117c58660405f20611b36565b845f525f5160206124cd5f395f51905f5260205260405f2054915f19830192831161115b577f22812011facd690a74ddd930726d2c051f0b7ef3d0ea35ad9b0f0d89849cb0f294606093885f525f51602061248d5f395f51905f5260205260405f2055875f525f51602061244d5f395f51905f526020528660405f2055875f525f51602061246d5f395f51905f5260205260843560405f20555f848660405197889660408852816040890152838801378501015260208301528101030190a4005b015190508e80611767565b90601f19831691875f52815f20925f5b8181106118e0575091600193918560039998979694106118c9575b505050811b01855561177a565b01515f1983891b60f8161c191690558e80806118bc565b929360206001819287860151815501950193016118a1565b61192390875f5260205f20601f850160051c81019160208610611929575b601f0160051c0190611af7565b8d611749565b9091508190611916565b634e487b7160e01b5f52604160045260245ffd5b60405162461bcd60e51b815260206004820152602260248201527f417269616e65654576656e743a204576656e7420616c72656164792065786973604482015261747360f01b6064820152608490fd5b60405162461bcd60e51b815260206004820152602760248201527f417269616e65654576656e743a20536d617274417373657420646f6573206e6f6044820152661d08195e1a5cdd60ca1b6064820152608490fd5b90506020813d602011611a16575b81611a0760209383611a9d565b8101031261115757518761164d565b3d91506119fa565b34611157576020366003190112611157576004359063ffffffff60e01b821680920361115757602091637965db0b60e01b8114908115611a60575b5015158152f35b6301ffc9a760e01b14905083611a59565b602435906001600160a01b038216820361115757565b600435906001600160a01b038216820361115757565b90601f8019910116810190811067ffffffffffffffff82111761193357604052565b90600182811c92168015611aed575b6020831014611ad957565b634e487b7160e01b5f52602260045260245ffd5b91607f1691611ace565b818110611b02575050565b5f8155600101611af7565b8054821015611b22575f5260205f2001905f90565b634e487b7160e01b5f52603260045260245ffd5b805490680100000000000000008210156119335781610735916001611b5d94018155611b0d565b9055565b9081602091031261115757516001600160a01b03811681036111575790565b15611b8757565b60405162461bcd60e51b815260206004820152602d60248201527f417269616e65654576656e743a204e6f74207468652070726f7669646572206e60448201526c37b9103a34329034b9b9bab2b960991b6064820152608490fd5b15611be957565b60405162461bcd60e51b8152602060048201526024808201527f417269616e65654576656e743a204576656e74206973207374696c6c2070656e60448201526364696e6760e01b6064820152608490fd5b90816020910312611157575180151581036111575790565b15611c5957565b60405162461bcd60e51b815260206004820152602c60248201527f417269616e65654576656e743a204e6f7420616e206f70657261746f72206e6f60448201526b39103a34329034b9b9bab2b960a11b6064820152608490fd5b80548015611cda575f190190611cc98282611b0d565b8154905f199060031b1b1916905555565b634e487b7160e01b5f52603160045260245ffd5b805f525f51602061244d5f395f51905f5260205260405f2054805f525f5160206124cd5f395f51905f5260205260405f2054155f14611d2d5750505f90565b611d6790825f525f51602061248d5f395f51905f5260205260405f2054905f525f5160206124cd5f395f51905f5260205260405f20611b0d565b90549060031b1c1490565b611d7a6123b3565b6001600160a01b0381165f9081527f31058941e1e7e2206d669e73d9d8ec62b5a5d91fe10b4e31bec209835d52156f602052604090205460ff1615611dbc5750565b63e2517d3f60e01b5f9081526001600160a01b03919091166004527f7c58c52c6ee36b58d66053b60f9071543575bb40c49fb6188a64738ae98ca57b602452604490fd5b611e086123b3565b6001600160a01b0381165f9081527fb7db2dd08fcb62d0c9e08c51941cae53c267786a0b75803fb7960902fc8ef97d602052604090205460ff1615611e4a5750565b63e2517d3f60e01b5f5260018060a01b03166004525f60245260445ffd5b611e706123b3565b815f525f51602061250d5f395f51905f5260205260405f2060018060a01b0382165f5260205260ff60405f20541615611ea7575050565b63e2517d3f60e01b5f5260018060a01b031660045260245260445ffd5b60ff5f51602061252d5f395f51905f525416611edc57565b63d93c066560e01b5f5260045ffd5b6001600160a01b0381165f9081527fb7db2dd08fcb62d0c9e08c51941cae53c267786a0b75803fb7960902fc8ef97d602052604090205460ff16611fa8576001600160a01b038181165f9081527fb7db2dd08fcb62d0c9e08c51941cae53c267786a0b75803fb7960902fc8ef97d60205260409020805460ff19166001179055611f736123b3565b16906001600160a01b03165f7f2f8788117e7eff1d82e926ec794901d17c78024a50270940304540a733656f0d8180a4600190565b505f90565b6001600160a01b0381165f9081527f31058941e1e7e2206d669e73d9d8ec62b5a5d91fe10b4e31bec209835d52156f602052604090205460ff16611fa8576001600160a01b038181165f9081527f31058941e1e7e2206d669e73d9d8ec62b5a5d91fe10b4e31bec209835d52156f60205260409020805460ff191660011790556120356123b3565b16906001600160a01b03167f7c58c52c6ee36b58d66053b60f9071543575bb40c49fb6188a64738ae98ca57b7f2f8788117e7eff1d82e926ec794901d17c78024a50270940304540a733656f0d5f80a4600190565b5f8181525f51602061250d5f395f51905f52602090815260408083206001600160a01b038616845290915290205460ff16612135575f8181525f51602061250d5f395f51905f52602090815260408083206001600160a01b0386811685529252909120805460ff191660011790556121006123b3565b16916001600160a01b0316907f2f8788117e7eff1d82e926ec794901d17c78024a50270940304540a733656f0d5f80a4600190565b50505f90565b5f8181525f51602061250d5f395f51905f52602090815260408083206001600160a01b038616845290915290205460ff1615612135575f8181525f51602061250d5f395f51905f52602090815260408083206001600160a01b0386811685529252909120805460ff191690556121af6123b3565b16916001600160a01b0316907ff6391f5c32d9c69d2a47ea670b442974b53935d1edc7fd64eb21e047a839171b5f80a4600190565b60035f916121f28154611abf565b80612209575b508260018201558260028201550155565b601f811160011461221f57508281555b5f6121f8565b8184526020842061223b91601f0160051c810190600101611af7565b808352826020812081835555612219565b805f525f51602061244d5f395f51905f5260205260405f2054815f525f51602061242d5f395f51905f5260205260405f2054815f525f5160206124ad5f395f51905f5260205260405f20545f19810190811161115b57808203612345575b50505f525f5160206124ad5f395f51905f526020526122cb60405f20611cb3565b805f525f51602061242d5f395f51905f526020525f6040812055805f525f51602061244d5f395f51905f526020525f6040812055805f525f51602061240d5f395f51905f5260205261231f60405f206121e4565b7f76cbc15b6b19cc4b9fe30092856bf54574239555e9f1b1b96647b2dccd23b4d85f80a2565b61236690835f525f5160206124ad5f395f51905f5260205260405f20611b0d565b90549060031b1c825f525f5160206124ad5f395f51905f52602052806123926107358460405f20611b0d565b90555f525f51602061242d5f395f51905f5260205260405f20555f806122aa565b337f00000000000000000000000000000000000000000000000000000000000000006001600160a01b03161480612401575b156123fd57601319360136811161115b573560601c90565b3390565b5060143610156123e556fee9eed97c86de3cadab117379c038e0d52f54d2544d92c482e0f7d68741c1080be9eed97c86de3cadab117379c038e0d52f54d2544d92c482e0f7d68741c10805e9eed97c86de3cadab117379c038e0d52f54d2544d92c482e0f7d68741c10808e9eed97c86de3cadab117379c038e0d52f54d2544d92c482e0f7d68741c10809e9eed97c86de3cadab117379c038e0d52f54d2544d92c482e0f7d68741c10807e9eed97c86de3cadab117379c038e0d52f54d2544d92c482e0f7d68741c10804e9eed97c86de3cadab117379c038e0d52f54d2544d92c482e0f7d68741c10806e9eed97c86de3cadab117379c038e0d52f54d2544d92c482e0f7d68741c1080002dd7bc7dec4dceedda775e58dd541e08a116c6c53815c0bd028192f7b626800cd5ed15c6e187e77e9aee88184c21f4f2182ab5827cb3b7e07fbedcd63f03300f0c57e16840df040f15088dc2f81fe391c3923bec73e23a9662efc9c229c6a00a26469706673582212204ef55c589d09f877ff5e03a75f8b56c29e652338ba7765b65df3ae8f8b4dcc7164736f6c634300081c0033f0c57e16840df040f15088dc2f81fe391c3923bec73e23a9662efc9c229c6a00","linkReferences":{}},"methodIdentifiers":{"ArianeeEventStorageV0Location()":"bb24b851","DEFAULT_ADMIN_ROLE()":"a217fddf","accept(uint256,address)":"50ace9c2","create(uint256,uint256,bytes32,string,uint256,address)":"078a5cfb","destroy(uint256)":"9d118770","eventIdToToken(uint256)":"9f503b75","eventsLength(uint256)":"7bf4c220","getEvent(uint256)":"6d1884e0","getRoleAdmin(bytes32)":"248a9ca3","grantRole(bytes32,address)":"2f2ff15d","hasRole(bytes32,address)":"91d14854","initialize(address,address,address,address)":"f8c8765e","isPending(uint256)":"ca8836d2","isTrustedForwarder(address)":"572b6c05","paused()":"5c975abb","pendingEventsLength(uint256)":"246cb2d5","refuse(uint256,address)":"c83ed88c","renounceRole(bytes32,address)":"36568abe","revokeRole(bytes32,address)":"d547741f","supportsInterface(bytes4)":"01ffc9a7","trustedForwarder()":"7da0a877","updateDestroyRequest(uint256,bool)":"4d396a2a","updateEventDestroyDelay(uint256)":"e253981b","validDestroyRequest(uint256)":"b215548e"},"storageLayout":{"storage":[],"types":{}},"id":78}