{"abi":[{"type":"constructor","inputs":[{"name":"_trustedForwarder","type":"address","internalType":"address"}],"stateMutability":"nonpayable"},{"type":"function","name":"ArianeeIssuerProxyStorageV0Location","inputs":[],"outputs":[{"name":"","type":"bytes32","internalType":"bytes32"}],"stateMutability":"view"},{"type":"function","name":"DEFAULT_ADMIN_ROLE","inputs":[],"outputs":[{"name":"","type":"bytes32","internalType":"bytes32"}],"stateMutability":"view"},{"type":"function","name":"acceptEvent","inputs":[{"name":"_ownershipProof","type":"tuple","internalType":"struct OwnershipProof","components":[{"name":"_pA","type":"uint256[2]","internalType":"uint256[2]"},{"name":"_pB","type":"uint256[2][2]","internalType":"uint256[2][2]"},{"name":"_pC","type":"uint256[2]","internalType":"uint256[2]"},{"name":"_pubSignals","type":"uint256[3]","internalType":"uint256[3]"}]},{"name":"_tokenId","type":"uint256","internalType":"uint256"},{"name":"_eventId","type":"uint256","internalType":"uint256"},{"name":"_interfaceProvider","type":"address","internalType":"address"}],"outputs":[],"stateMutability":"nonpayable"},{"type":"function","name":"addCreditFreeSender","inputs":[{"name":"_sender","type":"address","internalType":"address"}],"outputs":[],"stateMutability":"nonpayable"},{"type":"function","name":"addCreditFreeSenderBatch","inputs":[{"name":"_senders","type":"address[]","internalType":"address[]"}],"outputs":[],"stateMutability":"nonpayable"},{"type":"function","name":"addCreditNotePool","inputs":[{"name":"_creditNotePool","type":"address","internalType":"address"}],"outputs":[],"stateMutability":"nonpayable"},{"type":"function","name":"addTokenAccess","inputs":[{"name":"_ownershipProof","type":"tuple","internalType":"struct OwnershipProof","components":[{"name":"_pA","type":"uint256[2]","internalType":"uint256[2]"},{"name":"_pB","type":"uint256[2][2]","internalType":"uint256[2][2]"},{"name":"_pC","type":"uint256[2]","internalType":"uint256[2]"},{"name":"_pubSignals","type":"uint256[3]","internalType":"uint256[3]"}]},{"name":"_tokenId","type":"uint256","internalType":"uint256"},{"name":"_key","type":"address","internalType":"address"},{"name":"_enable","type":"bool","internalType":"bool"},{"name":"_tokenType","type":"uint256","internalType":"uint256"}],"outputs":[],"stateMutability":"nonpayable"},{"type":"function","name":"approve","inputs":[{"name":"_ownershipProof","type":"tuple","internalType":"struct OwnershipProof","components":[{"name":"_pA","type":"uint256[2]","internalType":"uint256[2]"},{"name":"_pB","type":"uint256[2][2]","internalType":"uint256[2][2]"},{"name":"_pC","type":"uint256[2]","internalType":"uint256[2]"},{"name":"_pubSignals","type":"uint256[3]","internalType":"uint256[3]"}]},{"name":"_approved","type":"address","internalType":"address"},{"name":"_tokenId","type":"uint256","internalType":"uint256"}],"outputs":[],"stateMutability":"nonpayable"},{"type":"function","name":"commitmentHashes","inputs":[{"name":"_tokenId","type":"uint256","internalType":"uint256"}],"outputs":[{"name":"","type":"uint256","internalType":"uint256"}],"stateMutability":"view"},{"type":"function","name":"createEvent","inputs":[{"name":"_ownershipProof","type":"tuple","internalType":"struct OwnershipProof","components":[{"name":"_pA","type":"uint256[2]","internalType":"uint256[2]"},{"name":"_pB","type":"uint256[2][2]","internalType":"uint256[2][2]"},{"name":"_pC","type":"uint256[2]","internalType":"uint256[2]"},{"name":"_pubSignals","type":"uint256[3]","internalType":"uint256[3]"}]},{"name":"_creditNoteProof","type":"tuple","internalType":"struct CreditNoteProof","components":[{"name":"_pA","type":"uint256[2]","internalType":"uint256[2]"},{"name":"_pB","type":"uint256[2][2]","internalType":"uint256[2][2]"},{"name":"_pC","type":"uint256[2]","internalType":"uint256[2]"},{"name":"_pubSignals","type":"uint256[4]","internalType":"uint256[4]"}]},{"name":"_creditNotePool","type":"address","internalType":"address"},{"name":"_tokenId","type":"uint256","internalType":"uint256"},{"name":"_eventId","type":"uint256","internalType":"uint256"},{"name":"_imprint","type":"bytes32","internalType":"bytes32"},{"name":"_uri","type":"string","internalType":"string"},{"name":"_interfaceProvider","type":"address","internalType":"address"}],"outputs":[],"stateMutability":"nonpayable"},{"type":"function","name":"createMessage","inputs":[{"name":"_ownershipProof","type":"tuple","internalType":"struct OwnershipProof","components":[{"name":"_pA","type":"uint256[2]","internalType":"uint256[2]"},{"name":"_pB","type":"uint256[2][2]","internalType":"uint256[2][2]"},{"name":"_pC","type":"uint256[2]","internalType":"uint256[2]"},{"name":"_pubSignals","type":"uint256[3]","internalType":"uint256[3]"}]},{"name":"_creditNoteProof","type":"tuple","internalType":"struct CreditNoteProof","components":[{"name":"_pA","type":"uint256[2]","internalType":"uint256[2]"},{"name":"_pB","type":"uint256[2][2]","internalType":"uint256[2][2]"},{"name":"_pC","type":"uint256[2]","internalType":"uint256[2]"},{"name":"_pubSignals","type":"uint256[4]","internalType":"uint256[4]"}]},{"name":"_creditNotePool","type":"address","internalType":"address"},{"name":"_messageId","type":"uint256","internalType":"uint256"},{"name":"_tokenId","type":"uint256","internalType":"uint256"},{"name":"_imprint","type":"bytes32","internalType":"bytes32"},{"name":"_interfaceProvider","type":"address","internalType":"address"}],"outputs":[],"stateMutability":"nonpayable"},{"type":"function","name":"destroy","inputs":[{"name":"_ownershipProof","type":"tuple","internalType":"struct OwnershipProof","components":[{"name":"_pA","type":"uint256[2]","internalType":"uint256[2]"},{"name":"_pB","type":"uint256[2][2]","internalType":"uint256[2][2]"},{"name":"_pC","type":"uint256[2]","internalType":"uint256[2]"},{"name":"_pubSignals","type":"uint256[3]","internalType":"uint256[3]"}]},{"name":"_tokenId","type":"uint256","internalType":"uint256"}],"outputs":[],"stateMutability":"nonpayable"},{"type":"function","name":"destroyEvent","inputs":[{"name":"_ownershipProof","type":"tuple","internalType":"struct OwnershipProof","components":[{"name":"_pA","type":"uint256[2]","internalType":"uint256[2]"},{"name":"_pB","type":"uint256[2][2]","internalType":"uint256[2][2]"},{"name":"_pC","type":"uint256[2]","internalType":"uint256[2]"},{"name":"_pubSignals","type":"uint256[3]","internalType":"uint256[3]"}]},{"name":"_tokenId","type":"uint256","internalType":"uint256"},{"name":"_eventId","type":"uint256","internalType":"uint256"}],"outputs":[],"stateMutability":"nonpayable"},{"type":"function","name":"getRoleAdmin","inputs":[{"name":"role","type":"bytes32","internalType":"bytes32"}],"outputs":[{"name":"","type":"bytes32","internalType":"bytes32"}],"stateMutability":"view"},{"type":"function","name":"getStoreAddress","inputs":[],"outputs":[{"name":"","type":"address","internalType":"address"}],"stateMutability":"view"},{"type":"function","name":"grantRole","inputs":[{"name":"role","type":"bytes32","internalType":"bytes32"},{"name":"account","type":"address","internalType":"address"}],"outputs":[],"stateMutability":"nonpayable"},{"type":"function","name":"hasRole","inputs":[{"name":"role","type":"bytes32","internalType":"bytes32"},{"name":"account","type":"address","internalType":"address"}],"outputs":[{"name":"","type":"bool","internalType":"bool"}],"stateMutability":"view"},{"type":"function","name":"hydrateToken","inputs":[{"name":"_ownershipProof","type":"tuple","internalType":"struct OwnershipProof","components":[{"name":"_pA","type":"uint256[2]","internalType":"uint256[2]"},{"name":"_pB","type":"uint256[2][2]","internalType":"uint256[2][2]"},{"name":"_pC","type":"uint256[2]","internalType":"uint256[2]"},{"name":"_pubSignals","type":"uint256[3]","internalType":"uint256[3]"}]},{"name":"_creditNoteProof","type":"tuple","internalType":"struct CreditNoteProof","components":[{"name":"_pA","type":"uint256[2]","internalType":"uint256[2]"},{"name":"_pB","type":"uint256[2][2]","internalType":"uint256[2][2]"},{"name":"_pC","type":"uint256[2]","internalType":"uint256[2]"},{"name":"_pubSignals","type":"uint256[4]","internalType":"uint256[4]"}]},{"name":"_creditNotePool","type":"address","internalType":"address"},{"name":"_commitmentHash","type":"uint256","internalType":"uint256"},{"name":"_tokenId","type":"uint256","internalType":"uint256"},{"name":"_imprint","type":"bytes32","internalType":"bytes32"},{"name":"_uri","type":"string","internalType":"string"},{"name":"_encryptedInitialKey","type":"address","internalType":"address"},{"name":"_tokenRecoveryTimestamp","type":"uint256","internalType":"uint256"},{"name":"_initialKeyIsRequestKey","type":"bool","internalType":"bool"},{"name":"_interfaceProvider","type":"address","internalType":"address"}],"outputs":[],"stateMutability":"nonpayable"},{"type":"function","name":"initialize","inputs":[{"name":"_initialAdmin","type":"address","internalType":"address"},{"name":"_storeAddress","type":"address","internalType":"address"},{"name":"_smartAssetAddress","type":"address","internalType":"address"},{"name":"_eventAddress","type":"address","internalType":"address"},{"name":"_lostAddress","type":"address","internalType":"address"},{"name":"_verifier","type":"address","internalType":"address"},{"name":"_poseidon","type":"address","internalType":"address"}],"outputs":[],"stateMutability":"nonpayable"},{"type":"function","name":"invalidateUnorderedNonces","inputs":[{"name":"_ownershipProof","type":"tuple","internalType":"struct OwnershipProof","components":[{"name":"_pA","type":"uint256[2]","internalType":"uint256[2]"},{"name":"_pB","type":"uint256[2][2]","internalType":"uint256[2][2]"},{"name":"_pC","type":"uint256[2]","internalType":"uint256[2]"},{"name":"_pubSignals","type":"uint256[3]","internalType":"uint256[3]"}]},{"name":"_tokenId","type":"uint256","internalType":"uint256"},{"name":"_commitmentHash","type":"uint256","internalType":"uint256"},{"name":"_wordPos","type":"uint256","internalType":"uint256"},{"name":"_mask","type":"uint256","internalType":"uint256"}],"outputs":[],"stateMutability":"nonpayable"},{"type":"function","name":"isTrustedForwarder","inputs":[{"name":"forwarder","type":"address","internalType":"address"}],"outputs":[{"name":"","type":"bool","internalType":"bool"}],"stateMutability":"view"},{"type":"function","name":"recoverTokenToIssuer","inputs":[{"name":"_ownershipProof","type":"tuple","internalType":"struct OwnershipProof","components":[{"name":"_pA","type":"uint256[2]","internalType":"uint256[2]"},{"name":"_pB","type":"uint256[2][2]","internalType":"uint256[2][2]"},{"name":"_pC","type":"uint256[2]","internalType":"uint256[2]"},{"name":"_pubSignals","type":"uint256[3]","internalType":"uint256[3]"}]},{"name":"_tokenId","type":"uint256","internalType":"uint256"}],"outputs":[],"stateMutability":"nonpayable"},{"type":"function","name":"refuseEvent","inputs":[{"name":"_ownershipProof","type":"tuple","internalType":"struct OwnershipProof","components":[{"name":"_pA","type":"uint256[2]","internalType":"uint256[2]"},{"name":"_pB","type":"uint256[2][2]","internalType":"uint256[2][2]"},{"name":"_pC","type":"uint256[2]","internalType":"uint256[2]"},{"name":"_pubSignals","type":"uint256[3]","internalType":"uint256[3]"}]},{"name":"_tokenId","type":"uint256","internalType":"uint256"},{"name":"_eventId","type":"uint256","internalType":"uint256"},{"name":"_interfaceProvider","type":"address","internalType":"address"}],"outputs":[],"stateMutability":"nonpayable"},{"type":"function","name":"removeCreditFreeSender","inputs":[{"name":"_sender","type":"address","internalType":"address"}],"outputs":[],"stateMutability":"nonpayable"},{"type":"function","name":"removeCreditFreeSenderBatch","inputs":[{"name":"_senders","type":"address[]","internalType":"address[]"}],"outputs":[],"stateMutability":"nonpayable"},{"type":"function","name":"renounceRole","inputs":[{"name":"role","type":"bytes32","internalType":"bytes32"},{"name":"callerConfirmation","type":"address","internalType":"address"}],"outputs":[],"stateMutability":"nonpayable"},{"type":"function","name":"reserveToken","inputs":[{"name":"_commitmentHash","type":"uint256","internalType":"uint256"},{"name":"_tokenId","type":"uint256","internalType":"uint256"}],"outputs":[],"stateMutability":"nonpayable"},{"type":"function","name":"revokeRole","inputs":[{"name":"role","type":"bytes32","internalType":"bytes32"},{"name":"account","type":"address","internalType":"address"}],"outputs":[],"stateMutability":"nonpayable"},{"type":"function","name":"safeTransferFrom","inputs":[{"name":"_ownershipProof","type":"tuple","internalType":"struct OwnershipProof","components":[{"name":"_pA","type":"uint256[2]","internalType":"uint256[2]"},{"name":"_pB","type":"uint256[2][2]","internalType":"uint256[2][2]"},{"name":"_pC","type":"uint256[2]","internalType":"uint256[2]"},{"name":"_pubSignals","type":"uint256[3]","internalType":"uint256[3]"}]},{"name":"_from","type":"address","internalType":"address"},{"name":"_to","type":"address","internalType":"address"},{"name":"_tokenId","type":"uint256","internalType":"uint256"},{"name":"_data","type":"bytes","internalType":"bytes"}],"outputs":[],"stateMutability":"nonpayable"},{"type":"function","name":"setMissingStatus","inputs":[{"name":"_ownershipProof","type":"tuple","internalType":"struct OwnershipProof","components":[{"name":"_pA","type":"uint256[2]","internalType":"uint256[2]"},{"name":"_pB","type":"uint256[2][2]","internalType":"uint256[2][2]"},{"name":"_pC","type":"uint256[2]","internalType":"uint256[2]"},{"name":"_pubSignals","type":"uint256[3]","internalType":"uint256[3]"}]},{"name":"_tokenId","type":"uint256","internalType":"uint256"}],"outputs":[],"stateMutability":"nonpayable"},{"type":"function","name":"setStolenStatus","inputs":[{"name":"_ownershipProof","type":"tuple","internalType":"struct OwnershipProof","components":[{"name":"_pA","type":"uint256[2]","internalType":"uint256[2]"},{"name":"_pB","type":"uint256[2][2]","internalType":"uint256[2][2]"},{"name":"_pC","type":"uint256[2]","internalType":"uint256[2]"},{"name":"_pubSignals","type":"uint256[3]","internalType":"uint256[3]"}]},{"name":"_tokenId","type":"uint256","internalType":"uint256"}],"outputs":[],"stateMutability":"nonpayable"},{"type":"function","name":"supportsInterface","inputs":[{"name":"interfaceId","type":"bytes4","internalType":"bytes4"}],"outputs":[{"name":"","type":"bool","internalType":"bool"}],"stateMutability":"view"},{"type":"function","name":"transferFrom","inputs":[{"name":"_ownershipProof","type":"tuple","internalType":"struct OwnershipProof","components":[{"name":"_pA","type":"uint256[2]","internalType":"uint256[2]"},{"name":"_pB","type":"uint256[2][2]","internalType":"uint256[2][2]"},{"name":"_pC","type":"uint256[2]","internalType":"uint256[2]"},{"name":"_pubSignals","type":"uint256[3]","internalType":"uint256[3]"}]},{"name":"_from","type":"address","internalType":"address"},{"name":"_to","type":"address","internalType":"address"},{"name":"_tokenId","type":"uint256","internalType":"uint256"}],"outputs":[],"stateMutability":"nonpayable"},{"type":"function","name":"trustedForwarder","inputs":[],"outputs":[{"name":"","type":"address","internalType":"address"}],"stateMutability":"view"},{"type":"function","name":"unsetMissingStatus","inputs":[{"name":"_ownershipProof","type":"tuple","internalType":"struct OwnershipProof","components":[{"name":"_pA","type":"uint256[2]","internalType":"uint256[2]"},{"name":"_pB","type":"uint256[2][2]","internalType":"uint256[2][2]"},{"name":"_pC","type":"uint256[2]","internalType":"uint256[2]"},{"name":"_pubSignals","type":"uint256[3]","internalType":"uint256[3]"}]},{"name":"_tokenId","type":"uint256","internalType":"uint256"}],"outputs":[],"stateMutability":"nonpayable"},{"type":"function","name":"unsetStolenStatus","inputs":[{"name":"_ownershipProof","type":"tuple","internalType":"struct OwnershipProof","components":[{"name":"_pA","type":"uint256[2]","internalType":"uint256[2]"},{"name":"_pB","type":"uint256[2][2]","internalType":"uint256[2][2]"},{"name":"_pC","type":"uint256[2]","internalType":"uint256[2]"},{"name":"_pubSignals","type":"uint256[3]","internalType":"uint256[3]"}]},{"name":"_tokenId","type":"uint256","internalType":"uint256"}],"outputs":[],"stateMutability":"nonpayable"},{"type":"function","name":"updateCommitment","inputs":[{"name":"_ownershipProof","type":"tuple","internalType":"struct OwnershipProof","components":[{"name":"_pA","type":"uint256[2]","internalType":"uint256[2]"},{"name":"_pB","type":"uint256[2][2]","internalType":"uint256[2][2]"},{"name":"_pC","type":"uint256[2]","internalType":"uint256[2]"},{"name":"_pubSignals","type":"uint256[3]","internalType":"uint256[3]"}]},{"name":"_tokenId","type":"uint256","internalType":"uint256"},{"name":"_newCommitmentHash","type":"uint256","internalType":"uint256"}],"outputs":[],"stateMutability":"nonpayable"},{"type":"function","name":"updateCommitmentBatch","inputs":[{"name":"_ownershipProofs","type":"tuple[]","internalType":"struct OwnershipProof[]","components":[{"name":"_pA","type":"uint256[2]","internalType":"uint256[2]"},{"name":"_pB","type":"uint256[2][2]","internalType":"uint256[2][2]"},{"name":"_pC","type":"uint256[2]","internalType":"uint256[2]"},{"name":"_pubSignals","type":"uint256[3]","internalType":"uint256[3]"}]},{"name":"_tokenIds","type":"uint256[]","internalType":"uint256[]"},{"name":"_newCommitmentHashes","type":"uint256[]","internalType":"uint256[]"}],"outputs":[],"stateMutability":"nonpayable"},{"type":"function","name":"updateDestroyEventRequest","inputs":[{"name":"_ownershipProof","type":"tuple","internalType":"struct OwnershipProof","components":[{"name":"_pA","type":"uint256[2]","internalType":"uint256[2]"},{"name":"_pB","type":"uint256[2][2]","internalType":"uint256[2][2]"},{"name":"_pC","type":"uint256[2]","internalType":"uint256[2]"},{"name":"_pubSignals","type":"uint256[3]","internalType":"uint256[3]"}]},{"name":"_tokenId","type":"uint256","internalType":"uint256"},{"name":"_eventId","type":"uint256","internalType":"uint256"},{"name":"_active","type":"bool","internalType":"bool"}],"outputs":[],"stateMutability":"nonpayable"},{"type":"function","name":"updateRecoveryRequest","inputs":[{"name":"_ownershipProof","type":"tuple","internalType":"struct OwnershipProof","components":[{"name":"_pA","type":"uint256[2]","internalType":"uint256[2]"},{"name":"_pB","type":"uint256[2][2]","internalType":"uint256[2][2]"},{"name":"_pC","type":"uint256[2]","internalType":"uint256[2]"},{"name":"_pubSignals","type":"uint256[3]","internalType":"uint256[3]"}]},{"name":"_tokenId","type":"uint256","internalType":"uint256"},{"name":"_active","type":"bool","internalType":"bool"}],"outputs":[],"stateMutability":"nonpayable"},{"type":"function","name":"updateSmartAsset","inputs":[{"name":"_ownershipProof","type":"tuple","internalType":"struct OwnershipProof","components":[{"name":"_pA","type":"uint256[2]","internalType":"uint256[2]"},{"name":"_pB","type":"uint256[2][2]","internalType":"uint256[2][2]"},{"name":"_pC","type":"uint256[2]","internalType":"uint256[2]"},{"name":"_pubSignals","type":"uint256[3]","internalType":"uint256[3]"}]},{"name":"_creditNoteProof","type":"tuple","internalType":"struct CreditNoteProof","components":[{"name":"_pA","type":"uint256[2]","internalType":"uint256[2]"},{"name":"_pB","type":"uint256[2][2]","internalType":"uint256[2][2]"},{"name":"_pC","type":"uint256[2]","internalType":"uint256[2]"},{"name":"_pubSignals","type":"uint256[4]","internalType":"uint256[4]"}]},{"name":"_creditNotePool","type":"address","internalType":"address"},{"name":"_tokenId","type":"uint256","internalType":"uint256"},{"name":"_imprint","type":"bytes32","internalType":"bytes32"},{"name":"_interfaceProvider","type":"address","internalType":"address"}],"outputs":[],"stateMutability":"nonpayable"},{"type":"function","name":"updateTokenURI","inputs":[{"name":"_ownershipProof","type":"tuple","internalType":"struct OwnershipProof","components":[{"name":"_pA","type":"uint256[2]","internalType":"uint256[2]"},{"name":"_pB","type":"uint256[2][2]","internalType":"uint256[2][2]"},{"name":"_pC","type":"uint256[2]","internalType":"uint256[2]"},{"name":"_pubSignals","type":"uint256[3]","internalType":"uint256[3]"}]},{"name":"_tokenId","type":"uint256","internalType":"uint256"},{"name":"_uri","type":"string","internalType":"string"}],"outputs":[],"stateMutability":"nonpayable"},{"type":"event","name":"CreditFreeSenderAdded","inputs":[{"name":"_sender","type":"address","indexed":true,"internalType":"address"}],"anonymous":false},{"type":"event","name":"CreditFreeSenderLog","inputs":[{"name":"_sender","type":"address","indexed":true,"internalType":"address"},{"name":"_creditType","type":"uint256","indexed":false,"internalType":"uint256"}],"anonymous":false},{"type":"event","name":"CreditFreeSenderRemoved","inputs":[{"name":"_sender","type":"address","indexed":true,"internalType":"address"}],"anonymous":false},{"type":"event","name":"CreditNotePoolAdded","inputs":[{"name":"_creditNotePool","type":"address","indexed":true,"internalType":"address"}],"anonymous":false},{"type":"event","name":"Initialized","inputs":[{"name":"version","type":"uint64","indexed":false,"internalType":"uint64"}],"anonymous":false},{"type":"event","name":"RoleAdminChanged","inputs":[{"name":"role","type":"bytes32","indexed":true,"internalType":"bytes32"},{"name":"previousAdminRole","type":"bytes32","indexed":true,"internalType":"bytes32"},{"name":"newAdminRole","type":"bytes32","indexed":true,"internalType":"bytes32"}],"anonymous":false},{"type":"event","name":"RoleGranted","inputs":[{"name":"role","type":"bytes32","indexed":true,"internalType":"bytes32"},{"name":"account","type":"address","indexed":true,"internalType":"address"},{"name":"sender","type":"address","indexed":true,"internalType":"address"}],"anonymous":false},{"type":"event","name":"RoleRevoked","inputs":[{"name":"role","type":"bytes32","indexed":true,"internalType":"bytes32"},{"name":"account","type":"address","indexed":true,"internalType":"address"},{"name":"sender","type":"address","indexed":true,"internalType":"address"}],"anonymous":false},{"type":"event","name":"TokenCommitmentRegistered","inputs":[{"name":"_commitmentHash","type":"uint256","indexed":true,"internalType":"uint256"},{"name":"_tokenId","type":"uint256","indexed":true,"internalType":"uint256"}],"anonymous":false},{"type":"event","name":"TokenCommitmentUnregistered","inputs":[{"name":"_commitmentHash","type":"uint256","indexed":true,"internalType":"uint256"},{"name":"_tokenId","type":"uint256","indexed":true,"internalType":"uint256"}],"anonymous":false},{"type":"event","name":"TokenCommitmentUpdated","inputs":[{"name":"_previousCommitmentHash","type":"uint256","indexed":true,"internalType":"uint256"},{"name":"_newCommitmentHash","type":"uint256","indexed":true,"internalType":"uint256"},{"name":"_tokenId","type":"uint256","indexed":true,"internalType":"uint256"}],"anonymous":false},{"type":"event","name":"UnorderedNonceInvalidation","inputs":[{"name":"_commitmentHash","type":"uint256","indexed":true,"internalType":"uint256"},{"name":"_word","type":"uint256","indexed":false,"internalType":"uint256"},{"name":"_mask","type":"uint256","indexed":false,"internalType":"uint256"}],"anonymous":false},{"type":"error","name":"AccessControlBadConfirmation","inputs":[]},{"type":"error","name":"AccessControlUnauthorizedAccount","inputs":[{"name":"account","type":"address","internalType":"address"},{"name":"neededRole","type":"bytes32","internalType":"bytes32"}]},{"type":"error","name":"InvalidInitialization","inputs":[]},{"type":"error","name":"NotInitializing","inputs":[]}],"bytecode":{"object":"0x60a03461011757601f613c5938819003918201601f19168301916001600160401b0383118484101761011b5780849260209460405283398101031261011757516001600160a01b0381168103610117576080525f516020613c395f395f51905f525460ff8160401c16610108576002600160401b03196001600160401b038216016100b2575b604051613b0990816101308239608051818181611c7a01528181611dfc0152818161387601526139180152f35b6001600160401b0319166001600160401b039081175f516020613c395f395f51905f52556040519081527fc7f505b2f371ae2175ee4913f4499e1f2633a7b5936321eed1cdaeb6115181d290602090a15f610085565b63f92ee8a960e01b5f5260045ffd5b5f80fd5b634e487b7160e01b5f52604160045260245ffdfe6080806040526004361015610012575f80fd5b5f905f3560e01c90816301ffc9a7146129b25750806303964a601461294e5780630f0589431461277b578063248a9ca31461273c5780632f2ff15d146126f25780633398a8491461266657806334d11652146125bb57806335876476146122fb57806336568abe146122a65780633c84427a146122165780633f3e893b1461217a578063414e4a9d14611fe457806349bf229e14611f855780634bb2fc5414611f1f5780634c705a0d14611e30578063572b6c0514611ddb5780635965805d14611d6f578063637d170914611d1057806365859a5414611ca95780637da0a87714611c645780638019bc60146119c85780638085f3051461192557806384165b57146118ef57806387be9fbd1461187f57806391d14854146118295780639443d629146113ea578063a217fddf146113ce578063b07ed3a914611399578063b325a1a514611336578063d068617e1461124a578063d547741f146111f6578063dc6af39114611150578063ddbbbbf5146110ea578063deb893011461106c578063dfa8df0014611044578063e28644ff14610c62578063e85e31e814610c03578063eba98fa314610700578063eedb22dd14610695578063f40a5224146105f2578063f444cc02146102ee5763fdd1041c146101ec575f80fd5b346102d45736600319016101e081126102ea57610160136102d45780610210612a31565b610218612a76565b906101a4356101c4356001600160401b0381116102e65761023d903690600401612af1565b9361024783613222565b5f5160206139b45f395f51905f52546001600160a01b031691823b156102e25786946102b2869260405198899788968795635c46a7ef60e11b875260018060a01b0316600487015260018060a01b031660248601526044850152608060648501526084840191612d08565b03925af180156102d7576102c35750f35b816102cd91612ba5565b6102d45780f35b80fd5b6040513d84823e3d90fd5b8680fd5b8480fd5b5080fd5b50346102d457366003190161040081126102ea57610160136102d457610180366101631901126102d45780610321612a48565b6103043561032435610364356001600160401b0381116102e657366023820112156102e65761035a903690602481600401359101612be1565b90610363612a5f565b916103c435948515158096036102e2576103e4356001600160a01b03811695908690036105ee57806105de575b5061039a8361341d565b600160ff6103ae6103a9613873565b612c4f565b541615150361049157506001600160a01b036103c8613873565b165f5160206139745f395f51905f526020604051898152a25b5f516020613a345f395f51905f52546001600160a01b031691823b156102e25761012487959160208793604051998a988997889563161473c760e21b875260048701526103443560248701526101006044870152805194859182610104890152018787015e84840186018790526001600160a01b031660648501526103a435608485015260a484015260c483015260e48201849052601f01601f191681010301925af180156102d7576102c35750f35b9550600160ff6104a088612c17565b54161515036105675786956001600160a01b03166104bc613915565b90823b156105635761051f92899283604051809681958294627f20a760e01b8452604061016460048601376104f6604485016101a4612f83565b604061022460c486013760806102646101048601376101c06101848501526101c4840191612d08565b826101a483015203925af190811561055857879161053f575b50506103e1565b8161054991612ba5565b61055457855f610538565b8580fd5b6040513d89823e3d90fd5b8880fd5b60a460405162461bcd60e51b815260206004820152604460248201527f417269616e656549737375657250726f78793a2054617267657420494172696160448201527f6e65654372656469744e6f7465506f6f6c206973206e6f742077686974656c696064820152631cdd195960e21b6084820152fd5b6105e89084613666565b5f610390565b8780fd5b50346102d45736600319016101c081126102ea57610160136102d45780610617612a31565b61061f612a76565b906101a4359161062e83613222565b5f5160206139b45f395f51905f52546001600160a01b0316803b156102e6576040516323b872dd60e01b81526001600160a01b039384166004820152919092166024820152604481019290925282908290606490829084905af180156102d7576102c35750f35b50346102d457806106b06106a836612b1e565b809291612faa565b5f516020613a545f395f51905f52546001600160a01b031690813b156106fc578291602483926040519485938492634d89a4ab60e01b845260048401525af180156102d7576102c35750f35b5050fd5b50346102d45736600319016101e081126102ea57610160136102d45761016435610728612a76565b90610731612ae1565b908084525f5160206139945f395f51905f5260205261075560408520541515612c97565b610104358185525f5160206139945f395f51905f5260205260408520548103610b685761078a610783613915565b3691612be1565b60018060a01b035f516020613a945f395f51905f52541686604051926107af84612b76565b61080a6107d06107be83613775565b926107c885612f73565b8151916137e3565b6020806040519586938280860197805191829101895e850191838301908152815193849201905e01018b815203601f198101845283612ba5565b6108336020604051809382820195518091875e81018c838201520301601f198101835282612ba5565b51902082526040516316e960cb60e21b815291829088600483015b60018210610b4e575050506024816020935afa908115610b43578691610b11575b506101243503610a9c5761014435600160ff82161b9186525f5160206139d45f395f51905f52602052604086209060081c865260205260408520818154188091551615610a39575f516020613ab45f395f51905f5254604080516308a3cff560e11b81529160209183916101649183916001600160a01b0316906004808401376108fd604483016044612f83565b604060c4808401376060610104808401375afa908115610a2e5785916109f3575b501561098f575f5160206139b45f395f51905f52548493906001600160a01b0316803b156102e657849283608492604051968795869463b71c34d560e01b8652600486015260018060a01b03166024850152151560448401526101c43560648401525af180156102d7576102c35750f35b60405162461bcd60e51b815260206004820152603660248201527f417269616e656549737375657250726f78793a204f776e65727368697050726f6044820152751bd9881d995c9a599a58d85d1a5bdb8819985a5b195960521b6064820152608490fd5b90506020813d602011610a26575b81610a0e60209383612ba5565b810103126102e6575180151581036102e6575f61091e565b3d9150610a01565b6040513d87823e3d90fd5b60405162461bcd60e51b815260206004820152603560248201527f417269616e656549737375657250726f78793a2050726f6f66206e6f6e6365206044820152741a185cc8185b1c9958591e481899595b881d5cd959605a1b6064820152608490fd5b60405162461bcd60e51b815260206004820152604160248201527f417269616e656549737375657250726f78793a2050726f6f6620696e74656e7460448201527f20646f6573206e6f74206d61746368207468652066756e6374696f6e2063616c6064820152601b60fa1b608482015260a490fd5b90506020813d602011610b3b575b81610b2c60209383612ba5565b8101031261055457515f61086f565b3d9150610b1f565b6040513d88823e3d90fd5b82935060208091600193945181520193019101849261084e565b60405162461bcd60e51b815260206004820152606160248201527f417269616e656549737375657250726f78793a2050726f6f6620636f6d6d697460448201527f6d656e7420646f6573206e6f74206d617463682074686520726567697374657260648201527f656420636f6d6d69746d656e7420666f72207468697320536d617274417373656084820152601d60fa1b60a482015260c490fd5b50346102d45780610c166106a836612b1e565b5f516020613a545f395f51905f52546001600160a01b031690813b156106fc57829160248392604051948593849263d93d56f960e01b845260048401525af180156102d7576102c35750f35b50346102d457366003190161036081126102ea57610160136102d457610180366101631901126102d457610c94612a48565b610344356001600160a01b038116906103043590829003611040578084525f5160206139945f395f51905f52602052610cd260408520541515612c97565b610104358185525f5160206139945f395f51905f5260205260408520548103610b6857610d00610783613915565b60018060a01b035f516020613a945f395f51905f52541660405191610d2483612b76565b610d2d81613775565b6102e4916107d0818b94610d429351916137e3565b610d6b6020604051809382820195518091875e81018c838201520301601f198101835282612ba5565b51902082526040516316e960cb60e21b815291829088600483015b60018210611012575050506024816020935afa908115610b43578691610fe0575b506101243503610a9c5761014435600160ff82161b9186525f5160206139d45f395f51905f52602052604086209060081c865260205260408520818154188091551615610a39575f516020613ab45f395f51905f5254604080516308a3cff560e11b81529160209183916101649183916001600160a01b031690600480840137610e35604483016044612f83565b604060c4808401376060610104808401375afa908115610a2e578591610fa5575b501561098f578392600160ff610e6d6103a9613873565b5416151503610eff57506001600160a01b03610e87613873565b165f5160206139745f395f51905f52602060405160038152a25b5f516020613a345f395f51905f52546001600160a01b031691823b15610efa576064849283604051958694859363fa4b78b960e01b8552600485015261032435602485015260448401525af180156102d7576102c35750f35b505050fd5b9250600160ff610f0e85612c17565b54161515036105675783926001600160a01b0316610f2a613915565b90823b1561055457610f6492869283604051809681958294627f20a760e01b8452604061016460048601376104f6604485016101a4612f83565b60036101a483015203925af1908115610f9a578491610f85575b5050610ea1565b81610f8f91612ba5565b6106fc57825f610f7e565b6040513d86823e3d90fd5b90506020813d602011610fd8575b81610fc060209383612ba5565b810103126102e6575180151581036102e6575f610e56565b3d9150610fb3565b90506020813d60201161100a575b81610ffb60209383612ba5565b8101031261055457515f610da7565b3d9150610fee565b829350602080916001939451815201930191018492610d86565b634e487b7160e01b5f52601160045260245ffd5b8380fd5b50346102d457806003193601126102d45760206040515f516020613a345f395f51905f528152f35b50346102d45736600319016101c081126102ea57610160136102d45780611091612ae1565b61109d61016435613222565b5f5160206139f45f395f51905f52546001600160a01b0316803b156106fc5760405163269cb51560e11b8152610184356004820152911515602483015282908290818381604481016102b2565b50346102d457806111046110fd36612abd565b9291612faa565b5f5160206139f45f395f51905f52546001600160a01b031690813b156106fc5782916024839260405194859384926309d1187760e41b845260048401525af180156102d7576102c35750f35b50346102d45760203660031901126102d4576004356001600160401b0381116102ea57611181903690600401612a8d565b611189612d3c565b825b818110611196578380f35b806111ac6111a76001938587612c87565b612d28565b6111b4612d3c565b6111bd81612c4f565b60ff198154169055828060a01b03167f863070a317b86c807cb278b657d5bd16e254aee1fc53b5a8014fbc1b027d62e98680a20161118b565b50346102d45760403660031901126102d457611246600435611216612a1b565b9061124161123c825f525f516020613a145f395f51905f52602052600160405f20015490565b612da4565b6135bd565b5080f35b50346102d45736600319016101e081126102ea57610160136102d457610184356101a4356101c43561127e61016435613222565b6001600160f81b0382116112e5577f153a7849d13072fd4e9dcf6a2aeb822dec077893c776b5b380c7c1ef8cab96d0916040918486525f5160206139d45f395f51905f5260205282862082875260205282862081815417905582519182526020820152a280f35b60405162461bcd60e51b815260206004820152602360248201527f556e6f7264657265644e6f6e63653a2060776f7264506f736020746f6f206c6160448201526272676560e81b6064820152608490fd5b50346102d45760203660031901126102d457611350612a05565b611358612d3c565b61136181612c4f565b805460ff191690556001600160a01b03167f863070a317b86c807cb278b657d5bd16e254aee1fc53b5a8014fbc1b027d62e98280a280f35b50346102d457806003193601126102d4575f516020613a345f395f51905f52546040516001600160a01b039091168152602090f35b50346102d457806003193601126102d457602090604051908152f35b50346102d45736600319016103a081126102ea57610160136102d457610180366101631901126102d45761141c612a48565b61030435610364356001600160401b03811161104057611440903690600401612af1565b919061144a612a5f565b928286525f5160206139945f395f51905f5260205261146e60408720541515612c97565b610104358387525f5160206139945f395f51905f5260205260408720548103610b685761149c610783613915565b60018060a01b035f516020613a945f395f51905f525416604051916114c083612b76565b6114c981613775565b6102e49160208c9261151d6114e58484976115429651916137e3565b836040519788928180850196805191829101885e8401908282018a8152815193849201905e010186815203601f198101875286612ba5565b60405193849183830196518091885e820190838201520301601f198101835282612ba5565b51902082526040516316e960cb60e21b81529182908a600483015b6001821061180f575050506024816020935afa9081156118045788916117d2575b506101243503610a9c5761014435600160ff82161b9188525f5160206139d45f395f51905f52602052604088209060081c885260205260408720818154188091551615610a39575f516020613ab45f395f51905f5254604080516308a3cff560e11b81529160209183916101649183916001600160a01b03169060048084013761160c604483016044612f83565b604060c4808401376060610104808401375afa908115610558578791611797575b501561098f578594600160ff6116446103a9613873565b54161515036116fc57506001600160a01b0361165e613873565b165f5160206139745f395f51905f52602060405160028152a25b5f516020613a345f395f51905f52546001600160a01b031690813b15610554578580946116db9660405197889687958694637466bca360e11b8652610324356004870152602486015261034435604486015260a0606486015260a4850191612d08565b6001600160a01b03909116608483015203925af180156102d7576102c35750f35b9450600160ff61170b87612c17565b54161515036105675785946001600160a01b0316611727613915565b90823b156105ee5761176192889283604051809681958294627f20a760e01b8452604061016460048601376104f6604485016101a4612f83565b60026101a483015203925af1908115610b43578691611782575b5050611678565b8161178c91612ba5565b6102e657845f61177b565b90506020813d6020116117ca575b816117b260209383612ba5565b810103126102e2575180151581036102e2575f61162d565b3d91506117a5565b90506020813d6020116117fc575b816117ed60209383612ba5565b810103126105ee57515f61157e565b3d91506117e0565b6040513d8a823e3d90fd5b82935060208091600193945181520193019101849261155d565b50346102d45760403660031901126102d4576040611845612a1b565b9160043581525f516020613a145f395f51905f52602052209060018060a01b03165f52602052602060ff60405f2054166040519015158152f35b50346102d4578061189b61189236612b3d565b93919092612faa565b5f516020613a345f395f51905f52546001600160a01b031691823b15610efa57604051634e621bfb60e01b815260048101929092526001600160a01b031660248201529082908290818381604481016102b2565b50346102d45760203660031901126102d457604060209160043581525f5160206139945f395f51905f5283522054604051908152f35b50346102d45760203660031901126102d4576004356001600160401b0381116102ea57611956903690600401612a8d565b61195e612d3c565b825b81811061196b578380f35b8061197c6111a76001938587612c87565b611984612d3c565b61198d81612c4f565b8360ff19825416179055828060a01b03167f21ec7b55d29475e4bf3ecf9e2828dc861d4860961c7f98344bd46bd0acb345118680a201611960565b50346102d4576119d736612b1e565b908183525f5160206139945f395f51905f526020526119fb60408420541515612c97565b610100810180358385525f5160206139945f395f51905f5260205260408520548103610b6857611a2c610783613915565b60018060a01b035f516020613a945f395f51905f5254168660405192611a5184612b76565b611a606107d06107be83613775565b611a896020604051809382820195518091875e81018c838201520301601f198101835282612ba5565b51902082526040516316e960cb60e21b815291829088600483015b60018210611c4a575050506024816020935afa908115610b43578691611c18575b5061012084013503610a9c57610140830135600160ff82161b9186525f5160206139d45f395f51905f52602052604086209060081c865260205260408520818154188091551615610a395760c0610164604093602093606060018060a01b035f516020613ab45f395f51905f52541691875197889687956308a3cff560e11b875282816004890137611b5c60448801848301612f83565b0160c48601376101048401375afa908115611c0d578391611bce575b501561098f575f5160206139b45f395f51905f525482916001600160a01b0390911690813b156106fc57829160248392604051948593849263b5aaa9d560e01b845260048401525af180156102d7576102c35750f35b90506020813d602011611c05575b81611be960209383612ba5565b81010312611c0157518015158103611c01575f611b78565b8280fd5b3d9150611bdc565b6040513d85823e3d90fd5b90506020813d602011611c42575b81611c3360209383612ba5565b8101031261055457515f611ac5565b3d9150611c26565b829350602080916001939451815201930191018492611aa4565b50346102d457806003193601126102d4576040517f00000000000000000000000000000000000000000000000000000000000000006001600160a01b03168152602090f35b50346102d45780611cbc61189236612b3d565b5f516020613a345f395f51905f52546001600160a01b031691823b15610efa57604051633cb353bf60e01b815260048101929092526001600160a01b031660248201529082908290818381604481016102b2565b50346102d45780611d236106a836612b1e565b5f516020613a545f395f51905f52546001600160a01b031690813b156106fc5782916024839260405194859384926348d3d23960e01b845260048401525af180156102d7576102c35750f35b50346102d45760403660031901126102d45780602435611d9160043582613666565b5f516020613a345f395f51905f52546001600160a01b0316803b156106fc5760405163325cdebb60e01b8152600481019290925230602483015282908290818381604481016102b2565b50346102d45760203660031901126102d4576020611df7612a05565b6040517f00000000000000000000000000000000000000000000000000000000000000006001600160a01b039081169216919091148152f35b50346102d457611e426106a836612b1e565b5f5160206139b45f395f51905f525482906001600160a01b0316803b156102ea578180916024604051809481936309d1187760e41b83528860048401525af180156102d757611f0a575b508190525f5160206139945f395f51905f52602052611eb060408320541515612c97565b8082525f5160206139945f395f51905f5260205260408220548183525f5160206139945f395f51905f526020528260408120557f9d68b7d2dd671da718ec2a6dc83c4774d8f45ecc95745f96a461ba62d6cc47d98380a380f35b81611f1491612ba5565b6102ea57815f611e8c565b50346102d45760203660031901126102d457611f39612a05565b611f41612d3c565b611f4a81612c4f565b805460ff191660011790556001600160a01b03167f21ec7b55d29475e4bf3ecf9e2828dc861d4860961c7f98344bd46bd0acb345118280a280f35b50346102d45780611f986106a836612b1e565b5f516020613a545f395f51905f52546001600160a01b031690813b156106fc578291602483926040519485938492632bf7b76f60e21b845260048401525af180156102d7576102c35750f35b50346102d457366003190161038081126102ea57610160136102d457610180366101631901126102d45780612017612a48565b610364356001600160a01b038116916103243591839003610efa5761203b8261341d565b600160ff61204a6103a9613873565b54161515036120df57506001600160a01b03612064613873565b165f5160206139745f395f51905f52602060405160018152a25b5f516020613a345f395f51905f52546001600160a01b031691823b15610efa5760848492836040519586948593624a296b60e91b8552610304356004860152602485015261034435604485015260648401525af180156102d7576102c35750f35b9250600160ff6120ee85612c17565b54161515036105675783926001600160a01b031661210a613915565b90823b156105545761214492869283604051809681958294627f20a760e01b8452604061016460048601376104f6604485016101a4612f83565b60016101a483015203925af1908115610f9a578491612165575b505061207e565b8161216f91612ba5565b6106fc57825f61215e565b50346102d45736600319016101a081126102ea57610160136102d4578061016435610184356001600160401b0381116106fc576121bb903690600401612af1565b91906121c682613222565b5f5160206139b45f395f51905f52546001600160a01b0316803b156102e6576102b293858094604051968795869485936318e97fd160e01b85526004850152604060248501526044840191612d08565b50346102d45736600319016101a081126102ea57610160136102d4578061223b612a31565b610184359061224982613222565b5f5160206139b45f395f51905f52546001600160a01b031691823b15610efa5760405163095ea7b360e01b81526001600160a01b03909216600483015260248201529082908290604490829084905af180156102d7576102c35750f35b50346102d45760403660031901126102d4576122c0612a1b565b6001600160a01b036122d0613873565b166001600160a01b038216036122ec57611246906004356135bd565b63334bd91960e11b8252600482fd5b50346102d45760e03660031901126102d457612315612a05565b61231d612a1b565b6044356001600160a01b03811690819003611040576064356001600160a01b038116908190036102e6576084356001600160a01b03811691908290036105545760a4356001600160a01b03811693908490036102e25760c4356001600160a01b03811695908690036105ee575f516020613a745f395f51905f52549660ff8860401c1615976001600160401b038116801590816125b3575b60011490816125a9575b1590816125a0575b506125915767ffffffffffffffff1981166001175f516020613a745f395f51905f52556123fb919089612565575b50612e00565b5060018060a01b03166001600160601b0360a01b5f516020613a345f395f51905f525416175f516020613a345f395f51905f52556001600160601b0360a01b5f5160206139b45f395f51905f525416175f5160206139b45f395f51905f52556001600160601b0360a01b5f5160206139f45f395f51905f525416175f5160206139f45f395f51905f52556001600160601b0360a01b5f516020613a545f395f51905f525416175f516020613a545f395f51905f52556001600160601b0360a01b5f516020613ab45f395f51905f525416175f516020613ab45f395f51905f52556001600160601b0360a01b5f516020613a945f395f51905f525416175f516020613a945f395f51905f525561250d5780f35b68ff0000000000000000195f516020613a745f395f51905f5254165f516020613a745f395f51905f52557fc7f505b2f371ae2175ee4913f4499e1f2633a7b5936321eed1cdaeb6115181d2602060405160018152a180f35b68ffffffffffffffffff191668010000000000000001175f516020613a745f395f51905f52555f6123f5565b63f92ee8a960e01b8a5260048afd5b9050155f6123c7565b303b1591506123bf565b8a91506123b5565b50346126625736600319016101a0811261266257610160136126625761018435610164358115158203612662576125f181613222565b5f5160206139b45f395f51905f52546001600160a01b031691823b156126625760405163f3fd860560e01b8152600481019290925215156024820152905f908290604490829084905af1801561265757612649575080f35b61265591505f90612ba5565b005b6040513d5f823e3d90fd5b5f80fd5b346126625761268161267736612abd565b9190809391612faa565b612689612d3c565b815f525f5160206139945f395f51905f526020526126ac60405f20541515612c97565b5f8281525f5160206139945f395f51905f5260205260408120805490839055907f96ec64a9c405708856c1212471ef55a64e44f5b10646307f1d73c290a6d3fb439080a4005b3461266257604036600319011261266257612655600435612711612a1b565b9061273761123c825f525f516020613a145f395f51905f52602052600160405f20015490565b612ec2565b346126625760203660031901126126625760206127736004355f525f516020613a145f395f51905f52602052600160405f20015490565b604051908152f35b34612662576060366003190112612662576004356001600160401b03811161266257366023820112156126625780600401356001600160401b03811161266257366024610160830284010111612662576024356001600160401b038111612662576127ea903690600401612a8d565b90926044356001600160401b0381116126625761280b903690600401612a8d565b9290612815612d3c565b81851480612945575b156128ed575f5b82811061282e57005b858110156128d95780612844600192858a612c87565b35612850828886612c87565b3561286482602461016086028a0101612faa565b61286c612d3c565b815f525f5160206139945f395f51905f5260205261288f60405f20541515612c97565b5f8281525f5160206139945f395f51905f5260205260408120805490839055907f96ec64a9c405708856c1212471ef55a64e44f5b10646307f1d73c290a6d3fb439080a401612825565b634e487b7160e01b5f52603260045260245ffd5b60405162461bcd60e51b815260206004820152602a60248201527f417269616e656549737375657250726f78793a20417272617973206c656e67746044820152690d040dad2e6dac2e8c6d60b31b6064820152608490fd5b5083821461281e565b3461266257602036600319011261266257612967612a05565b61296f612d3c565b61297881612c17565b805460ff191660011790556001600160a01b03167fa479bd8e9f56e629b1a87c803b0b5f5e5ee7119bcafe6dc2d725bbf27f7f5c545f80a2005b34612662576020366003190112612662576004359063ffffffff60e01b821680920361266257602091637965db0b60e01b81149081156129f4575b5015158152f35b6301ffc9a760e01b149050836129ed565b600435906001600160a01b038216820361266257565b602435906001600160a01b038216820361266257565b61016435906001600160a01b038216820361266257565b6102e435906001600160a01b038216820361266257565b61038435906001600160a01b038216820361266257565b61018435906001600160a01b038216820361266257565b9181601f84011215612662578235916001600160401b038311612662576020808501948460051b01011161266257565b600319016101a0811261266257610160136126625760049061016435906101843590565b6101a43590811515820361266257565b9181601f84011215612662578235916001600160401b038311612662576020838186019501011161266257565b6003190161018081126126625761016013612662576004906101643590565b600319016101c08112612662576101601361266257600490610164359061018435906101a4356001600160a01b03811681036126625790565b602081019081106001600160401b03821117612b9157604052565b634e487b7160e01b5f52604160045260245ffd5b90601f801991011681019081106001600160401b03821117612b9157604052565b6001600160401b038111612b9157601f01601f191660200190565b929192612bed82612bc6565b91612bfb6040519384612ba5565b829481845281830111612662578281602093845f960137010152565b6001600160a01b03165f9081527fdfb471cd3ca022c3d9702e8c5ae7e7c948fe792e47161e5c31b2148652480a066020526040902090565b6001600160a01b03165f9081527fdfb471cd3ca022c3d9702e8c5ae7e7c948fe792e47161e5c31b2148652480a076020526040902090565b91908110156128d95760051b0190565b15612c9e57565b608460405162461bcd60e51b815260206004820152604060248201527f417269616e656549737375657250726f78793a204e6f20636f6d6d69746d656e60448201527f74207265676973746572656420666f72207468697320536d61727441737365746064820152fd5b908060209392818452848401375f828201840152601f01601f1916010190565b356001600160a01b03811681036126625790565b612d44613873565b6001600160a01b0381165f9081527fb7db2dd08fcb62d0c9e08c51941cae53c267786a0b75803fb7960902fc8ef97d602052604090205460ff1615612d865750565b63e2517d3f60e01b5f5260018060a01b03166004525f60245260445ffd5b612dac613873565b815f525f516020613a145f395f51905f5260205260405f2060018060a01b0382165f5260205260ff60405f20541615612de3575050565b63e2517d3f60e01b5f5260018060a01b031660045260245260445ffd5b6001600160a01b0381165f9081527fb7db2dd08fcb62d0c9e08c51941cae53c267786a0b75803fb7960902fc8ef97d602052604090205460ff16612ebd576001600160a01b038181165f9081527fb7db2dd08fcb62d0c9e08c51941cae53c267786a0b75803fb7960902fc8ef97d60205260409020805460ff19166001179055612e88613873565b16906001600160a01b03165f7f2f8788117e7eff1d82e926ec794901d17c78024a50270940304540a733656f0d8180a4600190565b505f90565b5f8181525f516020613a145f395f51905f52602090815260408083206001600160a01b038616845290915290205460ff16612f6d575f8181525f516020613a145f395f51905f52602090815260408083206001600160a01b0386811685529252909120805460ff19166001179055612f38613873565b16916001600160a01b0316907f2f8788117e7eff1d82e926ec794901d17c78024a50270940304540a733656f0d5f80a4600190565b50505f90565b6101640190816101641161102c57565b905f905b60028210612f9457505050565b6040808281866001953701930191019091612f87565b90805f525f5160206139945f395f51905f52602052612fce60405f20541515612c97565b6101008201908135905f525f5160206139945f395f51905f5260205260405f20548103610b6857613000610783613915565b60018060a01b035f516020613a945f395f51905f5254166040519161302483612b76565b61302d81613775565b610164916130438160209461307b9351916137e3565b836040519485928180850196805191829101885e8401908282015f8152815193849201905e01015f815203601f198101845283612ba5565b6130a46020604051809382820195518091875e81015f838201520301601f198101835282612ba5565b51902082526040516316e960cb60e21b81529182905f600483015b60018210613208575050506024816020935afa908115612657575f916131d6575b5061012084013503610a9c57610140830135600160ff82161b915f525f5160206139d45f395f51905f5260205260405f209060081c5f5260205260405f20818154188091551615610a395760c0610164604093602093606060018060a01b035f516020613ab45f395f51905f52541691875197889687956308a3cff560e11b87528281600489013761317760448801848301612f83565b0160c48601376101048401375afa908115612657575f9161319b575b501561098f57565b90506020813d6020116131ce575b816131b660209383612ba5565b8101031261266257518015158103612662575f613193565b3d91506131a9565b90506020813d602011613200575b816131f160209383612ba5565b8101031261266257515f6130e0565b3d91506131e4565b8293506020809160019394518152019301910184926130bf565b805f525f5160206139945f395f51905f5260205261324560405f20541515612c97565b61010435905f525f5160206139945f395f51905f5260205260405f20548103610b6857613273610783613915565b60018060a01b035f516020613a945f395f51905f5254166040519161329783612b76565b6132a081613775565b61016491613043816020946132b69351916137e3565b6132df6020604051809382820195518091875e81015f838201520301601f198101835282612ba5565b51902082526040516316e960cb60e21b81529182905f600483015b60018210613403575050506024816020935afa908115612657575f916133d1575b506101243503610a9c5761014435600160ff82161b915f525f5160206139d45f395f51905f5260205260405f209060081c5f5260205260405f20818154188091551615610a39575f516020613ab45f395f51905f5254604080516308a3cff560e11b81529160209183916101649183916001600160a01b0316906004808401376133a9604483016044612f83565b604060c4808401376060610104808401375afa908115612657575f9161319b57501561098f57565b90506020813d6020116133fb575b816133ec60209383612ba5565b8101031261266257515f61331b565b3d91506133df565b8293506020809160019394518152019301910184926132fa565b805f525f5160206139945f395f51905f5260205261344060405f20541515612c97565b61010435905f525f5160206139945f395f51905f5260205260405f20548103610b685761346e610783613915565b60018060a01b035f516020613a945f395f51905f5254166040519161349283612b76565b61349b81613775565b6102e491613043816020946134b19351916137e3565b6134da6020604051809382820195518091875e81015f838201520301601f198101835282612ba5565b51902082526040516316e960cb60e21b81529182905f600483015b600182106135a3575050506024816020935afa908115612657575f916133d157506101243503610a9c5761014435600160ff82161b915f525f5160206139d45f395f51905f5260205260405f209060081c5f5260205260405f20818154188091551615610a39575f516020613ab45f395f51905f5254604080516308a3cff560e11b81529160209183916101649183916001600160a01b0316906004808401376133a9604483016044612f83565b8293506020809160019394518152019301910184926134f5565b5f8181525f516020613a145f395f51905f52602090815260408083206001600160a01b038616845290915290205460ff1615612f6d575f8181525f516020613a145f395f51905f52602090815260408083206001600160a01b0386811685529252909120805460ff19169055613631613873565b16916001600160a01b0316907ff6391f5c32d9c69d2a47ea670b442974b53935d1edc7fd64eb21e047a839171b5f80a4600190565b90815f525f5160206139945f395f51905f5260205260405f20546136c457815f525f5160206139945f395f51905f526020528060405f20557f0f2248e36f9f84e4a57eb47fddc532d5f8e47dcf531e4a466e3974d8ac5046c85f80a3565b60405162461bcd60e51b815260206004820152605060248201527f417269616e656549737375657250726f78793a204120636f6d6d69746d656e7460448201527f2068617320616c7265616479206265656e207265676973746572656420666f7260648201526f081d1a1a5cc814db585c9d105cdcd95d60821b608482015260a490fd5b60131981019190821161102c57565b9190820391821161102c57565b9081518110156128d9570160200190565b9060049061378282612bc6565b906137906040519283612ba5565b828252601f1961379f84612bc6565b013660208401375f5b838110156137db576001906001600160f81b03196137c68288613764565b51165f1a6137d48286613764565b53016137a8565b509250905090565b92906137ef8184613757565b916137f983612bc6565b926138076040519485612ba5565b808452613816601f1991612bc6565b013660208501375f5b6138298386613757565b81101561386a578281019081811161102c57600184916138299361385260ff60f81b918b613764565b51165f1a6138608289613764565b530191505061381f565b50935050905090565b337f00000000000000000000000000000000000000000000000000000000000000006001600160a01b0316148061390a575b15613906576138b336613748565b3681116126625780356bffffffffffffffffffffffff19811691360390601482106138e1575b505060601c90565b6bffffffffffffffffffffffff1960149290920360031b82901b161690505f806138d9565b3390565b5060143610156138a5565b337f00000000000000000000000000000000000000000000000000000000000000006001600160a01b03161480613968575b156139625761395536613748565b90368211612662575f9190565b5f903690565b50601436101561394756fe499b07eaf670b25ea1175c6a6184096be05c34a9fb5db3fcf82c871241b37f09dfb471cd3ca022c3d9702e8c5ae7e7c948fe792e47161e5c31b2148652480a08dfb471cd3ca022c3d9702e8c5ae7e7c948fe792e47161e5c31b2148652480a01ff29894d3e1897d0481106c97b1260b7947eec5ac744355a6aeb472862a7ad00dfb471cd3ca022c3d9702e8c5ae7e7c948fe792e47161e5c31b2148652480a0202dd7bc7dec4dceedda775e58dd541e08a116c6c53815c0bd028192f7b626800dfb471cd3ca022c3d9702e8c5ae7e7c948fe792e47161e5c31b2148652480a00dfb471cd3ca022c3d9702e8c5ae7e7c948fe792e47161e5c31b2148652480a03f0c57e16840df040f15088dc2f81fe391c3923bec73e23a9662efc9c229c6a00dfb471cd3ca022c3d9702e8c5ae7e7c948fe792e47161e5c31b2148652480a05dfb471cd3ca022c3d9702e8c5ae7e7c948fe792e47161e5c31b2148652480a04a26469706673582212204b3aa7887506eb62fcc7aca9af607c1646dd12c5330f3c75687f6be4cab85c6e64736f6c634300081c0033f0c57e16840df040f15088dc2f81fe391c3923bec73e23a9662efc9c229c6a00","linkReferences":{}},"methodIdentifiers":{"ArianeeIssuerProxyStorageV0Location()":"dfa8df00","DEFAULT_ADMIN_ROLE()":"a217fddf","acceptEvent((uint256[2],uint256[2][2],uint256[2],uint256[3]),uint256,uint256,address)":"65859a54","addCreditFreeSender(address)":"4bb2fc54","addCreditFreeSenderBatch(address[])":"8085f305","addCreditNotePool(address)":"03964a60","addTokenAccess((uint256[2],uint256[2][2],uint256[2],uint256[3]),uint256,address,bool,uint256)":"eba98fa3","approve((uint256[2],uint256[2][2],uint256[2],uint256[3]),address,uint256)":"3c84427a","commitmentHashes(uint256)":"84165b57","createEvent((uint256[2],uint256[2][2],uint256[2],uint256[3]),(uint256[2],uint256[2][2],uint256[2],uint256[4]),address,uint256,uint256,bytes32,string,address)":"9443d629","createMessage((uint256[2],uint256[2][2],uint256[2],uint256[3]),(uint256[2],uint256[2][2],uint256[2],uint256[4]),address,uint256,uint256,bytes32,address)":"414e4a9d","destroy((uint256[2],uint256[2][2],uint256[2],uint256[3]),uint256)":"4c705a0d","destroyEvent((uint256[2],uint256[2][2],uint256[2],uint256[3]),uint256,uint256)":"ddbbbbf5","getRoleAdmin(bytes32)":"248a9ca3","getStoreAddress()":"b07ed3a9","grantRole(bytes32,address)":"2f2ff15d","hasRole(bytes32,address)":"91d14854","hydrateToken((uint256[2],uint256[2][2],uint256[2],uint256[3]),(uint256[2],uint256[2][2],uint256[2],uint256[4]),address,uint256,uint256,bytes32,string,address,uint256,bool,address)":"f444cc02","initialize(address,address,address,address,address,address,address)":"35876476","invalidateUnorderedNonces((uint256[2],uint256[2][2],uint256[2],uint256[3]),uint256,uint256,uint256,uint256)":"d068617e","isTrustedForwarder(address)":"572b6c05","recoverTokenToIssuer((uint256[2],uint256[2][2],uint256[2],uint256[3]),uint256)":"8019bc60","refuseEvent((uint256[2],uint256[2][2],uint256[2],uint256[3]),uint256,uint256,address)":"87be9fbd","removeCreditFreeSender(address)":"b325a1a5","removeCreditFreeSenderBatch(address[])":"dc6af391","renounceRole(bytes32,address)":"36568abe","reserveToken(uint256,uint256)":"5965805d","revokeRole(bytes32,address)":"d547741f","safeTransferFrom((uint256[2],uint256[2][2],uint256[2],uint256[3]),address,address,uint256,bytes)":"fdd1041c","setMissingStatus((uint256[2],uint256[2][2],uint256[2],uint256[3]),uint256)":"e85e31e8","setStolenStatus((uint256[2],uint256[2][2],uint256[2],uint256[3]),uint256)":"49bf229e","supportsInterface(bytes4)":"01ffc9a7","transferFrom((uint256[2],uint256[2][2],uint256[2],uint256[3]),address,address,uint256)":"f40a5224","trustedForwarder()":"7da0a877","unsetMissingStatus((uint256[2],uint256[2][2],uint256[2],uint256[3]),uint256)":"eedb22dd","unsetStolenStatus((uint256[2],uint256[2][2],uint256[2],uint256[3]),uint256)":"637d1709","updateCommitment((uint256[2],uint256[2][2],uint256[2],uint256[3]),uint256,uint256)":"3398a849","updateCommitmentBatch((uint256[2],uint256[2][2],uint256[2],uint256[3])[],uint256[],uint256[])":"0f058943","updateDestroyEventRequest((uint256[2],uint256[2][2],uint256[2],uint256[3]),uint256,uint256,bool)":"deb89301","updateRecoveryRequest((uint256[2],uint256[2][2],uint256[2],uint256[3]),uint256,bool)":"34d11652","updateSmartAsset((uint256[2],uint256[2][2],uint256[2],uint256[3]),(uint256[2],uint256[2][2],uint256[2],uint256[4]),address,uint256,bytes32,address)":"e28644ff","updateTokenURI((uint256[2],uint256[2][2],uint256[2],uint256[3]),uint256,string)":"3f3e893b"},"storageLayout":{"storage":[],"types":{}},"id":82}