{"abi":[{"type":"constructor","inputs":[{"name":"_trustedForwarder","type":"address","internalType":"address"}],"stateMutability":"nonpayable"},{"type":"function","name":"ArianeeSmartAssetStorageV0Location","inputs":[],"outputs":[{"name":"","type":"bytes32","internalType":"bytes32"}],"stateMutability":"view"},{"type":"function","name":"DEFAULT_ADMIN_ROLE","inputs":[],"outputs":[{"name":"","type":"bytes32","internalType":"bytes32"}],"stateMutability":"view"},{"type":"function","name":"addTokenAccess","inputs":[{"name":"_tokenId","type":"uint256","internalType":"uint256"},{"name":"_key","type":"address","internalType":"address"},{"name":"_enable","type":"bool","internalType":"bool"},{"name":"_accessType","type":"uint256","internalType":"uint256"}],"outputs":[],"stateMutability":"nonpayable"},{"type":"function","name":"approve","inputs":[{"name":"_approved","type":"address","internalType":"address"},{"name":"_tokenId","type":"uint256","internalType":"uint256"}],"outputs":[],"stateMutability":"nonpayable"},{"type":"function","name":"balanceOf","inputs":[{"name":"owner","type":"address","internalType":"address"}],"outputs":[{"name":"","type":"uint256","internalType":"uint256"}],"stateMutability":"view"},{"type":"function","name":"canOperate","inputs":[{"name":"_tokenId","type":"uint256","internalType":"uint256"},{"name":"_operator","type":"address","internalType":"address"}],"outputs":[{"name":"","type":"bool","internalType":"bool"}],"stateMutability":"view"},{"type":"function","name":"destroy","inputs":[{"name":"_tokenId","type":"uint256","internalType":"uint256"}],"outputs":[],"stateMutability":"nonpayable"},{"type":"function","name":"getApproved","inputs":[{"name":"tokenId","type":"uint256","internalType":"uint256"}],"outputs":[{"name":"","type":"address","internalType":"address"}],"stateMutability":"view"},{"type":"function","name":"getRoleAdmin","inputs":[{"name":"role","type":"bytes32","internalType":"bytes32"}],"outputs":[{"name":"","type":"bytes32","internalType":"bytes32"}],"stateMutability":"view"},{"type":"function","name":"grantRole","inputs":[{"name":"role","type":"bytes32","internalType":"bytes32"},{"name":"account","type":"address","internalType":"address"}],"outputs":[],"stateMutability":"nonpayable"},{"type":"function","name":"hasRole","inputs":[{"name":"role","type":"bytes32","internalType":"bytes32"},{"name":"account","type":"address","internalType":"address"}],"outputs":[{"name":"","type":"bool","internalType":"bool"}],"stateMutability":"view"},{"type":"function","name":"hydrateToken","inputs":[{"name":"_tokenId","type":"uint256","internalType":"uint256"},{"name":"_imprint","type":"bytes32","internalType":"bytes32"},{"name":"_uri","type":"string","internalType":"string"},{"name":"_initialKey","type":"address","internalType":"address"},{"name":"_tokenRecoveryTimestamp","type":"uint256","internalType":"uint256"},{"name":"_initialKeyIsRequestKey","type":"bool","internalType":"bool"},{"name":"_issuer","type":"address","internalType":"address"},{"name":"_soulbound","type":"bool","internalType":"bool"}],"outputs":[],"stateMutability":"nonpayable"},{"type":"function","name":"initialize","inputs":[{"name":"_initialAdmin","type":"address","internalType":"address"},{"name":"_storeAddress","type":"address","internalType":"address"},{"name":"_whitelistAddress","type":"address","internalType":"address"}],"outputs":[],"stateMutability":"nonpayable"},{"type":"function","name":"isAccessValid","inputs":[{"name":"_tokenId","type":"uint256","internalType":"uint256"},{"name":"_hash","type":"bytes32","internalType":"bytes32"},{"name":"_accessType","type":"uint256","internalType":"uint256"},{"name":"_signature","type":"bytes","internalType":"bytes"}],"outputs":[{"name":"","type":"bool","internalType":"bool"}],"stateMutability":"view"},{"type":"function","name":"isApprovedForAll","inputs":[{"name":"owner","type":"address","internalType":"address"},{"name":"operator","type":"address","internalType":"address"}],"outputs":[{"name":"","type":"bool","internalType":"bool"}],"stateMutability":"view"},{"type":"function","name":"isRequestable","inputs":[{"name":"_tokenId","type":"uint256","internalType":"uint256"}],"outputs":[{"name":"","type":"bool","internalType":"bool"}],"stateMutability":"view"},{"type":"function","name":"isSoulbound","inputs":[{"name":"_tokenId","type":"uint256","internalType":"uint256"}],"outputs":[{"name":"","type":"bool","internalType":"bool"}],"stateMutability":"view"},{"type":"function","name":"isTrustedForwarder","inputs":[{"name":"forwarder","type":"address","internalType":"address"}],"outputs":[{"name":"","type":"bool","internalType":"bool"}],"stateMutability":"view"},{"type":"function","name":"issuerOf","inputs":[{"name":"_tokenId","type":"uint256","internalType":"uint256"}],"outputs":[{"name":"_tokenIssuer","type":"address","internalType":"address"}],"stateMutability":"view"},{"type":"function","name":"name","inputs":[],"outputs":[{"name":"","type":"string","internalType":"string"}],"stateMutability":"view"},{"type":"function","name":"ownerOf","inputs":[{"name":"tokenId","type":"uint256","internalType":"uint256"}],"outputs":[{"name":"","type":"address","internalType":"address"}],"stateMutability":"view"},{"type":"function","name":"paused","inputs":[],"outputs":[{"name":"","type":"bool","internalType":"bool"}],"stateMutability":"view"},{"type":"function","name":"recoverTokenToIssuer","inputs":[{"name":"_tokenId","type":"uint256","internalType":"uint256"}],"outputs":[],"stateMutability":"nonpayable"},{"type":"function","name":"recoveryRequestOpen","inputs":[{"name":"_tokenId","type":"uint256","internalType":"uint256"}],"outputs":[{"name":"_recoveryRequest","type":"bool","internalType":"bool"}],"stateMutability":"view"},{"type":"function","name":"renounceRole","inputs":[{"name":"role","type":"bytes32","internalType":"bytes32"},{"name":"callerConfirmation","type":"address","internalType":"address"}],"outputs":[],"stateMutability":"nonpayable"},{"type":"function","name":"requestToken","inputs":[{"name":"_tokenId","type":"uint256","internalType":"uint256"},{"name":"_hash","type":"bytes32","internalType":"bytes32"},{"name":"_keepCurrentAccess","type":"bool","internalType":"bool"},{"name":"_newOwner","type":"address","internalType":"address"},{"name":"_signature","type":"bytes","internalType":"bytes"}],"outputs":[],"stateMutability":"nonpayable"},{"type":"function","name":"reserveToken","inputs":[{"name":"_tokenId","type":"uint256","internalType":"uint256"},{"name":"_to","type":"address","internalType":"address"}],"outputs":[],"stateMutability":"nonpayable"},{"type":"function","name":"revokeRole","inputs":[{"name":"role","type":"bytes32","internalType":"bytes32"},{"name":"account","type":"address","internalType":"address"}],"outputs":[],"stateMutability":"nonpayable"},{"type":"function","name":"safeTransferFrom","inputs":[{"name":"from","type":"address","internalType":"address"},{"name":"to","type":"address","internalType":"address"},{"name":"tokenId","type":"uint256","internalType":"uint256"}],"outputs":[],"stateMutability":"nonpayable"},{"type":"function","name":"safeTransferFrom","inputs":[{"name":"_from","type":"address","internalType":"address"},{"name":"_to","type":"address","internalType":"address"},{"name":"_tokenId","type":"uint256","internalType":"uint256"},{"name":"_data","type":"bytes","internalType":"bytes"}],"outputs":[],"stateMutability":"nonpayable"},{"type":"function","name":"setApprovalForAll","inputs":[{"name":"operator","type":"address","internalType":"address"},{"name":"approved","type":"bool","internalType":"bool"}],"outputs":[],"stateMutability":"nonpayable"},{"type":"function","name":"setUriBase","inputs":[{"name":"_newURIBase","type":"string","internalType":"string"}],"outputs":[],"stateMutability":"nonpayable"},{"type":"function","name":"supportsInterface","inputs":[{"name":"interfaceId","type":"bytes4","internalType":"bytes4"}],"outputs":[{"name":"","type":"bool","internalType":"bool"}],"stateMutability":"view"},{"type":"function","name":"symbol","inputs":[],"outputs":[{"name":"","type":"string","internalType":"string"}],"stateMutability":"view"},{"type":"function","name":"tokenByIndex","inputs":[{"name":"index","type":"uint256","internalType":"uint256"}],"outputs":[{"name":"","type":"uint256","internalType":"uint256"}],"stateMutability":"view"},{"type":"function","name":"tokenCreation","inputs":[{"name":"_tokenId","type":"uint256","internalType":"uint256"}],"outputs":[{"name":"_tokenCreation","type":"uint256","internalType":"uint256"}],"stateMutability":"view"},{"type":"function","name":"tokenHashedAccess","inputs":[{"name":"_tokenId","type":"uint256","internalType":"uint256"},{"name":"_accessType","type":"uint256","internalType":"uint256"}],"outputs":[{"name":"_tokenAccess","type":"address","internalType":"address"}],"stateMutability":"view"},{"type":"function","name":"tokenImprint","inputs":[{"name":"_tokenId","type":"uint256","internalType":"uint256"}],"outputs":[{"name":"_imprint","type":"bytes32","internalType":"bytes32"}],"stateMutability":"view"},{"type":"function","name":"tokenOfOwnerByIndex","inputs":[{"name":"owner","type":"address","internalType":"address"},{"name":"index","type":"uint256","internalType":"uint256"}],"outputs":[{"name":"","type":"uint256","internalType":"uint256"}],"stateMutability":"view"},{"type":"function","name":"tokenRecoveryDate","inputs":[{"name":"_tokenId","type":"uint256","internalType":"uint256"}],"outputs":[{"name":"_tokenRecoveryTimestamp","type":"uint256","internalType":"uint256"}],"stateMutability":"view"},{"type":"function","name":"tokenURI","inputs":[{"name":"tokenId","type":"uint256","internalType":"uint256"}],"outputs":[{"name":"","type":"string","internalType":"string"}],"stateMutability":"view"},{"type":"function","name":"totalSupply","inputs":[],"outputs":[{"name":"","type":"uint256","internalType":"uint256"}],"stateMutability":"view"},{"type":"function","name":"transferFrom","inputs":[{"name":"_from","type":"address","internalType":"address"},{"name":"_to","type":"address","internalType":"address"},{"name":"_tokenId","type":"uint256","internalType":"uint256"}],"outputs":[],"stateMutability":"nonpayable"},{"type":"function","name":"trustedForwarder","inputs":[],"outputs":[{"name":"","type":"address","internalType":"address"}],"stateMutability":"view"},{"type":"function","name":"updateRecoveryRequest","inputs":[{"name":"_tokenId","type":"uint256","internalType":"uint256"},{"name":"_active","type":"bool","internalType":"bool"}],"outputs":[],"stateMutability":"nonpayable"},{"type":"function","name":"updateTokenURI","inputs":[{"name":"_tokenId","type":"uint256","internalType":"uint256"},{"name":"_uri","type":"string","internalType":"string"}],"outputs":[],"stateMutability":"nonpayable"},{"type":"function","name":"validRecoveryRequest","inputs":[{"name":"_tokenId","type":"uint256","internalType":"uint256"}],"outputs":[],"stateMutability":"nonpayable"},{"type":"event","name":"Approval","inputs":[{"name":"owner","type":"address","indexed":true,"internalType":"address"},{"name":"approved","type":"address","indexed":true,"internalType":"address"},{"name":"tokenId","type":"uint256","indexed":true,"internalType":"uint256"}],"anonymous":false},{"type":"event","name":"ApprovalForAll","inputs":[{"name":"owner","type":"address","indexed":true,"internalType":"address"},{"name":"operator","type":"address","indexed":true,"internalType":"address"},{"name":"approved","type":"bool","indexed":false,"internalType":"bool"}],"anonymous":false},{"type":"event","name":"Hydrated","inputs":[{"name":"_tokenId","type":"uint256","indexed":true,"internalType":"uint256"},{"name":"_imprint","type":"bytes32","indexed":true,"internalType":"bytes32"},{"name":"_uri","type":"string","indexed":false,"internalType":"string"},{"name":"_initialKey","type":"address","indexed":false,"internalType":"address"},{"name":"_tokenRecoveryTimestamp","type":"uint256","indexed":false,"internalType":"uint256"},{"name":"_initialKeyIsRequestKey","type":"bool","indexed":false,"internalType":"bool"},{"name":"_tokenCreation","type":"uint256","indexed":false,"internalType":"uint256"}],"anonymous":false},{"type":"event","name":"Initialized","inputs":[{"name":"version","type":"uint64","indexed":false,"internalType":"uint64"}],"anonymous":false},{"type":"event","name":"Paused","inputs":[{"name":"account","type":"address","indexed":false,"internalType":"address"}],"anonymous":false},{"type":"event","name":"RecoveryRequestUpdated","inputs":[{"name":"_tokenId","type":"uint256","indexed":true,"internalType":"uint256"},{"name":"_active","type":"bool","indexed":false,"internalType":"bool"}],"anonymous":false},{"type":"event","name":"RoleAdminChanged","inputs":[{"name":"role","type":"bytes32","indexed":true,"internalType":"bytes32"},{"name":"previousAdminRole","type":"bytes32","indexed":true,"internalType":"bytes32"},{"name":"newAdminRole","type":"bytes32","indexed":true,"internalType":"bytes32"}],"anonymous":false},{"type":"event","name":"RoleGranted","inputs":[{"name":"role","type":"bytes32","indexed":true,"internalType":"bytes32"},{"name":"account","type":"address","indexed":true,"internalType":"address"},{"name":"sender","type":"address","indexed":true,"internalType":"address"}],"anonymous":false},{"type":"event","name":"RoleRevoked","inputs":[{"name":"role","type":"bytes32","indexed":true,"internalType":"bytes32"},{"name":"account","type":"address","indexed":true,"internalType":"address"},{"name":"sender","type":"address","indexed":true,"internalType":"address"}],"anonymous":false},{"type":"event","name":"SetNewUriBase","inputs":[{"name":"_newUriBase","type":"string","indexed":false,"internalType":"string"}],"anonymous":false},{"type":"event","name":"TokenAccessAdded","inputs":[{"name":"_tokenId","type":"uint256","indexed":true,"internalType":"uint256"},{"name":"_encryptedTokenKey","type":"address","indexed":false,"internalType":"address"},{"name":"_enable","type":"bool","indexed":false,"internalType":"bool"},{"name":"_tokenType","type":"uint256","indexed":false,"internalType":"uint256"}],"anonymous":false},{"type":"event","name":"TokenDestroyed","inputs":[{"name":"_tokenId","type":"uint256","indexed":true,"internalType":"uint256"}],"anonymous":false},{"type":"event","name":"TokenRecovered","inputs":[{"name":"_token","type":"uint256","indexed":true,"internalType":"uint256"}],"anonymous":false},{"type":"event","name":"TokenURIUpdated","inputs":[{"name":"_tokenId","type":"uint256","indexed":true,"internalType":"uint256"},{"name":"URI","type":"string","indexed":false,"internalType":"string"}],"anonymous":false},{"type":"event","name":"Transfer","inputs":[{"name":"from","type":"address","indexed":true,"internalType":"address"},{"name":"to","type":"address","indexed":true,"internalType":"address"},{"name":"tokenId","type":"uint256","indexed":true,"internalType":"uint256"}],"anonymous":false},{"type":"event","name":"Unpaused","inputs":[{"name":"account","type":"address","indexed":false,"internalType":"address"}],"anonymous":false},{"type":"error","name":"AccessControlBadConfirmation","inputs":[]},{"type":"error","name":"AccessControlUnauthorizedAccount","inputs":[{"name":"account","type":"address","internalType":"address"},{"name":"neededRole","type":"bytes32","internalType":"bytes32"}]},{"type":"error","name":"ERC721EnumerableForbiddenBatchMint","inputs":[]},{"type":"error","name":"ERC721IncorrectOwner","inputs":[{"name":"sender","type":"address","internalType":"address"},{"name":"tokenId","type":"uint256","internalType":"uint256"},{"name":"owner","type":"address","internalType":"address"}]},{"type":"error","name":"ERC721InsufficientApproval","inputs":[{"name":"operator","type":"address","internalType":"address"},{"name":"tokenId","type":"uint256","internalType":"uint256"}]},{"type":"error","name":"ERC721InvalidApprover","inputs":[{"name":"approver","type":"address","internalType":"address"}]},{"type":"error","name":"ERC721InvalidOperator","inputs":[{"name":"operator","type":"address","internalType":"address"}]},{"type":"error","name":"ERC721InvalidOwner","inputs":[{"name":"owner","type":"address","internalType":"address"}]},{"type":"error","name":"ERC721InvalidReceiver","inputs":[{"name":"receiver","type":"address","internalType":"address"}]},{"type":"error","name":"ERC721InvalidSender","inputs":[{"name":"sender","type":"address","internalType":"address"}]},{"type":"error","name":"ERC721NonexistentToken","inputs":[{"name":"tokenId","type":"uint256","internalType":"uint256"}]},{"type":"error","name":"ERC721OutOfBoundsIndex","inputs":[{"name":"owner","type":"address","internalType":"address"},{"name":"index","type":"uint256","internalType":"uint256"}]},{"type":"error","name":"EnforcedPause","inputs":[]},{"type":"error","name":"ExpectedPause","inputs":[]},{"type":"error","name":"InvalidInitialization","inputs":[]},{"type":"error","name":"NotInitializing","inputs":[]}],"bytecode":{"object":"0x60a03461011057601f614b0d38819003918201601f19168301916001600160401b038311848410176101145780849260209460405283398101031261011057516001600160a01b0381168103610110576080525f516020614aed5f395f51905f525460ff8160401c16610101576002600160401b03196001600160401b038216016100ab575b6040516149c490816101298239608051818181611cf3015281816122e7015261464b0152f35b6001600160401b0319166001600160401b039081175f516020614aed5f395f51905f52556040519081527fc7f505b2f371ae2175ee4913f4499e1f2633a7b5936321eed1cdaeb6115181d290602090a15f610085565b63f92ee8a960e01b5f5260045ffd5b5f80fd5b634e487b7160e01b5f52604160045260245ffdfe6080806040526004361015610012575f80fd5b5f905f3560e01c90816301ffc9a7146132b55750806306fdde03146131d3578063081812fc1461318a578063095ea7b3146130915780631332f1b814612f3457806318160ddd14612f0b57806318e97fd114612d2e57806323b872dd14612af9578063248a9ca314612ac157806327fc0cff1461298f5780632f2ff15d146129445780632f745c59146128ad578063325cdebb1461280b57806336568abe146127b657806342842e0e146123775780634f6ccce71461231b578063572b6c05146122c65780635851cf1c14611e6b5780635c975abb14611e3c5780635facb88214611e175780636352211e14611de657806363ad2b6a14611da157806370a0823114611d7557806370c31afc14611d225780637da0a87714611cdd57806380a4edda14611cb6578063911ec47014611c8d57806391d1485414611c3757806395d89b4114611b505780639d11877014611ae5578063a217fddf14611ac9578063a22cb46514611a18578063a4e2ee11146119cf578063b5aaa9d514611834578063b71c34d5146115ea578063b88d4fde14611261578063c0c53b8b14610beb578063c87b56dd14610bb3578063cc55578e14610b5f578063d547741f14610b0b578063d86c89cc14610ae3578063dde5c1c714610aa0578063e261ed77146103f5578063e54f696814610374578063e985e9c514610326578063f3fd8605146102705763f421b0e914610223575f80fd5b3461026d57602036600319011261026d5760209060043581525f51602061474f5f395f51905f52825260408120600182528252604060018060a01b03912054161515604051908152f35b80fd5b503461026d57604036600319011261026d576004357f06eb2a6b59bafdf7d5d15a5fe2681abd76406ddf85d0af873cd23c221014dc3260206102b06134b1565b6102e66102bb614648565b8587525f5160206147ef5f395f51905f52845260408720546001600160a01b03918216911614613507565b6102ee613cd3565b8385525f51602061480f5f395f51905f52825261031a81604087209060ff801983541691151516179055565b6040519015158152a280f35b503461026d57604036600319011261026d57610352610343613378565b61034b61338e565b92506135f1565b9060018060a01b03165f52602052602060ff60405f2054166040519015158152f35b503461026d57608036600319011261026d576064356001600160401b0381116103f157906103b36103ab6020933690600401613493565b6024356140be565b505060043582525f51602061474f5f395f51905f528352604080832060443584528452918290205491516001600160a01b0392831691909216148152f35b5080fd5b503461026d5760a036600319011261026d576024356004356104156134c0565b61041d6133a4565b926084356001600160401b038111610a9c5761045a6104436104609236906004016133ba565b61044b613b77565b610453613cd3565b369161345d565b826140be565b50508386525f51602061474f5f395f51905f5260209081526040808820600189529091528620546001600160a01b03908116911603610a3c5760408051602081018581526001600160a01b038716828401529181526104c0606082613421565b5190207f19457468657265756d205369676e6564204d6573736167653a0a3332000000008652601c52603c8520036109ec578184525f51602061474f5f395f51905f5260209081526040808620600187529091528420546001600160a01b031692610529614648565b61053284613ae0565b86806109c6575b6109b25784906001600160a01b0383811691167f8c5be1e5ebec7d5bd14f71427d1e84f3dd0314c0f7b2291e5b200ac8c7c3b9258980a48386525f5160206148cf5f395f51905f526020526040862080546001600160a01b0319166001600160a01b039092169190911790556105ae83613ff3565b6105b6613cd3565b6105bf84613754565b610854575b6001600160a01b03821615610840576105e56105de614648565b85846144bb565b6001600160a01b0390811691168082036108265750505f51602061496f5f395f51905f52548591906001600160a01b0316803b15610802576040516387159d9b60e01b8152600481018690526001600160a01b03831660248201529083908290604490829084905af190811561081b578391610806575b508490525f5160206148ef5f395f51905f52602052600160ff604084205416151514610762575b505061068d578280f35b61069681613754565b6106dc5782525f51602061474f5f395f51905f526020526040822060018352602052604082209060018060a01b03166001600160601b0360a01b8254161790555f808280f35b60405162461bcd60e51b815260206004820152605260248201527f417269616e6565536d61727441737365743a20466f7262696464656e20746f2060448201527f6b65657020746865207472616e7366657220616363657373206f6e206120736f6064820152711d5b189bdd5b990814db585c9d105cdcd95d60721b608482015260a490fd5b8382525f5160206148ef5f395f51905f5260205260408220805460ff191690555f51602061488f5f395f51905f52546001600160a01b0316803b1561080257604051635c3dfa4d60e01b8152600481018690526001600160a01b0392909216602483015282908290604490829084905af180156107f7571561068357816107e891613421565b6107f357835f610683565b8380fd5b6040513d84823e3d90fd5b8280fd5b8161081091613421565b6103f157815f61065c565b6040513d85823e3d90fd5b6364283d7b60e01b87526004526024849052604452606485fd5b633250574960e11b86526004869052602486fd5b6001600160a01b0361086585613ae0565b166001600160a01b038216810361093d578487525f5160206147ef5f395f51905f5260205260408720546001600160a01b0316908190036108a7575b506105c4565b6001600160a01b036108b7614648565b16036108c3575f6108a1565b60405162461bcd60e51b815260206004820152604660248201527f417269616e6565536d61727441737365743a204f6e6c7920746865206973737560448201527f65722063616e207472616e73666572206120736f756c626f756e6420536d61726064820152651d105cdcd95d60d21b608482015260a490fd5b60405162461bcd60e51b815260206004820152604160248201527f417269616e6565536d61727441737365743a205472616e73666572206e6f742060448201527f616c6c6f776564202860746f6b656e4f776e65726020213d20605f66726f6d606064820152602960f81b608482015260a490fd5b63a9fbf51f60e01b87526004879052602487fd5b506109d0816135f1565b60018060a01b0388165f5260205260ff60405f20541615610539565b60405162461bcd60e51b815260206004820152602260248201527f417269616e6565536d61727441737365743a20496e76616c696420605f686173604482015261034360f51b6064820152608490fd5b60405162461bcd60e51b815260206004820152603260248201527f417269616e6565536d61727441737365743a20496e76616c696420605f686173604482015271034301037b910302fb9b4b3b730ba3ab932b60751b6064820152608490fd5b8580fd5b503461026d57602036600319011261026d5760026040602092600435610ac581613ae0565b5081525f5160206147ef5f395f51905f528452200154604051908152f35b503461026d578060031936011261026d5760206040515f51602061488f5f395f51905f528152f35b503461026d57604036600319011261026d57610b5b600435610b2b61338e565b90610b56610b51825f525f51602061486f5f395f51905f52602052600160405f20015490565b613c05565b613f4a565b5080f35b503461026d57604036600319011261026d57602090600435610b8081613ae0565b5081525f51602061474f5f395f51905f5282526040812060243582528252604060018060a01b0391205416604051908152f35b503461026d57602036600319011261026d57610be7610bd36004356137aa565b604051918291602083526020830190613354565b0390f35b503461026d57606036600319011261026d57610c05613378565b610c0d61338e565b6044356001600160a01b03811691908290036107f3575f51602061490f5f395f51905f52549260ff8460401c1615936001600160401b03811680159081611259575b600114908161124f575b159081611246575b506112375767ffffffffffffffff1981166001175f51602061490f5f395f51905f52558461120b575b50610c936146a1565b60ff195f5160206148af5f395f51905f5254165f5160206148af5f395f51905f5255610cbd613785565b610cc5613785565b90610cce6146a1565b8051906001600160401b0382116111f757610cf65f51602061478f5f395f51905f52546134cf565b601f811161119d575b50602090601f831160011461110357610d2f9291899183610fff575b50508160011b915f199060031b1c19161790565b5f51602061478f5f395f51905f52555b8051906001600160401b0382116110ef57610d675f51602061494f5f395f51905f52546134cf565b601f811161108a575b50602090601f831160011461100a579180610da492610db895948a92610fff5750508160011b915f199060031b1c19161790565b5f51602061494f5f395f51905f5255613cfa565b50610dc281613dbc565b5060018060a01b03166001600160601b0360a01b5f51602061488f5f395f51905f525416175f51602061488f5f395f51905f52556001600160601b0360a01b5f51602061496f5f395f51905f525416175f51602061496f5f395f51905f5255604051610e2f604082613421565b601981527f68747470733a2f2f636572742e617269616e65652e6f72672f000000000000006020820152610e61613b0f565b80516001600160401b038111610feb57610e9181610e8c5f5160206147af5f395f51905f52546134cf565b613573565b6020601f8211600114610f605791610ed082610ef3935f51602061482f5f395f51905f52958891610f55575b508160011b915f199060031b1c19161790565b5f5160206147af5f395f51905f5255604051918291602083526020830190613354565b0390a1610efd5780f35b68ff0000000000000000195f51602061490f5f395f51905f5254165f51602061490f5f395f51905f52557fc7f505b2f371ae2175ee4913f4499e1f2633a7b5936321eed1cdaeb6115181d2602060405160018152a180f35b90508301515f610ebd565b5f5160206147af5f395f51905f52855280852090601f198316865b818110610fd35750925f51602061482f5f395f51905f52949260019282610ef39610610fbb575b5050811b015f5160206147af5f395f51905f5255610bd3565b8401515f1960f88460031b161c191690555f80610fa2565b91926020600181928689015181550194019201610f7b565b634e487b7160e01b84526041600452602484fd5b015190505f80610d1b565b5f51602061494f5f395f51905f5288528188209190601f198416895b8181106110725750916001939185610db89796941061105a575b505050811b015f51602061494f5f395f51905f5255613cfa565b01515f1960f88460031b161c191690555f8080611040565b92936020600181928786015181550195019301611026565b5f51602061494f5f395f51905f5288526110df907ff4bad0a69248f59680a4f2b3000328cec71a413447c96781cfe5996daa8c456e601f850160051c810191602086106110e5575b601f0160051c019061355d565b5f610d70565b90915081906110d2565b634e487b7160e01b87526041600452602487fd5b5f51602061478f5f395f51905f5289527f37c58c799b6609234b945e882912ee9ad34948a1dfaa20a97485e1a7752bbf819190601f1984168a5b818110611185575090846001959493921061116d575b505050811b015f51602061478f5f395f51905f5255610d3f565b01515f1960f88460031b161c191690555f8080611153565b9293602060018192878601518155019501930161113d565b5f51602061478f5f395f51905f5289526111f1907f37c58c799b6609234b945e882912ee9ad34948a1dfaa20a97485e1a7752bbf81601f850160051c810191602086106110e557601f0160051c019061355d565b5f610cff565b634e487b7160e01b88526041600452602488fd5b68ffffffffffffffffff191668010000000000000001175f51602061490f5f395f51905f52555f610c8a565b63f92ee8a960e01b8652600486fd5b9050155f610c61565b303b159150610c59565b869150610c4f565b503461026d57608036600319011261026d5761127b613378565b61128361338e565b90604435906064356001600160401b0381116115e6576112a7903690600401613493565b906112b0613cd3565b6112b983613754565b611577575b6001600160a01b038416938415610840576112e16112da614648565b85836144bb565b6001600160a01b03928316921682810361155b57505f51602061496f5f395f51905f525486906001600160a01b0316803b156103f1576040516387159d9b60e01b8152600481018790526001600160a01b03841660248201529082908290604490829084905af180156107f757611546575b508490525f5160206148ef5f395f51905f52602052600160ff6040882054161515146114ad575b611382614648565b903b61138c578580f35b6113cc6020936040519586948594630a85bd0160e11b865260018060a01b0316600486015260248501526044840152608060648401526084830190613354565b038186865af1839181611468575b506114355750903d1561142d573d916113f283613442565b926114006040519485613421565b83523d82602085013e5b8251928361142657633250574960e11b83526004829052602483fd5b8390602001fd5b60609161140a565b6001600160e01b03191663757a42ff60e11b0161145657505f808080808580f35b633250574960e11b8252600452602490fd5b9091506020813d6020116114a5575b8161148460209383613421565b810103126107f357516001600160e01b0319811681036107f357905f6113da565b3d9150611477565b8386525f5160206148ef5f395f51905f5260205260408620805460ff191690555f51602061488f5f395f51905f525486906001600160a01b0316803b156103f157604051635c3dfa4d60e01b8152600481018790526001600160a01b03841660248201529082908290604490829084905af180156107f757611531575b505061137a565b8161153b91613421565b610a9c57855f61152a565b8161155091613421565b610a9c57855f611353565b6364283d7b60e01b875260048390526024859052604452606486fd5b6001600160a01b0361158884613ae0565b166001600160a01b038216810361093d578386525f5160206147ef5f395f51905f5260205260408620546001600160a01b0316908190036115ca575b506112be565b6001600160a01b036115da614648565b16036108c3575f6115c4565b8480fd5b503461026d57608036600319011261026d5760043561160761338e565b61160f6134c0565b906064359161162d611628611622614648565b8661372b565b6136a5565b611635613cd3565b82156117de5760018314806117cf575b61170a575b7fd4fada85986a6a990ebf8397071db3525f738377b4b8d4c3e9c8847dd7c7bd40926060929180156116d3578587525f51602061474f5f395f51905f5260209081526040808920848a52909152872080546001600160a01b0319166001600160a01b0385161790555b604080516001600160a01b0390941684529015156020840152820152a280f35b8587525f51602061474f5f395f51905f5260205260408720828852602052604087206001600160601b0360a01b81541690556116b3565b9061171484613ae0565b8486525f5160206147ef5f395f51905f5260205260408620546001600160a01b03908116911603611745579061164a565b60405162461bcd60e51b815260206004820152605660248201527f417269616e6565536d61727441737365743a204f6e6c7920746865206973737560448201527f65722063616e206164642061207472616e736665722061636365737320746f2060648201527518481cdbdd5b189bdd5b990814db585c9d105cdcd95d60521b608482015260a490fd5b506117d984613754565b611645565b60405162461bcd60e51b815260206004820152602860248201527f417269616e6565536d61727441737365743a20496e76616c696420605f616363604482015267032b9b9aa3cb832b60c51b6064820152608490fd5b503461026d57602036600319011261026d57600435611880611854614648565b8284525f5160206147ef5f395f51905f5260205260408420546001600160a01b03918216911614613507565b611888613cd3565b8082525f5160206147ef5f395f51905f526020526002604083200154421015611974578082525f5160206147ef5f395f51905f5260205260408220546001600160a01b03166118d682613ae0565b6001600160a01b0381168214611918576118f1918391613c61565b7f11cd3c497c4ee51feb1ed7bbb2d072b8c18bce7bbf0cf03d310a12b4afcd98188280a280f35b60405162461bcd60e51b815260206004820152602e60248201527f417269616e6565536d61727441737365743a2049737375657220697320616c7260448201526d32b0b23c903a34329037bbb732b960911b6064820152608490fd5b60405162461bcd60e51b815260206004820152602d60248201527f417269616e6565536d61727441737365743a205265636f766572792074696d6560448201526c1cdd185b5c081c995858da1959609a1b6064820152608490fd5b503461026d57602036600319011261026d576020906004356119f081613ae0565b5081525f5160206147ef5f395f51905f528252604060018060a01b0391205416604051908152f35b503461026d57604036600319011261026d57611a32613378565b611a3a6134b1565b611a42614648565b6001600160a01b03909216918215611ab557602081611a817f17307eab39ab6107e8899845ad3d59bd9653f200f220920489ca2b5937696c31936135f1565b855f528252611a9f8460405f209060ff801983541691151516179055565b60405193151584526001600160a01b031692a380f35b630b61174360e31b84526004839052602484fd5b503461026d578060031936011261026d57602090604051908152f35b503461026d57602036600319011261026d57611aff613cd3565b60405162461bcd60e51b815260206004820152602360248201527f417269616e6565536d61727441737365743a2044657374726f792064697361626044820152621b195960ea1b6064820152608490fd5b503461026d578060031936011261026d5760405190805f51602061494f5f395f51905f525490611b7f826134cf565b8085529160018116908115611c105750600114611ba7575b610be784610bd381860382613421565b5f51602061494f5f395f51905f5281527ff4bad0a69248f59680a4f2b3000328cec71a413447c96781cfe5996daa8c456e939250905b808210611bf657509091508101602001610bd382611b97565b919260018160209254838588010152019101909291611bdd565b60ff191660208087019190915292151560051b85019092019250610bd39150839050611b97565b503461026d57604036600319011261026d576040611c5361338e565b9160043581525f51602061486f5f395f51905f52602052209060018060a01b03165f52602052602060ff60405f2054166040519015158152f35b503461026d57602036600319011261026d576020611cac600435613754565b6040519015158152f35b503461026d57604036600319011261026d576020611cac611cd561338e565b60043561372b565b503461026d578060031936011261026d576040517f00000000000000000000000000000000000000000000000000000000000000006001600160a01b03168152602090f35b503461026d57602036600319011261026d576040602091600435611d4581613ae0565b5081527fce11c990cebe29c3b1e73f2e04c7eebbd235d66b39e13c6f0bc9dcde9a86850483522054604051908152f35b503461026d57602036600319011261026d576020611d99611d94613378565b6136fc565b604051908152f35b503461026d57602036600319011261026d5760ff6040602092600435611dc681613ae0565b5081525f51602061480f5f395f51905f5284522054166040519015158152f35b503461026d57602036600319011261026d576020611e05600435613ae0565b6040516001600160a01b039091168152f35b503461026d57602036600319011261026d5760016040602092600435610ac581613ae0565b503461026d578060031936011261026d57602060ff5f5160206148af5f395f51905f5254166040519015158152f35b503461026d5761010036600319011261026d576044356001600160401b0381116103f157611e9d903690600401613493565b611ea56133a4565b60a43560843581151582036115e65760c4356001600160a01b0381168103610a9c5760e43580151581036121de57611edb613b77565b611eea6116288360043561372b565b611ef2613cd3565b60043587525f5160206147ef5f395f51905f52602052600160408820015461226a576004358088525f51602061474f5f395f51905f5260209081526040808a208a80528252808a2080546001600160a01b0319166001600160a01b038a16179055828a527fce11c990cebe29c3b1e73f2e04c7eebbd235d66b39e13c6f0bc9dcde9a8685048252808a2060243590559189525f51602061492f5f395f51905f529052872086516001600160401b03811161225657611fba81611fb484546134cf565b846135b9565b6020601f82116001146121ed578161202c949392611feb928c916121e257508160011b915f199060031b1c19161790565b90555b60043588527fce11c990cebe29c3b1e73f2e04c7eebbd235d66b39e13c6f0bc9dcde9a868508602052604088209060ff801983541691151516179055565b5f51602061496f5f395f51905f52546001600160a01b0316803b156121de576040516387159d9b60e01b815260048035908201526001600160a01b038316602482015290879081908390604490829084905af19182156121d15785926121b8575b5050612174575b60405190606082018281106001600160401b038211176111f75760409081526001600160a01b0391821683524260208085019182528483018681526004358b525f5160206147ef5f395f51905f52909152828a20945185546001600160a01b03191694169390931784555160018401559051600292909201919091555160a0808252909461212491860190613354565b9260018060a01b031660208501526040840152151560608301524260808301527f0166db8152debe7d1cfed1b1e12a32a28a986839ab44dff49682be23e29704de6024359280600435930390a380f35b60043586525f51602061474f5f395f51905f526020908152604080882060018952909152862080546001600160a01b0319166001600160a01b038616179055612094565b819250906121c591613421565b610a9c5782865f61208d565b50604051903d90823e3d90fd5b8680fd5b90508a01515f610ebd565b828a52808a20908a5b8a601f198516821061223e5750509160019161202c95949382601f19811610612226575b5050811b019055611fee565b8b01515f1960f88460031b161c191690555f8061221a565b600183946020939484930151815501930191016121f6565b634e487b7160e01b89526041600452602489fd5b60405162461bcd60e51b815260206004820152602e60248201527f417269616e6565536d61727441737365743a20536d617274417373657420616c60448201526d1c9958591e481a1e591c985d195960921b6064820152608490fd5b503461026d57602036600319011261026d5760206122e2613378565b6040517f00000000000000000000000000000000000000000000000000000000000000006001600160a01b039081169216919091148152f35b503461026d57602036600319011261026d57600435905f51602061484f5f395f51905f525482101561236157602061235283613661565b90549060031b1c604051908152f35b60449163295f44f760e21b825281600452602452fd5b503461026d57612386366133e7565b6040516020949390926123998685613421565b8484526123a4613cd3565b6123ad83613754565b612659575b6001600160a01b038116938415610840576123ce6105de614648565b6001600160a01b03938416931683810361263d57505f51602061496f5f395f51905f52546001600160a01b0316803b156121de576040516387159d9b60e01b8152600481018690526001600160a01b03841660248201529087908290604490829084905af1801561261d57908791612628575b508490525f5160206148ef5f395f51905f528752600160ff604088205416151514612584575b61246f614648565b913b612479578580f35b906124ba8793926040519586948594630a85bd0160e11b865260018060a01b0316600486015260248501526044840152608060648401526084830190613354565b038186865af1839181612544575b5061251e57503d15612517573d6124de81613442565b906124ec6040519283613421565b81523d838583013e5b8051938461251157633250574960e11b84526004839052602484fd5b84925001fd5b60606124f5565b919250906001600160e01b03191663757a42ff60e11b016114565750805f808080808580f35b9091508481813d831161257d575b61255c8183613421565b810103126107f357516001600160e01b0319811681036107f357905f6124c8565b503d612552565b8386525f5160206148ef5f395f51905f52875260408620805460ff191690555f51602061488f5f395f51905f52546001600160a01b0316803b156121de57604051635c3dfa4d60e01b8152600481018690526001600160a01b03841660248201529087908290604490829084905af1801561261d57908791612608575b5050612467565b8161261291613421565b610a9c57855f612601565b6040513d89823e3d90fd5b8161263291613421565b610a9c57855f612441565b6364283d7b60e01b875260048490526024859052604452606486fd5b6001600160a01b0361266a84613ae0565b166001600160a01b0383168103612741578386525f5160206147ef5f395f51905f52875260408620546001600160a01b0316908190036126ab575b506123b2565b6001600160a01b036126bb614648565b16036126c7575f6126a5565b60405162461bcd60e51b815260048101879052604660248201527f417269616e6565536d61727441737365743a204f6e6c7920746865206973737560448201527f65722063616e207472616e73666572206120736f756c626f756e6420536d61726064820152651d105cdcd95d60d21b608482015260a490fd5b60405162461bcd60e51b815260048101889052604160248201527f417269616e6565536d61727441737365743a205472616e73666572206e6f742060448201527f616c6c6f776564202860746f6b656e4f776e65726020213d20605f66726f6d606064820152602960f81b608482015260a490fd5b503461026d57604036600319011261026d576127d061338e565b6001600160a01b036127e0614648565b166001600160a01b038216036127fc57610b5b90600435613f4a565b63334bd91960e11b8252600482fd5b503461026d57604036600319011261026d5760043561282861338e565b612830613b77565b612838613cd3565b6001600160a01b03811615612899576001600160a01b039061285b9083906140f8565b166128855781525f5160206148ef5f395f51905f5260205260408120805460ff1916600117905580f35b6339e3563760e11b82526004829052602482fd5b633250574960e11b83526004839052602483fd5b503461026d57604036600319011261026d576128c7613378565b906024356128d4836136fc565b811015612921579060409160209360018060a01b031682527f645e039705490088daad89bae25049a34f4a9072d398537b1ab2425f24cbed00845282822090825283522054604051908152f35b63295f44f760e21b82526001600160a01b03909216600452602491909152604490fd5b503461026d57604036600319011261026d57610b5b60043561296461338e565b9061298a610b51825f525f51602061486f5f395f51905f52602052600160405f20015490565b613e99565b503461026d57602036600319011261026d576004356001600160401b0381116103f1576129c0903690600401613493565b906129c9613b0f565b8151916001600160401b038311612aad576129f583610e8c5f5160206147af5f395f51905f52546134cf565b602092601f8111600114612a3b5790610ed082612a359385965f51602061482f5f395f51905f529691610f5557508160011b915f199060031b1c19161790565b0390a180f35b5f5160206147af5f395f51905f528352838320601f198216845b818110612a955750916001915f51602061482f5f395f51905f52959682612a35969510610fbb575050811b015f5160206147af5f395f51905f5255610bd3565b84870151835560209687019660019093019201612a55565b634e487b7160e01b82526041600452602482fd5b503461026d57602036600319011261026d576020611d996004355f525f51602061486f5f395f51905f52602052600160405f20015490565b5034612c8d57612b08366133e7565b9291612b12613cd3565b612b1b84613754565b612cbe575b6001600160a01b03821615612cab57612b3a6105de614648565b6001600160a01b039081169116808203612c915750505f51602061496f5f395f51905f52546001600160a01b031692833b15612c8d576040516387159d9b60e01b8152600481018290526001600160a01b0383166024820152935f908590604490829084905af18015612c8257612c6c575b8293508083525f5160206148ef5f395f51905f52602052600160ff604085205416151514612bd8575050f35b8083525f5160206148ef5f395f51905f5260205260408320805460ff191690555f51602061488f5f395f51905f52546001600160a01b031691823b15612c6757604051635c3dfa4d60e01b815260048101929092526001600160a01b031660248201529082908290604490829084905af180156107f757612c565750f35b81612c6091613421565b61026d5780f35b505050fd5b9150915f612c7991613421565b5f908290612bac565b6040513d5f823e3d90fd5b5f80fd5b84906364283d7b60e01b5f5260045260245260445260645ffd5b633250574960e11b5f525f60045260245ffd5b6001600160a01b03612ccf85613ae0565b166001600160a01b038216810361093d575f8581525f5160206147ef5f395f51905f5260205260409020546001600160a01b031690819003612d12575b50612b20565b6001600160a01b03612d22614648565b16036108c3575f612d0c565b34612c8d576040366003190112612c8d576004356024356001600160401b038111612c8d57612d619036906004016133ba565b90612d9a612d6d614648565b5f8581525f5160206147ef5f395f51905f5260205260409020546001600160a01b03918216911614613507565b612da2613cd3565b612dab83613ae0565b50825f525f51602061492f5f395f51905f5260205260405f206001600160401b038311612ef757612de683612de083546134cf565b836135b9565b5f601f8411600114612e6f5791604091612e3785807f931f495b9a8e5d8e61946ea5d61e021f636cfe213a801f97589c18c152e408bd97965f91612e6457508160011b915f199060031b1c19161790565b90555b82825193849260208452816020850152848401375f828201840152601f01601f19168101030190a2005b905084013589610ebd565b601f19841690825f5260205f20915f5b818110612edf57509160409391867f931f495b9a8e5d8e61946ea5d61e021f636cfe213a801f97589c18c152e408bd97969410612ec6575b5050600184811b019055612e3a565b8301355f19600387901b60f8161c191690558680612eb7565b91926020600181928689013581550194019201612e7f565b634e487b7160e01b5f52604160045260245ffd5b34612c8d575f366003190112612c8d5760205f51602061484f5f395f51905f5254604051908152f35b34612c8d576020366003190112612c8d57600435612f50613b0f565b805f525f51602061480f5f395f51905f52602052600160ff60405f20541615150361301c57805f525f51602061480f5f395f51905f5260205260405f2060ff198154169055612fcb81612fa281613ae0565b5f8281525f5160206147ef5f395f51905f5260205260409020546001600160a01b031690613c61565b807f06eb2a6b59bafdf7d5d15a5fe2681abd76406ddf85d0af873cd23c221014dc3260206040515f8152a27f11cd3c497c4ee51feb1ed7bbb2d072b8c18bce7bbf0cf03d310a12b4afcd98185f80a2005b60405162461bcd60e51b815260206004820152604160248201527f417269616e6565536d61727441737365743a204e6f206163746976652072656360448201527f6f76657279207265717565737420666f72207468697320536d617274417373656064820152601d60fa1b608482015260a490fd5b34612c8d576040366003190112612c8d576130aa613378565b6024356130b5614648565b6130be82613ae0565b906001600160a01b031680151580613177575b80613159575b613147575081906001600160a01b0384811691167f8c5be1e5ebec7d5bd14f71427d1e84f3dd0314c0f7b2291e5b200ac8c7c3b9255f80a45f9081525f5160206148cf5f395f51905f526020526040902080546001600160a01b0319166001600160a01b03909216919091179055005b63a9fbf51f60e01b5f5260045260245ffd5b50613163826135f1565b815f5260205260ff60405f205416156130d7565b506001600160a01b0382168114156130d1565b34612c8d576020366003190112612c8d576020611e056004356131ac81613ae0565b505f9081525f5160206148cf5f395f51905f5260205260409020546001600160a01b031690565b34612c8d575f366003190112612c8d576040515f5f51602061478f5f395f51905f52546131ff816134cf565b80845290600181169081156132915750600114613227575b610be783610bd381850382613421565b5f51602061478f5f395f51905f525f9081527f37c58c799b6609234b945e882912ee9ad34948a1dfaa20a97485e1a7752bbf81939250905b80821061327757509091508101602001610bd3613217565b91926001816020925483858801015201910190929161325f565b60ff191660208086019190915291151560051b84019091019150610bd39050613217565b34612c8d576020366003190112612c8d576004359063ffffffff60e01b8216809203612c8d5760209163780e9d6360e01b81149081156132f7575b5015158152f35b6380ac58cd60e01b811491508115613343575b8115613318575b50836132f0565b637965db0b60e01b811491508115613332575b5083613311565b6301ffc9a760e01b1490508361332b565b635b5e139f60e01b8114915061330a565b805180835260209291819084018484015e5f828201840152601f01601f1916010190565b600435906001600160a01b0382168203612c8d57565b602435906001600160a01b0382168203612c8d57565b606435906001600160a01b0382168203612c8d57565b9181601f84011215612c8d578235916001600160401b038311612c8d5760208381860195010111612c8d57565b6060906003190112612c8d576004356001600160a01b0381168103612c8d57906024356001600160a01b0381168103612c8d579060443590565b90601f801991011681019081106001600160401b03821117612ef757604052565b6001600160401b038111612ef757601f01601f191660200190565b92919261346982613442565b916134776040519384613421565b829481845281830111612c8d578281602093845f960137010152565b9080601f83011215612c8d578160206134ae9335910161345d565b90565b602435908115158203612c8d57565b604435908115158203612c8d57565b90600182811c921680156134fd575b60208310146134e957565b634e487b7160e01b5f52602260045260245ffd5b91607f16916134de565b1561350e57565b60405162461bcd60e51b815260206004820152602160248201527f417269616e6565536d61727441737365743a204e6f74207468652069737375656044820152603960f91b6064820152608490fd5b818110613568575050565b5f815560010161355d565b90601f8211613580575050565b6135b7915f5160206147af5f395f51905f525f5260205f20906020601f840160051c830193106110e557601f0160051c019061355d565b565b9190601f81116135c857505050565b6135b7925f5260205f20906020601f840160051c830193106110e557601f0160051c019061355d565b6001600160a01b03165f9081527f80bb2b638cc20bc4d0a60d66940f3ab4a00c1d7b313497ca82fb0b4ab00793056020526040902090565b6001600160a01b03165f9081527f80bb2b638cc20bc4d0a60d66940f3ab4a00c1d7b313497ca82fb0b4ab00793036020526040902090565b5f51602061484f5f395f51905f5254811015613691575f51602061484f5f395f51905f525f5260205f2001905f90565b634e487b7160e01b5f52603260045260245ffd5b156136ac57565b60405162461bcd60e51b815260206004820152602260248201527f417269616e6565536d61727441737365743a204e6f7420616e206f706572617460448201526137b960f11b6064820152608490fd5b6001600160a01b038116156137185761371490613629565b5490565b6322718ad960e21b5f525f60045260245ffd5b61373481613ff3565b916001600160a01b0383161561374d576134ae9261402c565b5050505f90565b5f527fce11c990cebe29c3b1e73f2e04c7eebbd235d66b39e13c6f0bc9dcde9a86850860205260ff60405f20541690565b60405190613794604083613421565b6007825266417269616e656560c81b6020830152565b6137b381613ae0565b50805f525f51602061492f5f395f51905f526020526137d560405f20546134cf565b1561388e575f525f51602061492f5f395f51905f5260205260405f2060405190815f825492613803846134cf565b808452936001811690811561386c5750600114613828575b506134ae92500382613421565b90505f9291925260205f20905f915b8183106138505750509060206134ae928201015f61381b565b6020919350806001915483858801015201910190918392613837565b9050602092506134ae94915060ff191682840152151560051b8201015f61381b565b5f5160206147af5f395f51905f52546138a6816134cf565b15613aca5781825f9372184f03e93ff9f4daa797ed6e38ed64bf6a1f0160401b811015613aa4575b50806d04ee2d6d415b85acef8100000000600a921015613a89575b662386f26fc10000811015613a75575b6305f5e100811015613a64575b612710811015613a55575b6064811015613a47575b1015613a3d575b6001830190600a602161394d61393785613442565b946139456040519687613421565b808652613442565b602085019690601f19013688378401015b5f1901916f181899199a1a9b1b9c1cb0b131b232b360811b8282061a835304801561398c57600a909161395e565b50506040519283915f9061399f856134cf565b9460018116908115613a1d57506001146139d0575b6134ae9450518092825e015f815203601f198101835282613421565b90505f5160206147af5f395f51905f525f5260205f20935f5b818110613a0157506134ae94508301602001906139b4565b85546020828901810191909152600190960195879550016139e9565b60209293506134ae96915060ff19168286015280151502840101906139b4565b9160010191613922565b60646002910494019361391b565b61271060049104940193613911565b6305f5e10060089104940193613906565b662386f26fc10000601091049401936138f9565b6d04ee2d6d415b85acef8100000000602091049401936138e9565b6040945072184f03e93ff9f4daa797ed6e38ed64bf6a1f0160401b90049050600a6138ce565b5050604051613ada602082613421565b5f815290565b613ae981613ff3565b906001600160a01b03821615613afd575090565b637e27328960e01b5f5260045260245ffd5b613b17614648565b6001600160a01b0381165f9081527fb7db2dd08fcb62d0c9e08c51941cae53c267786a0b75803fb7960902fc8ef97d602052604090205460ff1615613b595750565b63e2517d3f60e01b5f5260018060a01b03166004525f60245260445ffd5b613b7f614648565b6001600160a01b0381165f9081527f31058941e1e7e2206d669e73d9d8ec62b5a5d91fe10b4e31bec209835d52156f602052604090205460ff1615613bc15750565b63e2517d3f60e01b5f9081526001600160a01b03919091166004527f7c58c52c6ee36b58d66053b60f9071543575bb40c49fb6188a64738ae98ca57b602452604490fd5b613c0d614648565b815f525f51602061486f5f395f51905f5260205260405f2060018060a01b0382165f5260205260ff60405f20541615613c44575050565b63e2517d3f60e01b5f5260018060a01b031660045260245260445ffd5b919291906001600160a01b03811615612cab576001600160a01b0390613c889085906140f8565b169081613ca25783637e27328960e01b5f5260045260245ffd5b919290916001600160a01b0316808303613cbb57505050565b6364283d7b60e01b5f5260045260245260445260645ffd5b60ff5f5160206148af5f395f51905f525416613ceb57565b63d93c066560e01b5f5260045ffd5b6001600160a01b0381165f9081527fb7db2dd08fcb62d0c9e08c51941cae53c267786a0b75803fb7960902fc8ef97d602052604090205460ff16613db7576001600160a01b038181165f9081527fb7db2dd08fcb62d0c9e08c51941cae53c267786a0b75803fb7960902fc8ef97d60205260409020805460ff19166001179055613d82614648565b16906001600160a01b03165f7f2f8788117e7eff1d82e926ec794901d17c78024a50270940304540a733656f0d8180a4600190565b505f90565b6001600160a01b0381165f9081527f31058941e1e7e2206d669e73d9d8ec62b5a5d91fe10b4e31bec209835d52156f602052604090205460ff16613db7576001600160a01b038181165f9081527f31058941e1e7e2206d669e73d9d8ec62b5a5d91fe10b4e31bec209835d52156f60205260409020805460ff19166001179055613e44614648565b16906001600160a01b03167f7c58c52c6ee36b58d66053b60f9071543575bb40c49fb6188a64738ae98ca57b7f2f8788117e7eff1d82e926ec794901d17c78024a50270940304540a733656f0d5f80a4600190565b5f8181525f51602061486f5f395f51905f52602090815260408083206001600160a01b038616845290915290205460ff16613f44575f8181525f51602061486f5f395f51905f52602090815260408083206001600160a01b0386811685529252909120805460ff19166001179055613f0f614648565b16916001600160a01b0316907f2f8788117e7eff1d82e926ec794901d17c78024a50270940304540a733656f0d5f80a4600190565b50505f90565b5f8181525f51602061486f5f395f51905f52602090815260408083206001600160a01b038616845290915290205460ff1615613f44575f8181525f51602061486f5f395f51905f52602090815260408083206001600160a01b0386811685529252909120805460ff19169055613fbe614648565b16916001600160a01b0316907ff6391f5c32d9c69d2a47ea670b442974b53935d1edc7fd64eb21e047a839171b5f80a4600190565b5f9081527f80bb2b638cc20bc4d0a60d66940f3ab4a00c1d7b313497ca82fb0b4ab007930260205260409020546001600160a01b031690565b6001600160a01b039091168015159283614047575b50505090565b6001600160a01b038316821493509091831561409e575b508215614070575b50505f8080614041565b5f9081525f5160206148cf5f395f51905f5260205260408120546001600160a01b0316909114915080614066565b6140a99193506135f1565b815f5260205260ff60405f205416915f61405e565b81519190604183036140ee576140e79250602082015190606060408401519301515f1a906146cc565b9192909190565b50505f9160029190565b815f525f51602061474f5f395f51905f5260205260405f2060015f5260205260405f206001600160601b0360a01b8154169055614133613cd3565b61413c82613ff3565b916001600160a01b03831680159290831561447f575b6001600160a01b03821693841590811561446a575b845f527f80bb2b638cc20bc4d0a60d66940f3ab4a00c1d7b313497ca82fb0b4ab007930260205260405f20866001600160601b0360a01b8254161790558486847fddf252ad1be2c89b69c2b068fc378daa952ba7f163c4a11628f55a4df523b3ef5f80a4156143aa575f51602061484f5f395f51905f5254845f525f5160206147cf5f395f51905f526020528060405f2055600160401b811015612ef75761423b6142258260018894015f51602061484f5f395f51905f5255613661565b819391549060031b91821b915f19901b19161790565b90555b1561433357505090505f51602061484f5f395f51905f52545f19810190811161431f57815f525f5160206147cf5f395f51905f5260205261428360405f205491613661565b90549060031b1c8061429761422584613661565b90555f525f5160206147cf5f395f51905f5260205260405f20555f525f5160206147cf5f395f51905f526020525f60408120555f51602061484f5f395f51905f5254801561430b575f19016142eb81613661565b8154905f199060031b1b191690555f51602061484f5f395f51905f525590565b634e487b7160e01b5f52603160045260245ffd5b634e487b7160e01b5f52601160045260245ffd5b830361433f5750505090565b614348906136fc565b5f1981019290831161431f575f527f645e039705490088daad89bae25049a34f4a9072d398537b1ab2425f24cbed0060205260405f20825f526020528060405f20555f525f51602061476f5f395f51905f5260205260405f20555f8080614041565b81851461423e576143ba866136fc565b845f525f51602061476f5f395f51905f5260205260405f205490835f527f645e039705490088daad89bae25049a34f4a9072d398537b1ab2425f24cbed0060205260405f2091818103614433575b50855f525f51602061476f5f395f51905f526020525f60408120555f526020525f604081205561423e565b815f528260205260405f2054815f52836020528060405f20555f525f51602061476f5f395f51905f5260205260405f20555f614408565b61447384613629565b60018154019055614167565b5f8381525f5160206148cf5f395f51905f526020526040902080546001600160a01b03191690556144af85613629565b80545f19019055614152565b90805f525f51602061474f5f395f51905f5260205260405f2060015f5260205260405f206001600160601b0360a01b81541690556144f7613cd3565b61450081613ff3565b926001600160a01b0381169082826145fc575b5050506001600160a01b03831680159290831561447f576001600160a01b03821693841590811561446a57845f527f80bb2b638cc20bc4d0a60d66940f3ab4a00c1d7b313497ca82fb0b4ab007930260205260405f20866001600160601b0360a01b8254161790558486847fddf252ad1be2c89b69c2b068fc378daa952ba7f163c4a11628f55a4df523b3ef5f80a4156143aa575f51602061484f5f395f51905f5254845f525f5160206147cf5f395f51905f526020528060405f2055600160401b811015612ef75761423b6142258260018894015f51602061484f5f395f51905f5255613661565b614606918661402c565b15614612578082614513565b6001600160a01b0384166146335750637e27328960e01b5f5260045260245ffd5b63177e802f60e01b5f5260045260245260445ffd5b337f00000000000000000000000000000000000000000000000000000000000000006001600160a01b03161480614696575b1561469257601319360136811161431f573560601c90565b3390565b50601436101561467a565b60ff5f51602061490f5f395f51905f525460401c16156146bd57565b631afcd79f60e31b5f5260045ffd5b91907f7fffffffffffffffffffffffffffffff5d576e7357a4501ddfe92f46681b20a08411614743579160209360809260ff5f9560405194855216868401526040830152606082015282805260015afa15612c82575f516001600160a01b0381161561473957905f905f90565b505f906001905f90565b5050505f916003919056fece11c990cebe29c3b1e73f2e04c7eebbd235d66b39e13c6f0bc9dcde9a868503645e039705490088daad89bae25049a34f4a9072d398537b1ab2425f24cbed0180bb2b638cc20bc4d0a60d66940f3ab4a00c1d7b313497ca82fb0b4ab0079300ce11c990cebe29c3b1e73f2e04c7eebbd235d66b39e13c6f0bc9dcde9a868509645e039705490088daad89bae25049a34f4a9072d398537b1ab2425f24cbed03ce11c990cebe29c3b1e73f2e04c7eebbd235d66b39e13c6f0bc9dcde9a868506ce11c990cebe29c3b1e73f2e04c7eebbd235d66b39e13c6f0bc9dcde9a8685052f1172752b4c027870f0c890ad9d16d3a4d3af09c120988bd8620ef750b124aa645e039705490088daad89bae25049a34f4a9072d398537b1ab2425f24cbed0202dd7bc7dec4dceedda775e58dd541e08a116c6c53815c0bd028192f7b626800ce11c990cebe29c3b1e73f2e04c7eebbd235d66b39e13c6f0bc9dcde9a868500cd5ed15c6e187e77e9aee88184c21f4f2182ab5827cb3b7e07fbedcd63f0330080bb2b638cc20bc4d0a60d66940f3ab4a00c1d7b313497ca82fb0b4ab0079304ce11c990cebe29c3b1e73f2e04c7eebbd235d66b39e13c6f0bc9dcde9a868507f0c57e16840df040f15088dc2f81fe391c3923bec73e23a9662efc9c229c6a00ce11c990cebe29c3b1e73f2e04c7eebbd235d66b39e13c6f0bc9dcde9a86850280bb2b638cc20bc4d0a60d66940f3ab4a00c1d7b313497ca82fb0b4ab0079301ce11c990cebe29c3b1e73f2e04c7eebbd235d66b39e13c6f0bc9dcde9a868501a26469706673582212204fe2511dfbb70056df7fd78966a040e8f2045ce8539da06a75c39bfadd4cafc864736f6c634300081c0033f0c57e16840df040f15088dc2f81fe391c3923bec73e23a9662efc9c229c6a00","linkReferences":{}},"methodIdentifiers":{"ArianeeSmartAssetStorageV0Location()":"d86c89cc","DEFAULT_ADMIN_ROLE()":"a217fddf","addTokenAccess(uint256,address,bool,uint256)":"b71c34d5","approve(address,uint256)":"095ea7b3","balanceOf(address)":"70a08231","canOperate(uint256,address)":"80a4edda","destroy(uint256)":"9d118770","getApproved(uint256)":"081812fc","getRoleAdmin(bytes32)":"248a9ca3","grantRole(bytes32,address)":"2f2ff15d","hasRole(bytes32,address)":"91d14854","hydrateToken(uint256,bytes32,string,address,uint256,bool,address,bool)":"5851cf1c","initialize(address,address,address)":"c0c53b8b","isAccessValid(uint256,bytes32,uint256,bytes)":"e54f6968","isApprovedForAll(address,address)":"e985e9c5","isRequestable(uint256)":"f421b0e9","isSoulbound(uint256)":"911ec470","isTrustedForwarder(address)":"572b6c05","issuerOf(uint256)":"a4e2ee11","name()":"06fdde03","ownerOf(uint256)":"6352211e","paused()":"5c975abb","recoverTokenToIssuer(uint256)":"b5aaa9d5","recoveryRequestOpen(uint256)":"63ad2b6a","renounceRole(bytes32,address)":"36568abe","requestToken(uint256,bytes32,bool,address,bytes)":"e261ed77","reserveToken(uint256,address)":"325cdebb","revokeRole(bytes32,address)":"d547741f","safeTransferFrom(address,address,uint256)":"42842e0e","safeTransferFrom(address,address,uint256,bytes)":"b88d4fde","setApprovalForAll(address,bool)":"a22cb465","setUriBase(string)":"27fc0cff","supportsInterface(bytes4)":"01ffc9a7","symbol()":"95d89b41","tokenByIndex(uint256)":"4f6ccce7","tokenCreation(uint256)":"5facb882","tokenHashedAccess(uint256,uint256)":"cc55578e","tokenImprint(uint256)":"70c31afc","tokenOfOwnerByIndex(address,uint256)":"2f745c59","tokenRecoveryDate(uint256)":"dde5c1c7","tokenURI(uint256)":"c87b56dd","totalSupply()":"18160ddd","transferFrom(address,address,uint256)":"23b872dd","trustedForwarder()":"7da0a877","updateRecoveryRequest(uint256,bool)":"f3fd8605","updateTokenURI(uint256,string)":"18e97fd1","validRecoveryRequest(uint256)":"1332f1b8"},"storageLayout":{"storage":[],"types":{}},"id":84}