{"abi":[{"type":"constructor","inputs":[{"name":"_trustedForwarder","type":"address","internalType":"address"}],"stateMutability":"nonpayable"},{"type":"function","name":"ArianeeStoreStorageV0Location","inputs":[],"outputs":[{"name":"","type":"bytes32","internalType":"bytes32"}],"stateMutability":"view"},{"type":"function","name":"DEFAULT_ADMIN_ROLE","inputs":[],"outputs":[{"name":"","type":"bytes32","internalType":"bytes32"}],"stateMutability":"view"},{"type":"function","name":"acceptEvent","inputs":[{"name":"_eventId","type":"uint256","internalType":"uint256"},{"name":"_rewardsReceiver","type":"address","internalType":"address"}],"outputs":[],"stateMutability":"nonpayable"},{"type":"function","name":"buyCredit","inputs":[{"name":"_creditType","type":"uint256","internalType":"uint256"},{"name":"_quantity","type":"uint256","internalType":"uint256"},{"name":"_to","type":"address","internalType":"address"}],"outputs":[],"stateMutability":"nonpayable"},{"type":"function","name":"createEvent","inputs":[{"name":"_eventId","type":"uint256","internalType":"uint256"},{"name":"_tokenId","type":"uint256","internalType":"uint256"},{"name":"_imprint","type":"bytes32","internalType":"bytes32"},{"name":"_uri","type":"string","internalType":"string"},{"name":"_rewardsReceiver","type":"address","internalType":"address"}],"outputs":[],"stateMutability":"nonpayable"},{"type":"function","name":"createMessage","inputs":[{"name":"_messageId","type":"uint256","internalType":"uint256"},{"name":"_tokenId","type":"uint256","internalType":"uint256"},{"name":"_imprint","type":"bytes32","internalType":"bytes32"},{"name":"_rewardsReceiver","type":"address","internalType":"address"}],"outputs":[],"stateMutability":"nonpayable"},{"type":"function","name":"creditPriceUSD","inputs":[{"name":"_creditType","type":"uint256","internalType":"uint256"}],"outputs":[{"name":"_creditPriceUSD","type":"uint256","internalType":"uint256"}],"stateMutability":"view"},{"type":"function","name":"dispatchRewardsAtFirstTransfer","inputs":[{"name":"_tokenId","type":"uint256","internalType":"uint256"},{"name":"_newOwner","type":"address","internalType":"address"}],"outputs":[],"stateMutability":"nonpayable"},{"type":"function","name":"getCreditPrice","inputs":[{"name":"_creditType","type":"uint256","internalType":"uint256"}],"outputs":[{"name":"","type":"uint256","internalType":"uint256"}],"stateMutability":"view"},{"type":"function","name":"getRoleAdmin","inputs":[{"name":"role","type":"bytes32","internalType":"bytes32"}],"outputs":[{"name":"","type":"bytes32","internalType":"bytes32"}],"stateMutability":"view"},{"type":"function","name":"grantRole","inputs":[{"name":"role","type":"bytes32","internalType":"bytes32"},{"name":"account","type":"address","internalType":"address"}],"outputs":[],"stateMutability":"nonpayable"},{"type":"function","name":"hasRole","inputs":[{"name":"role","type":"bytes32","internalType":"bytes32"},{"name":"account","type":"address","internalType":"address"}],"outputs":[{"name":"","type":"bool","internalType":"bool"}],"stateMutability":"view"},{"type":"function","name":"hydrateToken","inputs":[{"name":"_tokenId","type":"uint256","internalType":"uint256"},{"name":"_imprint","type":"bytes32","internalType":"bytes32"},{"name":"_uri","type":"string","internalType":"string"},{"name":"_initialKey","type":"address","internalType":"address"},{"name":"_tokenRecoveryTimestamp","type":"uint256","internalType":"uint256"},{"name":"_initialKeyIsRequestKey","type":"bool","internalType":"bool"},{"name":"_rewardsReceiver","type":"address","internalType":"address"},{"name":"_soulbound","type":"bool","internalType":"bool"}],"outputs":[],"stateMutability":"nonpayable"},{"type":"function","name":"initialize","inputs":[{"name":"_initialAdmin","type":"address","internalType":"address"},{"name":"_ariaAddress","type":"address","internalType":"address"},{"name":"_smartAssetAddress","type":"address","internalType":"address"},{"name":"_smartAssetUpdateAddress","type":"address","internalType":"address"},{"name":"_arianeeEventAddress","type":"address","internalType":"address"},{"name":"_arianeeMessageAddress","type":"address","internalType":"address"},{"name":"_creditHistoryAddress","type":"address","internalType":"address"},{"name":"_rewardsHistoryAddress","type":"address","internalType":"address"},{"name":"_ariaUSDExchange","type":"uint256","internalType":"uint256"},{"name":"_creditPricesUSD0","type":"uint256","internalType":"uint256"},{"name":"_creditPricesUSD1","type":"uint256","internalType":"uint256"},{"name":"_creditPricesUSD2","type":"uint256","internalType":"uint256"},{"name":"_creditPricesUSD3","type":"uint256","internalType":"uint256"}],"outputs":[],"stateMutability":"nonpayable"},{"type":"function","name":"isTrustedForwarder","inputs":[{"name":"forwarder","type":"address","internalType":"address"}],"outputs":[{"name":"","type":"bool","internalType":"bool"}],"stateMutability":"view"},{"type":"function","name":"paused","inputs":[],"outputs":[{"name":"","type":"bool","internalType":"bool"}],"stateMutability":"view"},{"type":"function","name":"percentOfDispatch","inputs":[{"name":"_actorIndex","type":"uint8","internalType":"uint8"}],"outputs":[{"name":"_percent","type":"uint8","internalType":"uint8"}],"stateMutability":"view"},{"type":"function","name":"readMessage","inputs":[{"name":"_messageId","type":"uint256","internalType":"uint256"},{"name":"_rewardsReceiver","type":"address","internalType":"address"}],"outputs":[],"stateMutability":"nonpayable"},{"type":"function","name":"readUpdateSmartAsset","inputs":[{"name":"_tokenId","type":"uint256","internalType":"uint256"},{"name":"_rewardsReceiver","type":"address","internalType":"address"}],"outputs":[],"stateMutability":"nonpayable"},{"type":"function","name":"refuseEvent","inputs":[{"name":"_eventId","type":"uint256","internalType":"uint256"},{"name":"_rewardsReceiver","type":"address","internalType":"address"}],"outputs":[],"stateMutability":"nonpayable"},{"type":"function","name":"renounceRole","inputs":[{"name":"role","type":"bytes32","internalType":"bytes32"},{"name":"callerConfirmation","type":"address","internalType":"address"}],"outputs":[],"stateMutability":"nonpayable"},{"type":"function","name":"requestToken","inputs":[{"name":"_tokenId","type":"uint256","internalType":"uint256"},{"name":"_hash","type":"bytes32","internalType":"bytes32"},{"name":"_keepCurrentAccess","type":"bool","internalType":"bool"},{"name":"_rewardsReceiver","type":"address","internalType":"address"},{"name":"_signature","type":"bytes","internalType":"bytes"},{"name":"_newOwner","type":"address","internalType":"address"}],"outputs":[],"stateMutability":"nonpayable"},{"type":"function","name":"requestToken","inputs":[{"name":"_tokenId","type":"uint256","internalType":"uint256"},{"name":"_hash","type":"bytes32","internalType":"bytes32"},{"name":"_keepCurrentAccess","type":"bool","internalType":"bool"},{"name":"_rewardsReceiver","type":"address","internalType":"address"},{"name":"_signature","type":"bytes","internalType":"bytes"}],"outputs":[],"stateMutability":"nonpayable"},{"type":"function","name":"reserveToken","inputs":[{"name":"_tokenId","type":"uint256","internalType":"uint256"},{"name":"_to","type":"address","internalType":"address"}],"outputs":[],"stateMutability":"nonpayable"},{"type":"function","name":"revokeRole","inputs":[{"name":"role","type":"bytes32","internalType":"bytes32"},{"name":"account","type":"address","internalType":"address"}],"outputs":[],"stateMutability":"nonpayable"},{"type":"function","name":"setAriaUSDExchange","inputs":[{"name":"_ariaUSDExchange","type":"uint256","internalType":"uint256"}],"outputs":[],"stateMutability":"nonpayable"},{"type":"function","name":"setArianeeProjectAddress","inputs":[{"name":"_arianeeProjectAddress","type":"address","internalType":"address"}],"outputs":[],"stateMutability":"nonpayable"},{"type":"function","name":"setAuthorizedExchangeAddress","inputs":[{"name":"_authorizedExchangeAddress","type":"address","internalType":"address"}],"outputs":[],"stateMutability":"nonpayable"},{"type":"function","name":"setCreditPrice","inputs":[{"name":"_creditType","type":"uint256","internalType":"uint256"},{"name":"_price","type":"uint256","internalType":"uint256"}],"outputs":[],"stateMutability":"nonpayable"},{"type":"function","name":"setDispatchPercent","inputs":[{"name":"_percentInfra","type":"uint8","internalType":"uint8"},{"name":"_percentBrandsProvider","type":"uint8","internalType":"uint8"},{"name":"_percentOwnerProvider","type":"uint8","internalType":"uint8"},{"name":"_arianeeProject","type":"uint8","internalType":"uint8"},{"name":"_smartAssetHolder","type":"uint8","internalType":"uint8"}],"outputs":[],"stateMutability":"nonpayable"},{"type":"function","name":"setProtocolInfraAddress","inputs":[{"name":"_protocolInfraAddress","type":"address","internalType":"address"}],"outputs":[],"stateMutability":"nonpayable"},{"type":"function","name":"supportsInterface","inputs":[{"name":"interfaceId","type":"bytes4","internalType":"bytes4"}],"outputs":[{"name":"","type":"bool","internalType":"bool"}],"stateMutability":"view"},{"type":"function","name":"trustedForwarder","inputs":[],"outputs":[{"name":"","type":"address","internalType":"address"}],"stateMutability":"view"},{"type":"function","name":"updateSmartAsset","inputs":[{"name":"_tokenId","type":"uint256","internalType":"uint256"},{"name":"_imprint","type":"bytes32","internalType":"bytes32"},{"name":"_rewardsReceiver","type":"address","internalType":"address"}],"outputs":[],"stateMutability":"nonpayable"},{"type":"function","name":"withdrawAll","inputs":[{"name":"withdrawAddress","type":"address","internalType":"address"},{"name":"tokenAddresses","type":"address[]","internalType":"address[]"}],"outputs":[],"stateMutability":"nonpayable"},{"type":"event","name":"CreditBought","inputs":[{"name":"buyer","type":"address","indexed":true,"internalType":"address"},{"name":"_receiver","type":"address","indexed":true,"internalType":"address"},{"name":"_creditType","type":"uint256","indexed":true,"internalType":"uint256"},{"name":"quantity","type":"uint256","indexed":false,"internalType":"uint256"}],"anonymous":false},{"type":"event","name":"CreditSpended","inputs":[{"name":"_type","type":"uint256","indexed":true,"internalType":"uint256"},{"name":"_quantity","type":"uint256","indexed":false,"internalType":"uint256"}],"anonymous":false},{"type":"event","name":"Initialized","inputs":[{"name":"version","type":"uint64","indexed":false,"internalType":"uint64"}],"anonymous":false},{"type":"event","name":"NewAriaUSDExchange","inputs":[{"name":"_ariaUSDExchange","type":"uint256","indexed":false,"internalType":"uint256"}],"anonymous":false},{"type":"event","name":"NewCreditPrice","inputs":[{"name":"_creditType","type":"uint256","indexed":true,"internalType":"uint256"},{"name":"_price","type":"uint256","indexed":false,"internalType":"uint256"}],"anonymous":false},{"type":"event","name":"NewDispatchPercent","inputs":[{"name":"_percentInfra","type":"uint8","indexed":false,"internalType":"uint8"},{"name":"_percentBrandsProvider","type":"uint8","indexed":false,"internalType":"uint8"},{"name":"_percentOwnerProvider","type":"uint8","indexed":false,"internalType":"uint8"},{"name":"_arianeeProject","type":"uint8","indexed":false,"internalType":"uint8"},{"name":"_assetHolder","type":"uint8","indexed":false,"internalType":"uint8"}],"anonymous":false},{"type":"event","name":"Paused","inputs":[{"name":"account","type":"address","indexed":false,"internalType":"address"}],"anonymous":false},{"type":"event","name":"RoleAdminChanged","inputs":[{"name":"role","type":"bytes32","indexed":true,"internalType":"bytes32"},{"name":"previousAdminRole","type":"bytes32","indexed":true,"internalType":"bytes32"},{"name":"newAdminRole","type":"bytes32","indexed":true,"internalType":"bytes32"}],"anonymous":false},{"type":"event","name":"RoleGranted","inputs":[{"name":"role","type":"bytes32","indexed":true,"internalType":"bytes32"},{"name":"account","type":"address","indexed":true,"internalType":"address"},{"name":"sender","type":"address","indexed":true,"internalType":"address"}],"anonymous":false},{"type":"event","name":"RoleRevoked","inputs":[{"name":"role","type":"bytes32","indexed":true,"internalType":"bytes32"},{"name":"account","type":"address","indexed":true,"internalType":"address"},{"name":"sender","type":"address","indexed":true,"internalType":"address"}],"anonymous":false},{"type":"event","name":"SetAddress","inputs":[{"name":"_addressType","type":"string","indexed":false,"internalType":"string"},{"name":"_newAddress","type":"address","indexed":false,"internalType":"address"}],"anonymous":false},{"type":"event","name":"Unpaused","inputs":[{"name":"account","type":"address","indexed":false,"internalType":"address"}],"anonymous":false},{"type":"error","name":"AccessControlBadConfirmation","inputs":[]},{"type":"error","name":"AccessControlUnauthorizedAccount","inputs":[{"name":"account","type":"address","internalType":"address"},{"name":"neededRole","type":"bytes32","internalType":"bytes32"}]},{"type":"error","name":"EnforcedPause","inputs":[]},{"type":"error","name":"ExpectedPause","inputs":[]},{"type":"error","name":"InvalidInitialization","inputs":[]},{"type":"error","name":"NotInitializing","inputs":[]}],"bytecode":{"object":"0x60a03461011057601f61348638819003918201601f19168301916001600160401b038311848410176101145780849260209460405283398101031261011057516001600160a01b0381168103610110576080525f5160206134665f395f51905f525460ff8160401c16610101576002600160401b03196001600160401b038216016100ab575b60405161333d90816101298239608051818181610b08015281816113fc01526130910152f35b6001600160401b0319166001600160401b039081175f5160206134665f395f51905f52556040519081527fc7f505b2f371ae2175ee4913f4499e1f2633a7b5936321eed1cdaeb6115181d290602090a15f610085565b63f92ee8a960e01b5f5260045ffd5b5f80fd5b634e487b7160e01b5f52604160045260245ffdfe6080806040526004361015610012575f80fd5b5f905f3560e01c90816301ffc9a7146123f05750806302ce237d146123af57806308ea00b4146121bc57806313454142146120a05780631fa560f014611cd957806320ec4e7814611c5b578063248a9ca314611c1b5780632f2ff15d14611bd0578063325cdebb14611b5957806333ab273114611adb57806336568abe14611a865780633cb353bf14611a085780633d9288431461193657806341f451071461175d5780634e621bfb146116955780634f71473e14611430578063572b6c05146113db5780635851cf1c146110235780635c3dfa4d14610c345780635c975abb14610c055780636c60d17414610b375780637da0a87714610af25780638a9379a414610a4b57806391d14854146109f55780639452d600146108a5578063a217fddf14610889578063a5868f6e14610853578063ba5e06bc14610728578063cdcd488414610700578063d547741f146106ac578063e261ed7714610561578063e8cd7946146103c5578063f9405d6a1461038f578063fa4b78b91461020f5763fb55e7501461019f575f80fd5b3461020c57604036600319011261020c576004357f71b1f750acedc2820fab40f6e63fafee8132dd4748daa2e27a2d7471b3836fdc60206024356101e1612d47565b8385525f5160206131885f395f51905f52825280604086205561020261264e565b604051908152a280f35b80fd5b503461020c57606036600319011261020c57610229612453565b610231612627565b81602061023c61308e565b5f5160206132685f395f51905f525460405163d60b1e1960e01b81526001600160a01b0392831660048201526003602482015260016044820152938492606492849291165af190811561038457839161034e575b5060035f5160206131e85f395f51905f52602060405160018152a25f5160206131085f395f51905f525483906001600160a01b03166102cd61308e565b813b1561033f578291608483926040519485938492633d54eefd60e11b84526004356004850152602435602485015260018060a01b031660448401528860648401525af180156103435761032a575b505061032791612eb4565b80f35b8161033491612551565b61033f57825f61031c565b8280fd5b6040513d84823e3d90fd5b90506020813d60201161037c575b8161036960209383612551565b8101031261037857515f610290565b5f80fd5b3d915061035c565b6040513d85823e3d90fd5b503461020c57602036600319011261020c57604060209160043581525f5160206131c85f395f51905f5283522054604051908152f35b503461020c5760a036600319011261020c578060643567ffffffffffffffff811161055e576103f9829136906004016124ed565b6104049391936124ab565b9361040d612627565b602061041761308e565b5f5160206132685f395f51905f525460405163d60b1e1960e01b81526001600160a01b0392831660048201526002602482015260016044820152968792606492849291165af1938415610384578394610527575b5060025f5160206131e85f395f51905f52602060405160018152a25f5160206132885f395f51905f52546001600160a01b0316916104a761308e565b92803b15610523578492836104f3936040519687958694859363078a5cfb60e01b855260043560048601526024356024860152604435604486015260c0606486015260c48501916125d2565b608483018b90526001600160a01b0390911660a483015203925af180156103435761032a57505061032791612eb4565b8480fd5b925092506020823d602011610556575b8161054460209383612551565b8101031261037857849151925f61046b565b3d9150610537565b50fd5b503461020c5760a036600319011261020c578060043561057f61251b565b90610588612495565b9160843567ffffffffffffffff8111610523576105a99036906004016124ed565b9190936105b4612627565b5f5160206130e85f395f51905f52546001600160a01b0316803b15610688576040516304d936d560e31b8152600481018690526001600160a01b0392909216602483015286908290604490829084905af19081156106a157869161068c575b50505f5160206132e85f395f51905f52546001600160a01b03169061063661308e565b92823b1561068857869461066686926040519889978896879563e261ed7760e01b875260243590600488016125f2565b03925af18015610343576106775750f35b8161068191612551565b61020c5780f35b8680fd5b8161069691612551565b61052357845f610613565b6040513d88823e3d90fd5b503461020c57604036600319011261020c576106fc6004356106cc61247f565b906106f76106f2825f525f5160206132285f395f51905f52602052600160405f20015490565b612daf565b612e0b565b5080f35b503461020c578060031936011261020c5760206040515f5160206132085f395f51905f528152f35b503461020c5760c036600319011261020c578060043561074661251b565b9061074f612495565b60843567ffffffffffffffff81116105235761076f9036906004016124ed565b90936107796124c1565b92610782612627565b5f5160206130e85f395f51905f52546001600160a01b0316803b1561084f576040516304d936d560e31b8152600481018790526001600160a01b0392909216602483015287908290604490829084905af190811561084457879161082b575b50505f5160206132e85f395f51905f52546001600160a01b031691823b1561068857869461066686926040519889978896879563e261ed7760e01b875260243590600488016125f2565b8161083591612551565b61084057855f6107e1565b8580fd5b6040513d89823e3d90fd5b8780fd5b503461020c57602036600319011261020c57604060209160043581525f5160206131885f395f51905f5283522054604051908152f35b503461020c578060031936011261020c57602090604051908152f35b503461020c57608036600319011261020c576108bf612495565b6108c7612627565b8160206108d261308e565b5f5160206132685f395f51905f525460405163d60b1e1960e01b81526001600160a01b0392831660048201526001602482018190526044820152938492606492849291165af19081156103845783916109c3575b5060015f5160206131e85f395f51905f526020604051838152a25f5160206131285f395f51905f525483906001600160a01b031661096261308e565b813b1561033f57829160a483926040519485938492634f24b71560e01b845260043560048501526024356024850152604435604485015260018060a01b031660648401528860848401525af180156103435761032a57505061032791612eb4565b90506020813d6020116109ed575b816109de60209383612551565b8101031261037857515f610926565b3d91506109d1565b503461020c57604036600319011261020c576040610a1161247f565b9160043581525f5160206132285f395f51905f52602052209060018060a01b03165f52602052602060ff60405f2054166040519015158152f35b503461020c57602036600319011261020c577fb5fa77bd6bc3d862c73fa2474bfb96a0f76d38b622c54ff2a0188be82fb965116080610a88612469565b610a90612d47565b60018060a01b0316806001600160601b0360a01b5f5160206131a85f395f51905f525416175f5160206131a85f395f51905f52556040519060408252600d60408301526c70726f746f636f6c496e66726160981b60608301526020820152a180f35b503461020c578060031936011261020c576040517f00000000000000000000000000000000000000000000000000000000000000006001600160a01b03168152602090f35b503461020c57602036600319011261020c577fb5fa77bd6bc3d862c73fa2474bfb96a0f76d38b622c54ff2a0188be82fb965116080610b74612469565b610b7c612d47565b60018060a01b0316806001600160601b0360a01b7f9da96567ac42c7396efeaa2daf3b1adf0b1b9d0a94efe4dcb2fbaac986f0ce0d5416177f9da96567ac42c7396efeaa2daf3b1adf0b1b9d0a94efe4dcb2fbaac986f0ce0d556040519060408252600e60408301526d185c9a585b9959541c9bda9958dd60921b60608301526020820152a180f35b503461020c578060031936011261020c57602060ff5f5160206132485f395f51905f5254166040519015158152f35b503461020c57604036600319011261020c57600435610c5161247f565b610c5961308e565b5f5160206132e85f395f51905f52546001600160a01b03908116911603610f9f575f5160206130e85f395f51905f525460405163075a295360e11b815260048101849052919084906001600160a01b0316602084602481845afa938415610343578294610f68575b5060405163027ef04b60e51b81526004810186905294602086602481855afa958615610384578396610f47575b50604051631e61dec960e21b81526004810182905295602087602481865afa968715610eb9578497610f16575b506001600160a01b03871615610edd575b50813b1561033f5782916024839260405194859384926392c813d360e01b845260048401525af1801561034357610ec4575b50506020610ddb93606460018060a01b035f5160206132085f395f51905f525416940493600287525f5160206131685f395f51905f528352610da760ff6040892054168661252a565b60405163a9059cbb60e01b81526001600160a01b039093166004840152602483015290948591908290889082906044820190565b03925af1918215610eb957610e6493602093610e9e575b50610e3060018060a01b035f5160206132085f395f51905f52541691600487525f5160206131685f395f51905f52855260ff6040882054169061252a565b60405163a9059cbb60e01b81526001600160a01b039093166004840152602483015290928391908290869082906044820190565b03925af1801561034357610e76575080f35b6106fc9060203d602011610e97575b610e8f8183612551565b810190612587565b503d610e85565b610eb490843d8611610e9757610e8f8183612551565b610df2565b6040513d86823e3d90fd5b81610ece91612551565b610ed957835f610d5e565b8380fd5b9095506001600160a01b03811615610ef757945b5f610d2c565b505f5160206131a85f395f51905f52546001600160a01b031694610ef1565b610f3991975060203d602011610f40575b610f318183612551565b8101906125b3565b955f610d1b565b503d610f27565b610f6191965060203d602011610f4057610f318183612551565b945f610cee565b915092506020813d602011610f97575b81610f8560209383612551565b8101031261037857849051925f610cc1565b3d9150610f78565b60405162461bcd60e51b815260206004820152605060248201527f417269616e656553746f72653a20546869732066756e6374696f6e2063616e2060448201527f6f6e6c792062652063616c6c65642062792074686520417269616e6565536d6160648201526f1c9d105cdcd95d0818dbdb9d1c9858dd60821b608482015260a490fd5b503461020c5761010036600319011261020c578060043560443567ffffffffffffffff81116112cf5761105a9036906004016124ed565b611065929192612495565b9060a435938415158095036108405761107c6124d7565b9460e4359283151580940361084f57611093612627565b5f5160206132e85f395f51905f52546040516331a9108f60e11b81526004810188905290602090829060249082908d906001600160a01b03165af190816113be575b506113b757875b1561132c575b8760206110ed61308e565b5f5160206132685f395f51905f525460405163d60b1e1960e01b81526001600160a01b0392831660048201526024810185905260016044820152938492606492849291165af19081156112ec5789916112f7575b50885f5160206131e85f395f51905f52602060405160018152a26111658189612eb4565b5f5160206130e85f395f51905f52546001600160a01b031690813b156112d357899160448392604051948593849263e839551360e01b84528d600485015260248401525af19081156112ec5789916112d7575b50505f5160206132e85f395f51905f52546001600160a01b0316916111db61308e565b90833b156112d357611221968a9687938a936040519a8b998a98899763161473c760e21b89526004890152602435602489015261010060448901526101048801916125d2565b6001600160a01b039485166064870152608480359087015260a4860191909152921660c484015260e483015203925af1908115610eb95784916112ba575b50505f5160206130e85f395f51905f52546001600160a01b031691823b156112b55760405163fad29fd760e01b815260048101929092526001600160a01b03166024820152908290829081838160448101610666565b505050fd5b816112c491612551565b6112cf57825f61125f565b5050fd5b8980fd5b816112e191612551565b61084f57875f6111b8565b6040513d8b823e3d90fd5b9850506020883d602011611324575b8161131360209383612551565b81010312610378578897515f611141565b3d9150611306565b61133461308e565b61133c612627565b5f5160206132e85f395f51905f52546001600160a01b0316803b156112d35760405163325cdebb60e01b8152600481018990526001600160a01b0392909216602483015289908290604490829084905af19081156112ec5789916113a2575b50506110e2565b816113ac91612551565b61084f57875f61139b565b60016110dc565b6113d69060203d602011610f4057610f318183612551565b6110d5565b503461020c57602036600319011261020c5760206113f7612469565b6040517f00000000000000000000000000000000000000000000000000000000000000006001600160a01b039081169216919091148152f35b503461020c57604036600319011261020c5761144a612469565b906024359167ffffffffffffffff831161169157366023840112156116915782600401359267ffffffffffffffff841161033f573660248560051b8301011161033f57611495612d47565b8247806115f0575b505b848110156115ec576024600582901b830101356001600160a01b03811690819003610523576040516370a0823160e01b8152306004820152602081602481855afa9081156106a1579086929183916115b8575b5080611504575b50505060010161149f565b60405163a9059cbb60e01b81526001600160a01b038716600482015260248101919091529160209183916044918391905af19081156115ad57859161158f575b501561155257835f806114f9565b60405162461bcd60e51b8152602060048201526015602482015274151bdad95b881d1c985b9cd9995c8819985a5b1959605a1b6044820152606490fd5b6115a7915060203d8111610e9757610e8f8183612551565b5f611544565b6040513d87823e3d90fd5b9250506020823d82116115e4575b816115d360209383612551565b81010312610378578591515f6114f2565b3d91506115c6565b8380f35b81808092865af13d1561168c573d67ffffffffffffffff81116116785760405190611625601f8201601f191660200183612551565b81528460203d92013e5b1561163b57825f61149d565b60405162461bcd60e51b8152602060048201526015602482015274115d1a195c881d1c985b9cd9995c8819985a5b1959605a1b6044820152606490fd5b634e487b7160e01b85526041600452602485fd5b61162f565b5080fd5b503461020c57604036600319011261020c57806116b061247f565b5f5160206132885f395f51905f525460209061170b906001600160a01b03166116d761308e565b60405163320fb62360e21b815260048035908201526001600160a01b03909116602482015294859283919082906044820190565b03925af1908115610384578391611727575b6103279250612bd0565b90506020823d602011611755575b8161174260209383612551565b810103126103785761032791519061171d565b3d9150611735565b503461020c5760a036600319011261020c57611777612443565b6024359060ff821690818303610ed9576044359260ff841693848103610840576064359060ff82169182810361084f576084359360ff8516948581036112d3576117d860ff936117d86064966117d86117dd966117d2612d47565b8c61259f565b61259f565b16036118da577f24f15f956103bdaece452475d6b89351ed807e7f772bfa25d0a702d0aef717359460a0948780525f5160206131685f395f51905f526020526040882060ff861660ff19825416179055600188525f5160206131685f395f51905f52602052604088208160ff19825416179055600288525f5160206131685f395f51905f52602052604088208260ff19825416179055600388525f5160206131685f395f51905f52602052604088208360ff19825416179055600488525f5160206131685f395f51905f52602052604088208460ff1982541617905560ff604051951685526020850152604084015260608301526080820152a180f35b60405162461bcd60e51b815260206004820152602e60248201527f417269616e656553746f72653a2044697370617463682070657263656e74206d60448201526d07573742073756d20746f203130360941b6064820152608490fd5b503461020c57602036600319011261020c577fb5fa77bd6bc3d862c73fa2474bfb96a0f76d38b622c54ff2a0188be82fb965116080611973612469565b61197b612d47565b60018060a01b0316806001600160601b0360a01b7f9da96567ac42c7396efeaa2daf3b1adf0b1b9d0a94efe4dcb2fbaac986f0ce0b5416177f9da96567ac42c7396efeaa2daf3b1adf0b1b9d0a94efe4dcb2fbaac986f0ce0b5560405190604082526012604083015271617574686f72697a656445786368616e676560701b60608301526020820152a180f35b503461020c57604036600319011261020c5780611a2361247f565b611a2b612627565b5f5160206132885f395f51905f525460209061170b906001600160a01b0316611a5261308e565b60405163285674e160e11b815260048035908201526001600160a01b03909116602482015294859283919082906044820190565b503461020c57604036600319011261020c57611aa061247f565b6001600160a01b03611ab061308e565b166001600160a01b03821603611acc576106fc90600435612e0b565b63334bd91960e11b8252600482fd5b503461020c57604036600319011261020c5780611af661247f565b611afe612627565b5f5160206131285f395f51905f525460209061170b906001600160a01b0316611b2561308e565b6040516333ab273160e01b815260048035908201526001600160a01b03909116602482015294859283919082906044820190565b503461020c57604036600319011261020c5780611b7461247f565b611b7c612627565b5f5160206132e85f395f51905f52546001600160a01b0316803b156112cf5760405163325cdebb60e01b815260048035908201526001600160a01b0390921660248301528290829081838160448101610666565b503461020c57604036600319011261020c576106fc600435611bf061247f565b90611c166106f2825f525f5160206132285f395f51905f52602052600160405f20015490565b612b1f565b503461020c57602036600319011261020c576020611c536004355f525f5160206132285f395f51905f52602052600160405f20015490565b604051908152f35b503461020c57604036600319011261020c5780611c7661247f565b611c7e612627565b5f5160206131085f395f51905f525460209061170b906001600160a01b0316611ca561308e565b60405163041d89cf60e31b815260048035908201526001600160a01b03909116602482015294859283919082906044820190565b503461020c576101a036600319011261020c57611cf4612469565b611cfc61247f565b611d04612453565b611d0c612495565b611d146124ab565b611d1c6124c1565b91611d256124d7565b9360e4359560018060a01b03871680970361209c575f5160206132a85f395f51905f52549760ff8960401c16159867ffffffffffffffff811680159081612094575b600114908161208a575b159081612081575b506120725767ffffffffffffffff1981166001175f5160206132a85f395f51905f525589612046575b5060ff5f5160206132a85f395f51905f525460401c161561203757611de89060ff195f5160206132485f395f51905f5254165f5160206132485f395f51905f5255612a5d565b5060018060a01b03166001600160601b0360a01b5f5160206132085f395f51905f525416175f5160206132085f395f51905f525560018060a01b03166001600160601b0360a01b5f5160206132e85f395f51905f525416175f5160206132e85f395f51905f525560018060a01b03166001600160601b0360a01b5f5160206131085f395f51905f525416175f5160206131085f395f51905f525560018060a01b03166001600160601b0360a01b5f5160206132885f395f51905f525416175f5160206132885f395f51905f525560018060a01b03166001600160601b0360a01b5f5160206131285f395f51905f525416175f5160206131285f395f51905f525560018060a01b03166001600160601b0360a01b5f5160206132685f395f51905f525416175f5160206132685f395f51905f52556001600160601b0360a01b5f5160206130e85f395f51905f525416175f5160206130e85f395f51905f5255610104355f5160206131485f395f51905f52558180525f5160206131885f395f51905f52602052610124356040832055600182525f5160206131885f395f51905f52602052610144356040832055600282525f5160206131885f395f51905f52602052610164356040832055600382525f5160206131885f395f51905f52602052610184356040832055611fd861264e565b611fdf5780f35b68ff0000000000000000195f5160206132a85f395f51905f5254165f5160206132a85f395f51905f52557fc7f505b2f371ae2175ee4913f4499e1f2633a7b5936321eed1cdaeb6115181d2602060405160018152a180f35b631afcd79f60e31b8a5260048afd5b68ffffffffffffffffff191668010000000000000001175f5160206132a85f395f51905f52555f611da2565b63f92ee8a960e01b8b5260048bfd5b9050155f611d79565b303b159150611d71565b8b9150611d67565b8880fd5b503461020c57602036600319011261020c576004356120bd61308e565b7f9da96567ac42c7396efeaa2daf3b1adf0b1b9d0a94efe4dcb2fbaac986f0ce0b546001600160a01b03908116911603612137576020817ff9aed9ae30ea401e16b1e0b0b3f113790b9263da6d646a31bf444b8812337ada925f5160206131485f395f51905f525561212d61264e565b604051908152a180f35b60405162461bcd60e51b815260206004820152605160248201527f417269616e656553746f72653a20546869732066756e6374696f6e2063616e2060448201527f6f6e6c792062652063616c6c65642062792074686520617574686f72697a65646064820152702065786368616e6765206164647265737360781b608482015260a490fd5b5034610378576060366003190112610378576004356024356121dc612453565b906121e5612627565b825f525f5160206131c85f395f51905f5260205261220760405f20548261252a565b5f5160206132085f395f51905f52546001600160a01b031690602090606461222d61308e565b5f60405195869485936323b872dd60e01b855260018060a01b0316600485015230602485015260448401525af1908115612340575f91612390575b501561234b5760018060a01b035f5160206132685f395f51905f525416835f525f5160206131c85f395f51905f5260205260405f205492813b15610378575f916084839260405194859384926304beb95f60e51b845260018060a01b03169889600485015260248401528760448401528960648401525af180156123405761232b575b507f1a2b36d1f899fa7a6307f531b0b965a939021bf263953fcd3ab463174af649bf60206001600160a01b0361231f61308e565b1692604051908152a480f35b6123389194505f90612551565b5f925f6122eb565b6040513d5f823e3d90fd5b60405162461bcd60e51b815260206004820152601d60248201527f417269616e656553746f72653a205472616e73666572206661696c65640000006044820152606490fd5b6123a9915060203d602011610e9757610e8f8183612551565b5f612268565b346103785760203660031901126103785760ff6123ca612443565b165f525f5160206131685f395f51905f52602052602060ff60405f205416604051908152f35b34610378576020366003190112610378576004359063ffffffff60e01b821680920361037857602091637965db0b60e01b8114908115612432575b5015158152f35b6301ffc9a760e01b1490508361242b565b6004359060ff8216820361037857565b604435906001600160a01b038216820361037857565b600435906001600160a01b038216820361037857565b602435906001600160a01b038216820361037857565b606435906001600160a01b038216820361037857565b608435906001600160a01b038216820361037857565b60a435906001600160a01b038216820361037857565b60c435906001600160a01b038216820361037857565b9181601f840112156103785782359167ffffffffffffffff8311610378576020838186019501011161037857565b60443590811515820361037857565b8181029291811591840414171561253d57565b634e487b7160e01b5f52601160045260245ffd5b90601f8019910116810190811067ffffffffffffffff82111761257357604052565b634e487b7160e01b5f52604160045260245ffd5b90816020910312610378575180151581036103785790565b9060ff8091169116019060ff821161253d57565b9081602091031261037857516001600160a01b03811681036103785790565b908060209392818452848401375f828201840152601f01601f1916010190565b919260a0936126249795928452602084015215156040830152600180841b0316606082015281608082015201916125d2565b90565b60ff5f5160206132485f395f51905f52541661263f57565b63d93c066560e01b5f5260045ffd5b5f80525f5160206131885f395f51905f5260205260405f205460646126825f5160206131485f395f51905f5254809361252a565b106129fa5760015f525f5160206131885f395f51905f5260205260646126ac8260405f205461252a565b106129975760025f525f5160206131885f395f51905f5260205260646126d68260405f205461252a565b106129345760035f525f5160206131885f395f51905f5260205260646127008260405f205461252a565b106128d1575f80525f5160206131885f395f51905f526020527ffc7612e260c318ff58f4a3043a94fcdeac6c5a4b348249f1c9b6190b31d502de54612745919061252a565b7f977483edec6807d042210d020f2ce6c7aa5fce5d85b060f4a0e81832858d577f5560015f525f5160206131885f395f51905f526020527f475412aeeaf09a52e4c2ae868ebeee89f254d97106eedc4bb97098f84e329f5c545f5160206131485f395f51905f52546127b69161252a565b7f6f887b0b97eee73eda9feb7c25a1e9b8d9f21d73066ad49c52312337bb9306735560025f525f5160206131885f395f51905f526020527f5d6ed5d62a1d15c8d2cc4caa37af4f688d5b97121a38e83cec16bdfcbb0ab3a5545f5160206131485f395f51905f52546128279161252a565b7f54c1238eb270879b6c0c2386f633c134fd320189975eea97c45f0e2c3fd4f9ef5560035f525f5160206131885f395f51905f526020527f08f74436399f2a4b723d6dede5ddd41f1515c356382e6163efa289f8095d8d64545f5160206131485f395f51905f52546128989161252a565b60035f525f5160206131c85f395f51905f526020527fc75aeafb49e0db43acc26d988de0d98cea34b3d8f6e91b65911d9da0e6a99e7c55565b60405162461bcd60e51b815260206004820152604260248201527f417269616e656553746f72653a20606372656469745072696365735553445b3360448201525f5160206132c85f395f51905f52606482015261030360f41b608482015260a490fd5b60405162461bcd60e51b815260206004820152604260248201527f417269616e656553746f72653a20606372656469745072696365735553445b3260448201525f5160206132c85f395f51905f52606482015261030360f41b608482015260a490fd5b60405162461bcd60e51b815260206004820152604260248201527f417269616e656553746f72653a20606372656469745072696365735553445b3160448201525f5160206132c85f395f51905f52606482015261030360f41b608482015260a490fd5b60405162461bcd60e51b815260206004820152604260248201527f417269616e656553746f72653a20606372656469745072696365735553445b3060448201525f5160206132c85f395f51905f52606482015261030360f41b608482015260a490fd5b6001600160a01b0381165f9081527fb7db2dd08fcb62d0c9e08c51941cae53c267786a0b75803fb7960902fc8ef97d602052604090205460ff16612b1a576001600160a01b038181165f9081527fb7db2dd08fcb62d0c9e08c51941cae53c267786a0b75803fb7960902fc8ef97d60205260409020805460ff19166001179055612ae561308e565b16906001600160a01b03165f7f2f8788117e7eff1d82e926ec794901d17c78024a50270940304540a733656f0d8180a4600190565b505f90565b5f8181525f5160206132285f395f51905f52602090815260408083206001600160a01b038616845290915290205460ff16612bca575f8181525f5160206132285f395f51905f52602090815260408083206001600160a01b0386811685529252909120805460ff19166001179055612b9561308e565b16916001600160a01b0316907f2f8788117e7eff1d82e926ec794901d17c78024a50270940304540a733656f0d5f80a4600190565b50505f90565b5f5160206132085f395f51905f525460025f525f5160206131685f395f51905f5260209081527fe2dd2d03f29d40f9dc619a42e4964bafc50525993448b05ef33645cc82410f5254612c6e94606490049391926001600160a01b031690612c3a9060ff168561252a565b60405163a9059cbb60e01b81526001600160a01b0390931660048401526024830152909384919082905f9082906044820190565b03925af190811561234057612d0092602092612d2c575b505f5160206132085f395f51905f52546001600160a01b0316612ccc612ca961308e565b9260045f525f5160206131685f395f51905f52855260ff60405f2054169061252a565b60405163a9059cbb60e01b81526001600160a01b0390931660048401526024830152909283919082905f9082906044820190565b03925af1801561234057612d115750565b612d299060203d602011610e9757610e8f8183612551565b50565b612d4290833d8511610e9757610e8f8183612551565b612c85565b612d4f61308e565b6001600160a01b0381165f9081527fb7db2dd08fcb62d0c9e08c51941cae53c267786a0b75803fb7960902fc8ef97d602052604090205460ff1615612d915750565b63e2517d3f60e01b5f5260018060a01b03166004525f60245260445ffd5b612db761308e565b815f525f5160206132285f395f51905f5260205260405f2060018060a01b0382165f5260205260ff60405f20541615612dee575050565b63e2517d3f60e01b5f5260018060a01b031660045260245260445ffd5b5f8181525f5160206132285f395f51905f52602090815260408083206001600160a01b038616845290915290205460ff1615612bca575f8181525f5160206132285f395f51905f52602090815260408083206001600160a01b0386811685529252909120805460ff19169055612e7f61308e565b16916001600160a01b0316907ff6391f5c32d9c69d2a47ea670b442974b53935d1edc7fd64eb21e047a839171b5f80a4600190565b5f5160206132085f395f51905f52545f5160206131a85f395f51905f52545f80525f5160206131685f395f51905f5260209081527f0a2a504623c95b1bf98ae07e5bbb23015f61792c6733cc410e19ba3c5fdac6f754612f659560649004949391926001600160a01b03908116921690612f319060ff168661252a565b60405163a9059cbb60e01b81526001600160a01b0390931660048401526024830152909485919082905f9082906044820190565b03925af19283156123405761300193613071575b505f5160206132085f395f51905f52547f9da96567ac42c7396efeaa2daf3b1adf0b1b9d0a94efe4dcb2fbaac986f0ce0d5460035f525f5160206131685f395f51905f5260209081527fda970dccffa0346ead36e28c113a6258562a8cdb4f562bc2f3961e32036bc6a05490926001600160a01b03928316921690612f319060ff168661252a565b03925af191821561234057612d0093602093613056575b50612ccc60018060a01b035f5160206132085f395f51905f5254169160015f525f5160206131685f395f51905f52855260ff60405f2054169061252a565b61306c90843d8611610e9757610e8f8183612551565b613018565b6130899060203d602011610e9757610e8f8183612551565b612f79565b337f00000000000000000000000000000000000000000000000000000000000000006001600160a01b031614806130dc575b156130d857601319360136811161253d573560601c90565b3390565b5060143610156130c056fe9da96567ac42c7396efeaa2daf3b1adf0b1b9d0a94efe4dcb2fbaac986f0ce069da96567ac42c7396efeaa2daf3b1adf0b1b9d0a94efe4dcb2fbaac986f0ce029da96567ac42c7396efeaa2daf3b1adf0b1b9d0a94efe4dcb2fbaac986f0ce049da96567ac42c7396efeaa2daf3b1adf0b1b9d0a94efe4dcb2fbaac986f0ce099da96567ac42c7396efeaa2daf3b1adf0b1b9d0a94efe4dcb2fbaac986f0ce0a9da96567ac42c7396efeaa2daf3b1adf0b1b9d0a94efe4dcb2fbaac986f0ce079da96567ac42c7396efeaa2daf3b1adf0b1b9d0a94efe4dcb2fbaac986f0ce0c9da96567ac42c7396efeaa2daf3b1adf0b1b9d0a94efe4dcb2fbaac986f0ce0858cdf94a6ca56387bf662b90bd43503d0412c7c4a5b33584cc2e6c3834ac61309da96567ac42c7396efeaa2daf3b1adf0b1b9d0a94efe4dcb2fbaac986f0ce0002dd7bc7dec4dceedda775e58dd541e08a116c6c53815c0bd028192f7b626800cd5ed15c6e187e77e9aee88184c21f4f2182ab5827cb3b7e07fbedcd63f033009da96567ac42c7396efeaa2daf3b1adf0b1b9d0a94efe4dcb2fbaac986f0ce059da96567ac42c7396efeaa2daf3b1adf0b1b9d0a94efe4dcb2fbaac986f0ce03f0c57e16840df040f15088dc2f81fe391c3923bec73e23a9662efc9c229c6a005d202a206172696155534445786368616e676560206d757374206265203e20319da96567ac42c7396efeaa2daf3b1adf0b1b9d0a94efe4dcb2fbaac986f0ce01a2646970667358221220546ca074d490aa41449c5261542c21150d11c00a17310287671bf07eb328701264736f6c634300081c0033f0c57e16840df040f15088dc2f81fe391c3923bec73e23a9662efc9c229c6a00","linkReferences":{}},"methodIdentifiers":{"ArianeeStoreStorageV0Location()":"cdcd4884","DEFAULT_ADMIN_ROLE()":"a217fddf","acceptEvent(uint256,address)":"3cb353bf","buyCredit(uint256,uint256,address)":"08ea00b4","createEvent(uint256,uint256,bytes32,string,address)":"e8cd7946","createMessage(uint256,uint256,bytes32,address)":"9452d600","creditPriceUSD(uint256)":"a5868f6e","dispatchRewardsAtFirstTransfer(uint256,address)":"5c3dfa4d","getCreditPrice(uint256)":"f9405d6a","getRoleAdmin(bytes32)":"248a9ca3","grantRole(bytes32,address)":"2f2ff15d","hasRole(bytes32,address)":"91d14854","hydrateToken(uint256,bytes32,string,address,uint256,bool,address,bool)":"5851cf1c","initialize(address,address,address,address,address,address,address,address,uint256,uint256,uint256,uint256,uint256)":"1fa560f0","isTrustedForwarder(address)":"572b6c05","paused()":"5c975abb","percentOfDispatch(uint8)":"02ce237d","readMessage(uint256,address)":"33ab2731","readUpdateSmartAsset(uint256,address)":"20ec4e78","refuseEvent(uint256,address)":"4e621bfb","renounceRole(bytes32,address)":"36568abe","requestToken(uint256,bytes32,bool,address,bytes)":"e261ed77","requestToken(uint256,bytes32,bool,address,bytes,address)":"ba5e06bc","reserveToken(uint256,address)":"325cdebb","revokeRole(bytes32,address)":"d547741f","setAriaUSDExchange(uint256)":"13454142","setArianeeProjectAddress(address)":"6c60d174","setAuthorizedExchangeAddress(address)":"3d928843","setCreditPrice(uint256,uint256)":"fb55e750","setDispatchPercent(uint8,uint8,uint8,uint8,uint8)":"41f45107","setProtocolInfraAddress(address)":"8a9379a4","supportsInterface(bytes4)":"01ffc9a7","trustedForwarder()":"7da0a877","updateSmartAsset(uint256,bytes32,address)":"fa4b78b9","withdrawAll(address,address[])":"4f71473e"},"storageLayout":{"storage":[],"types":{}},"id":88}