{"abi":[{"type":"constructor","inputs":[{"name":"_trustedForwarder","type":"address","internalType":"address"}],"stateMutability":"nonpayable"},{"type":"function","name":"ArianeeSmartAssetUpdateStorageV0Location","inputs":[],"outputs":[{"name":"","type":"bytes32","internalType":"bytes32"}],"stateMutability":"view"},{"type":"function","name":"DEFAULT_ADMIN_ROLE","inputs":[],"outputs":[{"name":"","type":"bytes32","internalType":"bytes32"}],"stateMutability":"view"},{"type":"function","name":"getImprint","inputs":[{"name":"_tokenId","type":"uint256","internalType":"uint256"}],"outputs":[{"name":"","type":"bytes32","internalType":"bytes32"}],"stateMutability":"view"},{"type":"function","name":"getRoleAdmin","inputs":[{"name":"role","type":"bytes32","internalType":"bytes32"}],"outputs":[{"name":"","type":"bytes32","internalType":"bytes32"}],"stateMutability":"view"},{"type":"function","name":"getUpdate","inputs":[{"name":"_tokenId","type":"uint256","internalType":"uint256"}],"outputs":[{"name":"","type":"bool","internalType":"bool"},{"name":"","type":"bytes32","internalType":"bytes32"},{"name":"","type":"bytes32","internalType":"bytes32"},{"name":"","type":"uint256","internalType":"uint256"}],"stateMutability":"view"},{"type":"function","name":"getUpdatedImprint","inputs":[{"name":"_tokenId","type":"uint256","internalType":"uint256"}],"outputs":[{"name":"","type":"bytes32","internalType":"bytes32"}],"stateMutability":"view"},{"type":"function","name":"grantRole","inputs":[{"name":"role","type":"bytes32","internalType":"bytes32"},{"name":"account","type":"address","internalType":"address"}],"outputs":[],"stateMutability":"nonpayable"},{"type":"function","name":"hasRole","inputs":[{"name":"role","type":"bytes32","internalType":"bytes32"},{"name":"account","type":"address","internalType":"address"}],"outputs":[{"name":"","type":"bool","internalType":"bool"}],"stateMutability":"view"},{"type":"function","name":"initialize","inputs":[{"name":"_initialAdmin","type":"address","internalType":"address"},{"name":"_smartAssetAddress","type":"address","internalType":"address"},{"name":"_storeAddress","type":"address","internalType":"address"}],"outputs":[],"stateMutability":"nonpayable"},{"type":"function","name":"isTrustedForwarder","inputs":[{"name":"forwarder","type":"address","internalType":"address"}],"outputs":[{"name":"","type":"bool","internalType":"bool"}],"stateMutability":"view"},{"type":"function","name":"paused","inputs":[],"outputs":[{"name":"","type":"bool","internalType":"bool"}],"stateMutability":"view"},{"type":"function","name":"readUpdateSmartAsset","inputs":[{"name":"_tokenId","type":"uint256","internalType":"uint256"},{"name":"_from","type":"address","internalType":"address"}],"outputs":[{"name":"","type":"uint256","internalType":"uint256"}],"stateMutability":"nonpayable"},{"type":"function","name":"renounceRole","inputs":[{"name":"role","type":"bytes32","internalType":"bytes32"},{"name":"callerConfirmation","type":"address","internalType":"address"}],"outputs":[],"stateMutability":"nonpayable"},{"type":"function","name":"revokeRole","inputs":[{"name":"role","type":"bytes32","internalType":"bytes32"},{"name":"account","type":"address","internalType":"address"}],"outputs":[],"stateMutability":"nonpayable"},{"type":"function","name":"supportsInterface","inputs":[{"name":"interfaceId","type":"bytes4","internalType":"bytes4"}],"outputs":[{"name":"","type":"bool","internalType":"bool"}],"stateMutability":"view"},{"type":"function","name":"trustedForwarder","inputs":[],"outputs":[{"name":"","type":"address","internalType":"address"}],"stateMutability":"view"},{"type":"function","name":"updateSmartAsset","inputs":[{"name":"_tokenId","type":"uint256","internalType":"uint256"},{"name":"_imprint","type":"bytes32","internalType":"bytes32"},{"name":"_issuer","type":"address","internalType":"address"},{"name":"_rewards","type":"uint256","internalType":"uint256"}],"outputs":[],"stateMutability":"nonpayable"},{"type":"event","name":"Initialized","inputs":[{"name":"version","type":"uint64","indexed":false,"internalType":"uint64"}],"anonymous":false},{"type":"event","name":"Paused","inputs":[{"name":"account","type":"address","indexed":false,"internalType":"address"}],"anonymous":false},{"type":"event","name":"RoleAdminChanged","inputs":[{"name":"role","type":"bytes32","indexed":true,"internalType":"bytes32"},{"name":"previousAdminRole","type":"bytes32","indexed":true,"internalType":"bytes32"},{"name":"newAdminRole","type":"bytes32","indexed":true,"internalType":"bytes32"}],"anonymous":false},{"type":"event","name":"RoleGranted","inputs":[{"name":"role","type":"bytes32","indexed":true,"internalType":"bytes32"},{"name":"account","type":"address","indexed":true,"internalType":"address"},{"name":"sender","type":"address","indexed":true,"internalType":"address"}],"anonymous":false},{"type":"event","name":"RoleRevoked","inputs":[{"name":"role","type":"bytes32","indexed":true,"internalType":"bytes32"},{"name":"account","type":"address","indexed":true,"internalType":"address"},{"name":"sender","type":"address","indexed":true,"internalType":"address"}],"anonymous":false},{"type":"event","name":"SmartAssetUpdateReaded","inputs":[{"name":"_tokenId","type":"uint256","indexed":true,"internalType":"uint256"}],"anonymous":false},{"type":"event","name":"SmartAssetUpdated","inputs":[{"name":"_tokenId","type":"uint256","indexed":true,"internalType":"uint256"},{"name":"_imprint","type":"bytes32","indexed":true,"internalType":"bytes32"}],"anonymous":false},{"type":"event","name":"Unpaused","inputs":[{"name":"account","type":"address","indexed":false,"internalType":"address"}],"anonymous":false},{"type":"error","name":"AccessControlBadConfirmation","inputs":[]},{"type":"error","name":"AccessControlUnauthorizedAccount","inputs":[{"name":"account","type":"address","internalType":"address"},{"name":"neededRole","type":"bytes32","internalType":"bytes32"}]},{"type":"error","name":"EnforcedPause","inputs":[]},{"type":"error","name":"ExpectedPause","inputs":[]},{"type":"error","name":"InvalidInitialization","inputs":[]},{"type":"error","name":"NotInitializing","inputs":[]}],"bytecode":{"object":"0x60a03461011057601f6111b138819003918201601f19168301916001600160401b038311848410176101145780849260209460405283398101031261011057516001600160a01b0381168103610110576080525f5160206111915f395f51905f525460ff8160401c16610101576002600160401b03196001600160401b038216016100ab575b6040516110689081610129823960805181818161048a015281816106f20152610f480152f35b6001600160401b0319166001600160401b039081175f5160206111915f395f51905f52556040519081527fc7f505b2f371ae2175ee4913f4499e1f2633a7b5936321eed1cdaeb6115181d290602090a15f610085565b63f92ee8a960e01b5f5260045ffd5b5f80fd5b634e487b7160e01b5f52604160045260245ffdfe6080806040526004361015610012575f80fd5b5f3560e01c90816301ffc9a714610a675750806320ec4e78146108d6578063248a9ca31461089f5780632f2ff15d1461085557806332cb25be1461077a57806336568abe14610726578063572b6c05146106d25780635c975abb146106915780637aa9ddfa146104b95780637da0a877146104755780638e2729cb1461043f57806391d14854146103ea5780639da3e015146103c4578063a217fddf146103aa578063c0c53b8b14610153578063d547741f146101025763dd73563d146100d7575f80fd5b346100fe575f3660031901126100fe5760206040515f516020610fb35f395f51905f528152f35b5f80fd5b346100fe5760403660031901126100fe57610151600435610121610aba565b9061014c610147825f525f516020610fd35f395f51905f52602052600160405f20015490565b610ccd565b610e9c565b005b346100fe5760603660031901126100fe5761016c610ad0565b610174610aba565b61017c610ae6565b905f516020610ff35f395f51905f52549260ff8460401c16159367ffffffffffffffff8116801590816103a2575b6001149081610398575b15908161038f575b506103805767ffffffffffffffff1981166001175f516020610ff35f395f51905f525584610354575b5060ff5f516020610ff35f395f51905f525460401c1615610345576102519060ff197fcd5ed15c6e187e77e9aee88184c21f4f2182ab5827cb3b7e07fbedcd63f0330054167fcd5ed15c6e187e77e9aee88184c21f4f2182ab5827cb3b7e07fbedcd63f0330055610d29565b5060018060a01b03166bffffffffffffffffffffffff60a01b5f516020610fb35f395f51905f525416175f516020610fb35f395f51905f525560018060a01b03166bffffffffffffffffffffffff60a01b7f14767ed6d2dd5e021cb082325b8af1b056ecc4a79dfabd36e244f0d0d51ef2015416177f14767ed6d2dd5e021cb082325b8af1b056ecc4a79dfabd36e244f0d0d51ef201556102ee57005b68ff0000000000000000195f516020610ff35f395f51905f5254165f516020610ff35f395f51905f52557fc7f505b2f371ae2175ee4913f4499e1f2633a7b5936321eed1cdaeb6115181d2602060405160018152a1005b631afcd79f60e31b5f5260045ffd5b68ffffffffffffffffff191668010000000000000001175f516020610ff35f395f51905f5255846101e5565b63f92ee8a960e01b5f5260045ffd5b905015866101bc565b303b1591506101b4565b8691506101aa565b346100fe575f3660031901126100fe5760206040515f8152f35b346100fe5760203660031901126100fe5760206103e2600435610b90565b604051908152f35b346100fe5760403660031901126100fe57610403610aba565b6004355f525f516020610fd35f395f51905f5260205260405f209060018060a01b03165f52602052602060ff60405f2054166040519015158152f35b346100fe5760203660031901126100fe576004355f525f5160206110135f395f51905f52602052602060405f2054604051908152f35b346100fe575f3660031901126100fe576040517f00000000000000000000000000000000000000000000000000000000000000006001600160a01b03168152602090f35b346100fe5760803660031901126100fe576024356004356104d8610ae6565b6104e0610c3f565b5f516020610fb35f395f51905f525460405163a4e2ee1160e01b81526004810184905290602090829060249082906001600160a01b03165afa908115610686575f91610644575b506001600160a01b039081169116036105ec576040516040810181811067ffffffffffffffff8211176105d857604052828152600160208201428152835f525f5160206110135f395f51905f5260205260405f209251835551910155805f527f14767ed6d2dd5e021cb082325b8af1b056ecc4a79dfabd36e244f0d0d51ef20260205260643560405f20557f3a4ec416703c36a61a4b1f690847f1963a6829eac0b52debd40a23b66c142a565f80a3005b634e487b7160e01b5f52604160045260245ffd5b60405162461bcd60e51b815260206004820152602a60248201527f417269616e6565536d61727441737365745570646174653a20496e76616c6964604482015269010302fb4b9b9bab2b9360b51b6064820152608490fd5b90506020813d60201161067e575b8161065f60209383610afc565b810103126100fe57516001600160a01b03811681036100fe5784610527565b3d9150610652565b6040513d5f823e3d90fd5b346100fe575f3660031901126100fe57602060ff7fcd5ed15c6e187e77e9aee88184c21f4f2182ab5827cb3b7e07fbedcd63f0330054166040519015158152f35b346100fe5760203660031901126100fe5760206106ed610ad0565b6040517f00000000000000000000000000000000000000000000000000000000000000006001600160a01b039081169216919091148152f35b346100fe5760403660031901126100fe5761073f610aba565b6001600160a01b0361074f610f45565b166001600160a01b0382160361076b5761015190600435610e9c565b63334bd91960e11b5f5260045ffd5b346100fe5760203660031901126100fe576024600435602060018060a01b035f516020610fb35f395f51905f52541660405193848092631c30c6bf60e21b82528560048301525afa908115610686575f91610820575b608092506107df821515610b1e565b5f9081525f5160206110135f395f51905f52602090815260409182902080546001909101548351821515815292830191909152918101929092526060820152f35b90506020823d60201161084d575b8161083b60209383610afc565b810103126100fe5760809151906107d0565b3d915061082e565b346100fe5760403660031901126100fe57610151600435610874610aba565b9061089a610147825f525f516020610fd35f395f51905f52602052600160405f20015490565b610deb565b346100fe5760203660031901126100fe5760206103e26004355f525f516020610fd35f395f51905f52602052600160405f20015490565b346100fe5760403660031901126100fe576004355f60206108f5610aba565b6108fd610c3f565b5f516020610fb35f395f51905f525460405163405276ed60e11b8152600481018690526001600160a01b039283166024820152938492604492849291165af1908115610686575f91610a2c575b50156109d657806020915f527f14767ed6d2dd5e021cb082325b8af1b056ecc4a79dfabd36e244f0d0d51ef202825260405f2054815f527f14767ed6d2dd5e021cb082325b8af1b056ecc4a79dfabd36e244f0d0d51ef20283525f6040812055604051917fb23d41f9725aad0b1a3429b3320aab26b653231304c19aa7b3be7c9d2b37e0a85f80a28152f35b60405162461bcd60e51b815260206004820152602860248201527f417269616e6565536d61727441737365745570646174653a204e6f7420616e2060448201526737b832b930ba37b960c11b6064820152608490fd5b90506020813d602011610a5f575b81610a4760209383610afc565b810103126100fe575180151581036100fe578261094a565b3d9150610a3a565b346100fe5760203660031901126100fe576004359063ffffffff60e01b82168092036100fe57602091637965db0b60e01b8114908115610aa9575b5015158152f35b6301ffc9a760e01b14905083610aa2565b602435906001600160a01b03821682036100fe57565b600435906001600160a01b03821682036100fe57565b604435906001600160a01b03821682036100fe57565b90601f8019910116810190811067ffffffffffffffff8211176105d857604052565b15610b2557565b60405162461bcd60e51b815260206004820152603760248201527f417269616e6565536d61727441737365745570646174653a205468697320536d60448201527f617274417373657420646f6573206e6f742065786973740000000000000000006064820152608490fd5b805f525f5160206110135f395f51905f5260205260405f205480155f14610c3a57505f516020610fb35f395f51905f5254604051631c30c6bf60e21b81526004810192909252602090829060249082906001600160a01b03165afa908115610686575f91610c08575b50610c05811515610b1e565b90565b90506020813d602011610c32575b81610c2360209383610afc565b810103126100fe57515f610bf9565b3d9150610c16565b905090565b610c47610f45565b6001600160a01b0381165f9081527f31058941e1e7e2206d669e73d9d8ec62b5a5d91fe10b4e31bec209835d52156f602052604090205460ff1615610c895750565b63e2517d3f60e01b5f9081526001600160a01b03919091166004527f7c58c52c6ee36b58d66053b60f9071543575bb40c49fb6188a64738ae98ca57b602452604490fd5b610cd5610f45565b815f525f516020610fd35f395f51905f5260205260405f2060018060a01b0382165f5260205260ff60405f20541615610d0c575050565b63e2517d3f60e01b5f5260018060a01b031660045260245260445ffd5b6001600160a01b0381165f9081527fb7db2dd08fcb62d0c9e08c51941cae53c267786a0b75803fb7960902fc8ef97d602052604090205460ff16610de6576001600160a01b038181165f9081527fb7db2dd08fcb62d0c9e08c51941cae53c267786a0b75803fb7960902fc8ef97d60205260409020805460ff19166001179055610db1610f45565b16906001600160a01b03165f7f2f8788117e7eff1d82e926ec794901d17c78024a50270940304540a733656f0d8180a4600190565b505f90565b5f8181525f516020610fd35f395f51905f52602090815260408083206001600160a01b038616845290915290205460ff16610e96575f8181525f516020610fd35f395f51905f52602090815260408083206001600160a01b0386811685529252909120805460ff19166001179055610e61610f45565b16916001600160a01b0316907f2f8788117e7eff1d82e926ec794901d17c78024a50270940304540a733656f0d5f80a4600190565b50505f90565b5f8181525f516020610fd35f395f51905f52602090815260408083206001600160a01b038616845290915290205460ff1615610e96575f8181525f516020610fd35f395f51905f52602090815260408083206001600160a01b0386811685529252909120805460ff19169055610f10610f45565b16916001600160a01b0316907ff6391f5c32d9c69d2a47ea670b442974b53935d1edc7fd64eb21e047a839171b5f80a4600190565b337f00000000000000000000000000000000000000000000000000000000000000006001600160a01b03161480610fa7575b15610fa3576013193601368111610f8f573560601c90565b634e487b7160e01b5f52601160045260245ffd5b3390565b506014361015610f7756fe14767ed6d2dd5e021cb082325b8af1b056ecc4a79dfabd36e244f0d0d51ef20002dd7bc7dec4dceedda775e58dd541e08a116c6c53815c0bd028192f7b626800f0c57e16840df040f15088dc2f81fe391c3923bec73e23a9662efc9c229c6a0014767ed6d2dd5e021cb082325b8af1b056ecc4a79dfabd36e244f0d0d51ef203a2646970667358221220a2dfc58ec66c4b241fbc1b307e47b67af8e83dfe1dd04578c74b60c67f077da664736f6c634300081c0033f0c57e16840df040f15088dc2f81fe391c3923bec73e23a9662efc9c229c6a00","linkReferences":{}},"methodIdentifiers":{"ArianeeSmartAssetUpdateStorageV0Location()":"dd73563d","DEFAULT_ADMIN_ROLE()":"a217fddf","getImprint(uint256)":"9da3e015","getRoleAdmin(bytes32)":"248a9ca3","getUpdate(uint256)":"32cb25be","getUpdatedImprint(uint256)":"8e2729cb","grantRole(bytes32,address)":"2f2ff15d","hasRole(bytes32,address)":"91d14854","initialize(address,address,address)":"c0c53b8b","isTrustedForwarder(address)":"572b6c05","paused()":"5c975abb","readUpdateSmartAsset(uint256,address)":"20ec4e78","renounceRole(bytes32,address)":"36568abe","revokeRole(bytes32,address)":"d547741f","supportsInterface(bytes4)":"01ffc9a7","trustedForwarder()":"7da0a877","updateSmartAsset(uint256,bytes32,address,uint256)":"7aa9ddfa"},"storageLayout":{"storage":[],"types":{}},"id":85}